:100000000C94A2030C94E9030C94E9030C94E90307
:100010000C94E9030C94E9030C94E9030C94E903B0
:100020000C94E9030C94E9030C9401280C94D32854
:100030000C941A1F0C94E9030C94E9030C94E90343
:100040000C94E9030C94E9030C94E9030C94E90380
:100050000C94E9030C94821F0C94E9030C94E903BB
:100060000C94E9030C94E9030C94E9030C94E90360
:100070000C94E9030C94E9030C94E9030C94E90350
:100080000C94E9030C94E9030C94E9030C94E90340
:100090000C94E9030C94E9030C94E9030C94E90330
:1000A0000C94E9030C94E9030C94E90369146914B2
:1000B0009B149B14E1140115601660164315E0159E
:1000C000F115F1155016601660165916E216E21673
:1000D000F416F416EB16F416F416F416E216E216FD
:1000E000F016F416F416F01640296729592A6729E4
:1000F000592AB329D629592A2C2A3B2A29001E001D
:100100001F0020002100220035006500230024008C
:100110002500260027002A00390014001A000800D4
:10012000150017002F0030001C0018000C001200F2
:10013000130031002B0004001600070009000A001C
:10014000000000000B000D000E000F003300340013
:10015000E1001D001B0006001900050000570157B3
:1001600011001000360037003800E500E000E30021
:10017000E2002D002E0000000000000000005000F2
:10018000510052004F00E400000028422A412C6137
:100190004C00490046004A004D00025828722A00CF
:1001A0002971000001003A003B003C003D003E0088
:1001B000440045003F004000410042004300010070
:1001C000010000000000000000000000010001002C
:1001D0004B004A0052004D000000010001000000E9
:1001E000E200E100E0000000000000004E005000CE
:1001F00051004F0000000100010003530000000007
:1002000000000000010001000000000000000000EC
:1002100000000100010001000100010001000000D8
:1002200000000000000001000100010001000100C9
:100230000000010001000100010001000100B50003
:10024000B9000100010001000100000001003A00B6
:100250003B003C003D003E004400450000005300D0
:10026000540055005600010001000000F400F000A9
:10027000F500F900010001004B00240025002600D4
:100280005700010001000000F200F100F300FA0045
:10029000000000004E002100220023005700010052
:1002A00001000353000000000000000001000100F5
:1002B00000001E001F002000580001000100010086
:1002C000010001000100000000000000000000002B
:1002D0002700370058000100000001000100010064
:1002E0000100B300B20001000100010001000100A3
:1002F00001000000000000000000000000000000FD
:1003000000000000000000000000000000000000ED
:1003100000000000000000000000000000000000DD
:1003200000000000000000000000000000000000CD
:1003300000000000000000000000000000000000BD
:1003400000000000000000000000000000000000AD
:10035000000000000000000000000000000000009D
:10036000000000000000000000000000000000008D
:10037000000000000000000000000000000000007D
:1003800000000451045100000000000000000000C3
:10039000000000000000000000000000000000005D
:1003A000000000000000000000000000000000004D
:1003B000000000000000000000000000000000003D
:1003C000000000000000000000000000000000002D
:1003D000000000000000000000000000000000001D
:1003E000000000000000000000000000000000000D
:1003F00000000353000000000000000000000000A7
:1004000000000000000000000000000000000000EC
:1004100000000000000000000000000000000000DC
:1004200000000000000000000000000000000000CC
:1004300000000000000000000000000000000000BC
:100440000000000000000000000000002A2B28002F
:100450000000000000000000000000000000002973
:10046000000000002C1E3420212224342627252EB3
:10047000362D3738271E1F202122232425263333EB
:10048000362E37381F0405060708090A0B0C0D0E17
:100490000F101112131415161718191A1B1C1D2FE3
:1004A0003130232D350405060708090A0B0C0D0E03
:1004B0000F101112131415161718191A1B1C1D2FC3
:1004C0003130354C0000000000000000000000004A
:1004D000000000000000000000000000000000001C
:1004E000000000000000000000000000000000000C
:1004F00000000000000000000000000000000000FC
:1005000000000000000000000000000000000000EB
:1005100000000000000000000000000000000000DB
:1005200000000000000000000000000000000000CB
:1005300000000000000000000000000000000000BB
:1005400000000000000000000000000000000000AB
:10055000000000000000000000000000000000009B
:100560000000000000010101010101000101010181
:10057000000000000000000000000000000001007A
:10058000010001010101010101010101010101015C
:10059000010101010101010101010101010101004C
:1005A0000000010100000000000000000000000049
:1005B000000000000000000000000000000000013A
:1005C0000101010004033000000012034500720025
:1005D00067006F0044006F006E00650000001203AA
:1005E0004B002E0054002E0045002E0043002E002C
:1005F00000000403090409023B00020100A0FA09FB
:100600000400000103010100092111010001224041
:10061000000705810308000A090401000103000026
:100620000009211101000122C000070582032000FA
:100630000A1201100100000008EDFE0DE6010001A4
:1006400002030105010902A10185020901A10005BA
:1006500009190129051500250195057501810295E6
:1006600001750381010501093009311581257F9547
:10067000027508810609381581257F950175088165
:1006800006050C0A38021581257F9501750881063B
:10069000C0C005010980A1018503160100260300E1
:1006A0001A81002A8300751095018100C0050C098C
:1006B00001A1018504160100269C021A01002A9C52
:1006C00002751095018100C005010906A10185058B
:1006D000050719E029E71500250195087501810234
:1006E0000508190129059505750191029501750304
:1006F00091010507190029EF1500250195F07501F5
:100700008102C005010906A101050719E029E715C5
:100710000025019508750181029501750881010583
:100720000819012905950575019102950175039137
:10073000010507190029FF150026FF009506750819
:100740008100C00011241FBECFEFDAE0DEBFCDBFB5
:1007500004B603FE27C08091B2029091B302A0912B
:10076000B402B091B5028730904BA740B04BD1F4A2
:100770001092B2021092B3021092B4021092B5021B
:1007800014BE84B7877F84BF0FB6F894A895809174
:100790006000886180936000109260000FBEE0E00E
:1007A000F8E3099511E0A0E0B1E0E8ECFBE502C058
:1007B00005900D92A834B107D9F722E0A8E4B1E082
:1007C00001C01D92A23BB207E1F70E9425250C94BF
:1007D000E22D0C9400001092B9008AE08093B800DA
:1007E000089594EA9093BC009091BC0097FFFCCFD1
:1007F0009091B900987F983021F0903111F081E00C
:1008000008958093BB0084E88093BC008091BC0075
:1008100087FFFCCF8091B900887F883111F0803448
:1008200071F780E008950C94F10384E98093BC0093
:100830008091BC0084FDFCCF08958093BB0084E8C8
:100840008093BC008091BC0087FFFCCF9091B900E1
:10085000987F81E0983209F480E0089584E88093DD
:10086000BC008091BC0087FFFCCF8091BB00089545
:1008700080B38F7080BB81B38F7081BB84B1897F5F
:1008800084B985B1897F85B90C94C6056E98769A2E
:100890008AB183768AB98BB18C698BB93E98469AB6
:1008A00024982C9A0C94FB050C94DA060E943804C8
:1008B0000E944604ECE9F1E088E491E01192119283
:1008C00020E030E0DC01A20FB31F1C922F5F3F4FEE
:1008D0002E303105B9F70E9621E08C39920771F769
:1008E0000C9497080E9438040E944604ECE9F1E059
:1008F000118210821382128215821482178216824C
:10090000118610861386128608959EE0899FB00195
:10091000112420E030E040E050E0A1E0B0E0F90137
:10092000E60FF71FE85BFE4F9081992319F0915075
:10093000908309C0CD01022E02C0880F991F0A942E
:10094000E2F7482B592B2F5F3F4F2E30310539F7F7
:10095000CA010895CF932EE0629FB001112420E0D8
:1009600030E0A1E0B0E0C5E0AD01022E02C0440FCE
:10097000551F0A94E2F748235923452B31F0F9011A
:10098000E60FF71FE85BFE4FC0832F5F3F4F2E300F
:10099000310551F7CF9108954F925F926F927F92F8
:1009A0008F929F92AF92BF92CF92DF92EF92FF927F
:1009B0000F931F93CF93DF930E94E1054CE9842EA0
:1009C00041E0942E10E001E0133099F028F411304A
:1009D00051F0123059F004C0143071F0153079F034
:1009E000849A8C980EC0859A8D980BC0869A8E98A2
:1009F00008C0879A8F9805C0219A299802C0229A28
:100A00002A98812F0E94CA0580EA8A95F1F7812FE2
:100A10000E948504EC010E942C066C014B9904C0D5
:100A200030E4E32EF12C02C0E12CF12C4A9903C0F2
:100A300060E270E002C060E070E04C9903C0A0E1A9
:100A4000B0E002C0A0E0B0E0369904C028E0422E39
:100A5000512C02C0412C512C29B1022E000C330B19
:100A6000209530952227330F221F3327220F331F63
:100A7000220F331F669903C042E050E002C040E0FD
:100A800050E083B1F401A080B18082958F708027FF
:100A900080FB662460F8712CC628D728EC28FD2836
:100AA000E62AF72AAE29BF29F201EA2BFB2B2E2BCF
:100AB0003F2B422B532B4C235D23C095D095CA214D
:100AC000DB21C42BD52B612FCE018A259B250E94CB
:100AD000AA04F401C193D1934F010E9438041F5F0F
:100AE000163009F071CF0E94A10881E0DF91CF910B
:100AF0001F910F91FF90EF90DF90CF90BF90AF903C
:100B00009F908F907F906F905F904F900895E82F07
:100B1000F0E0EE0FFF1FE456FE4F808191810895B3
:100B20000895853008F08F5F2091A80130E0A90179
:100B300002C0559547958A95E2F7CA0181700895DC
:100B40000F931F93CF93DF931F92CDB7DEB7909192
:100B5000A9019923A1F0062F182F80E40E94F10328
:100B6000811108C0812F0E941D04811103C0802FB4
:100B70000E941D0489830E9415048981982F892F62
:100B80000F90DF91CF911F910F9108956FEF81E04A
:100B90000C94A0058F5F61E070E001C0660F8A953C
:100BA000EAF7609581E00C94A0056FEF82E00E9467
:100BB000A0056FEF8CE00E94A0056FEF81E00C9420
:100BC000A00580E40E94F10381110CC00E9415046D
:100BD0008091A90181110EC081E08093A9010E943A
:100BE000D50506C08091A901813021F41092A90198
:100BF0000C94D21608950E94EB030C94E1050F9318
:100C00001F93CF93DF93C091A901CC23D1F08B0127
:100C1000D82F80E40E94F103C82F811110C08D2FBE
:100C20000E941D04C82F81110AC081E40E94130490
:100C3000C82F811104C00E942E04F80180830E94F5
:100C400015048C2FDF91CF911F910F91089568EAC1
:100C500071E082E10C94FF058F929F92AF92BF9258
:100C6000FF920F931F93CF93DF930E942706CDE04F
:100C7000D0E000E010E08DE0F82E812C912C5401A2
:100C800083948F2D8C1B0E949105882361F0D501E0
:100C9000C4010C2E04C0880F991FAA1FBB1F0A9401
:100CA000D2F7082B192B219760F7C801DF91CF915C
:100CB0001F910F91FF90BF90AF909F908F900895DC
:100CC00084B1886684B985B1877985B9209A289AD4
:100CD000559A5D9A089525982D9826982E982398D0
:100CE0002B982098289A259A2D9A2FEF80E792E04A
:100CF000215080409040E1F700C00000269A2E9AD3
:100D00002FEF80E792E0215080409040E1F700C053
:100D10000000239A2B9A2FEF80E792E02150804029
:100D20009040E1F700C0000025982D982FEF80E754
:100D300092E0215080409040E1F700C000002698EA
:100D40002E982FEF80E792E0215080409040E1F70D
:100D500000C0000023982B9825982D9826982E984F
:100D600023982B982098289A08950E9460060E9444
:100D70006B060C94D9068091AC01813021F030F0E3
:100D8000823021F0089586E392E002C086E292E08C
:100D90000C94C9078091AC01813021F030F0823091
:100DA00021F0089587E392E002C087E292E00C947C
:100DB000C90708950E94C20F60913B0270913C02E6
:100DC00080913D0290913E020E943D1D2098289AFC
:100DD00025982D9826982E9823982B98823039F0B4
:100DE000833041F08130B1F4259A2D9A13C0269AB0
:100DF0002E9A10C08091AA019091AB010196909318
:100E0000AB018093AA0191FF0BC0259A2D9A269AD7
:100E10002E9A04C00E941B1181FF02C0239A2B9AB4
:100E20000895FC018081813031F48185811108C0F1
:100E3000828590E00895823031F083E090E008955B
:100E400080E090E0089582E090E008950E9411070C
:100E50008093AC01813021F050F0823021F0089570
:100E600086E392E006C086E292E00E94DF0786E217
:100E700092E00C94B3070E9411078093AC0181307B
:100E800021F050F0823021F0089587E392E006C00F
:100E900087E292E00E94DF0787E292E00C94B307BA
:100EA0000F931F93CF93DF939C013A9521153F41F8
:100EB00048F5EB018C0190FF03C080EEFB01099522
:100EC00011FF03C081EEFE01099512FF03C082EEFF
:100ED000FE01099513FF03C083EEFE01099501157C
:100EE000104180F084EEFE01099585EEFE01099522
:100EF00086EEFE01099587EEFE01DF91CF911F91ED
:100F00000F910994DF91CF911F910F9108958770F0
:100F100091E001C0990F8A95EAF7892F0E94A01CE1
:100F20000C94D91C877091E001C0990F8A95EAF75B
:100F3000892F0E94A01C0C94D91C877091E001C0DD
:100F4000990F8A95EAF7892F0E94A61C0C94D91C48
:100F5000877091E001C0990F8A95EAF7892F0E9466
:100F6000A61C0C94D91CCF93DF93EC01805E9109F1
:100F7000089710F0209719F462E977E002C067E85B
:100F800077E0CE010E9450078C2FDF91CF910C9417
:100F90009012CF93DF93EC010E94AE13CE01805EDE
:100FA0009109089710F0209719F468EA77E002C0D9
:100FB0006DE977E0CE01DF91CF910C945007CF938C
:100FC000DF93EC010E94B307CE01DF91CF910C9427
:100FD000C90781E0089581E008950C94EB071F9301
:100FE000CF93DF9300D000D01F92CDB7DEB74983F7
:100FF0005A832091CB0189819A81211112C06623E5
:1010000049F00E94071C182F682F89819A810E943D
:10101000AC1B03C00E94DB1B182F69817A81812FD2
:1010200004C00E94071C69817A810F900F900F9075
:101030000F900F90DF91CF911F910C94920AFC01B9
:10104000408151816281738184810C94EF071F93E9
:10105000CF93DF93282F30E0F901EC5BFB4F149125
:10106000F901EC5BFA4FE491C1E0E11101C0C0E08D
:10107000F901EC53FB4F2491D1E0211101C0D0E0E4
:10108000CC2319F081EE0E949012DD2319F086EE38
:101090000E949012812F0E941614DD2319F086EE13
:1010A0000E94AE13CC2331F081EEDF91CF911F91DE
:1010B0000C94AE13DF91CF911F910895FF920F937F
:1010C0001F93CF93DF93EC01F62E8881882331F1B3
:1010D0008E010F5F1F4F813031F4C9818C2F0E9428
:1010E00090128C2F0AC0823029F489810E949012BC
:1010F000E80108C0833021F489810E94AE13F8CF43
:101100000E94270821968F2D8823F9F2EFE9FFE04E
:101110003197F1F700C000008150F6CFDF91CF91F9
:101120001F910F91FF90089560E00C945E080E945B
:101130008D1D811102C00E94371E0E944D0D0C941E
:10114000B5060E94FC0E0C945404282F2F7041F019
:10115000822F90E02A3010F44D9608950697089556
:1011600087E290E0089508950C94B3080C94B408B5
:1011700008950E94D2160E94B8082FEF84E39CE0E5
:10118000215080409040E1F700C000000C94A81F5F
:101190000F931F93CF93DF938C010E941F08EC01E4
:1011A000B8010E945C0EB801CE010E94ED078823B1
:1011B00009F4AEC1B801CE010E94A00E882309F443
:1011C000A7C1B801CE010E94C10D882309F4A0C1B6
:1011D000B801CE010E94FC0F882309F499C1B8011F
:1011E000CE010E94D510882309F492C1C631FCE5D6
:1011F000DF0739F50E94871C282FF8018281409172
:10120000300150913101882379F02A7A91E009F474
:1012100090E09093AD01911102C069E201C065E3D5
:10122000CA010E949E1E0AC08091AD01811102C0B8
:1012300069E201C065E3CA010E94A91E0E94D91C8F
:1012400067C1C7318CE5D80708F037C1C130ECE57C
:10125000DE0771F4F8018281882309F459C1809175
:101260006802982F909590FB80F98093680250C196
:10127000C230FCE5DF0708F40FC1F8018281882342
:1012800009F40DC10E948D1D811102C00E94371EFC
:101290000E94AA1D9093A4028093A302CF30FCE584
:1012A000DF0709F4CDC008F042C0C830ECE5DE0726
:1012B00009F4A8C0F0F4C4308CE5D80709F490C054
:1012C00068F4C230FCE5DF0709F486C0C330DC45B2
:1012D00009F0D9C08091A3028260D3C0C630ECE58A
:1012E000DE0709F487C008F089C08091A3028860F6
:1012F000C8C0CB308CE5D80709F493C068F4C93076
:10130000FCE5DF0709F482C0CA30DC4509F0BBC048
:101310008091A30288607EC0CD30ECE5DE0709F441
:1013200084C008F085C08091A3028D7FAAC0C73F0A
:101330008CE5D80709F457C050F5C231FCE5DF074A
:1013400009F486C068F4C031ECE5DE0709F47CC01E
:10135000C131DC4509F097C08091A3028F7B91C019
:10136000C4318CE5D80709F483C008F475C0C531D1
:10137000DC4509F088C08091A30282FB222720F976
:1013800091E0922790FB82F990FB83F97AC0CA3FE3
:101390008CE5D80709F450C058F4C83FFCE5DF07D6
:1013A00029F1C93FDC4509F06EC08091A4025CC000
:1013B000CC3FECE5DE0709F454C070F1CD3FDC45CD
:1013C00009F061C08091A402982F909591708E7F52
:1013D000892B90FB81F949C08091A302816051C0A3
:1013E0008091A30217C08091A40219C08091A40229
:1013F00082603BC08091A302806143C08091A302C0
:1014000080623FC08091A30280643BC08091A302B0
:10141000806837C0846035C08091A402826081609A
:1014200024C08091A3028E7F2CC08091A30217C09C
:101430008091A302877F25C08091A4028D7F15C073
:101440008091A3028F7E1DC08091A3028F7D19C061
:101450008091A3028F7715C08091A302877F8B7F35
:1014600010C08091A4028D7F8E7F8093A4020BC058
:101470008091A30287FB222720F991E0922790FB1D
:1014800087F98093A3028091A3029091A4020E9405
:10149000BB1D0E94D2163CC0C115DC4539F0C80105
:1014A000DF91CF911F910F910C94E907F801828190
:1014B000882371F10E94B9082BC0CE3DECE5DE0710
:1014C00039F4F8018281882319F10E94371E20C067
:1014D000CF3DFCE5DF07A8F4CC3D8CE5D80731F41F
:1014E000F80182818823A1F080E008C0CD3DDC4571
:1014F000B1F6F8018281882359F082E00E94C42568
:1015000007C0CE01875F9C45079708F4B6CEC7CFCA
:1015100080E0DF91CF911F910F91089580E090E0DE
:10152000089508959EE0799FF001112494E5899F24
:10153000E00DF11D1124E60FF11DEE0FFF1FE45029
:10154000FF4F859194910895880F991FFC01EC53EA
:10155000FA4F859194910895CF93DF930E94920A58
:101560000E94610CEC01811520E59207F0F58115D0
:1015700030E4930708F024C1883E910500F5803ED1
:10158000910508F09AC1883A910570F4853A910561
:1015900008F09FC08130910509F48FC108F440C163
:1015A000049708F08AC13CC18F3B910508F49CC0A8
:1015B000803C910508F434C1805C9109F4C0811528
:1015C00040E2940758F4C11581E0D80708F075C1CE
:1015D000C03FD10508F424C1D0656FC1811520E357
:1015E000920708F0E4C09F70DEC0811535E59307CF
:1015F00008F044C0811544E5940708F0F8C0C1150F
:1016000082E5D80708F5C11521E5D20708F0DBC04F
:101610008C2F837021E030E002C0220F331F8A95A7
:10162000E2F73C68CE0174E0969587957A95E1F7EC
:101630008370382BCF70C695C69580E2C89FE001B5
:101640001124C22BD32B39C12C2F26952695CE01E0
:1016500083709927C115D34508F0BAC040E2249F92
:1016600090011124C1E0D0E002C0CC0FDD1F8A95AB
:10167000E2F72C2B3D2BE901DC681FC1811549E500
:101680009407A0F4C11588E5D80708F0B5C0C115C6
:1016900026E5D20708F0C4C08C2F0E94F50C8F718C
:1016A000C82FD0E0DC2FCC27D06207C181153AE5E6
:1016B000930708F4A6C090568115904208F0B0C078
:1016C0008D2F8F710E94F50CDD27D0628F71D82B82
:1016D000F4C0853A910509F4A6C0863A910509F04F
:1016E000A5C0C2E8D0E4E9C0883A910509F4A1C0D8
:1016F000893A910509F4A0C08A3A910509F49FC07E
:101700008B3A910509F49EC08C3A910509F49DC06D
:101710008B3B910509F49CC08C3B910509F49BC05F
:101720008D3A910509F49AC0803B910509F499C05E
:101730008E3A910509F498C08F3A910509F497C043
:10174000813B910509F496C0823B910509F495C04F
:10175000833B910509F494C0843B910509F493C03F
:10176000853B910509F492C0863B910509F491C02F
:10177000873B910509F490C0883B910509F48FC01F
:10178000893B910509F48EC08D3B910509F48DC00C
:101790008E3B910509F48CC08A3B910509F48BC0FE
:1017A000C0E0D4E48AC00E94A40AEC0186C0992754
:1017B000D3FF03C0EC01D86C80C0EC01D06C7DC0BD
:1017C000DF70D06A7AC0DC2FCC27C16FD06A75C0B9
:1017D00040E2249F90011124C1E0D0E002C0CC0F70
:1017E000DD1F8A95E2F7C22BD32BDA6866C0D82FAB
:1017F000CC27C46FD06A61C0DC2FCC27C06FD06A01
:101800005CC08F700E94F50C94E0D695C7959A95B0
:10181000E1F7CF70D0E0DC2FCC27D069C82B4DC0CA
:10182000C0E0D0E04AC0C1E8D0E447C0C3E8D0E49B
:1018300044C0C2EED4E441C0C9EED4E43EC0CAEE16
:10184000D4E43BC0C5EBD4E438C0C6EBD4E435C027
:10185000C3EBD4E432C0C4EBD4E42FC0C7EBD4E470
:101860002CC0CCECD4E429C0CDECD4E426C0C3E831
:10187000D5E423C0CAE8D5E420C0C2E9D5E41DC040
:10188000C4E9D5E41AC0C1E2D6E417C0C3E2D6E485
:1018900014C0C4E2D6E411C0C5E2D6E40EC0C6E26C
:1018A000D6E40BC0C7E2D6E408C0CFE6D4E405C056
:1018B000C0E7D4E402C0CAE2D6E4CE01DF91CF9102
:1018C00008958238910569F1B0F48133910509F4E6
:1018D0006DC048F48932910509F463C08A329105DC
:1018E00009F469C008958533910509F455C0893319
:1018F0009105B9F00895833E910569F138F4803E71
:101900009105B1F0823E910509F10895863E910559
:10191000A9F1873E9105B9F1843E910509F064C0B3
:1019200023C02091A30220FD4FC021FD4DC008958A
:101930008091A30280FD44C08091A40280FF44C036
:101940008091A30284FD42C083EE4DC08091A3022A
:1019500082FF38C0F5CF8091A30282FD33C0809111
:10196000A40280FD31C0ECCF8091A40281FF32C07F
:101970008091A30284FD2AC087EE35C08091A30226
:1019800083FF26C0F5CF8091A30283FD21C0809103
:10199000A40281FD1FC0ECCF8091A30285FD1CC075
:1019A0001DC08091A30285FD19C016C08091A302BD
:1019B00086FD16C017C08091A30286FD13C010C01B
:1019C00089E311C082EE0FC080EE0DC080E00BC035
:1019D00086EE09C084EE07C089E205C085E303C036
:1019E0008AE201C081E390E008959091A30292FF02
:1019F0000DC0282F2871283019F4877F846006C015
:101A0000282F2471243011F48B7F886093FF0DC040
:101A1000282F2871283119F4877E846106C0282F69
:101A20002471243111F48B7E88612091A40220FF5F
:101A30000DC0382F3871383019F4877F816006C0A7
:101A4000382F3171313011F48E7F886021FF0DC045
:101A5000282F2871283119F4877E816106C0282F2C
:101A60002171213111F48E7E886194FD877E089565
:101A7000CF93DF9397FF0DC0FB012281222349F012
:101A8000EC010E94630DCE019F770E94A40D0E947D
:101A90008D0D81E0DF91CF9108958CE090E00E9460
:101AA000692D90E0A0E0B0E08093980290939902B5
:101AB000A0939A02B0939B020895609198028CE0E3
:101AC00090E00C94772D0E94871C80939C020E94CA
:101AD0009A1C80919802813071F048F0823081F038
:101AE0008430A1F486EE0E94161488E10DC082EEC7
:101AF0000E9490120BC088E193E00E94DF0706C0AD
:101B000082EE0E94901287E50E9416148FE39CE9F2
:101B10000197F1F700C0000008958091980281308C
:101B200039F040F0823031F0843051F488E206C060
:101B30008CE204C082EE0E94AE1302C00E94161412
:101B400080919C020C94971C0F931F93CF93DF936B
:101B50008C01CCE0D0E0C8010C2E02C09695879590
:101B60000A94E2F78F700E94A5080E941614249729
:101B7000CC3F8FEFD80779F7DF91CF911F910F916D
:101B800008950F931F93CF93DF93EC018B01FB011B
:101B90008281882319F1C33EFCE5DF07C1F050F4D0
:101BA000C13EECE5DE0781F0C23EFCE5DF07B1F4A3
:101BB00081E010C0C43E8CE5D80759F0C53EECE585
:101BC000DE0761F484E006C01092980205C082E04E
:101BD00001C083E0809398020E945D0DB801CE01A0
:101BE000DF91CF911F910F910C94380DCF93DF931C
:101BF000FC012189211116C0EC0181E0818B8781D4
:101C00000E948A1C88850E94A01C0E94D91CEA811F
:101C1000FB816C897D89CE010696309719F0DF91A2
:101C2000CF910994DF91CF910895EF92FF920F9396
:101C30001F93CF93DF93FC012285211136C0EC0165
:101C4000E380F480F7E5FF1A26E12E9DC0012F9D69
:101C5000900D1124DC01A050BF4F1496ED91FC9122
:101C6000159754966D917C9155978A5F9E4F30974A
:101C700009F0099586E18E9D80018F9D100D11243C
:101C800000501F4FF80187810E94901CF801808549
:101C90000E94A61C0E94D91C188219861B861E82CF
:101CA0001D821092AF011092AE01DF91CF911F9172
:101CB0000F91FF90EF900895DF92EF92FF920F93B4
:101CC0001F93CF93DF93FB012281222389F120917F
:101CD0002C012F3F69F18C01C6E0D1E0E12CF12C01
:101CE000DD24D39480912C01082E000C990B8E15C5
:101CF0009F05F4F088818823B1F08B819C810817BF
:101D0000190739F48091AE019091AF0108171907B6
:101D100051F0D9861E830D83CE0106970E94F60DE1
:101D2000CE010E94150EFFEFEF1AFF0A6696DACF7A
:101D3000DF91CF911F910F91FF90EF90DF90089569
:101D4000EF92FF920F931F93CF93DF939C01375530
:101D50002F3F310511F008F047C040912C01042EAF
:101D6000000C550B4217530714F420932C01FB0170
:101D70007C01828196E1929F8001939F100D112436
:101D8000E801C050DF4F888B92818E81992311F139
:101D9000FA86E9868F5F8E830E944C1F9E878D870F
:101DA0000E94C01C8F830E94871C88870E949D1CF4
:101DB0009885892B8887E881F9816C897D89C8019C
:101DC0008A5F9E4F309709F00995F092AF01E0923B
:101DD000AE010AC0882341F08989882329F0C8010F
:101DE0008A5F9E4F0E94150E81E0DF91CF911F9177
:101DF0000F91FF90EF900895CF92DF92EF92FF92B4
:101E00000F931F93CF93DF9380912C018F3FC1F1EC
:101E1000C0E0D6E12C2F30E080912C01082E000C80
:101E2000990B8217930764F1D29FF001D39FF00DB5
:101E30001124E050FF4FE288F388E114F10419F413
:101E400088ECE82EF12CD29F6001D39FD00C112496
:101E5000860100501F4FF8018681882379F085851F
:101E600096850E94581FE816F90640F4C8010E94A2
:101E7000F60DC6018A5F9E4F0E94150ECF5FCACF36
:101E8000DF91CF911F910F91FF90EF90DF90CF9056
:101E900008950F931F93CF93DF93CDB7DEB72897A5
:101EA0000FB6F894DEBF0FBECDBF80912F018F9388
:101EB00080912E018F9382E491E09F938F931F92E4
:101EC00088E08F938E010F5F1F4F1F930F930E9427
:101ED000BB2AC8010E9494080FB6F894DEBF0FBE5B
:101EE000CDBF28960FB6F894DEBF0FBECDBFDF91F1
:101EF000CF911F910F910895CF93DF93EC010E9432
:101F00004C1F9093B4018093B301D093B201C0935E
:101F1000B101DF91CF910895CF93DF938091B1010B
:101F20009091B201892B59F18091B3019091B40144
:101F30000E94581FEC0180912E0190912F018C1767
:101F40009D0718F481EE0E9490128091B1010E94C9
:101F500090128091B1010E94AE1380912E01909158
:101F60002F018C179D0718F481EE0E94AE1310927A
:101F7000B4011092B3011092B2011092B101DF913D
:101F8000CF9108958091B1019091B201892B19F1FF
:101F90008091B3019091B4010E94581F20912E01AD
:101FA00030912F0128173907B0F481EE0E9490126A
:101FB0008091B1010E9490128091B1010E94AE13F4
:101FC00081EE0E94AE131092B4011092B3011092F0
:101FD000B2011092B101089510922D010C948C0F52
:101FE00080912D01882321F010922D010C948C0FEB
:101FF00081E080932D0108951F93CF93DF93EC012F
:10200000FB011281112309F45BC08436910509F4A8
:1020100044C078F48B32910509F43FC028F404974A
:10202000849708F04AC039C08D970C9708F045C0D6
:1020300034C089319C4539F1CA318CE5D80768F440
:10204000C731ECE5DE07A1F0C831DC45B1F5809180
:102050002E0190912F01059710C0CB318CE5D80748
:10206000C1F0A0F0CC31DC4541F50E94EC0F09C075
:1020700080912E0190912F01059690932F018093CE
:102080002E0110E020C00E94490FFBCF0E94F00FEC
:10209000F8CF81E080932D01F4CF0E948C0F8091C6
:1020A0002D01882381F00E94871C8093B00181114B
:1020B0000AC0CE010E947C0FE4CF0E948C0F03C0A7
:1020C0000E948C0F11E0812FDF91CF911F91089515
:1020D0000F931F93CF93DF93C62FD42F022FFC01B2
:1020E00082818823C9F06093B7010E944C1F9093AE
:1020F000B6018093B50180E28C0F883008F050C0A3
:10210000C77081E001C0880FCA95EAF7DF91CF91CF
:102110001F910F910C9429141091B701161330C020
:102120008091B5019091B6010E94581F883C91059D
:1021300038F5C0E2CD0F1D17B9F080E2810F88306D
:1021400040F4177081E001C0880F1A95EAF70E94E9
:102150003014C83048F481E09D2F977001C0880F7B
:102160009A95EAF70E942914802F0E941614C8300D
:10217000B8F4D77081E001C0880FDA95EAF70AC099
:1021800080E28C0F883060F4C77081E001C0880F56
:10219000CA95EAF7DF91CF911F910F910C943014FB
:1021A000DF91CF911F910F9108959C01CB01203FAA
:1021B0004CE53407F9F078F4283DFCE53F07B9F029
:1021C000293D4CE5340711F1273D3C4531F526E228
:1021D00041EE61EE1EC0223FFCE53F0799F070F032
:1021E000233F3C45D1F427E245EE66EE12C027E2DC
:1021F00045EE0EC026E241EE60EE0BC027E245EE52
:1022000064EE07C026E241EE62EE03C028E241E040
:1022100065EE0E94681080E00895FC0182818823A9
:1022200019F01092B701089581E008959093BD01CF
:102230008093BC010895E091BC01F091BD013097FD
:1022400021F00190F081E02D099480E00895E09163
:10225000BC01F091BD01309799F0209141012223FA
:1022600059F02091A30227FF07C0DC012C911196A1
:102270002C93119725E02C930280F381E02D099493
:102280000895E091BC01F091BD01309739F022E052
:10229000DC012C930480F581E02D099408952091B0
:1022A000BA013091BB018217930771F09093BB0183
:1022B0008093BA01E091BC01F091BD01309721F00B
:1022C0000680F781E02D099408952091B80130919E
:1022D000B9018217930771F09093B9018093B80107
:1022E000E091BC01F091BD01309721F00084F185AF
:1022F000E02D0994089585B7806885BF85B780680B
:1023000085BF0895089508950C94831108950C9441
:1023100086110E947B110E9482110C94841181E02D
:1023200008950E94431F0E9456040E941820E3EA69
:10233000F2E08081806880830C9487114F925F92D5
:102340007F928F929F92AF92BF92CF92DF92EF9245
:10235000FF920F931F93CF93DF93CDB7DEB72A97EA
:102360000FB6F894DEBF0FBECDBF0E94CC040E9412
:102370008F11811111C08FEF89838A831B820E9484
:102380004C1F8160782F9D838C8349815A816B819A
:102390008D810E945C1257C09FEBC92E91E0D92E0F
:1023A00000E010E0AA24A394B12C702E802F0E948C
:1023B00087054C01F601419051906F01482659263E
:1023C0004114510431F40F5F1F4F0630110569F7B6
:1023D000D2CF8091680281FD0E94900520E030E01C
:1023E0007501022E02C0EE0CFF1C0A94E2F7C70131
:1023F00084219521892B09F12E837F828E209F20B5
:1024000091E0892809F490E098870E944C1F816030
:10241000782F9A8789874E815F8168858A850E9497
:102420005C12000F111FF801E154FE4F8081918171
:10243000E826F926F182E08206C02F5F3F4F2E305A
:10244000310571F6C0CF0E94BC221091BE010E94DE
:102450001B111817D9F00E941B118093BE012A96F8
:102460000FB6F894DEBF0FBECDBFDF91CF911F91A5
:102470000F91FF90EF90DF90CF90BF90AF909F9023
:102480008F907F905F904F900C94B6082A960FB66D
:10249000F894DEBF0FBECDBFDF91CF911F910F919A
:1024A000FF90EF90DF90CF90BF90AF909F908F9074
:1024B0007F905F904F900895CF93DF93CDB7DEB7B5
:1024C0002B970FB6F894DEBF0FBECDBF4F83588752
:1024D00069877A878B87DE01119686E0FD0111926C
:1024E0008A95E9F785E0FE01379601900D928A956D
:1024F000E1F749815A816B817C818D819E810E94A7
:102500007C192B960FB6F894DEBF0FBECDBFDF91BE
:10251000CF910895FC01808191810E94481C08950B
:10252000882309F41AC18238C1F40E941B1181FD6D
:1025300014C169E380913001909131010E949E1E87
:102540000E94D91C2FEF81EE94E0215080409040F2
:10255000E1F700C0000069E319C08338F9F40E9474
:102560001B1180FDFAC063E580913001909131012B
:102570000E949E1E0E94D91C2FEF81EE94E02150F4
:1025800080409040E1F700C0000063E58091300199
:10259000909131010E94A91E0C94D91C8438C1F479
:1025A0000E941B1182FDD9C067E480913001909197
:1025B00031010E949E1E0E94D91C2FEF81EE94E0F3
:1025C000215080409040E1F700C0000067E4DECF7A
:1025D0009CEF980F913A40F4682F809130019091D0
:1025E00031010E949E1ED8CF90E2980F983050F48F
:1025F000877091E001C0990F8A95EAF7892F0E94B0
:102600008A1CCACF9BE5980F933070F4853A29F065
:10261000863A31F083E890E005C081E890E002C09E
:1026200082E890E00C944F1198E5980F973108F0EC
:102630008EC0883A09F445C0893A09F445C08A3AFF
:1026400009F445C08B3A09F445C08C3A09F445C0F9
:102650008B3B09F445C08C3B09F445C08D3A09F425
:1026600045C0803B09F445C08E3A09F445C08F3A15
:1026700009F445C0813B09F445C0823B09F445C0DB
:10268000833B09F445C0843B09F445C0853B09F40C
:1026900045C0863B09F445C0873B09F445C0883BEB
:1026A00009F445C0893B09F445C08D3B09F445C098
:1026B0008E3B09F445C08A3B09F445C080E090E0B8
:1026C00044C082EE90E041C089EE90E03EC08AEEC8
:1026D00090E03BC085EB90E038C086EB90E035C0E1
:1026E00083EB90E032C084EB90E02FC087EB90E06A
:1026F0002CC08CEC90E029C08DEC90E026C083E8E3
:1027000091E023C08AE891E020C082E991E01DC0F9
:1027100084E991E01AC081E292E017C083E292E07E
:1027200014C084E292E011C085E292E00EC086E21D
:1027300092E00BC087E292E008C08FE690E005C00F
:1027400080E790E002C08AE292E00C946511803F3D
:1027500020F00E94C4210C94B1220895882309F42A
:1027600064C0823879F40E941B1181FF5EC069E366
:1027700080913001909131010E949E1E0E94D91CCF
:1027800069E310C08338B1F40E941B1180FF4DC073
:1027900063E580913001909131010E949E1E0E945C
:1027A000D91C63E580913001909131010E94A91EEE
:1027B0000C94D91C843879F40E941B1182FF35C017
:1027C00067E480913001909131010E949E1E0E9429
:1027D000D91C67E4E7CF9CEF980F913A10F4682F6B
:1027E000E1CF90E2980F983050F4877091E001C0EB
:1027F000990F8A95EAF7892F0E94901CD9CF9BE503
:10280000980F933020F480E090E00C944F1198E5FD
:10281000980F973120F480E090E00C946511803F90
:1028200020F00E942C220C94B1220895CF93C82F3F
:102830000E949012C93349F42FEF87EE93E02150A4
:1028400080409040E1F700C000008C2FCF910C94A5
:10285000AE13882321F00E948A1C0C94D91C089581
:10286000882321F00E94901C0C94D91C0895BF92DB
:10287000CF92DF92EF92FF920F931F93CF93DF934C
:102880007C01062FC72FFC01158112951F70D28184
:10289000D1110E94AD1C0E94801C882379F0DD2399
:1028A00069F080E2800F883048F082E00E94241DA9
:1028B0000E94801C91E0B82EB92601C0B12CCC2E0C
:1028C000C2948FE0C822D12CF601EA5AFF4F0C9433
:1028D000A12A8C2F807FCF70882311F0C295C07FF2
:1028E000DD2399F0CC2309F4C6C180E2800F883043
:1028F00010F0011104C08C2F0E948A1C03C08C2F81
:102900000E94A01C0E94D91CB6C1802F0E94AE1349
:10291000CC2309F4D5C180E2800F883010F001117A
:1029200004C08C2F0E94901C03C08C2F0E94A61CF8
:102930000E94D91CC5C18C2F807FCF70803211F0CE
:10294000C295C07F002319F00130C9F021C0DD23FA
:1029500071F0112341F0113031F40E94C01C8C2B16
:102960000E94C61CADC10E94C01C8C2B16C0112336
:1029700019F0113009F4A4C10E94CF1C1EC0DD2340
:1029800021F0123008F09CC107C0111199C115C087
:10299000DD2331F011116FC18C2F0E94291490C1D9
:1029A000112359F0093309F077C1FFEF27EE83E0D7
:1029B000F15020408040E1F76DC18C2F0E9430140F
:1029C0007FC18C2F86958695837090E0009719F0D3
:1029D000019761F075C1DD2321F0802F9C2F93704A
:1029E00002C080E090E00E944F1175C1DD2321F00C
:1029F000802F9C2F937002C080E090E00E946511B0
:102A00006AC1DD23F9F0053F51F0063F71F0043F44
:102A1000A9F480919D0290919E0281600BC08091EB
:102A20009D0290919E02826005C080919D029091CE
:102A30009E02846090939E0280939D02802F0E944C
:102A4000C4211EC0053F51F0063F71F0043FA9F4B8
:102A500080919D0290919E028E7F0BC080919D027D
:102A600090919E028D7F05C080919D0290919E0263
:102A70008B7F90939E0280939D02802F0E942C2238
:102A80000E94B12228C18C2F837009F049C0D11156
:102A90001EC1402F429546954770440F440F602F4A
:102AA0006F70862F90E0A0E0B0E0042E04C0880F85
:102AB000991FAA1FBB1F0A94D2F704FF10C00FE092
:102AC00010E020E030E004C0000F111F221F331F70
:102AD0004A95D2F7009510952095309503C000E0F7
:102AE00010E09801C695C695C370D0E0BC01CD0139
:102AF000602B712B822B932BC230D10559F0C33040
:102B0000D10559F0219719F00E94C11AE0C00E9426
:102B1000AF1ADDC00E94D31ADAC00E94AD1AD7C026
:102B2000DD2319F08C2F817001C08695882309F46C
:102B3000CEC0402F429546954770440F440F602FFA
:102B40006F70862F90E0A0E0B0E0042E04C0880FE4
:102B5000991FAA1FBB1F0A94D2F704FF10C00FE0F1
:102B600010E020E030E004C0000F111F221F331FCF
:102B70004A95D2F7009510952095309503C000E056
:102B800010E09801C695C695C370D0E0BC01CD0198
:102B9000602B712B822B932BC230D10559F0C3309F
:102BA000D10559F0219719F00E94871B90C00E940F
:102BB000751B8DC00E94991B8AC00E94E81A87C0AD
:102BC000CF70DD2339F08C2F0E940E1B802F0E94C6
:102BD00029147DC0802F0E9430148C2F0E942F1B3F
:102BE00076C0023FF9F028F4003F41F0013F99F030
:102BF0003EC0033FF1F0043F31F139C0DD2339F02D
:102C000011115EC08C2F8F710E94541B59C012305D
:102C100008F056C0F7CFDD2339F08C2F8F710E945A
:102C20000E1B4EC0DD23C9F38C2F8F710E942F1B0A
:102C300047C0DD2329F08C2F8F710E94F91A40C004
:102C40000E94F41A3DC0DD2349F0CF718C2F0E9401
:102C50000E1B63E08C2F0E940F1D32C081E00E948A
:102C6000241D123068F182E00E94241D29C0DD235A
:102C700031F0112391F2802F0E94901221C0112374
:102C800099F2093349F49FEFE7EEF3E09150E04009
:102C9000F040E1F700C00000802F0E94AE1310C08A
:102CA0004C2F4F70602FC7010E948E0A0E94201A7D
:102CB00012C04C2F4F70602FC7010E94910A0BC0A9
:102CC00028E0C21AD10884E0C816D10420F40E947A
:102CD0001B110E94B608BB20D1F00E947C1C80FD15
:102CE00016C0F70112820E94761C0E940E1BC701BB
:102CF0000E9491160E94761CDF91CF911F910F9137
:102D0000FF90EF90DF90CF90BF900C942F1BDF913E
:102D1000CF911F910F91FF90EF90DF90CF90BF90D8
:102D200008950F931F93CF93DF93EC0188819981CE
:102D30002B813C81232BB9F09F3F11F48F3F99F0F9
:102D4000CE010E94C808882371F0688179818A8148
:102D50000E94531C8C010E94AB1B0E94AC1AB8014C
:102D6000CE010E943714DF91CF911F910F910895EA
:102D70000E94AD1C0E94BD1C0E94D91C0E945723BA
:102D80000E94B12280E090E00E944F1180E090E02C
:102D90000C94651180913001909131010E94B41E14
:102DA0000C94B8160E949A1C0C94CA16E92FE2954E
:102DB000EF70F0E03297EE30F105B0F4EA59FF4FD2
:102DC0000C94A12A803F91F018F4883E68F40EC05C
:102DD000843F51F40BC0883E48F0813F29F406C07F
:102DE00093FB882780F9089580E0089581E0089595
:102DF0000E94481C0E94D6160895CF93DF9300D0FE
:102E000000D01F92CDB7DEB70F900F900F900F90AC
:102E10000F90DF91CF910895CF93DF9300D000D032
:102E200000D0CDB7DEB726960FB6F894DEBF0FBE42
:102E3000CDBFDF91CF9108951F93CF93DF93C091C2
:102E4000CC0116E08091CD01C81799F0D0E01C9F0D
:102E5000F0011D9FF00D1124E253FE4F408151817E
:102E600062817381848195810E940C172196C770BD
:102E7000E9CFDF91CF911F9108954091FE015091CC
:102E8000FF01609100027091010280910202909115
:102E900003020C940C178091030282958F7009F045
:102EA00054C080910002882309F44FC08091CC0166
:102EB000A091CD016091FE017091FF01409101024E
:102EC00050910202B6E08A1709F43FC090E0411524
:102ED0005105C1F17F3F11F46F3FA1F1B89FF0019F
:102EE000B99FF00D1124E253FE4F218172132AC0C5
:102EF0002081621327C02281211124C023813481C3
:102F00002417350710F421503109241B350B283CB8
:102F10003105C0F4209103022F7020612093030239
:102F200026E0289FF001299FF00D1124ED52FE4F5D
:102F300080818F70806180838EEF91E00E94911676
:102F40000C941C1701968770BECF0895CF92DF9224
:102F5000EF92FF920F931F93CF93DF93CDB7DEB71E
:102F600062970FB6F894DEBF0FBECDBF8C0185E02F
:102F7000F801DE011D9601900D928A95E1F7D801C6
:102F80004C9111965C91119712966C911297139631
:102F9000CD90DC9014973091FE017091FF018091EB
:102FA000010290910202009709F46BC17F3F19F46E
:102FB0003F3F09F466C1E0900002EE2009F4C0C072
:102FC00020910302C816D90628F0F601E81BF90B78
:102FD000CF0104C0809590958C0D9D1DFF24F39426
:102FE000883C910578F0F12C207F09F0C6C07C2D3B
:102FF000D98AC88A89890E94FD168EEF91E00E94C5
:103000009116B1C0822F807F09F046C0751314C09D
:10301000341312C0611110C02F702061209303027D
:103020000E943D178EEF91E00E949116809103025D
:10303000D80115968C932EC0CD2819F15F3F11F45D
:103040004F3FF9F0F62E61111CC08091CC01209108
:10305000CD0136E0821709F45AC090E0389FF001A4
:10306000399FF00D1124E253FE4F7181571306C0B2
:103070007081471303C07281711103C0019687707C
:10308000E9CFF62E662309F427C1809103028160FF
:1030900080930302F12C20C1751308C0341306C0BD
:1030A000611104C080910302D801C3C04D875E87BF
:1030B0008D859E856A8B0E94F8166A898823E1F1C6
:1030C0006623D1F120910302822F82958F7090E0C8
:1030D000029774F08091FE019091FF0198878F8391
:1030E0001986DB86CA862C87CE0107960E94911628
:1030F00086E0F801AEEFB1E001900D928A95E1F71C
:103100000E944B170E943D17FF24F394E5C04D87A2
:103110005E878D859E850E94481C292F22952F70E1
:1031200030E0223031050CF0CBC09F7009F0C5C0F3
:10313000805E883008F4D0C0C8010E949116E4CFA8
:10314000C816D90608F453C0F601E81BF90BCF01E5
:10315000883C910508F450C0F12C7C2DD98AC88A8E
:1031600089890E94FD16EEEFF1E086E0DF011D92F5
:103170008A95E9F70E943D17AFC0751314C0341348
:1031800012C0611110C080910302F8018583C8014B
:103190000E94911686E0EEEFF1E0DF011D928A9524
:1031A000E9F7FE2C99C04D875E878D859E856A8BD9
:1031B0000E94F8166A89882309F4BECF662309F4B1
:1031C000BBCF20910302822F82958F7090E00297EF
:1031D0000CF48ECF8091FE019091FF019A83898338
:1031E0001B82DD82CC822E83CE0101967FCF80951B
:1031F00090958C0D9D1DACCFF62E662309F49CCFC7
:1032000075132EC034132CC02091030220FD1FC063
:10321000822F82958F70D9F0D80115962C9315972F
:103220008F3049F08F5F982F9295907F822F8F700B
:10323000892B15968C93C8010E94911686E0F8019F
:10324000AEEFB1E001900D928A95E1F793CF86E061
:10325000F801AEEFB1E001900D928A95E1F73CC024
:103260004D875E878D859E850E94F816811140CF1F
:1032700080910302816080930302C8010E9491162D
:103280002BC0662309F458CF4D875E878D859E85B8
:103290000E94F816F82E882309F44ECF86E0F80134
:1032A000AEEFB1E001900D928A95E1F78EEF91E0DB
:1032B0000E948A120E944B175DCF811139CF0CC03A
:1032C000243031050CF038CF9F7009F431CFF8016C
:1032D0009581907F09F02CCF8F2D62960FB6F894D0
:1032E000DEBF0FBECDBFDF91CF911F910F91FF9039
:1032F000EF90DF90CF9008951F93CF93DF93CDB7DA
:10330000DEB72C970FB6F894DEBF0FBECDBF4F834C
:10331000588769877A878B879C87CE0107960E949A
:10332000A617882369F08F8198852A853B85232BF2
:10333000F1F19F3F09F063C08F3F09F060C037C0D3
:1033400086E0FE013796DE01119601900D928A9576
:10335000E1F76F817885EA85FB85309741F17F3F02
:1033600011F46F3F21F12091CD0130E0C9010196A8
:10337000877099274091CC0150E08417950709F494
:1033800047C069837A83FD83EC8396E0929FD001E6
:10339000939FB00D1124A253BE4FFE0131960190B0
:1033A0000D929A95E1F78093CD010E941C1716E0CB
:1033B0008091CC019091CD018917C1F1189FC00176
:1033C000112482539E4F0E94A617882379F1E09121
:1033D000CC011E9FF0011124E253FE4F4081518128
:1033E00062817381848195810E940C178091CC0148
:1033F00090E00196877099278093CC01D9CF4F81B7
:10340000588569857A858B859C850E940C17CFCF5E
:103410000E94D2161092CD011092CC01EEEFF1E095
:1034200086E0DF011D928A95E9F7C1CF2C960FB691
:10343000F894DEBF0FBECDBFDF91CF911F910895ED
:10344000EF92FF920F931F93CF93DF938C01892B01
:1034500009F46CC0F12CEE24E394E8012196F80104
:103460008491843740F4843008F051C0813081F079
:10347000823019F15BC0853709F444C0A8F19CE79C
:10348000980F903708F052C08F770E94AE1341C05A
:103490000E5F1F4FFE01C49180E28C0F883048F40C
:1034A000C7708E2D01C0880FCA95EAF70E94B01C24
:1034B00014C08C2F0E9490122DC00E5F1F4FFE0172
:1034C000C49180E28C0F883058F4C7708E2D01C0F3
:1034D000880FCA95EAF70E94B61C0E94D91C1AC030
:1034E0008C2F0E94AE1316C00E5F1F4FFE01C491B9
:1034F000CC2381F08FE99FE00197F1F700C0000035
:10350000C150F6CF0E5F1F4FFE01F49003C00E9422
:1035100090128E018F2D882309F49FCFEFE9FFE0F1
:103520003197F1F700C000008150F5CFDF91CF91C6
:103530001F910F91FF90EF90089508950C949D1A9C
:103540000E949E1A60933F02709340028093410252
:10355000909342020C94B81608950C94A01A0F93FD
:103560001F9300913F02109140022091410230913F
:103570004202602B712B822B932B1F910F910C9485
:10358000A01A0F931F9300913F02109140022091C7
:1035900041023091420260237123822393231F91C1
:1035A0000F910C94A01A0F931F9300913F0210915A
:1035B0004002209141023091420260277127822708
:1035C00093271F910F910C94A01A08950C94E51A5B
:1035D0000E94E61A60933B0270933C0280933D0286
:1035E00090933E020C94B81660E070E0CB010C940E
:1035F000E81A0F931F9341E050E060E070E08A0109
:103600009B0104C0000F111F221F331F8A95D2F7A0
:10361000C901B8011F910F910C94E81A0F931F93E1
:1036200041E050E060E070E004C0440F551F661FA9
:10363000771F8A95D2F780913B0290913C02A0912E
:103640003D02B0913E028A019B01082B192B2A2BC7
:103650003B2BC901B8011F910F910C94E81A0F93ED
:103660001F9341E050E060E070E004C0440F551F3C
:10367000661F771F8A95D2F7409550956095709593
:1036800080913B0290913C02A0913D02B0913E029C
:103690008A019B01082319232A233B23C901B8016E
:1036A0001F910F910C94E81A0F931F9341E050E083
:1036B00060E070E004C0440F551F661F771F8A95B5
:1036C000D2F780913B0290913C02A0913D02B091D3
:1036D0003E028A019B01082719272A273B27C90197
:1036E000B8011F910F910C94E81A0F931F9300914A
:1036F0003B0210913C0220913D0230913E02602B32
:10370000712B822B932B1F910F910C94E81A0F931E
:103710001F9300913B0210913C0220913D02309199
:103720003E0260237123822393231F910F910C94F7
:10373000E81A0F931F9300913B0210913C022091D5
:103740003D0230913E0260277127822793271F9107
:103750000F910C94E81A08952EE0929F800D112489
:10376000A82FA695A695A695877051E001C0550F84
:103770008A95EAF785E0A89FD001112420E030E087
:1037800070E0F901EA0FFB1FEC5FFD4F4081CB01B8
:10379000022E02C0969587950A94E2F781709927C8
:1037A000819584278523842780832F5F3F4F253091
:1037B000310539F708952EE0929F800D1124682F6E
:1037C000669566956695982F977085E0689FB0011D
:1037D000112440E050E080E0FA01E60FF71FEC5FB3
:1037E000FD4F208130E0092E02C0369527950A94BE
:1037F000E2F721703327042E01C0220F0A94EAF762
:10380000822B4F5F5F4F4530510531F70895BF92CE
:10381000CF92DF92EF92FF920F931F93CF93DF939C
:103820008C01C0903F02D0904002E0904102F090A5
:10383000420280913B0290913C02A0913D02B091E6
:103840003E02C82AD92AEA2AFB2ACFE1D0E0D701D2
:10385000C6010C2E04C0B695A795979587950A9436
:10386000D2F780FF07C0BC2EB8018C2F0E94AC0A93
:10387000019719F4219758F7B12C8B2DDF91CF9137
:103880001F910F91FF90EF90DF90CF90BF90089520
:10389000CF93DF93EC010E94071CBE010E94AC0A8B
:1038A000DF91CF9108951F93CF93DF93EB01909118
:1038B000CB01992321F0CB010E94481C13C088231F
:1038C00049F0CB010E94071C182F682FCE010E94DF
:1038D000AC1B04C0CB010E94DB1B182FBE01812F43
:1038E0000E94AC0ADF91CF911F910895809143020D
:1038F00085958595859508958091430287700895F3
:1039000090914302977081E009F480E008958091DE
:103910006702089590916702892B8093670208954A
:103920008095909167028923809367020895809320
:1039300067020895109267020895809166020895C3
:1039400090916602892B80936602089580959091EC
:103950006602892380936602089510926602089594
:1039600090916502892B80936502089580959091CE
:103970006502892380936502089510926502089577
:1039800080914402089508950C94C31C90914402C0
:10399000981721F0809344020C94C41C08958091E0
:1039A0004402882329F01092440280E00C94C41C45
:1039B0000895E0913001F091310180916702808398
:1039C000E0913001F0913101908180916602892B64
:1039D0008083E0913001F091310190818091650206
:1039E000892B808380914402882381F0E09130010B
:1039F000F09131019081892B8083809130019091E9
:103A000031010E94391E81110E94CF1C809130012A
:103A1000909131010C94271108950C940C1D98E09D
:103A2000899F90011124262B209343020E940E1B94
:103A3000809143028595859585950C940D1D109276
:103A4000430280E00C940D1D209143028095822357
:103A500080934302982F977079F430E0482F082E16
:103A6000000C550B2417350739F0859585958595FC
:103A70000E942F1B0C941F1D0895CF92DF92EF928E
:103A8000FF926C01EE24FF24C114D104E104F1047F
:103A900021F0C701B60120E101C020E0C72ED82ED9
:103AA000E92EFF24C114D104E104F10419F0285FC8
:103AB000C701B6016B017C0154E0F694E794D794FA
:103AC000C7945A95D1F7C114D104E104F10419F057
:103AD0002C5FC701B6016B017C0142E0F694E794CC
:103AE000D794C7944A95D1F7C114D104E104F104E5
:103AF00019F02E5FC701B601DC01CB01B695A79581
:103B000097958795892B8A2B8B2B09F02F5F822F16
:103B1000FF90EF90DF90CF90089580E090E00E94BA
:103B2000712D21E08D3E9E4F09F020E0822F0895F7
:103B300082E090E00C94692D682F82E090E00C9474
:103B4000772D83E090E00C94692D682F83E090E05E
:103B50000C94772DCF9384E090E00E94692DC82FBC
:103B600081E290E00E94692D2C2F30E0A901582BB2
:103B7000CA01CF910895CF93C92F682F84E090E0B8
:103B80000E94772D6C2F81E290E0CF910C94772DDD
:103B9000AB01BC018FE090E00C94892DAB01BC011E
:103BA00083E190E00C94892D60E070E0CB010C94EF
:103BB000CE1D60E070E0CB010E94C81D0C94D41DA6
:103BC0006DEE7EEF80E090E00E94952D60E082E057
:103BD00090E00E94772D60E083E090E00E94772DD6
:103BE00010923F0210924002109241021092420243
:103BF00060E084E090E00E94772D60E081E290E058
:103C00000E94772D60E085E090E00E94772D60E0D3
:103C100086E090E00E94772D6FEF87E090E00E94B1
:103C2000772D40E050E0BA0188E090E00E94892DB5
:103C300060E08DE090E00E94772D40E050E0BA0116
:103C400088E190E00E94892D60E087E190E00E9489
:103C5000772D40E050E0BA018CE190E00E94892D80
:103C600060E080E290E00E94772D0C94D91D0C94C6
:103C7000E01DFC01329680914101882331F0809152
:103C8000A30287FF02C09EE101C096E080E0915050
:103C900028F021912223D9F38F5FF9CF08959C0159
:103CA000FC0132969FEF80E04191461789F09F3FDB
:103CB00019F4411101C0982F8F5F8630A9F79F3FFB
:103CC00039F0F901E90FF11D97FDFA956283089526
:103CD0000895FC01329608962081261301C01082B7
:103CE0003196E817F907C1F70895262F26952695EE
:103CF00026952E3168F4FC01E20FF11D677021E07A
:103D000030E001C0220F6A95EAF78281282B2283D6
:103D10000895262F2695269526952E3170F4FC01C0
:103D2000E20FF11D677021E030E001C0220F6A95BB
:103D3000EAF720958281282322830895209141016A
:103D4000222329F02091A30227FD0C94751E0C94C8
:103D50004F1E20914101222329F02091A30227FD2B
:103D60000C94891E0C94691E20914101FC0132962D
:103D7000222331F08091A30287FF02C08EE101C0AF
:103D800086E0DF011D928A95E9F7089508950C9465
:103D9000C61E0E94C71E8091A902843049F110926C
:103DA000690220E488E190E00FB6F894A89580932A
:103DB00060000FBE2093600080E00E94B6080E9461
:103DC000C71E83B7817F846083BF83B7816083BF51
:103DD0007894889583B78E7F83BF0FB6F894A895A3
:103DE00080916000886180936000109260000FBE37
:103DF00008950895CF930E9472040E94CC040E94FB
:103E0000F91EC0E08C2F0E948705892B29F4CF5F13
:103E1000C630C1F780E001C081E0CF9108950895D8
:103E20000C940F1F0E94D2160E941B110E94B6080C
:103E30000C94101F1F920F920FB60F9211248F93A4
:103E40009F93AF93BF9380916902811113C08091BA
:103E50009F029091A002A091A102B091A20241966E
:103E6000A11DB11D80939F029093A002A093A10277
:103E7000B093A202BF91AF919F918F910F900FBE0F
:103E80000F901F90189582E084BD93E095BD9AEF46
:103E900097BD80936E0008952FB7F89480919F028C
:103EA0009091A002A091A102B091A2022FBF08950B
:103EB000CF92DF92EF92FF920F931F932FB7F89458
:103EC00040919F025091A0026091A1027091A202C4
:103ED0002FBF6A017B01EE24FF248C0120E030E03B
:103EE000C016D106E206F30610F4415051099A01BA
:103EF000281B390BC9011F910F91FF90EF90DF90A4
:103F0000CF90089578941F920F920FB60F921124BC
:103F10008F939F93AF93BF9380919F029091A00244
:103F2000A091A102B091A2020196A11DB11D8093A2
:103F30009F029093A002A093A102B093A202BF910E
:103F4000AF919F918F910F900FBE0F901F9018957A
:103F500081E08093E00080E28093D8001092C90055
:103F60008FE19EE40197F1F700C0000087E090EB3D
:103F7000DC018093B2029093B302A093B402B09399
:103F8000B5029CE088E10FB6F894A8958093600094
:103F90000FBE90936000FFCFAF92BF92CF92DF929F
:103FA000EF92FF920F931F93CF93C0E0CC24C39462
:103FB000D12CE82EF12C8C2F0E9487055C0100E0AB
:103FC00010E09601002E02C0220F331F0A94E2F780
:103FD0002A213B21232B31F40F5F1F4F0E30110597
:103FE00081F70AC0602F7C2F80E00E94920AE816B9
:103FF000F90691F781E004C0CF5FC630E1F680E0BA
:10400000CF911F910F91FF90EF90DF90CF90BF90D5
:10401000AF900895CF93C82F8CE20E94CC1F8823C5
:1040200021F08C2FCF910C94CC1F80E0CF9108957C
:10403000CF930E948D1D811102C00E94371EC5E6DC
:10404000C15049F00E94CC048FE39CE90197F1F73D
:1040500000C00000F5CF89E20E940A20811110C142
:104060008AE20E940A2081110E94371E85E00E9488
:104070000A2081110E94A81F0E94981D8093680247
:1040800087E00E940A208823A9F18BE10E940A2080
:10409000882351F08091680281FB222720F991E06A
:1040A000922790FB81F90EC08EE00E940A2088239F
:1040B00061F08091680282FB222720F991E092272B
:1040C00090FB82F98093680215C080E10E940A206B
:1040D00090916802882341F093FB222720F981E028
:1040E000822780FB93F904C0892F809580FB90F98B
:1040F00090936802809168020E949C1D0E94AA1DF4
:104100009093A4028093A30280EE0E940A20882349
:1041100041F08091A302982F909590FB80F98093B5
:10412000A30289E30E940A20882359F08091A30208
:1041300081FB222720F991E0922790FB81F980935F
:10414000A30282EE0E940A20882359F08091A302E4
:1041500082FB222720F991E0922790FB82F980933D
:10416000A30286EE0E940A20882359F08091A302C0
:1041700083FB222720F991E0922790FB83F980931B
:10418000A30283EE0E940A20882359F08091A302A3
:1041900084FB222720F991E0922790FB84F98093F9
:1041A000A30285E30E940A20882359F08091A3028C
:1041B00085FB222720F991E0922790FB85F98093D7
:1041C000A30281E30E940A20882359F08091A30270
:1041D00086FB222720F991E0922790FB86F98093B5
:1041E000A30281E10E940A20882359F08091A30252
:1041F00087FB222720F991E0922790FB87F9809393
:10420000A3028091A3029091A4020E94BB1D87E2A9
:104210000E940A20C82F8EE10E940A208111C260EC
:104220008FE10E940A208111C46080E20E940A206E
:104230008111C86081E20E940A208111C06182E27E
:104240000E940A208111C06283E20E940A2081112B
:10425000C06484E20E940A20882311F0C06802C072
:10426000CC2329F08C2F0E94A51D6C2F03C00E9427
:10427000A11D682F70E080E090E0CF910C94AD1A02
:10428000CF91089580916E0280FF0BC0609135013F
:1042900085E0689FB00111247595679575956795C0
:1042A0002BC081FF09C06091350185E0689FB00196
:1042B00011247595679520C082FF07C06091350174
:1042C00085E0689FB001112417C090916D02992379
:1042D000D1F060913401961788F72091350185E07F
:1042E000289F90011124929FA001939F500D1124AB
:1042F00070E0CA010E948D2A6038710540F4611592
:10430000710539F002C065E070E0862F08958FE7EF
:10431000089581E0089580916E0280FF08C0609149
:10432000330170E0759567957595679521C081FF9C
:1043300006C06091330170E07595679519C082FFE2
:1043400004C06091330170E010C090916D02992318
:10435000C1F0609132019617A0F780913301899FD7
:10436000C001112470E00E948D2A6038710528F484
:104370006115710521F0862F08958FE7089581E07A
:10438000089561E070E0F4CF803F21F40E94422163
:10439000819504C0813F29F40E94422180937202DA
:1043A0000895823F21F40E944221819504C0833FF9
:1043B00029F40E944221809371020895893F19F4E3
:1043C0000E948B2105C08A3F31F40E948B21819588
:1043D0008093730208958B3F21F40E948B21819575
:1043E00004C08C3F29F40E948B21809374020895AD
:1043F000843F21F480917002816017C0853F21F4D1
:1044000080917002826011C0863F21F48091700219
:1044100084600BC0873F21F480917002886005C0E2
:10442000883F31F48091700280618093700208951A
:104430008D3F21F480916E0281600BC08E3F21F48C
:1044400080916E02826005C08F3F29F480916E02D8
:10445000846080936E020895803F39F480917202E7
:1044600087FF6CC01092720269C0813F29F480916D
:1044700072021816BCF362C090917102823F29F457
:1044800097FF5CC01092710259C0833F19F419164E
:10449000CCF354C0893F41F48091730218160CF09C
:1044A0004DC0109273024AC08A3F29F48091730272
:1044B00087FF44C0F6CF8B3F39F48091740287FFA9
:1044C0003DC0109274023AC08C3F29F4809174026E
:1044D0001816BCF333C0843F21F4809170028E7FA4
:1044E00017C0853F21F4809170028D7F11C0863FF7
:1044F00021F4809170028B7F0BC0873F21F4809163
:104500007002877F05C0883F31F4809170028F7EF2
:104510008093700213C08D3F21F480916E028E7FD4
:104520000BC08E3F21F480916E028D7F05C08F3FBE
:1045300029F480916E028B7F80936E0280917102CC
:1045400081110EC08091720281110AC080917302A4
:10455000811106C080917402811102C010926D0217
:1045600008958FE692E00E9441110E944C1F9093A3
:104570006C0280936B0208951F93CF93DF93809119
:104580006B0290916C020E94581FAC0190916D02D9
:10459000992321F02091360130E006C020916A0273
:1045A0008AE0289F900111244217530708F47BC02A
:1045B00080917102C0917202D091730210917402C5
:1045C000811107C0C1116BC0D11169C0111167C041
:1045D0006AC09F3F19F09F5F90936D02181624F4F4
:1045E0000E944221809371028091710287FF05C071
:1045F0000E9442218195809371021C1624F40E942E
:104600004221809372028091720287FF05C00E944E
:104610004221819580937202309171023323E1F03F
:10462000209172022223C1F045EB3403C001112412
:10463000892F990F990B009709F481E080937102FB
:1046400035EB2303C0011124892F990F990B009793
:1046500009F481E0809372021D1624F40E948B21DC
:10466000809373028091730287FF05C00E948B21A3
:10467000819580937302111624F40E948B218093FC
:1046800074028091740287FF05C00E948B2181957E
:1046900080937402DF91CF911F910C94B1229F3FC0
:1046A00009F099CFA1CFDF91CF911F910895EFE647
:1046B000F2E086E0DF011D928A95E9F710926D0223
:1046C00010926E0208958091950208950F931F93A2
:1046D000CF93DF9300D01F92CDB7DEB78C010E943D
:1046E000D425823011F0843021F584E089831B8346
:1046F0000A8382E08093E9008FEF9091E800815077
:1047000095FD06C095ED9A95F1F700008111F5CF62
:104710008091E80085FF0DC040E050E063E070E06C
:10472000CE0101960E94F1258091E8008E7780935A
:10473000E8000F900F900F90DF91CF911F910F9194
:104740000895CF93DF9300D01F92CDB7DEB72091AD
:10475000A902243031F523E02983805891099B83F5
:104760008A8382E08093E9008FEF9091E800815086
:1047700095FD06C095ED9A95F1F700008111F5CFF2
:104780008091E80085FF0DC040E050E063E070E0FC
:10479000CE0101960E94F1258091E8008E778093EA
:1047A000E8000F900F900F90DF91CF910895CF9375
:1047B000DF93EC010E94D425823011F08430F9F4AB
:1047C00082E08093E9009FEF8091E800915085FDA1
:1047D00006C085ED8A95F1F700009111F5CF809123
:1047E000E80085FF0CC040E050E066E070E0CE01DC
:1047F0000E94F1258091E8008E778093E800DF9198
:10480000CF910895CF93DF93EC010E94D42582309D
:1048100011F08430D9F580914101882339F08091DD
:10482000A30287FF03C060E282E002C068E081E08B
:104830008093E9008FEF9091E800815095FD06C0CC
:1048400095ED9A95F1F700008111F5CF8091E80080
:1048500085FF1CC080914101811105C040E050E0FE
:1048600068E070E003C070E040E050E0CE010E94DC
:10487000F1258091E8008E778093E80080E2FE01C8
:10488000A5E7B2E001900D928A95E1F7DF91CF9113
:1048900008958091A802811109C00E9486270E9474
:1048A000E3278091E20084608093E20008951092F3
:1048B000A8020895089508950C94121F42E061EC37
:1048C00081E00E94002742E261EC82E00C94002724
:1048D0008091AB02833009F460C030F4813071F014
:1048E000823009F499C008958A3009F485C08B306C
:1048F00009F46BC0893009F0A7C020C08091AA02DA
:10490000813A09F0A1C08091E800877F8093E80098
:104910008091AE029091AF02892B21F460E285E78D
:1049200092E003C060E080E090E070E00E943C26EE
:104930008091E8008B778093E80008958091AA0227
:10494000813209F081C08091AE029091AF0202974E
:1049500008F07AC08091E800877F8093E80080911A
:10496000E80082FD05C08091A9028111F8CF6CC0DA
:104970002091F3008091F20090E0922B029729F4AD
:104980008091F1008B7F813021F48091F100809340
:1049900095028091E8008B7753C08091AA02813AFA
:1049A00009F052C08091AE029091AF02892B09F0BC
:1049B0004BC08091E800877F8093E8008091E800F9
:1049C00080FFFCCF8091410136C08091AA028132E4
:1049D000D9F58091AE029091AF02892BA9F5809113
:1049E000E800877F8093E8000E9435278091AC0221
:1049F000809341010C94D2168091AA02813221F554
:104A00008091E800877F8093E8000E94352780919D
:104A1000AD028093960208958091AA02813AA1F492
:104A20008091E800877F8093E8008091E80080FF14
:104A3000FCCF809196028093F1008091E8008E7700
:104A40008093E8000C943527089584B7877F84BF4E
:104A50000FB6F894A89580916000886180936000FB
:104A6000109260000FBE80E8809361001092610098
:104A70000E9489110E9486270E94E3278091E2000C
:104A800084608093E20078940E94722A0E949111BF
:104A900087E391E00E9416118091A902853069F4A4
:104AA0000E94C91E8091A7028823B1F30E94FA1EBA
:104AB000882391F30E94DB25EFCF0E949E11ECCF5B
:104AC0000C946225292F332723303105C9F064F473
:104AD0002130310581F02230310509F04CC08BE3E3
:104AE00090E026EF35E04BC02132310521F1223232
:104AF000310589F140C082E190E021E336E03FC01A
:104B000099278130910571F02CF4892BA1F5E2EF02
:104B1000F5E00DC08230910541F0039761F5E4ECBA
:104B2000F5E005C0EEEDF5E002C0EAECF5E08491B9
:104B300090E09F0124C06115710541F0613071055D
:104B4000D1F489E090E021E236E019C089E090E0FC
:104B500028E036E014C06115710541F0613071053F
:104B600051F480EC90E023E436E009C080E490E06A
:104B700023E037E004C080E090E020E030E0FA017C
:104B80003183208308950895CF93C82F0E94C325B1
:104B9000C0939702CF9108958091A902843011F0BB
:104BA00081E0089582E0089580919702811102C00A
:104BB0000C94CC25089580E189BD82E189BD09B4BA
:104BC00000FEFDCF8091D8008F7D8093D80080912A
:104BD000E00082608093E0008091E00081FDFCCFE6
:104BE0000895CF92DF92EF92FF920F931F93CF938E
:104BF000DF93EC018B016A010E945427811133C0BD
:104C0000C114D10439F0F60180819181081B190B80
:104C1000C80FD91FE12CF12C0115110519F1809154
:104C2000E80085FD16C08091E8008E778093E8004B
:104C3000C114D10449F0F60180819181E80EF91E7A
:104C4000F182E08285E00FC00E945427882321F37F
:104C50000AC089918093F10001501109FFEFEF1A0A
:104C6000FF0ADACF80E0DF91CF911F910F91FF9083
:104C7000EF90DF90CF9008952091B0023091B10273
:104C80002617370748F06115710539F42091E800BF
:104C90002E772093E80001C0B90140E0611571054D
:104CA000A9F12091A902222309F443C0253009F477
:104CB00042C02091E80023FD40C02091E80022FD81
:104CC00032C02091E80020FFE9CF4091F30020910D
:104CD000F20030E0342BFC01CF016115710559F071
:104CE0002830310540F481918093F10061507109C1
:104CF0002F5F3F4FF1CF41E02830310509F040E010
:104D00002091E8002E772093E800C8CF4111C9CF49
:104D10000AC08091A902882361F0853061F08091FA
:104D2000E80083FD0AC08091E80082FFF2CF80E0B6
:104D3000089582E0089583E0089581E00895209128
:104D4000B0023091B1022617370748F0611571059E
:104D500039F42091E8002E772093E80001C0B901D2
:104D6000FC0120E06115710591F18091A902882371
:104D700009F440C0853009F43FC08091E80083FD0C
:104D80003DC08091E80082FD2FC08091E80080FF47
:104D9000E9CF2091F3008091F20090E0922B611511
:104DA000710559F08830910540F424912093F10069
:104DB0003196615071090196F2CF21E0089709F010
:104DC00020E08091E8008E778093E800CBCF21111E
:104DD000CCCF0AC08091A902882361F0853061F0B0
:104DE0008091E80083FD0AC08091E80082FFF2CF45
:104DF00080E0089582E0089583E0089581E00895B9
:104E0000982F973058F59093E900981739F07091E2
:104E1000EC002091ED005091F00003C0242F762F7C
:104E200050E021FF19C03091EB003E7F3093EB0042
:104E30003091ED003D7F3093ED003091EB0031601B
:104E40003093EB007093EC002093ED005093F00052
:104E50002091EE0027FF07C09F5FD3CF8F70809314
:104E6000E90081E0089580E008958091AA0287FF1B
:104E700011C08091E80082FD05C08091A9028111D6
:104E8000F8CF11C08091E8008B770BC08091A90208
:104E9000882349F08091E80080FFF8CF8091E800F6
:104EA0008E778093E80008952091E4003091E5002A
:104EB00095E64091EC00842F817040FF22C08091E4
:104EC000E80080FD1CC08091A902882391F0853004
:104ED00091F08091EB0085FD10C04091E40050916D
:104EE000E5004217530729F39A01915011F784E026
:104EF000089582E0089583E0089581E0089580E0B8
:104F000008954091E80042FFDECF08950E94F42703
:104F10000E94FC27E0EEF0E0808181608083E8ED74
:104F2000F0E080818F77808319BCA7EDB0E08C9191
:104F30008E7F8C9380818F7E80831092A80208954B
:104F40000F931F93CF93DF930E94F4270E94FC27B7
:104F5000C8EDD0E088818F778883888180688883D6
:104F600088818F7D888319BC1092A9021092A502B6
:104F70001092A7021092A60200EE10E0F8018081C4
:104F80008B7F808388818160888342E060E080E05D
:104F90000E940027E1EEF0E080818E7F8083E2EEC8
:104FA000F0E0808181608083808188608083F80167
:104FB00080818E7F8083888180618883DF91CF911B
:104FC0001F910F910895E8EDF0E080818F7E80833E
:104FD000E7EDF0E080818160808384E082BF81E042
:104FE0008093A8020C94A027E8EDF0E080818E7FEA
:104FF00080831092E20008951092DA001092E1008E
:1050000008951F920F920FB60F9211242F933F9382
:105010004F935F936F937F938F939F93AF93BF93C0
:10502000EF93FF938091E10082FF0BC08091E2003B
:1050300082FF07C08091E1008B7F8093E1000E9496
:10504000712A8091DA0080FF1FC08091D80080FF14
:105050001BC08091DA008E7F8093DA008091D900A6
:1050600080FF0DC080E189BD82E189BD09B400FEE9
:10507000FDCF81E08093A9020E94492405C019BC9C
:105080001092A9020E9457248091E10080FF19C06C
:105090008091E20080FF15C08091E2008E7F8093B6
:1050A000E2008091E20080618093E2008091D8006C
:1050B00080628093D80019BC85E08093A9020E9489
:1050C0005B248091E10084FF30C08091E20084FF86
:1050D0002CC080E189BD82E189BD09B400FEFDCF0D
:1050E0008091D8008F7D8093D8008091E1008F7EE1
:1050F0008093E1008091E2008F7E8093E2008091B6
:10510000E20081608093E2008091A502882311F083
:1051100084E007C08091E30087FD02C081E001C008
:1051200083E08093A9020E945C248091E10083FFC8
:1051300029C08091E20083FF25C08091E100877F34
:105140008093E10082E08093A9021092A5028091F1
:10515000E1008E7F8093E1008091E2008E7F80935A
:10516000E2008091E20080618093E20042E060E032
:1051700080E00E9400278091F00088608093F0001A
:105180000E945A24FF91EF91BF91AF919F918F910F
:105190007F916F915F914F913F912F910F900FBE33
:1051A0000F901F9018951F920F920FB60F92112417
:1051B0002F933F934F935F936F937F938F939F931F
:1051C000AF93BF93CF93DF93EF93FF93C091E90029
:1051D000CF708091EC00D82FD17080FDD0E8109274
:1051E000E9008091F000877F8093F00078940E941E
:1051F00017291092E9008091F00088608093F000F8
:10520000CD2BCF70C093E900FF91EF91DF91CF914B
:10521000BF91AF919F918F917F916F915F914F91CE
:105220003F912F910F900FBE0F901F9018951F93D5
:10523000CF93DF93CDB7DEB7AA970FB6F894DEBF52
:105240000FBECDBFEAEAF2E088E08E0F9091F10048
:1052500091938E13FBCF0E9468248091E80083FF16
:1052600028C18091AA029091AB02492F50E04A30A8
:10527000510508F01EC1FA01EC58FF4F0C94A12A09
:10528000803821F0823809F014C108C08091A6024C
:105290009091A702992389F082600FC08091AE029D
:1052A0008F70873008F005C18093E9008091EB0092
:1052B00085FB882780F91092E9009091E800977F9C
:1052C0009093E8008093F1001092F100D0C0282F55
:1052D0002D7F09F0EEC0882319F0823061F0E9C01B
:1052E0008091AC02813009F0E4C0933009F080E095
:1052F0008093A7022EC08091AC0281112AC08091B8
:10530000AE028F702FEF280F263008F0D2C08093A6
:10531000E9002091EB0020FF1CC0933021F4809124
:10532000EB00806214C09091EB0090619093EB00D1
:1053300021E030E0A90102C0440F551F8A95E2F731
:105340004093EA001092EA008091EB00886080931D
:10535000EB001092E9008091E800877F8093E800DD
:105360000E943527A6C08111A4C01091AC021F77FE
:105370008091E3008078812B8093E3008091E800A6
:10538000877F8093E8000E9435278091E80080FFA6
:10539000FCCF8091E30080688093E300111102C08C
:1053A00082E001C083E08093A90283C080588230EC
:1053B00008F07FC08091AC029091AD028C3D53E02B
:1053C000950779F583E08A838AE289834FB7F89459
:1053D000DE01139620E03EE051E2E32FF0E050932F
:1053E0005700E49120FF03C0E295EF703F5FEF703C
:1053F0008E2F90E0EA3010F0C79601C0C0968D93D2
:105400009D932F5F243149F74FBF8091E800877F3C
:105410008093E8006AE270E0CE0101960E943C268B
:1054200015C06091AE027091AF02AE014F5F5F4F49
:105430000E946025BC01892BE1F19091E800977FE3
:105440009093E80089819A810E949F268091E800CC
:105450008B778093E8002DC0803859F58091E80063
:10546000877F8093E8008091A5028093F10080916E
:10547000E8008E7773CF81111CC09091AC029230FE
:10548000C0F48091E800877F8093E8009093A502A4
:105490000E9435278091A502811106C08091E3000A
:1054A00087FD02C081E001C084E08093A9020E94D0
:1054B0005E248091E80083FF0AC08091E800877F26
:1054C0008093E8008091EB0080628093EB00AA96C5
:1054D0000FB6F894DEBF0FBECDBFDF91CF911F9105
:1054E00008950895CF938091A9028823A1F0C091D7
:1054F000E900CF709091EC00892F817090FD80E8D9
:10550000C82B1092E9008091E80083FD0E941729C2
:10551000CF70C093E900CF91089597FB072E16F442
:10552000009407D077FD09D00E94A72A07FC05D078
:105530003EF4909581959F4F0895709561957F4FAA
:105540000895EE0FFF1F0590F491E02D0994AA1B1A
:10555000BB1B51E107C0AA1FBB1FA617B70710F05E
:10556000A61BB70B881F991F5A95A9F78095909590
:10557000BC01CD010895AEE0B0E0E1ECFAE20C949C
:10558000B92D0D891E898F89988D26E02C831A8369
:10559000098397FF02C080E090E801979E838D8386
:1055A000AE01455E5F4F698D7A8DCE0101960E94F6
:1055B000EB2A4D815E8157FD0AC02F813885421745
:1055C00053070CF49A01F801E20FF31F10822E9694
:1055D000E4E00C94D52DACE0B0E0E1EFFAE20C94FD
:1055E000AB2D7C016B018A01FC011782168283813D
:1055F00081FFBDC1CE0101964C01F7019381F601F7
:1056000093FD859193FF81916F01882309F4ABC1CC
:10561000853239F493FD859193FF81916F01853235
:1056200029F4B70190E00E94D32CE7CF512C312C04
:1056300020E02032A0F48B3269F030F4803259F04F
:10564000833269F420612CC08D3239F0803339F413
:10565000216026C02260246023C0286021C027FD6D
:1056600027C030ED380F3A3078F426FF06C0FAE054
:105670005F9E300D1124532E13C08AE0389E300DEA
:105680001124332E20620CC08E3221F426FD6BC112
:10569000206406C08C3611F4206802C0883641F4BC
:1056A000F60193FD859193FF81916F018111C1CF27
:1056B000982F9F7D9554933028F40C5F1F4FFFE384
:1056C000F9830DC0833631F0833771F0833509F0EB
:1056D0005BC022C0F801808189830E5F1F4F442484
:1056E0004394512C540115C03801F2E06F0E711C27
:1056F000F801A080B18026FF03C0652D70E002C0D4
:105700006FEF7FEFC5012C870E94C82C2C0183010D
:105710002C852F77222E17C03801F2E06F0E711CF6
:10572000F801A080B18026FF03C0652D70E002C0A3
:105730006FEF7FEFC5012C870E94BD2C2C012C85BB
:105740002068222E830123FC1BC0832D90E0481685
:105750005906B0F4B70180E290E00E94D32C3A944D
:10576000F4CFF50127FC859127FE81915F01B701F8
:1057700090E00E94D32C31103A94F1E04F1A510876
:105780004114510471F7E5C0843611F0893639F5BA
:10579000F80127FF07C060817181828193810C5FCE
:1057A0001F4F08C060817181072E000C880B990B78
:1057B0000E5F1F4F2F76722E97FF09C09095809530
:1057C000709561957F4F8F4F9F4F2068722E2AE012
:1057D00030E0A4010E940B2DA82EA81844C08537E4
:1057E00029F42F7EB22E2AE030E025C0F22FF97F77
:1057F000BF2E8F36C1F018F4883579F0B4C08037E9
:1058000019F0883721F0AFC02F2F2061B22EB4FEDF
:105810000DC08B2D8460B82E09C024FF0AC09F2FB5
:105820009660B92E06C028E030E005C020E130E0E7
:1058300002C020E132E0F801B7FE07C0608171814B
:10584000828193810C5F1F4F06C06081718180E06F
:1058500090E00E5F1F4FA4010E940B2DA82EA818E8
:10586000FB2DFF777F2E76FE0BC0372D3E7FA514D4
:1058700050F474FE0AC072FC08C0372D3E7E05C08D
:10588000BA2C372D03C0BA2C01C0B52C34FF0DC083
:10589000FE01EA0DF11D8081803311F4397E09C0CB
:1058A00032FF06C0B394B39404C0832F867809F006
:1058B000B39433FD13C030FF06C05A2CB31418F450
:1058C000530C5B18B32CB31468F4B70180E290E07A
:1058D0003C870E94D32CB3943C85F5CFB31410F4CD
:1058E0003B1801C0312C34FF12C0B70180E390E0B7
:1058F0003C870E94D32C3C8532FF17C031FD03C08A
:1059000088E790E002C088E590E0B7010CC0832FE3
:10591000867859F031FF02C08BE201C080E237FD8A
:105920008DE2B70190E00E94D32CA51438F4B701A2
:1059300080E390E00E94D32C5A94F7CFAA94F4010C
:10594000EA0DF11D8081B70190E00E94D32CA110D7
:10595000F5CF332009F451CEB70180E290E00E94E8
:10596000D32C3A94F6CFF7018681978102C08FEF4E
:105970009FEF2C96E2E10C94C72DFC01059061503D
:1059800070400110D8F7809590958E0F9F1F089555
:10599000FC016150704001900110D8F780959095FE
:1059A0008E0F9F1F08950F931F93CF93DF93FB01DB
:1059B000238121FD03C08FEF9FEF28C022FF16C077
:1059C00046815781248135814217530744F4A081D1
:1059D000B1819D012F5F3F4F318320838C932681BE
:1059E00037812F5F3F4F3783268310C0EB01092F8C
:1059F000182F0084F185E02D0995892BE1F68E8121
:105A00009F8101969F838E83812F902FDF91CF916D
:105A10001F910F910895FA01AA27283051F12031E2
:105A200081F1E8946F936E7F6E5F7F4F8F4F9F4F32
:105A3000AF4FB1E03ED0B4E03CD0670F781F891F74
:105A40009A1FA11D680F791F8A1F911DA11D6A0F42
:105A5000711D811D911DA11D20D009F468943F91F5
:105A60002AE0269F11243019305D3193DEF6CF01F4
:105A70000895462F4770405D4193B3E00FD0C9F7BA
:105A8000F6CF462F4F70405D4A3318F0495D31FD27
:105A90004052419302D0A9F7EACFB4E0A69597957A
:105AA000879577956795BA95C9F700976105710550
:105AB00008959B01AC010A2E06945795479537959A
:105AC0002795BA95C9F7620F731F841F951FA01DF4
:105AD0000895F999FECF92BD81BDF89A992780B5B6
