:100000000C94A2030C94E9030C94E9030C94E90307
:100010000C94E9030C94E9030C94E9030C94E903B0
:100020000C94E9030C94E9030C940F280C94E12838
:100030000C942E1F0C94E9030C94E9030C94E9032F
:100040000C94E9030C94E9030C94E9030C94E90380
:100050000C94E9030C94961F0C94E9030C94E903A7
:100060000C94E9030C94E9030C94E9030C94E90360
:100070000C94E9030C94E9030C94E9030C94E90350
:100080000C94E9030C94E9030C94E9030C94E90340
:100090000C94E9030C94E9030C94E9030C94E90330
:1000A0000C94E9030C94E9030C94E90353145314DE
:1000B00085148514CB14E914401640162B15C01571
:1000C000D115D1153016401640163916C616C6166B
:1000D000D816D816CF16D816D816D816C616C616DD
:1000E000D416D816D816D4164E2975296D2A752916
:1000F0006D2AC129E4296D2A3B2A4A2A29001E00BB
:100100001F0020002100220035006500230024008C
:100110002500260027002A00390014001A000800D4
:10012000150017002F0030001C0018000C001200F2
:10013000130031002B0004001600070009000A001C
:10014000000000000B000D000E000F003300340013
:10015000E1001D001B0006001900050000570157B3
:1001600011001000360037003800E500E000E30021
:10017000E2002D002E0000000000000000005000F2
:10018000510052004F00E400000028422A412C6137
:100190004C00490046004A004D00025828412A0000
:1001A0002942000001003A003B003C003D003E00B7
:1001B000440045003F004000410042004300010070
:1001C0000100F900F400F000F500F9000100010061
:1001D0004B004A0052004D004B0001000100FA00A4
:1001E000F200F100F300FA00000000004E005000A1
:1001F00051004F004E00010001000353F400F600CF
:10020000F5000000010001000000000000000000F7
:1002100000000100010001000100010001000000D8
:1002200000000000000001000100010001000100C9
:100230000000010001000100010001000100B50003
:10024000B9000100010001000100000001003A00B6
:100250003B003C003D003E004400450000005300D0
:1002600054005500560001000100F900F400F000B0
:10027000F500F900010001004B00240025002600D4
:10028000570001000100FA00F200F100F300FA004B
:10029000000000004E002100220023005700010052
:1002A00001000353F400F600F50000000100010016
:1002B00000001E001F002000580001000100010086
:1002C000010001000100000000000000000000002B
:1002D0002700370058000100000001000100010064
:1002E0000100B300B20001000100010001000100A3
:1002F00001000000000000000000000000000000FD
:1003000000000000000000000000000000000000ED
:1003100000000000000000000000000000000000DD
:1003200000000000000000000000000000000000CD
:1003300000000000000000000000000000000000BD
:1003400000000000000000000000000000000000AD
:10035000000000000000000000000000000000009D
:10036000000000000000000000000000000000008D
:10037000000000000000000000000000000000007D
:1003800000000451045100000000000000000000C3
:10039000000000000000000000000000000000005D
:1003A000000000000000000000000000000000004D
:1003B000000000000000000000000000000000003D
:1003C000000000000000000000000000000000002D
:1003D000000000000000000000000000000000001D
:1003E000000000000000000000000000000000000D
:1003F00000000353000000000000000000000000A7
:1004000000000000000000000000000000000000EC
:1004100000000000000000000000000000000000DC
:1004200000000000000000000000000000000000CC
:1004300000000000000000000000000000000000BC
:100440000000000000000000000000002A2B28002F
:100450000000000000000000000000000000002973
:10046000000000002C1E3420212224342627252EB3
:10047000362D3738271E1F202122232425263333EB
:10048000362E37381F0405060708090A0B0C0D0E17
:100490000F101112131415161718191A1B1C1D2FE3
:1004A0003130232D350405060708090A0B0C0D0E03
:1004B0000F101112131415161718191A1B1C1D2FC3
:1004C0003130354C0000000000000000000000004A
:1004D000000000000000000000000000000000001C
:1004E000000000000000000000000000000000000C
:1004F00000000000000000000000000000000000FC
:1005000000000000000000000000000000000000EB
:1005100000000000000000000000000000000000DB
:1005200000000000000000000000000000000000CB
:1005300000000000000000000000000000000000BB
:1005400000000000000000000000000000000000AB
:10055000000000000000000000000000000000009B
:100560000000000000010101010101000101010181
:10057000000000000000000000000000000001007A
:10058000010001010101010101010101010101015C
:10059000010101010101010101010101010101004C
:1005A0000000010100000000000000000000000049
:1005B000000000000000000000000000000000013A
:1005C0000101010004033000000012034500720025
:1005D00067006F0044006F006E00650000001203AA
:1005E0004B002E0054002E0045002E0043002E002C
:1005F00000000403090409023B00020100A0FA09FB
:100600000400000103010100092111010001224041
:10061000000705810308000A090401000103000026
:100620000009211101000122C000070582032000FA
:100630000A1201100100000008EDFE0DE6010001A4
:1006400002030105010902A10185020901A10005BA
:1006500009190129051500250195057501810295E6
:1006600001750381010501093009311581257F9547
:10067000027508810609381581257F950175088165
:1006800006050C0A38021581257F9501750881063B
:10069000C0C005010980A1018503160100260300E1
:1006A0001A81002A8300751095018100C0050C098C
:1006B00001A1018504160100269C021A01002A9C52
:1006C00002751095018100C005010906A10185058B
:1006D000050719E029E71500250195087501810234
:1006E0000508190129059505750191029501750304
:1006F00091010507190029EF1500250195F07501F5
:100700008102C005010906A101050719E029E715C5
:100710000025019508750181029501750881010583
:100720000819012905950575019102950175039137
:10073000010507190029FF150026FF009506750819
:100740008100C00011241FBECFEFDAE0DEBFCDBFB5
:1007500004B603FE27C08091B1029091B202A0912D
:10076000B302B091B4028730904BA740B04BD1F4A4
:100770001092B1021092B2021092B3021092B4021F
:1007800014BE84B7877F84BF0FB6F894A895809174
:100790006000886180936000109260000FBEE0E00E
:1007A000F8E3099511E0A0E0B1E0E6E1FCE502C064
:1007B00005900D92A834B107D9F722E0A8E4B1E082
:1007C00001C01D92A13BB207E1F70E9439250C94AC
:1007D000092E0C9400001092B9008AE08093B800B2
:1007E000089594EA9093BC009091BC0097FFFCCFD1
:1007F0009091B900987F983021F0903111F081E00C
:1008000008958093BB0084E88093BC008091BC0075
:1008100087FFFCCF8091B900887F883111F0803448
:1008200071F780E008950C94F10384E98093BC0093
:100830008091BC0084FDFCCF08958093BB0084E8C8
:100840008093BC008091BC0087FFFCCF9091B900E1
:10085000987F81E0983209F480E0089584E88093DD
:10086000BC008091BC0087FFFCCF8091BB00089545
:1008700080B38F7080BB81B38F7081BB84B1897F5F
:1008800084B985B1897F85B90C94B3056E98769A41
:100890008AB183768AB98BB18C698BB93E98469AB6
:1008A00024982C9A0C94E8050C94CD060E943804E8
:1008B0000E944604ECE9F1E088E491E01192119283
:1008C000DC012EE01D922150E9F70E9621E08C39D3
:1008D0009207A1F70C9470080E9438040E94460405
:1008E000ECE9F1E0118210821382128215821482E7
:1008F00017821682118610861386128608952EE0BE
:10090000829FC0011124FC01E85BFE4F20E030E033
:1009100040E050E061E070E09081992319F091503F
:10092000908309C0CB01022E02C0880F991F0A9440
:10093000E2F7482B592B2F5F3F4F31962E30310570
:1009400059F7CA010895CF932EE0629FB001112498
:1009500020E030E0A1E0B0E0C5E0AD01022E02C031
:10096000440F551F0A94E2F748235923452B31F0D1
:10097000FB01E20FF31FE85BFE4FC0832F5F3F4F89
:100980002E30310551F7CF9108954F925F927F92AB
:100990008F929F92AF92BF92CF92DF92EF92FF928F
:1009A0000F931F93CF93DF930E94CE050CE911E0C4
:1009B000C0E0D1E0C33099F028F4C13051F0C2302A
:1009C00059F004C0C43071F0C53079F0849A8C9825
:1009D0000EC0859A8D980BC0869A8E9808C0879A0B
:1009E0008F9805C0219A299802C0229A2A988C2FA4
:1009F0000E94B70580EA8A95F1F78C2F0E947F0448
:100A00005C010E9419064B9904C060E4E62EF12CAB
:100A100002C0E12CF12C4A9903C0A0E2B0E002C070
:100A2000A0E0B0E04C9904C050E1452E512C02C02A
:100A3000412C512C369903C068E070E002C060E0A0
:100A400070E029B1022E000C330B2095309522273F
:100A5000330F221F3327220F331F220F331F6699B4
:100A600003C042E050E002C040E050E073B0F80143
:100A7000C080D1807294EFE07E227D2670FA8824B7
:100A800080F8912C882999298E299F298A2B9B2BC4
:100A9000F201E82BF92B6E2B7F2B262B372B422BC9
:100AA000532B4C255D25A422B522AC24BD246C2FEC
:100AB000C6018A259B250E94A304F801A192B19248
:100AC0008F010E943804CF5FC63009F073CF0E94B7
:100AD0007A0881E0DF91CF911F910F91FF90EF9005
:100AE000DF90CF90BF90AF909F908F907F905F905E
:100AF0004F900895E82FF0E0EE0FFF1FE456FE4FF1
:100B00008081918108950895853008F08F5F20914C
:100B1000A80130E0A90102C0559547958A95E2F7F2
:100B2000CA01817008951F93CF93DF93C091A901EB
:100B3000CC23A1F0D62F182F80E40E94F103C82FF8
:100B400081110AC0812F0E941D04C82F811104C089
:100B50008D2F0E941D04C82F0E9415048C2FDF9139
:100B6000CF911F9108956FEF81E00C9493058F5FF3
:100B700061E070E001C0660F8A95EAF7609581E058
:100B80000C9493056FEF82E00E9493056FEF8CE069
:100B90000E9493056FEF81E00C94930580E40E941E
:100BA000F10381110CC00E9415048091A9018111EB
:100BB0000EC081E08093A9010E94C20506C0809109
:100BC000A901813021F41092A9010C94B416089562
:100BD0000E94EB030C94CE050F931F93CF93DF93EA
:100BE000C091A901CC23D1F08B01D82F80E40E94C1
:100BF000F103C82F811110C08D2F0E941D04C82F32
:100C000081110AC081E40E941304C82F811104C01D
:100C10000E942E04F80180830E9415048C2FDF911E
:100C2000CF911F910F91089568EA71E082E10C94D1
:100C3000EC058F929F92AF92BF92EF92FF920F932B
:100C40001F93CF93DF930E941406C0E0D0E000E032
:100C500010E08DE0E82EF12C812C912C540183942E
:100C60008C2F0E948405882371F0C7018C1B9D0B7B
:100C7000A501940104C0220F331F441F551F8A95FC
:100C8000D2F7022B132B2196CE30D10549F7C8019C
:100C9000DF91CF911F910F91FF90EF90BF90AF9098
:100CA0009F908F90089584B1886684B985B18779C3
:100CB00085B9209A289A559A5D9A089525982D9875
:100CC00026982E9823982B982098289A259A2D9A22
:100CD0002FEF80E792E0215080409040E1F700C084
:100CE0000000269A2E9A2FEF80E792E02150804054
:100CF0009040E1F700C00000239A2B9A2FEF80E785
:100D000092E0215080409040E1F700C0000025981B
:100D10002D982FEF80E792E0215080409040E1F73E
:100D200000C0000026982E982FEF80E792E0215017
:100D300080409040E1F700C0000023982B98259850
:100D40002D9826982E9823982B982098289A0895C5
:100D50000E9453060E945E060C94CC068091AC0162
:100D6000813021F030F0823021F0089586E392E066
:100D700002C086E292E00C94AA078091AC01813017
:100D800021F030F0823021F0089587E392E002C034
:100D900087E292E00C94AA0708950E94A60F609142
:100DA0003A0270913B0280913C0290913D020E9478
:100DB0004E1D2098289A25982D9826982E9823988D
:100DC0002B98823039F0833041F08130B1F4259A8C
:100DD0002D9A13C0269A2E9A10C08091AA01909144
:100DE000AB0101969093AB018093AA0191FF0BC0D8
:100DF000259A2D9A269A2E9A04C00E94041181FFEA
:100E000002C0239A2B9A0895FC018081813031F42D
:100E10008185811108C0828590E00895823031F08B
:100E200083E090E0089580E090E0089582E090E013
:100E300008950E9404078093AC01813021F050F0A6
:100E4000823021F0089586E392E006C086E292E0C7
:100E50000E94C00786E292E00C9494070E94040767
:100E60008093AC01813021F050F0823021F0089560
:100E700087E392E006C087E292E00E94C00787E223
:100E800092E00C9494070F931F93CF93DF939C01F0
:100E90003A9521153F4148F5EB018C0190FF03C0C5
:100EA00080EEFB01099511FF03C081EEFE0109955B
:100EB00012FF03C082EEFE01099513FF03C083EE0B
:100EC000FE0109950115104180F084EEFE0109959F
:100ED00085EEFE01099586EEFE01099587EEFE017D
:100EE000DF91CF911F910F910994DF91CF911F91C5
:100EF0000F910895877091E001C0990F8A95EAF7E4
:100F0000892F0E94B01C0C94EB1C0C947A078770FC
:100F100091E001C0990F8A95EAF7892F0E94B61CCB
:100F20000C94EB1C0C948707CF93DF93EC01805E4D
:100F30009109089710F0209719F46AE777E002C04A
:100F400065E877E0CE010E9443078C2FDF91CF91B7
:100F50000C947A12CF93DF93EC010E949813CE0188
:100F6000805E9109089710F0209719F467E877E000
:100F700002C062E977E0CE01DF91CF910C94430784
:100F8000CF93DF93EC010E949407CE01DF91CF91C4
:100F90000C94AA0781E0089581E008950C94CC0791
:100FA0001F93CF93DF9300D000D01F92CDB7DEB751
:100FB00049835A836B832091CA0189819A812111C7
:100FC00012C0662349F00E94161C182F682F8981D1
:100FD0009A810E94BF1B03C00E94EA1B182F6981DF
:100FE0007A81812F04C00E94161C69817A810F903A
:100FF0000F900F900F900F90DF91CF911F910C9455
:101000006B0AFC01408151816281738184810C945F
:10101000D0071F93CF93DF9390E0FC01EC5BFB4F75
:101020001491FC01EC5BFA4FD491FC01EC53FB4FA3
:10103000C491DD2319F081EE0E947A12CC2319F0BD
:1010400086EE0E947A12812F0E940014CC2319F0A0
:1010500086EE0E949813DD2331F081EEDF91CF916F
:101060001F910C949813DF91CF911F910895FF92D7
:101070000F931F93CF93DF93EC01F62E8881882383
:1010800031F18E010F5F1F4F813031F4C9818C2FF8
:101090000E947A128C2F0AC0823029F489810E9422
:1010A0007A12E80108C0833021F489810E949813E4
:1010B000F8CF0E94090821968F2D8823F9F2EFE9D5
:1010C000FFE03197F1F700C000008150F6CFDF91CB
:1010D000CF911F910F91FF90089560E00C94370815
:1010E0000E949E1D811102C00E94481E0E942C0D6C
:1010F0000C94A8060E94DA0E0C945404282F2F702A
:1011000041F0822F90E02A3010F44D960895069712
:10111000089587E290E0089508950C948C080C944B
:101120008D0808950E94B4160E9491082FEF84E361
:101130009CE0215080409040E1F700C000000C94FA
:10114000BC1F0F931F93CF93DF938C010E94010864
:10115000EC01B8010E94370EB801CE010E94CE0703
:10116000882309F4AEC1B801CE010E947E0E882307
:1011700009F4A7C1B801CE010E94A00D882309F48B
:10118000A0C1B801CE010E94E00F882309F499C1E3
:10119000B801CE010E94BE10882309F492C1C63165
:1011A000FCE5DF0739F50E94971C982FF801828132
:1011B0002091300130913101882379F09A7A81E0D1
:1011C00009F480E08093AD01911102C069E201C091
:1011D00065E3C9010E94B01E0AC08091AD01811172
:1011E00002C069E201C065E3C9010E94BB1E0E9402
:1011F000EB1C67C1C7318CE5D80708F037C1C13097
:10120000ECE5DE0771F4F8018281882309F459C105
:1012100080916702982F909590FB80F980936702E8
:1012200050C1C230FCE5DF0708F40FC1F80182812C
:10123000882309F40DC10E949E1D811102C00E94E5
:10124000481E0E94BB1D9093A3028093A202CF3040
:10125000FCE5DF0709F4CDC008F042C0C830ECE57A
:10126000DE0709F4A8C0F0F4C4308CE5D80709F40F
:1012700090C068F4C230FCE5DF0709F486C0C330D3
:10128000DC4509F0D9C08091A2028260D3C0C6308B
:10129000ECE5DE0709F487C008F089C08091A2025E
:1012A0008860C8C0CB308CE5D80709F493C068F4D7
:1012B000C930FCE5DF0709F482C0CA30DC4509F01B
:1012C000BBC08091A20288607EC0CD30ECE5DE0715
:1012D00009F484C008F085C08091A2028D7FAAC065
:1012E000C73F8CE5D80709F457C050F5C231FCE57B
:1012F000DF0709F486C068F4C031ECE5DE0709F4C5
:101300007CC0C131DC4509F097C08091A2028F7B7F
:1013100091C0C4318CE5D80709F483C008F475C0C6
:10132000C531DC4509F088C08091A20282FB2227EA
:1013300020F991E0922790FB82F990FB83F97AC023
:10134000CA3F8CE5D80709F450C058F4C83FFCE503
:10135000DF0729F1C93FDC4509F06EC08091A30287
:101360005CC0CC3FECE5DE0709F454C070F1CD3F22
:10137000DC4509F061C08091A302982F909591708F
:101380008E7F892B90FB81F949C08091A2028160F8
:1013900051C08091A20217C08091A30219C0809110
:1013A000A30282603BC08091A202806143C0809111
:1013B000A20280623FC08091A20280643BC0809103
:1013C000A202806837C0846035C08091A302826029
:1013D000816024C08091A2028E7F2CC08091A202E5
:1013E00017C08091A202877F25C08091A3028D7FC4
:1013F00015C08091A2028F7E1DC08091A2028F7DB8
:1014000019C08091A2028F7715C08091A202877FB8
:101410008B7F10C08091A3028D7F8E7F8093A3026B
:101420000BC08091A20287FB222720F991E092272E
:1014300090FB87F98093A2028091A2029091A3026F
:101440000E94CC1D0E94B4163CC0C115DC4539F089
:10145000C801DF91CF911F910F910C94CA07F80139
:101460008281882371F10E9492082BC0CE3DECE569
:10147000DE0739F4F8018281882319F10E94481EA1
:1014800020C0CF3DFCE5DF07A8F4CC3D8CE5D807B4
:1014900031F4F80182818823A1F080E008C0CD3DBD
:1014A000DC45B1F6F8018281882359F082E00E9480
:1014B000D62507C0CE01875F9C45079708F4B6CEB6
:1014C000C7CF80E0DF91CF911F910F91089580E009
:1014D00090E00895089524E5829FC0011124FC0145
:1014E0002EE0729FE00DF11D1124E60FF11DEE0FAD
:1014F000FF1FE450FF4F859194910895880F991F25
:10150000FC01EC53FA4F859194910895CF93DF93AA
:101510000E946B0A0E94400CEC018115904508F076
:1015200041C0C11580E4D80708F028C1C83ED105E4
:1015300010F5C03ED10508F09FC1C83AD10578F436
:10154000C53AD10508F0A2C0C130D10509F494C153
:1015500008F445C1C430D10508F08EC140C1CF3B6D
:10156000D10508F49EC0C03CD10508F438C1CE01B5
:10157000805C9109F5C0C11590E2D90758F4C115F6
:1015800021E0D20708F078C1C03FD10508F427C197
:10159000D06572C1C11580E3D80708F0E5C0CE015F
:1015A0009F70DEC0C11595E5D90708F043C0C1158D
:1015B00024E5D20708F0F9C0C11582E5D80708F57F
:1015C000C11591E5D90708F0DCC0CE0174E096950D
:1015D00087957A95E1F783709C2F937021E030E036
:1015E00002C0220F331F9A95E2F73C68382BCF7068
:1015F000C695C69580E2C89FE0011124C22BD32B6B
:101600003BC19E01237033278C2F86958695C1158B
:10161000D34508F0BBC0C1E0D0E002C0CC0FDD1F55
:101620002A95E2F720E2829FC0011124C82BD92B12
:10163000DC6822C1C11529E5D207A0F4C11588E5EF
:10164000D80708F0B7C0C11596E5D90708F0C7C09C
:101650008C2F0E94D40C8F71C82FD0E0DC2FCC27A8
:10166000D0620AC1C1152AE5D20708F4A8C0CE018C
:1016700090568115904208F0B2C08D2F8F710E9454
:10168000D40CDD27D0628F71D82BF6C0C53AD105B6
:1016900009F4A8C0C63AD10509F0A7C0C2E8D0E451
:1016A000EBC0C83AD10509F4A3C0C93AD10509F481
:1016B000A2C0CA3AD10509F4A1C0CB3AD10509F4B8
:1016C000A0C0CC3AD10509F49FC0CB3BD10509F4A9
:1016D0009EC0CC3BD10509F49DC0CD3AD10509F49B
:1016E0009CC0C03BD10509F49BC0CE3AD10509F49A
:1016F0009AC0CF3AD10509F499C0C13BD10509F48C
:1017000098C0C23BD10509F497C0C33BD10509F489
:1017100096C0C43BD10509F495C0C53BD10509F479
:1017200094C0C63BD10509F493C0C73BD10509F469
:1017300092C0C83BD10509F491C0C93BD10509F459
:1017400090C0CD3BD10509F48FC0CE3BD10509F443
:101750008EC0CA3BD10509F48DC0C0E0D4E48CC072
:101760000E947E0AEC0188C0CE019927D3FF03C0F6
:10177000EC01D86C81C0EC01D06C7EC0DF70D06A07
:101780007BC0DC2FCC27C16FD06A76C0C1E0D0E02F
:1017900002C0CC0FDD1F2A95E2F720E2829FC00134
:1017A0001124C82BD92BDA6867C0DC2FCC27C46F73
:1017B000D06A62C0DC2FCC27C06FD06A5DC08C2F8E
:1017C0008F700E94D40C94E0D695C7959A95E1F756
:1017D000CF70D0E0DC2FCC27D069C82B4DC0C0E043
:1017E000D0E04AC0C1E8D0E447C0C3E8D0E444C078
:1017F000C2EED4E441C0C9EED4E43EC0CAEED4E4A3
:101800003BC0C5EBD4E438C0C6EBD4E435C0C3EB71
:10181000D4E432C0C4EBD4E42FC0C7EBD4E42CC072
:10182000CCECD4E429C0CDECD4E426C0C3E8D5E4A4
:1018300023C0CAE8D5E420C0C2E9D5E41DC0C4E98C
:10184000D5E41AC0C1E2D6E417C0C3E2D6E414C09E
:10185000C4E2D6E411C0C5E2D6E40EC0C6E2D6E4C6
:101860000BC0C7E2D6E408C0CFE6D4E405C0C0E7A9
:10187000D4E402C0CAE2D6E4CE01DF91CF9108954C
:101880008238910569F1B0F48133910509F46DC096
:1018900048F48932910509F463C08A32910509F44C
:1018A00069C008958533910509F455C089339105C0
:1018B000B9F00895833E910569F138F4803E9105B1
:1018C000B1F0823E910509F10895863E9105A9F196
:1018D000873E9105B9F1843E910509F064C023C0AB
:1018E0002091A20220FD4FC021FD4DC0089580919E
:1018F000A20280FD44C08091A30280FF44C0809179
:10190000A20284FD42C083EE4DC08091A20282FFFC
:1019100038C0F5CF8091A20282FD33C08091A3022E
:1019200080FD31C0ECCF8091A30281FF32C0809155
:10193000A20284FD2AC087EE35C08091A20283FFF7
:1019400026C0F5CF8091A20283FD21C08091A30221
:1019500081FD1FC0ECCF8091A20285FD1CC01DC07F
:101960008091A20285FD19C016C08091A20286FD59
:1019700016C017C08091A20286FD13C010C089E373
:1019800011C082EE0FC080EE0DC080E00BC086EE6D
:1019900009C084EE07C089E205C085E303C08AE27E
:1019A00001C081E390E008959091A20292FF0DC0E2
:1019B000282F2871283019F4877F846006C0282FCB
:1019C0002471243011F48B7F886093FF0DC0282F81
:1019D0002871283119F4877E846106C0282F24716C
:1019E000243111F48B7E88612091A30220FF0DC069
:1019F000382F3871383019F4877F816006C0382F4E
:101A00003171313011F48E7F886021FF0DC0282F95
:101A10002871283119F4877E816106C0282F217131
:101A2000213111F48E7E886194FD877E0895CF93D5
:101A3000DF9397FF0DC0FB012281222349F0EC01C7
:101A40000E94420DCE019F770E94830D0E946C0D73
:101A500081E0DF91CF9108958CE090E00E94902D7D
:101A600090E0A0E0B0E08093970290939802A0935A
:101A70009902B0939A020895609197028CE090E0E9
:101A80000C949E2D0E94971C80939B020E94AA1C7E
:101A900080919702813071F048F0823081F084307B
:101AA000A1F486EE0E94001488E10DC082EE0E942F
:101AB0007A120BC088E193E00E94C00706C082EE54
:101AC0000E947A1287E50E9400148FE39CE9019737
:101AD000F1F700C00000089580919702813039F03D
:101AE00040F0823031F0843051F488E206C08CE25C
:101AF00004C082EE0E94981302C00E9400148091DC
:101B00009B020C94A71C0F931F93CF93DF938C0120
:101B1000CCE0D0E0C8010C2E02C0969587950A94BF
:101B2000E2F78F700E947E080E9400142497CC3F39
:101B30008FEFD80779F7DF91CF911F910F9108951B
:101B40000F931F93CF93DF93EC018B01FB018281F5
:101B5000882319F1C33EFCE5DF07C1F050F4C13E14
:101B6000ECE5DE0781F0C23EFCE5DF07B1F481E081
:101B700010C0C43E8CE5D80759F0C53EECE5DE0741
:101B800061F484E006C01092970205C082E001C0B3
:101B900083E0809397020E943C0DB801CE01DF9153
:101BA000CF911F910F910C94170DCF93DF93EC0100
:101BB00081E0898B8F810E949A1C88850E94B01CCD
:101BC0000E94EB1CEA81FB81CE010696309729F03A
:101BD0006C897D89DF91CF910994DF91CF91089530
:101BE000EF92FF920F931F93CF93DF93FC01228517
:101BF000211136C0EC01E380F480F7E5FF1A26E1FD
:101C00002E9DC0012F9D900D1124DC01A050BF4FCF
:101C10001496ED91FC9115978A5F9E4F309729F0AD
:101C200054966D917C915597099586E18E9D800122
:101C30008F9D100D112400501F4FF80187810E94C5
:101C4000A01CF80180850E94B61C0E94EB1C188223
:101C500019861B861E821D821092AF011092AE0162
:101C6000DF91CF911F910F91FF90EF900895DF9238
:101C7000EF92FF920F931F93CF93DF93FB0122818B
:101C80002223A1F120912C012F3F81F18C01C0E092
:101C9000D1E0E12CF12CDD24D39480912C01082E8D
:101CA000000C990B8E159F050CF18E818823C9F0CD
:101CB00089859A858017910739F48091AE019091BA
:101CC000AF010817190769F0DF861C870B87898920
:101CD000811103C0CE010E94D50DCE0106960E944F
:101CE000F00DFFEFEF1AFF0A6696D7CFDF91CF9185
:101CF0001F910F91FF90EF90DF900895EF92FF9268
:101D00000F931F93CF93DF939C0137552F3F3105DE
:101D100011F008F047C040912C01042E000C550B27
:101D20004217530714F420932C01FB017C0182819C
:101D300096E1929F8001939F100D1124E801C050FD
:101D4000DF4F888B92818E81992311F1FA86E98683
:101D50008F5F8E830E94601F9E878D870E94D01C9C
:101D60008F830E94971C88870E94AD1C9885892BC1
:101D70008887E881F981C8018A5F9E4F309719F002
:101D80006C897D890995F092AF01E092AE010AC09D
:101D9000882341F08989882329F0C8018A5F9E4FF2
:101DA0000E94F00D81E0DF91CF911F910F91FF9084
:101DB000EF900895CF92DF92EF92FF920F931F93CF
:101DC000CF93DF9380912C018F3FF1F1F12C96E1BD
:101DD000E92E0F2D10E080912C01082E000C990B9C
:101DE000801791078CF1E09EF001E19EF00D112427
:101DF000E050FF4FC288D388C114D10419F488EC95
:101E0000C82ED12CE09EE001E19ED00D1124C050DF
:101E1000DF4F8E818823B1F08D859E850E946C1FD7
:101E2000C816D90678F48989811103C0CE010E94B1
:101E3000D50DE09EC001E19E900D11248A5F9E4F5A
:101E40000E94F00DF394C5CFDF91CF911F910F91B8
:101E5000FF90EF90DF90CF9008950F931F93CF9353
:101E6000DF93CDB7DEB728970FB6F894DEBF0FBE6D
:101E7000CDBF80912F018F9380912E018F9382E4AB
:101E800091E09F938F931F9288E08F938E010F5F55
:101E90001F4F1F930F930E94CF2AC8010E946D0805
:101EA0000FB6F894DEBF0FBECDBF28960FB6F894DC
:101EB000DEBF0FBECDBFDF91CF911F910F9108956F
:101EC000CF93DF93EC010E94601F9093B301809346
:101ED000B201D093B101C093B001DF91CF910895C9
:101EE000CF93DF938091B0019091B101892B59F18B
:101EF0008091B2019091B3010E946C1FEC0180911E
:101F00002E0190912F018C179D0718F481EE0E94ED
:101F10007A128091B0010E947A128091B0010E94E1
:101F2000981380912E0190912F018C179D0718F422
:101F300081EE0E9498131092B3011092B201109298
:101F4000B1011092B001DF91CF9108958091B0015D
:101F50009091B101892B19F18091B2019091B30157
:101F60000E946C1F20912E0130912F0128173907F4
:101F7000B0F481EE0E947A128091B0010E947A1230
:101F80008091B0010E94981381EE0E9498131092E4
:101F9000B3011092B2011092B1011092B0010895F4
:101FA00010922D010C94700F80912D01882321F047
:101FB00010922D010C94700F81E080932D010895F3
:101FC0001F93CF93DF93EC01FB011281112309F4DE
:101FD00059C08436910509F444C078F48B329105D8
:101FE00009F43FC028F40497849708F048C039C02A
:101FF0008D970C9708F043C034C089319C4539F166
:10200000CA318CE5D80768F4C731ECE5DE07A1F0EA
:10201000C831DC45A1F580912E0190912F010597E3
:1020200010C0CB318CE5D807C1F0A0F0CC31DC4535
:1020300031F50E94D00F09C080912E0190912F019F
:10204000059690932F0180932E0110E01EC00E94F0
:102050002D0FFBCF0E94D40FF8CF81E080932D018C
:10206000F4CF0E94700F80912D01882371F00E949F
:10207000971C81110AC0CE010E94600FE6CF0E941A
:10208000700F03C00E94700F11E0812FDF91CF917C
:102090001F9108950F931F93CF93DF93C62FD42FD3
:1020A000122FFC0182818823C9F06093B6010E943F
:1020B000601F9093B5018093B40180E28C0F88304B
:1020C00008F057C0C77081E001C0880FCA95EAF7D1
:1020D000DF91CF911F910F910C9413148091B60151
:1020E000681330C08091B4019091B5010E946C1FBB
:1020F000883C910538F500E20D0FCD17B9F080E26C
:102100008C0F883040F4C77081E001C0880FCA95F9
:10211000EAF70E941A14083028F581E09D2F977085
:1021200001C0880F9A95EAF70E941314812F0E942C
:1021300000140830F0F4D77081E001C0880FDA9500
:10214000EAF70AC080E28C0F883098F4C77081E00B
:1021500001C0880FCA95EAF7DF91CF911F910F91C7
:102160000C941A14812FDF91CF911F910F910C9431
:102170000014DF91CF911F910F9108959C01CB0125
:10218000203F4CE53407F9F078F4283DFCE53F07A3
:10219000B9F0293D4CE5340711F1273D3C4531F5B7
:1021A00026E241EE61EE1EC0223FFCE53F0799F0BA
:1021B00070F0233F3C45D1F427E245EE66EE12C0B5
:1021C00027E245EE0EC026E241EE60EE0BC027E2AC
:1021D00045EE64EE07C026E241EE62EE03C028E25F
:1021E00041E065EE0E944A1080E00895FC01828182
:1021F000882319F01092B601089581E00895909314
:10220000BC018093BB010895E091BB01F091BC013A
:10221000309721F00190F081E02D099480E008953D
:10222000E091BB01F091BC01309799F02091410100
:10223000222359F02091A20227FF07C0DC012C9134
:1022400011962C93119725E02C930280F381E02DB9
:1022500009940895E091BB01F091BC01309739F0E9
:1022600022E0DC012C930480F581E02D099408958F
:102270002091B9013091BA012817390771F0909374
:10228000BA018093B901E091BB01F091BC01309794
:1022900021F00680F781E02D099408952091B7017F
:1022A0003091B8012817390771F09093B8018093E5
:1022B000B701E091BB01F091BC01309721F000849F
:1022C000F185E02D0994089585B7806885BF85B7AD
:1022D000806885BF089508950C946B110C946C115F
:1022E0000C946B110C946B110E9464110E9470117C
:1022F0000C946E1181E008950E94571F0E945604AD
:102300000E942C20E2EAF2E08081806880830C94B5
:1023100072115F926F927F928F929F92AF92BF9253
:10232000CF92DF92EF92FF920F931F93CF93DF93A1
:10233000CDB7DEB72A970FB6F894DEBF0FBECDBF7C
:102340000E94C5040E947A11811111C08FEF898308
:102350008A831B820E94601F8160782F9D838C83FB
:1023600049815A816B818D810E94461256C09EEB35
:10237000692E91E0792E00E010E088248394912C5E
:10238000502E802F0E947A056C01F301A190B1902C
:102390003F01A826B926A114B10431F40F5F1F4FE5
:1023A0000630110569F7D2CF8091670281FD0E9446
:1023B000830580E090E07401082E02C0EE0CFF1C43
:1023C0000A94E2F795012E213F21232B09F18E83F8
:1023D0005F82CE20DF2081E0CD2809F480E088876D
:1023E0000E94601F8160782F9A8789874E815F8164
:1023F00068858A850E944612000F111FF801E25479
:10240000FE4F80819181E826F926F182E08205C0A5
:1024100001968E30910579F6C1CF0E94D0220E949C
:1024200004119091BD018917D9F00E940411809385
:10243000BD012A960FB6F894DEBF0FBECDBFDF9167
:10244000CF911F910F91FF90EF90DF90CF90BF90B1
:10245000AF909F908F907F906F905F900C948F08BB
:102460002A960FB6F894DEBF0FBECDBFDF91CF9195
:102470001F910F91FF90EF90DF90CF90BF90AF90A2
:102480009F908F907F906F905F900895CF93DF9390
:10249000CDB7DEB72B970FB6F894DEBF0FBECDBF1A
:1024A0004F83588769877A878B87DE01119686E08C
:1024B000FD0111928A95E9F785E0FE0137960190BA
:1024C0000D928A95E1F749815A816B817C818D81DA
:1024D0009E810E9484192B960FB6F894DEBF0FBE22
:1024E000CDBFDF91CF910895FC01808191810E9441
:1024F000581C0895882309F41AC18238C1F40E9437
:10250000041181FD14C169E3809130019091310182
:102510000E94B01E0E94EB1C2FEF81EE94E0215030
:1025200080409040E1F700C0000069E319C08338A3
:10253000F9F40E94041180FDFAC063E58091300136
:10254000909131010E94B01E0E94EB1C2FEF81EE92
:1025500094E0215080409040E1F700C0000063E526
:1025600080913001909131010E94BB1E0C94EB1CB4
:102570008438C1F40E94041182FDD9C067E48091BF
:102580003001909131010E94B01E0E94EB1C2FEF90
:1025900081EE94E0215080409040E1F700C00000BF
:1025A00067E4DECF9CEF980F913A40F4682F80915A
:1025B0003001909131010E94B01ED8CF90E2980F67
:1025C000983050F4877091E001C0990F8A95EAF72E
:1025D000892F0E949A1CCACF9BE5980F933070F404
:1025E000853A29F0863A31F083E890E005C081E829
:1025F00090E002C082E890E00C94381198E5980FC2
:10260000973108F08EC0883A09F445C0893A09F438
:1026100045C08A3A09F445C08B3A09F445C08C3A62
:1026200009F445C08B3B09F445C08C3B09F445C017
:102630008D3A09F445C0803B09F445C08E3A09F44F
:1026400045C08F3A09F445C0813B09F445C0823B3F
:1026500009F445C0833B09F445C0843B09F445C0F7
:10266000853B09F445C0863B09F445C0873B09F426
:1026700045C0883B09F445C0893B09F445C08D3B02
:1026800009F445C08E3B09F445C08A3B09F445C0B6
:1026900080E090E044C082EE90E041C089EE90E09E
:1026A0003EC08AEE90E03BC085EB90E038C086EB00
:1026B00090E035C083EB90E032C084EB90E02FC017
:1026C00087EB90E02CC08CEC90E029C08DEC90E082
:1026D00026C083E891E023C08AE891E020C082E927
:1026E00091E01DC084E991E01AC081E292E017C038
:1026F00083E292E014C084E292E011C085E292E0AD
:102700000EC086E292E00BC087E292E008C08FE63E
:1027100090E005C080E790E002C08AE292E00C946D
:102720004E11803F20F00E94D8210C94C5220895BC
:10273000882309F464C0823879F40E94041181FF6F
:102740005EC069E380913001909131010E94B01E1A
:102750000E94EB1C69E310C08338B1F40E9404119D
:1027600080FF4DC063E580913001909131010E945E
:10277000B01E0E94EB1C63E5809130019091310105
:102780000E94BB1E0C94EB1C843879F40E94041147
:1027900082FF35C067E480913001909131010E9441
:1027A000B01E0E94EB1C67E4E7CF9CEF980F913AB4
:1027B00010F4682FE1CF90E2980F983050F48770B2
:1027C00091E001C0990F8A95EAF7892F0E94A01C19
:1027D000D9CF9BE5980F933020F480E090E00C94E3
:1027E000381198E5980F973120F480E090E00C9430
:1027F0004E11803F20F00E9440220C94C522089583
:10280000CF93C82F0E947A12C93349F42FEF87EE75
:1028100093E0215080409040E1F700C000008C2FF1
:10282000CF910C949813882321F00E949A1C0C9449
:10283000EB1C0895882321F00E94A01C0C94EB1C33
:102840000895CF92DF92EF92FF920F931F93CF9351
:10285000DF937C01062FC72FFC01158112951F7095
:10286000D281D1110E94BD1C0E94901C882379F056
:10287000DD2369F080E2800F883048F082E00E941A
:10288000351D0E94901C91E0D82ED92601C0D12C74
:10289000CC2EC2948FE0C8228C2D90E0FC01EA5A25
:1028A000FF4F0C94B52A8C2F807FCF70882311F0B6
:1028B000C295C07FDD2399F0CC2309F4BCC180E22E
:1028C000800F883010F0011104C08C2F0E949A1CD8
:1028D00003C08C2F0E94B01C0E94EB1CACC1802F47
:1028E0000E949813CC2309F4CBC180E2800F88307A
:1028F00010F0011104C08C2F0E94A01C03C08C2F6B
:102900000E94B61C0E94EB1CBBC18C2F807FCF7035
:10291000803211F0C295C07F002319F00130C9F058
:1029200021C0DD2371F0112341F0113031F40E94F8
:10293000D01C8C2B0E94D81CA3C10E94D01C8C2BB5
:1029400016C0112319F0113009F49AC10E94E11C3C
:102950001EC0DD2321F0123008F092C107C0111112
:102960008FC115C0DD2331F0111165C18C2F0E947C
:10297000131486C1112359F0093309F06DC1FFEF1B
:1029800027EE83E0F15020408040E1F763C18C2FB7
:102990000E941A1475C18C2F86958695837019F044
:1029A000813061F06DC1DD2321F0802F9C2F937069
:1029B00002C080E090E00E9438116AC1DD2321F05E
:1029C000802F9C2F937002C080E090E00E944E11F7
:1029D0005FC1DD23F9F0053F51F0063F71F0043F80
:1029E000A9F480919C0290919D0281600BC080911E
:1029F0009C0290919D02826005C080919C02909102
:102A00009D02846090939D0280939C02802F0E947F
:102A1000D8211EC0053F51F0063F71F0043FA9F4D4
:102A200080919C0290919D028E7F0BC080919C02B0
:102A300090919D028D7F05C080919C0290919D0296
:102A40008B7F90939D0280939C02802F0E94402256
:102A50000E94C5221DC18C2F837009F045C0D11181
:102A600013C1402F429546954770440F440F602F85
:102A70006F70862F90E0A0E0B0E0042E04C0880FB5
:102A8000991FAA1FBB1F0A94D2F704FF10C00FE0C2
:102A900010E020E030E004C0000F111F221F331FA0
:102AA0004A95D2F7009510952095309503C000E027
:102AB00010E09801C695C695C370BC01CD01602B8E
:102AC000712B822B932BC23049F058F4C13019F08E
:102AD0000E94D51AD9C00E94C31AD6C00E94E71A14
:102AE000D3C00E94C11AD0C0DD2319F08C2F817091
:102AF00001C08695882309F4C7C0402F42954695AA
:102B00004770440F440F602F6F70862F90E0A0E055
:102B1000B0E0042E04C0880F991FAA1FBB1F0A949F
:102B2000D2F704FF10C00FE010E020E030E004C056
:102B3000000F111F221F331F4A95D2F700951095E1
:102B40002095309503C000E010E09801C695C69529
:102B5000C370BC01CD01602B712B822B932BC23033
:102B600049F058F4C13019F00E949A1B8DC00E94A0
:102B7000881B8AC00E94AC1B87C00E94FB1A84C0BD
:102B8000CF70DD2339F08C2F0E94211B802F0E94F3
:102B900013147AC0802F0E941A148C2F0E94421B9B
:102BA00073C0023FF9F028F4003F41F0013F99F073
:102BB0003EC0033FF1F0043F31F139C0DD2339F06D
:102BC00011115EC08C2F8F710E94671B59C012308B
:102BD00008F056C0F7CFDD2339F08C2F8F710E949B
:102BE000211B4EC0DD23C9F38C2F8F710E94421B25
:102BF00047C0DD2329F08C2F8F710E940C1B40C031
:102C00000E94071B3DC0DD2349F0CF718C2F0E942D
:102C1000211B63E08C2F0E94201D32C081E00E94A6
:102C2000351D123068F182E00E94351D29C0DD2378
:102C300031F0112391F2802F0E947A1221C01123CA
:102C400099F2093349F49FEFE7EEF3E09150E04049
:102C5000F040E1F700C00000802F0E94981310C0E0
:102C60004C2F4F70602FC7010E94670A0E94321AD2
:102C70000FC04C2F4F70602FC7010E946A0A08C016
:102C800088EF8C0D843020F40E9404110E948F087C
:102C9000DD20C9F00E948C1C80FD15C0F701128256
:102CA0000E94861C0E94211BC7010E946C160E9474
:102CB000861CDF91CF911F910F91FF90EF90DF90D5
:102CC000CF900C94421BDF91CF911F910F91FF90F9
:102CD000EF90DF90CF9008950F931F93CF93DF93E2
:102CE000EC01988189812B813C81232B31F08F3F2E
:102CF00031F481E09F3F19F403C081E001C080E01E
:102D000080FD13C0CE010E94A108882371F0688164
:102D100079818A810E94631C8C010E94BE1B0E94E3
:102D2000AF1AB801CE010E942114DF91CF911F91FB
:102D30000F9108950E94BD1C0E94CD1C0E94EB1CA7
:102D40000E946B230E94C52280E090E00E9438110F
:102D500080E090E00C944E1180913001909131010F
:102D60000E94C61E0C949A160E94AA1C0C94AC16C3
:102D7000E92FE295EF704E2F50E0FA013297EE30D6
:102D8000F105B0F4EA59FF4F0C94B52A803F91F059
:102D900018F4883E68F40EC0843F51F40BC0883E9E
:102DA00048F0813F29F406C093FB882780F90895F5
:102DB00080E0089581E008950E94581C0E94B81692
:102DC0000895CF93DF9300D000D01F92CDB7DEB728
:102DD0000F900F900F900F900F90DF91CF9108956B
:102DE000CF93DF9300D000D000D0CDB7DEB72696CA
:102DF0000FB6F894DEBF0FBECDBFDF91CF9108951F
:102E00001F93CF93DF93C091CB0116E08091CC014B
:102E1000C81799F0D0E01C9FF0011D9FF00D112400
:102E2000E353FE4F4081518162817381848195819A
:102E30000E94F0162196C770E9CFDF91CF911F91C4
:102E400008954091FD015091FE016091FF01709144
:102E5000000280910102909102020C94F016CF932F
:102E60008091020282958F7009F05FC08091FF010E
:102E7000882309F45AC08091CB01B091CC017091A4
:102E8000FD01A091FE01409100025091010291E0EC
:102E90007F3F09F090E0692FC6E08B1709F445C029
:102EA0004115510521F0AF3F21F020E003C021E0A2
:102EB00001C0262F90E020FD35C0C89FF001C99FBA
:102EC000F00D1124E353FE4F21812A132BC02081E2
:102ED000271328C02281211125C023813481241782
:102EE000350710F421503109241B350B283C3105DE
:102EF000C8F4209102022F7020612093020226E084
:102F0000289FF001299FF00D1124EE52FE4F808181
:102F10008F70806180838DEF91E00E946C16CF915D
:102F20000C94001701968770B8CFCF910895AF9297
:102F3000BF92CF92DF92EF92FF920F931F93CF93A6
:102F4000DF93CDB7DEB761970FB6F894DEBF0FBE43
:102F5000CDBF8C0185E0F801DE011D9601900D9238
:102F60008A95E1F7D8014C9111965C9111971296D0
:102F7000EC903091FD016091FE01809100029091F2
:102F80000102009731F06F3F31F421E03F3F19F427
:102F900003C021E001C020E0B22FB170BB2E20FDA4
:102FA00060C1F801C380D480A090FF01AA2009F479
:102FB000EEC020910202C816D90628F0D601A81B3F
:102FC000B90BCD0104C0809590958C0D9D1DFF24FB
:102FD000F394883C910580F0F12C207F09F09CC08F
:102FE0007C2DD98AC88A6E2D89890E94E1168DEFC1
:102FF00091E00E946C162DC1822F807F09F054C091
:10300000561314C0431312C0FE2CE1100FC02F70D2
:103010002061209302020E9421178DEF91E00E940F
:103020006C1680910202F80185835CC1CD2831F0D5
:103030005F3F31F481E04F3F19F403C081E001C0EC
:1030400080E080FD03C081E08E2502C080E090E03A
:10305000F82FF170FF2E80FF1CC08091CB012091D2
:10306000CC0136E0821709F41AC190E0389FF001D4
:10307000399FF00D1124E353FE4F6181561306C0B2
:103080006081461303C06281E61203C00196877017
:10309000E9CFFE2CEE2009F425C180910202816067
:1030A00080930202F12C1EC1561309C0431307C0BE
:1030B000E11005C080910202F8018583A4C04D870C
:1030C0005E878D859E850E94DC16882379F1EE202F
:1030D00069F120910202822F82958F7090E0029711
:1030E00074F08091FD019091FE0198878F8319867D
:1030F000DB86CA862C87CE0107960E946C1686E076
:10310000F801ADEFB1E001900D928A95E1F70E94D0
:103110002F170E9421170DC0561771F04D875E873B
:103120008D859E850E94DC1681111AC0C8010E94FF
:103130006C16FF24F394D6C04313F0CFE110EECF0A
:1031400080910202F8018583C8010E946C1686E016
:10315000EDEFF1E0DF011D928A95E9F7FA2CC2C08C
:10316000EE2021F320910202822F82958F7090E051
:1031700002972CF28091FD019091FE019A83898340
:103180001B82DD82CC822E83CE010196B6CFC8167B
:10319000D90628F0F601E81BF90BCF0104C0809591
:1031A00090958C0D9D1D883C910548F0F12C7C2D4F
:1031B000D98AC88A6E2D89890E94E1164AC0FE2CE0
:1031C000EE2009F4B3CF561333C0431331C020911E
:1031D000020220FD24C0822F82958F70482F50E07C
:1031E00041155105E1F0D80115962C9315974F30F4
:1031F000510549F08F5F982F9295907F822F8F70A5
:10320000892B15968C93C8010E946C1686E0F801F4
:10321000ADEFB1E001900D928A95E1F73DC086E0F7
:10322000F801ADEFB1E001900D928A95E1F75AC037
:103230004D875E878D859E850E94DC1681115FCF4C
:1032400080910202816080930202C8010E946C1684
:1032500049C0EDEFF1E086E0DF011D928A95E9F7C4
:103260001BC0EE2009F462CF4D875E878D859E8559
:103270000E94DC16F82E882309F458CF86E0F80166
:10328000ADEFB1E001900D928A95E1F78DEF91E0FD
:103290000E9474120E942F170E94211723C04D878D
:1032A0005E878D859E850E94581C292F22952F7040
:1032B000223028F49F7039F0811105C00BC02430F2
:1032C00028F49F7049F4805E883020F0C8010E9485
:1032D0006C16BF2CFB2C06C0D80115969C91907FD4
:1032E00091F7F8CF8F2D61960FB6F894DEBF0FBE21
:1032F000CDBFDF91CF911F910F91FF90EF90DF90A5
:10330000CF90BF90AF9008951F93CF93DF93CDB729
:10331000DEB72C970FB6F894DEBF0FBECDBF4F833C
:10332000588769877A878B879C87CE0107960E948A
:1033300097178823D1F09F8188852A853B85232B89
:1033400031F08F3F31F481E09F3F19F403C081E0F9
:1033500001C080E080FD47C04F81588569857A852E
:103360008B859C850E94F0163EC086E0FE01379654
:10337000DE01119601900D928A95E1F7FF81E885B3
:103380006A857B856115710531F0EF3F31F481E08D
:10339000FF3F19F403C081E001C080E080FD23C03D
:1033A0002091CC0130E0C9010196877099274091A6
:1033B000CB0150E084179507F1F1F983EA837D830F
:1033C0006C8396E0929FD001939FB00D1124A3537C
:1033D000BE4FFE01319601900D929A95E1F78093D0
:1033E000CC010E94001716E08091CB019091CC0196
:1033F000891771F1189FC001112483539E4F0E94B9
:103400009717882329F1E091CB011E9FF001112429
:10341000E353FE4F408151816281738184819581A4
:103420000E94F0168091CB0190E001968770992759
:103430008093CB01D9CF0E94B4161092CC01109288
:10344000CB01EDEFF1E086E0DF011D928A95E9F70F
:103450002C960FB6F894DEBF0FBECDBFDF91CF9193
:103460001F910895EF92FF920F931F93CF93DF93D5
:103470008C01892B09F46CC0F12CEE24E394E80153
:103480002196F8018491843740F4843008F051C0CB
:10349000813081F0823019F15BC0853709F444C076
:1034A000A8F19CE7980F903708F052C08F770E94E0
:1034B000981341C00E5F1F4FFE01849190E2980F58
:1034C000983050F48770FE2D01C0FF0F8A95EAF7FF
:1034D0008F2F0E94C01C14C00E947A122DC00E5F54
:1034E0001F4FFE01849190E2980F983060F487702E
:1034F000FE2D01C0FF0F8A95EAF78F2F0E94C61C90
:103500000E94EB1C19C00E94981316C00E5F1F4F3B
:10351000FE01C491CC2381F08FE99FE00197F1F780
:1035200000C00000C150F6CF0E5F1F4FFE01F490A7
:1035300003C00E947A128E018F2D882309F49FCF39
:10354000EFE9FFE03197F1F700C000008150F5CFBF
:10355000DF91CF911F910F91FF90EF900895089503
:1035600008950C94B01A0C94B11A0E94B31A609387
:103570003E0270933F0280934002909341020C946C
:103580009A160C94B51A0F931F9300913E02109156
:103590003F022091400230914102602B712B822B1F
:1035A000932B1F910F910C94B51A0F931F930091B9
:1035B0003E0210913F02209140023091410260236F
:1035C0007123822393231F910F910C94B51A0F93AB
:1035D0001F9300913E0210913F02209140023091D2
:1035E000410260277127822793271F910F910C9426
:1035F000B51A0C94B01A0E94F91A60933A027093AB
:103600003B0280933C0290933D020C949A1660E03A
:1036100070E0CB010C94FB1A0F931F9341E050E034
:1036200060E070E08A019B0104C0000F111F221F9F
:10363000331F8A95D2F7C901B8011F910F910C94DD
:10364000FB1A0F931F9341E050E060E070E004C06C
:10365000440F551F661F771F8A95D2F780913A0253
:1036600090913B02A0913C02B0913D028A019B01E6
:10367000082B192B2A2B3B2BC901B8011F910F9145
:103680000C94FB1A0F931F9341E050E060E070E050
:1036900004C0440F551F661F771F8A95D2F74095C7
:1036A00050956095709580913A0290913B02A0915F
:1036B0003C02B0913D028A019B01082319232A2371
:1036C0003B23C901B8011F910F910C94FB1A0F9372
:1036D0001F9341E050E060E070E004C0440F551FCC
:1036E000661F771F8A95D2F780913A0290913B022C
:1036F000A0913C02B0913D028A019B010827192745
:103700002A273B27C901B8011F910F910C94FB1A7E
:103710000F931F9300913A0210913B0220913C02BB
:1037200030913D02602B712B822B932B1F910F91B7
:103730000C94FB1A0F931F9300913A0210913B02D5
:1037400020913C0230913D02602371238223932318
:103750001F910F910C94FB1A0F931F9300913A0243
:1037600010913B0220913C0230913D02602771276D
:10377000822793271F910F910C94FB1A08952EE036
:10378000929F800D1124E82FE695E695E6958770C7
:1037900051E001C0550F8A95EAF785E0E89FF001F6
:1037A0001124ED5FFD4F20E030E070E04081CB015F
:1037B000022E02C0969587950A94E2F78170819552
:1037C00084278523842781932F5F3F4F2530310540
:1037D00069F708952EE0929F800D1124682F669559
:1037E00066956695982F977085E0689FB0011124C3
:1037F00040E050E080E0FB01E40FF51FED5FFD4F7E
:10380000208130E0092E02C0369527950A94E2F710
:1038100021703327042E01C0220F0A94EAF7822B6D
:103820004F5F5F4F4530510531F70895BF92CF92FA
:10383000DF92EF92FF920F931F93CF93DF938C0150
:10384000C0903A02D0903B02E0903C02F0903D02E2
:1038500080913E0290913F02A0914002B0914102BE
:10386000C82AD92AEA2AFB2ACFE1D0E0D701C6012B
:103870000C2E04C0B695A795979587950A94D2F714
:1038800080FD04C0219790F7B12C07C0BC2EB80171
:103890008C2F0E94860A0197A9F38B2DDF91CF917F
:1038A0001F910F91FF90EF90DF90CF90BF90089500
:1038B000CF93DF93EC010E94161CBE010E94860A82
:1038C000DF91CF9108951F93CF93DF93EB019091F8
:1038D000CA01992321F0CB010E94581C13C08823F0
:1038E00049F0CB010E94161C182F682FCE010E94B0
:1038F000BF1B04C0CB010E94EA1B182FBE01812F01
:103900000E94860ADF91CF911F9108958091420213
:1039100085958595859508958091420287700895D3
:1039200090914202977081E009F480E008958091BF
:103930006602089590916602892B8093660208952D
:103940008095909166028923809366020895809302
:1039500066020895109266020895809165020895A6
:1039600090916502892B80936502089580959091CE
:103970006502892380936502089510926502089577
:1039800090916402892B80936402089580959091B0
:10399000640289238093640208951092640208955A
:1039A00080914302089508950C94D31C0C94D41C68
:1039B00090914302981721F0809343020C94D61CF7
:1039C000089580914302882329F01092430280E0F9
:1039D0000C94D61C0895E0913001F0913101809152
:1039E00066028083E0913001F091310190818091F5
:1039F0006502892B8083E0913001F0913101908143
:103A000080916402892B808380914302882381F016
:103A1000E0913001F09131019081892B8083809178
:103A20003001909131010E944A1E81110E94E11CD7
:103A300080913001909131010C9410110C94D31CA1
:103A400098E0899F90011124262B209342020E9426
:103A5000211B809142028595859585950C941E1DAC
:103A60001092420280E00C941E1D2091420280952B
:103A7000822380934202982F977079F430E0482F88
:103A8000082E000C550B2417350739F085958595C0
:103A900085950E94421B0C94301D0895CF92DF92B1
:103AA000EF92FF926C01EE24FF24C114D104E104D3
:103AB000F10421F0C701B60120E101C020E0C72ECA
:103AC000D82EE92EFF24C114D104E104F10419F029
:103AD000285FC701B6016B017C0154E0F694E794BE
:103AE000D794C7945A95D1F7C114D104E104F104D5
:103AF00019F02C5FC701B6016B017C0142E0F6941E
:103B0000E794D794C7944A95D1F7C114D104E1043E
:103B1000F10419F02E5FC701B601DC01CB01B695A7
:103B2000A79597958795892B8A2B8B2B09F02F5F6B
:103B3000822FFF90EF90DF90CF90089580E090E08B
:103B40000E94982D21E08D3E9E4F09F020E0822FAB
:103B5000089582E090E00C94902D682F82E090E030
:103B60000C949E2D83E090E00C94902D682F83E0C0
:103B700090E00C949E2DCF9384E090E00E94902DD5
:103B8000C82F81E290E00E94902D2C2F30E0A901F7
:103B9000582BCA01CF910895CF93C92F682F84E085
:103BA00090E00E949E2D6C2F81E290E0CF910C94CA
:103BB0009E2DAB01BC018FE090E00C94B02DAB01C9
:103BC000BC0183E190E00C94B02D60E070E0CB018B
:103BD0000C94DF1D60E070E0CB010E94D91D0C94B5
:103BE000E51D6DEE7EEF80E090E00E94BC2D60E070
:103BF00082E090E00E949E2D60E083E090E00E94D1
:103C00009E2D10923E0210923F021092400210929E
:103C1000410260E084E090E00E949E2D60E081E23D
:103C200090E00E949E2D60E085E090E00E949E2D35
:103C300060E086E090E00E949E2D6FEF87E090E0CC
:103C40000E949E2D40E050E0BA0188E090E00E9482
:103C5000B02D60E08DE090E00E949E2D40E050E0AD
:103C6000BA0188E190E00E94B02D60E087E190E029
:103C70000E949E2D40E050E0BA018CE190E00E944D
:103C8000B02D60E080E290E00E949E2D0C94EA1D31
:103C90000C94F11DFC01329680914101882331F092
:103CA0008091A20287FF02C09EE101C096E080E001
:103CB000915028F021912223D9F38F5FF9CF0895F5
:103CC0009C01FC0132969FEF80E04191461789F0FC
:103CD0009F3F19F4411101C0982F8F5F8630A9F7DB
:103CE0009F3F39F0F901E90FF11D97FDFA956283C5
:103CF000089508959C012A5F3F4FFC0142814613BD
:103D000001C01282019682179307B9F70895262FF2
:103D10002695269526952E3168F4FC01E20FF11DBB
:103D2000677021E030E001C0220F6A95EAF78281D6
:103D3000282B22830895262F2695269526952E3109
:103D400070F4FC01E20FF11D677021E030E001C06A
:103D5000220F6A95EAF7209582812823228308950D
:103D600020914101222329F02091A20227FD0C94E9
:103D7000871E0C94601E20914101222329F020917E
:103D8000A20227FD0C949B1E0C947A1E20914101E7
:103D9000FC013296222331F08091A20287FF02C0FB
:103DA0008EE101C086E0DF011D928A95E9F7089552
:103DB00008950C94D81ECF930E946C040E94C504F1
:103DC0000E94D91EC0E08C2F0E947A05892B29F40D
:103DD000CF5FC630C1F780E001C081E0CF91089588
:103DE0000C94D81E0C94F01E0E94F21E8091A80222
:103DF000843049F11092680220E488E190E00FB627
:103E0000F894A895809360000FBE2093600080E036
:103E10000E948F080E94F21E83B7817F846083BF57
:103E200083B7816083BF7894889583B78E7F83BF83
:103E30000FB6F894A8958091600088618093600027
:103E4000109260000FBE08950C94D81E0E94B41604
:103E50000E9404110E948F080C94241F1F920F923D
:103E60000FB60F9211248F939F93AF93BF938091BE
:103E70006802811113C080919E0290919F02A091CF
:103E8000A002B091A1024196A11DB11D80939E0296
:103E900090939F02A093A002B093A102BF91AF9113
:103EA0009F918F910F900FBE0F901F90189582E0F9
:103EB00084BD93E095BD9AEF97BD80936E00089501
:103EC0002FB7F89480919E0290919F02A091A0023A
:103ED000B091A1022FBF0895CF92DF92EF92FF928F
:103EE0000F931F932FB7F89440919E0250919F0219
:103EF0006091A0027091A1022FBF6A017B01EE24A4
:103F0000FF248C0120E030E0C016D106E206F30663
:103F100010F4415051099A01281B390BC9011F9116
:103F20000F91FF90EF90DF90CF90089578941F92BB
:103F30000F920FB60F9211248F939F93AF93BF935D
:103F400080919E0290919F02A091A002B091A10247
:103F50000196A11DB11D80939E0290939F02A09394
:103F6000A002B093A102BF91AF919F918F910F904A
:103F70000FBE0F901F90189581E08093E00080E2C3
:103F80008093D8001092C9008FE19EE40197F1F769
:103F900000C0000087E090EBDC018093B1029093B9
:103FA000B202A093B302B093B4029CE088E10FB6D2
:103FB000F894A895809360000FBE90936000FFCFA7
:103FC000AF92BF92CF92DF92EF92FF920F931F9327
:103FD000CF93C0E0CC24C394D12CE82EF12C8C2FAD
:103FE0000E947A055C0100E010E0C601002E02C0CC
:103FF000880F991F0A94E2F78A219B21892B31F4BB
:104000000F5F1F4F0E30110581F70AC0602F7C2F04
:1040100080E00E946B0AE816F90691F781E004C07F
:10402000CF5FC630E1F680E0CF911F910F91FF90F6
:10403000EF90DF90CF90BF90AF900895CF93C82FAF
:104040008CE20E94E01F882321F08C2FCF910C94EA
:10405000E01F80E0CF910895CF930E949E1D8111B3
:1040600002C00E94481EC5E6C15049F00E94C50426
:104070008FE39CE90197F1F700C00000F5CF89E2DA
:104080000E941E20811110C18AE20E941E2081110F
:104090000E94481E85E00E941E2081110E94BC1FC4
:1040A0000E94A91D8093670287E00E941E2088233A
:1040B000A9F18BE10E941E20882351F080916702B4
:1040C00081FB222720F991E0922790FB81F90EC015
:1040D0008EE00E941E20882361F08091670282FB9F
:1040E000222720F991E0922790FB82F980936702C2
:1040F00015C080E10E941E2090916702882341F044
:1041000093FB222720F981E0822780FB93F904C0EA
:10411000892F809580FB90F99093670280916702C8
:104120000E94AD1D0E94BB1D9093A3028093A2022A
:1041300080EE0E941E20882341F08091A202982FD9
:10414000909590FB80F98093A20289E30E941E2043
:10415000882359F08091A20281FB222720F991E067
:10416000922790FB81F98093A20282EE0E941E208A
:10417000882359F08091A20282FB222720F991E046
:10418000922790FB82F98093A20286EE0E941E2065
:10419000882359F08091A20283FB222720F991E025
:1041A000922790FB83F98093A20283EE0E941E2047
:1041B000882359F08091A20284FB222720F991E004
:1041C000922790FB84F98093A20285E30E941E202F
:1041D000882359F08091A20285FB222720F991E0E3
:1041E000922790FB85F98093A20281E30E941E2012
:1041F000882359F08091A20286FB222720F991E0C2
:10420000922790FB86F98093A20281E10E941E20F2
:10421000882359F08091A20287FB222720F991E0A0
:10422000922790FB87F98093A2028091A20290913D
:10423000A3020E94CC1D87E20E941E20C82F8EE19F
:104240000E941E208111C2608FE10E941E208111F8
:10425000C46080E20E941E208111C86081E20E9439
:104260001E208111C06182E20E941E208111C06265
:1042700083E20E941E208111C06484E20E941E20FD
:10428000882311F0C06802C0CC2329F08C2F0E9433
:10429000B61D6C2F03C00E94B21D682F70E080E035
:1042A00090E0CF910C94C11ACF91089580916D0246
:1042B00080FF0BC06091350185E0689FB00111243B
:1042C00075956795759567952BC081FF09C06091BD
:1042D000350185E0689FB00111247595679520C070
:1042E00082FF07C06091350185E0689FB00111240D
:1042F00017C090916C029923D1F060913401961708
:1043000088F72091350185E0289F90011124929F24
:10431000A001939F500D112470E0CA010E94A12AB0
:104320006038710540F46115710519F406C065E047
:1043300070E0862F08958FE7089581E008958091B9
:104340006D0280FF08C06091330170E0759567953C
:104350007595679521C081FF06C06091330170E0BB
:104360007595679519C082FF04C06091330170E0B4
:1043700010C090916C02992399F0609132019617C8
:10438000A0F780913301899FC001112470E00E9441
:10439000A12A6038710540F46115710519F406C051
:1043A00061E070E0862F08958FE7089581E0089519
:1043B000803F21F40E945621819504C0813F29F459
:1043C0000E945621809371020895823F21F40E9439
:1043D0005621819504C0833F29F40E945621809381
:1043E00070020895893F19F40E949F2105C08A3FF9
:1043F00031F40E949F2181958093720208958B3F32
:1044000021F40E949F21819504C08C3F29F40E94D1
:104410009F21809373020895843F21F480916F025D
:10442000816017C0853F21F480916F02826011C0C6
:10443000863F21F480916F0284600BC0873F21F496
:1044400080916F02886005C0883F31F480916F02CF
:10445000806180936F0208958D3F21F480916D02F9
:1044600081600BC08E3F21F480916D02826005C097
:104470008F3F29F480916D02846080936D020895CE
:10448000803F39F48091710287FF6CC010927102F5
:1044900069C0813F29F4809171021816BCF362C093
:1044A00090917002823F29F497FF5CC010927002D5
:1044B00059C0833F19F41916CCF354C0893F41F415
:1044C0008091720218160CF04DC0109272024AC010
:1044D0008A3F29F48091720287FF44C0F6CF8B3F58
:1044E00039F48091730287FF3DC0109273023AC085
:1044F0008C3F29F4809173021816BCF333C0843FBB
:1045000021F480916F028E7F17C0853F21F4809146
:104510006F028D7F11C0863F21F480916F028B7FE7
:104520000BC0873F21F480916F02877F05C0883FD1
:1045300031F480916F028F7E80936F0213C08D3FA4
:1045400021F480916D028E7F0BC08E3F21F480910B
:104550006D028D7F05C08F3F29F480916D028B7FA6
:1045600080936D028091700281110EC08091710262
:1045700081110AC080917202811106C0809173027C
:10458000811102C010926C0208958EE692E00E94A2
:104590002A110E94601F90936B0280936A02089513
:1045A0001F93CF93DF9380916A0290916B020E94D8
:1045B0006C1FAC0190916C02992321F0209136017F
:1045C00030E006C0209169028AE0289F9001112402
:1045D0004217530708F47BC080917002C0917102AA
:1045E000D091720210917302811107C0C1116BC08A
:1045F000D11169C0111167C06AC09F3F19F09F5F58
:1046000090936C02181624F40E9456218093700235
:104610008091700287FF05C00E945621819580938A
:1046200070021C1624F40E9456218093710280911E
:10463000710287FF05C00E94562181958093710207
:10464000309170023323E1F0209171022223C1F0F6
:1046500045EB3403C0011124992319F090937002A3
:1046600003C081E08093700235EB2303C001112465
:10467000992319F09093710203C081E08093710235
:104680001D1624F40E949F21809372028091720271
:1046900087FF05C00E949F218195809372021116A9
:1046A00024F40E949F21809373028091730287FFFC
:1046B00005C00E949F21819580937302DF91CF9165
:1046C0001F910C94C5229F3F09F099CFAACFDF918B
:1046D000CF911F910895EEE6F2E086E0DF011D9292
:1046E0008A95E9F710926C0210926D0208958091FC
:1046F000940208950F931F93CF93DF9300D01F92DE
:10470000CDB7DEB78C010E94E625823011F08430EF
:1047100021F584E089831B830A8382E08093E9008A
:104720008FEF9091E800815095FD06C095ED9A9528
:10473000F1F700008111F5CF8091E80085FF0DC0F1
:1047400040E050E063E070E0CE0101960E94032655
:104750008091E8008E778093E8000F900F900F9083
:10476000DF91CF911F910F910895CF93DF9300D0E8
:104770001F92CDB7DEB72091A802243031F523E097
:104780002983805891099B838A8382E08093E90082
:104790008FEF9091E800815095FD06C095ED9A95B8
:1047A000F1F700008111F5CF8091E80085FF0DC081
:1047B00040E050E063E070E0CE0101960E940326E5
:1047C0008091E8008E778093E8000F900F900F9013
:1047D000DF91CF910895CF93DF93EC010E94E625FE
:1047E000823011F08430F9F482E08093E9008FEF99
:1047F0009091E800815095FD06C095ED9A95F1F7EE
:1048000000008111F5CF8091E80085FF0CC040E0E9
:1048100050E066E070E0CE010E9403268091E8003F
:104820008E778093E800DF91CF910895CF93DF9347
:10483000EC010E94E625823011F08430D9F5809198
:104840004101882339F08091A20287FF03C060E212
:1048500082E002C068E081E08093E9008FEF9091F0
:10486000E800815095FD06C095ED9A95F1F700009E
:104870008111F5CF8091E80085FF1CC08091410136
:10488000811105C040E050E068E070E003C070E0D6
:1048900040E050E0CE010E9403268091E8008E7730
:1048A0008093E80080E2FE01A4E7B2E001900D925F
:1048B0008A95E1F7DF91CF9108958091A702811148
:1048C00009C00E9494270E94F1278091E200846031
:1048D0008093E20008951092A70208950895089524
:1048E0000C94261F42E061EC81E00E940D2742E219
:1048F00061EC82E00C940D278091AA02833009F4C8
:1049000060C030F4813071F0823009F499C00895AC
:104910008A3009F485C08B3009F46BC0893009F006
:10492000A7C020C08091A902813A09F0A1C080915E
:10493000E800877F8093E8008091AD029091AE02FD
:10494000892B21F460E284E792E003C060E080E01C
:1049500090E070E00E944E268091E8008B77809373
:10496000E80008958091A902813209F081C0809108
:10497000AD029091AE02029708F07AC08091E800F3
:10498000877F8093E8008091E80082FD05C08091D8
:10499000A8028111F8CF6CC02091F3008091F20041
:1049A00090E0922B029729F48091F1008B7F813067
:1049B00021F48091F100809394028091E8008B773C
:1049C00053C08091A902813A09F052C08091AD0292
:1049D0009091AE02892B09F04BC08091E800877F4F
:1049E0008093E8008091E80080FFFCCF8091410136
:1049F00036C08091A9028132D9F58091AD029091A3
:104A0000AE02892BA9F58091E800877F8093E800AA
:104A10000E9442278091AB02809341010C94B4160E
:104A20008091A902813221F58091E800877F8093EF
:104A3000E8000E9442278091AC028093950208957D
:104A40008091A902813AA1F48091E800877F809348
:104A5000E8008091E80080FFFCCF80919502809370
:104A6000F1008091E8008E778093E8000C94422753
:104A7000089584B7877F84BF0FB6F894A895809176
:104A80006000886180936000109260000FBE80E833
:104A900080936100109261000E9474110E9494271B
:104AA0000E94F1278091E20084608093E200789474
:104AB0000E94862A0E947C1187E391E00E94FF10E9
:104AC0008091A802853069F40E94F41E8091A602AC
:104AD0008823B1F30E94DB1E882391F30E94ED2509
:104AE000EFCF0E948911ECCF0C947625292F332724
:104AF00023303105C9F060F42130310581F02230D6
:104B0000310509F04AC08BE390E026EF35E049C05B
:104B10002132310511F12232310579F13EC082E1B5
:104B200090E021E336E03DC099278130910561F0A6
:104B300040F08230910559F0039779F5E4ECF5E007
:104B400008C0E2EFF5E005C0EEEDF5E002C0EAECEA
:104B5000F5E0849190E09F0124C06115710541F05A
:104B600061307105D1F489E090E021E236E019C0AE
:104B700089E090E028E036E014C06115710541F04D
:104B80006130710551F480EC90E023E436E009C017
:104B900080E490E023E037E004C080E090E020E093
:104BA00030E0FA013183208308950895CF93C82F10
:104BB0000E94D525C0939602CF9108958091A802B6
:104BC000843011F081E0089582E00895809196028A
:104BD000811102C00C94DE25089580E189BD82E137
:104BE00089BD09B400FEFDCF8091D8008F7D8093F0
:104BF000D8008091E00082608093E0008091E00026
:104C000081FDFCCF0895CF92DF92EF92FF920F9338
:104C10001F93CF93DF93EC018B017A010E946127F0
:104C2000811133C0E114F10439F0F70180819181E1
:104C3000081B190BC80FD91FC12CD12C0115110548
:104C400019F18091E80085FD16C08091E8008E770B
:104C50008093E800E114F10449F0F701808191812B
:104C6000C80ED91ED182C08285E00FC00E94612784
:104C7000882321F30AC089918093F1000150110922
:104C8000FFEFCF1ADF0ADACF80E0DF91CF911F91DB
:104C90000F91FF90EF90DF90CF9008952091AF0299
:104CA0003091B0022617370748F06115710539F4C5
:104CB0002091E8002E772093E80001C0B901FC01A3
:104CC00020E06115710579F18091A8028823F1F146
:104CD0008530F1F18091E80083FD3CC08091E800CF
:104CE00082FD2EC08091E80080FFEBCF2091F30081
:104CF0008091F20090E0922B6115710551F088309F
:104D0000910538F421912093F100615071090196C9
:104D1000F3CF21E0089709F020E08091E8008E773A
:104D20008093E800CECF2111CFCF0AC08091A80296
:104D3000882361F0853061F08091E80083FD0AC02E
:104D40008091E80082FFF2CF80E0089582E008952C
:104D500083E0089581E008952091AF023091B00280
:104D60002617370748F06115710539F42091E800DE
:104D70002E772093E80001C0B901FC0120E0611505
:104D8000710591F18091A802882309F440C0853013
:104D900009F43FC08091E80083FD3DC08091E800A8
:104DA00082FD2FC08091E80080FFE9CF2091F300C1
:104DB0008091F20090E0922B6115710559F08830D6
:104DC000910540F424912093F100319661507109CE
:104DD0000196F2CF21E0089709F020E08091E800E9
:104DE0008E778093E800CBCF2111CCCF0AC0809181
:104DF000A802882361F0853061F08091E80083FD8E
:104E00000AC08091E80082FFF2CF80E0089582E03E
:104E1000089583E0089581E00895982F973068F50C
:104E20009093E900981739F07091EC002091ED0013
:104E30005091F00003C0242F762F50E021FD02C0D6
:104E40009F5FECCF3091EB003E7F3093EB003091D1
:104E5000ED003D7F3093ED003091EB0031603093F9
:104E6000EB007093EC002093ED005093F000209144
:104E7000EE0027FDE5CF80E008958F708093E90074
:104E800081E008958091A90287FF11C08091E80018
:104E900082FD05C08091A8028111F8CF11C08091D8
:104EA000E8008B770BC08091A802882349F080919D
:104EB000E80080FFF8CF8091E8008E778093E800CB
:104EC00008952091E4003091E50095E64091EC00D2
:104ED000842F817040FF23C08091E80080FD1DC0B9
:104EE0008091A802882399F0853099F08091EB0099
:104EF00085FD11C04091E4005091E500241735076D
:104F000029F3915011F09A01E1CF84E0089582E0F5
:104F1000089583E0089581E0089580E00895409128
:104F2000E80042FFDDCF08950E9402280E940A286F
:104F3000E0EEF0E0808181608083E8EDF0E0808148
:104F40008F77808319BCA7EDB0E08C918E7F8C9316
:104F500080818F7E80831092A70208950F931F9304
:104F6000CF93DF930E9402280E940A28C8EDD0E068
:104F700088818F77888388818068888388818F7D06
:104F8000888319BC1092A8021092A4021092A60263
:104F90001092A50200EE10E0F80180818B7F8083E3
:104FA00088818160888342E060E080E00E940D2774
:104FB000E1EEF0E080818E7F8083E2EEF0E08081A0
:104FC00081608083808188608083F80180818E7F0A
:104FD0008083888180618883DF91CF911F910F91B9
:104FE0000895E8EDF0E080818F7E8083E7EDF0E0CA
:104FF00080818160808384E082BF81E08093A7020A
:105000000C94AE27E8EDF0E080818E7F80831092D3
:10501000E20008951092DA001092E10008951F92C4
:105020000F920FB60F9211242F933F934F935F93DC
:105030006F937F938F939F93AF93BF93EF93FF9360
:105040008091E10082FF0BC08091E20082FF07C0E7
:105050008091E1008B7F8093E1000E94852A8091FE
:10506000DA0080FF1FC08091D80080FF1BC08091B4
:10507000DA008E7F8093DA008091D90080FF0DC026
:1050800080E189BD82E189BD09B400FEFDCF81E0E8
:105090008093A8020E945D2405C019BC1092A8024A
:1050A0000E946B248091E10080FF19C08091E20092
:1050B00080FF15C08091E2008E7F8093E200809196
:1050C000E20080618093E2008091D800806280934A
:1050D000D80019BC85E08093A8020E946F248091BB
:1050E000E10084FF30C08091E20084FF2CC080E1A9
:1050F00089BD82E189BD09B400FEFDCF8091D80051
:105100008F7D8093D8008091E1008F7E8093E100B5
:105110008091E2008F7E8093E2008091E2008160C6
:105120008093E2008091A402882311F084E007C0FC
:105130008091E30087FD02C081E001C083E080939D
:10514000A8020E9470248091E10083FF29C0809111
:10515000E20083FF25C08091E100877F8093E1001A
:1051600082E08093A8021092A4028091E1008E7FD9
:105170008093E1008091E2008E7F8093E200809135
:10518000E20080618093E20042E060E080E00E9403
:105190000D278091F00088608093F0000E946E24BB
:1051A000FF91EF91BF91AF919F918F917F916F91FF
:1051B0005F914F913F912F910F900FBE0F901F90D5
:1051C00018951F920F920FB60F9211242F933F93B1
:1051D0004F935F936F937F938F939F93AF93BF93FF
:1051E000CF93DF93EF93FF93C091E900CF7080914D
:1051F000EC00D82FD17080FDD0E81092E9008091AA
:10520000F000877F8093F00078940E942529109207
:10521000E9008091F00088608093F000CD2BCF7082
:10522000C093E900FF91EF91DF91CF91BF91AF91D2
:105230009F918F917F916F915F914F913F912F91AE
:105240000F900FBE0F901F9018951F93CF93DF9371
:10525000CDB7DEB7AA970FB6F894DEBF0FBECDBFAD
:10526000E9EAF2E08091F100819322E0E13BF2076C
:10527000C9F70E947C248091E80083FF2EC18091B1
:10528000A9029091AA02492F50E04A30510508F036
:1052900024C1FA01EC58FF4F0C94B52A803821F054
:1052A000823809F01AC108C08091A5029091A60227
:1052B000992389F082600FC08091AD028F70873092
:1052C00008F00BC18093E9008091EB0085FB8827F3
:1052D00080F91092E9009091E800977F9093E800A0
:1052E0008093F1001092F100D1C0282F2D7F09F09A
:1052F000F4C0882319F0823061F0EFC08091AB02D6
:10530000813009F0EAC0933009F080E08093A60272
:105310002EC08091AB0281112AC08091AD028F70A6
:105320002FEF280F263008F0D8C08093E900209195
:10533000EB0020FF1CC0933021F48091EB008062D1
:1053400014C09091EB0090619093EB0021E030E06D
:10535000A90102C0440F551F8A95E2F74093EA0065
:105360001092EA008091EB0088608093EB0010922D
:10537000E9008091E800877F8093E8000E9442273F
:10538000ACC08111AAC01091AB021F778091E300DD
:105390008078812B8093E3008091E800877F809361
:1053A000E8000E9442278091E80080FFFCCF8091B6
:1053B000E30080688093E300111102C082E001C025
:1053C00083E08093A80289C08058823008F085C0AD
:1053D0008091AB029091AC028C3D53E0950779F53A
:1053E00083E08A838AE289834FB7F894DE011396BB
:1053F00020E03EE051E2E32FF0E050935700E491CB
:1054000020FF03C0E295EF703F5FEF708E2F90E0BA
:10541000EA3010F0C79601C0C0968D939D932F5F20
:10542000243149F74FBF8091E800877F8093E800DF
:105430006AE270E0CE0101960E944E2616C060918D
:10544000AD027091AE02AE014F5F5F4F0E947425B6
:10545000BC01892B09F441C09091E800977F90939B
:10546000E80089819A810E94AC268091E8008B77C0
:105470008093E80032C0803881F58091E800877F12
:105480008093E8008091A4028093F1008091E8006D
:105490008E7772CF811121C08091AB029091AC02C6
:1054A00099270297D4F48091E800877F8093E800E1
:1054B0008091AB028093A4020E9442278091A402B3
:1054C000811106C08091E30087FD02C081E001C028
:1054D00084E08093A8020E9472248091E80083FFF8
:1054E0000AC08091E800877F8093E8008091EB00FC
:1054F00080628093EB00AA960FB6F894DEBF0FBED1
:10550000CDBFDF91CF911F9108950895CF938091E2
:10551000A8028823A1F0C091E900CF709091EC001F
:10552000892F817090FD80E8C82B1092E90080914E
:10553000E80083FD0E942529CF70C093E900CF9138
:10554000089597FB072E16F4009407D077FD09D035
:105550000E94BB2A07FC05D03EF4909581959F4F91
:105560000895709561957F4F0895EE0FFF1F059088
:10557000F491E02D0994AA1BBB1B51E107C0AA1F9F
:10558000BB1FA617B70710F0A61BB70B881F991FE4
:105590005A95A9F780959095BC01CD010895AEE08C
:1055A000B0E0E5EDFAE20C94E02D0D891E898F89BB
:1055B000988D26E02C831A83098397FF02C080E030
:1055C00090E801979E838D83AE01455E5F4F698DA4
:1055D0007A8DCE0101960E94FF2A4D815E8157FD92
:1055E0000AC02F813885421753070CF49A01F8013D
:1055F000E20FF31F10822E96E4E00C94FC2DABE03A
:10560000B0E0E5E0FBE20C94D22D6C017B018A0155
:10561000FC0117821682838181FFCCC1CE010196E5
:105620003C01F6019381F70193FD859193FF8191F0
:105630007F01882309F4BAC1853239F493FD85913D
:1056400093FF81917F01853229F4B60190E00E9499
:10565000F62CE7CF912C212C312CFFE1F315D8F05B
:105660008B3279F038F4803279F08332A1F4232D33
:1056700020611DC08D3261F0803369F4232D2160DB
:1056800016C0832D8260382EE32DE4603E2E2AC0A2
:10569000F32DF8601DC037FC2DC020ED280F2A30F7
:1056A00040F08E32B9F436FC81C1232D2064322EB5
:1056B00019C036FE06C08AE0989E200D1124922E55
:1056C00011C0EAE02E9E200D1124222EF32DF0624F
:1056D0003F2E08C08C3621F4832D8068382E02C0FE
:1056E000883641F4F70193FD859193FF81917F0105
:1056F0008111B3CF982F9F7D9554933028F40C5F80
:105700001F4F9FE399830DC0833631F0833771F0CB
:10571000833509F059C021C0F801808189830E5F6B
:105720001F4F88248394912C530113C02801F2E069
:105730004F0E511CF801A080B18036FE03C0692DC8
:1057400070E002C06FEF7FEFC5010E94EB2C4C01AF
:105750008201F32DFF773F2E16C0280122E0420E72
:10576000511CF801A080B18036FE03C0692D70E0A5
:1057700002C06FEF7FEFC5010E94E02C4C01F32DBA
:10578000F0683F2E820133FC1BC0822D90E088160A
:105790009906B0F4B60180E290E00E94F62C2A94BB
:1057A000F4CFF50137FC859137FE81915F01B60199
:1057B00090E00E94F62C21102A9421E0821A910890
:1057C0008114910471F7E8C0843611F0893641F5EF
:1057D000F80137FE07C060817181828193810C5F7F
:1057E0001F4F08C060817181072E000C880B990B38
:1057F0000E5F1F4FF32DFF763F2E97FF09C0909548
:105800008095709561957F4F8F4F9F4FF0683F2E29
:105810002AE030E0A3010E94322D882E861845C070
:10582000853731F4232D2F7EB22E2AE030E025C0BB
:10583000932D997FB92E8F36C1F018F4883579F001
:10584000B5C0803719F0883721F0B0C0E92FE0618A
:10585000BE2EB4FE0DC0FB2DF460BF2E09C034FE79
:105860000AC0292F2660B22E06C028E030E005C00D
:1058700020E130E002C020E132E0F801B7FE07C0CD
:1058800060817181828193810C5F1F4F06C06081AE
:10589000718180E090E00E5F1F4FA3010E94322DC6
:1058A000882E8618FB2DFF773F2E36FE0DC0232D48
:1058B0002E7FA22E891458F434FE0BC032FC09C08E
:1058C000832D8E7EA82E05C0B82CA32C03C0B82C27
:1058D00001C0B92CA4FE0FC0FE01E80DF11D8081AE
:1058E000803321F49A2D997EA92E09C0A2FE06C00C
:1058F000B394B39404C08A2D867809F0B394A3FCC2
:1059000011C0A0FE06C0B21488F4280C922C9B187B
:105910000EC0B21460F4B60180E290E00E94F62C52
:10592000B394F7CFB21418F42B1802C0982C212C82
:10593000A4FE10C0B60180E390E00E94F62CA2FE07
:1059400017C0A1FC03C088E790E002C088E590E0A2
:10595000B6010CC08A2D867859F0A1FE02C08BE2F8
:1059600001C080E2A7FC8DE2B60190E00E94F62C17
:10597000891438F4B60180E390E00E94F62C9A94E2
:10598000F7CF8A94F301E80DF11D8081B60190E014
:105990000E94F62C8110F5CF222009F442CEB601E8
:1059A00080E290E00E94F62C2A94F6CFF6018681E0
:1059B000978102C08FEF9FEF2B96E2E10C94EE2DC2
:1059C000FC010590615070400110D8F780959095CA
:1059D0008E0F9F1F0895FC016150704001900110CF
:1059E000D8F7809590958E0F9F1F08950F931F9362
:1059F000CF93DF93FB01238121FD03C08FEF9FEF46
:105A00002CC022FF16C04681578124813581421760
:105A1000530744F4A081B1819D012F5F3F4F318333
:105A200020838C93268137812F5F3F4F37832683D6
:105A300014C08B01EC01FB010084F185E02D099578
:105A4000892BE1F6D80116968D919C9117970196B6
:105A500017969C938E931697CE01DF91CF911F914D
:105A60000F910895FA01AA27283051F1203181F1D0
:105A7000E8946F936E7F6E5F7F4F8F4F9F4FAF4F56
:105A8000B1E03ED0B4E03CD0670F781F891F9A1F69
:105A9000A11D680F791F8A1F911DA11D6A0F711D1D
:105AA000811D911DA11D20D009F468943F912AE029
:105AB000269F11243019305D3193DEF6CF01089511
:105AC000462F4770405D4193B3E00FD0C9F7F6CF42
:105AD000462F4F70405D4A3318F0495D31FD40520A
