:100000000C947A030C94C1030C94C1030C94C103A7
:100010000C94C1030C94C1030C94C1030C94C10350
:100020000C94C1030C94C1030C940A270C94DE2792
:100030000C94601E0C94C1030C94C1030C94C10376
:100040000C94C1030C94C1030C94C1030C94C10320
:100050000C94C1030C94C61E0C94C1030C94C103F0
:100060000C94C1030C94C1030C94C1030C94C10300
:100070000C94C1030C94C1030C94C1030C94C103F0
:100080000C94C1030C94C1030C94C1030C94C103E0
:100090000C94C1030C94C1030C94C1030C94C103D0
:1000A0000C94C1030C94C1030C94C10329001E00DD
:1000B0001F002000210022003500650023002400DD
:1000C0002500260027002A00390014001A00080025
:1000D000150017002F0030001C0018000C00120043
:1000E000130031002B0004001600070009000A006D
:1000F000000000000B000D000E000F003300340064
:10010000E1001D001B000600190005000057015703
:1001100011001000360037003800E500E000E30071
:10012000E2002D002E000000000000000000500042
:10013000510052004F00E400000028422A682C6160
:100140004C00490046004A004D00025828412A0050
:100150002942000001003A003B003C003D003E0007
:10016000440045003F0040004100420043000100C0
:100170000100F900F400F000F500F90001000100B1
:100180004B004A0052004D004B0001000100FA00F4
:10019000F200F100F300FA00000000004E005000F1
:1001A00051004F004E00010001000353F400F6001F
:1001B000F500000001000100000000000000000048
:1001C0000000010001000100010001000100000029
:1001D000000000000000010001000100010001001A
:1001E0000000010001000100010001000100B50054
:1001F000B9000100010001000100000001003A0007
:100200003B003C003D003E00440045000000530020
:1002100054005500560001000100F900F400F00000
:10022000F500F900010001004B0024002500260024
:10023000570001000100FA00F200F100F300FA009B
:10024000000000004E0021002200230057000100A2
:1002500001000353F400F600F50000000100010066
:1002600000001E001F0020005800010001000100D6
:10027000010001000100000000000000000000007B
:1002800027003700580001000000010001000100B4
:100290000100B300B20001000100010001000100F3
:1002A000010000000000000000000000000000004D
:1002B000000000000000000000000000000000003E
:1002C000000000000000000000000000000000002E
:1002D000000000000000000000000000000000001E
:1002E000000000000000000000000000000000000E
:1002F00000000000000000000000000000000000FE
:1003000000000000000000000000000000000000ED
:1003100000000000000000000000000000000000DD
:1003200000000000000000000000000000000000CD
:100330000000045104510000000000000000000013
:1003400000000000000000000000000000000000AD
:10035000000000000000000000000000000000009D
:10036000000000000000000000000000000000008D
:10037000000000000000000000000000000000007D
:10038000000000000000000000000000000000006D
:10039000000000000000000000000000000000005D
:1003A00000000353000000000000000000000000F7
:1003B000000000000000000000000000000000003D
:1003C000000000000000000000000000000000002D
:1003D000000000000000000000000000000000001D
:1003E000000000000000000000000000000000000D
:1003F0000000000000000000000000002A2B280080
:1004000000000000000000000000000000000029C3
:10041000000000002C1E3420212224342627252E03
:10042000362D3738271E1F2021222324252633333B
:10043000362E37381F0405060708090A0B0C0D0E67
:100440000F101112131415161718191A1B1C1D2F33
:100450003130232D350405060708090A0B0C0D0E53
:100460000F101112131415161718191A1B1C1D2F13
:100470003130354C0000000000000000000000009A
:10048000000000000000000000000000000000006C
:10049000000000000000000000000000000000005C
:1004A000000000000000000000000000000000004C
:1004B000000000000000000000000000000000003C
:1004C000000000000000000000000000000000002C
:1004D000000000000000000000000000000000001C
:1004E000000000000000000000000000000000000C
:1004F00000000000000000000000000000000000FC
:1005000000000000000000000000000000000000EB
:1005100000000000000101010101010001010101D1
:1005200000000000000000000000000000000100CA
:1005300001000101010101010101010101010101AC
:10054000010101010101010101010101010101009C
:100550000000010100000000000000000000000099
:10056000000000000000000000000000000000018A
:100570000101010004033000000012034500720075
:1005800067006F0044006F006E00650000001203FA
:100590004B002E0054002E0045002E0043002E007C
:1005A00000000403090409023B00020100A0FA094B
:1005B0000400000103010100092111010001224092
:1005C000000705810308000A090401000103000077
:1005D0000009211101000122C0000705820320004B
:1005E0000A1201100100000008EDFE0DE6010001F5
:1005F00002030105010902A10185020901A100050B
:100600000919012905150025019505750181029536
:1006100001750381010501093009311581257F9597
:10062000027508810609381581257F9501750881B5
:1006300006050C0A38021581257F9501750881068B
:10064000C0C005010980A101850316010026030031
:100650001A81002A8300751095018100C0050C09DC
:1006600001A1018504160100269C021A01002A9CA2
:1006700002751095018100C005010906A1018505DB
:10068000050719E029E71500250195087501810284
:100690000508190129059505750191029501750354
:1006A00091010507190029EF1500250195F0750145
:1006B0008102C005010906A101050719E029E71516
:1006C00000250195087501810295017508810105D4
:1006D0000819012905950575019102950175039188
:1006E000010507190029FF150026FF00950675086A
:1006F0008100C00011241FBECFEFDAE0DEBFCDBF06
:1007000004B603FE27C08091B1029091B202A0917D
:10071000B302B091B4028730904BA740B04BD1F4F4
:100720001092B1021092B2021092B3021092B4026F
:1007300014BE84B7877F84BF0FB6F894A8958091C4
:100740006000886180936000109260000FBEE0E05E
:10075000F8E3099511E0A0E0B1E0E0E0FAE502C0BD
:1007600005900D92A834B107D9F722E0A8E4B1E0D2
:1007700001C01D92A13BB207E1F70E9436240C9400
:10078000D62C0C9400001092B9008AE08093B80037
:10079000089594EA9093BC009091BC0097FFFCCF21
:1007A0009091B900987F983011F0903199F480932E
:1007B000BB0084E88093BC008091BC0087FFFCCF25
:1007C0009091B900987F983119F081E0903409F444
:1007D00080E0089581E008950C94C90384E9809332
:1007E000BC008091BC0084FDFCCF08958093BB00C9
:1007F00084E88093BC008091BC0087FFFCCF90917F
:10080000B900987F81E0983209F480E0089584E887
:100810008093BC008091BC0087FFFCCF8091BB001F
:10082000089580B38F7080BB81B38F7081BB84B11A
:10083000897F84B985B1897F85B90C9486056E98C6
:10084000769A8AB183768AB98BB18C698BB93E98D6
:10085000469A24982C9A0C94BB050C94AC060E94E2
:1008600011040E941F04ECE9F1E088E491E0119288
:100870001192DC012EE01D922150E9F70E9621E045
:10088000E83AF207A1F70C9450080E9411040E9464
:100890001F04ECE9F1E011821082138212821582AA
:1008A0001482178216821186108613861286089586
:1008B0009EE0899FF0011124E85BFE4F30E020E0CC
:1008C00050E040E061E070E09191992359F0DF0140
:1008D000119791509C932F5F3F4F2E303105A1F718
:1008E000CA010895CB01022E02C0880F991F0A94F5
:1008F000E2F7482B592BEFCFCF932EE0629FB00148
:10090000112430E020E0A1E0B0E0C5E0AD01022E0E
:1009100002C0440F551F0A94E2F748235923452B80
:1009200031F0FB01E20FF31FE85BFE4FC0832F5F46
:100930003F4F2E30310551F7CF9108954F925F927E
:100940007F928F929F92AF92BF92CF92DF92EF925F
:10095000FF920F931F93CF93DF930E94A1050CE9A1
:1009600011E0C0E0D1E0C33009F47FC008F06FC0EF
:10097000C13009F474C0C23009F474C0849A8C98F0
:100980008C2F0E948A0580EA8A95F1F78C2F0E94AD
:1009900058047C010E94EC054B996DC0A0E4CA2E5E
:1009A000D12C4A996BC0A0E2B0E04C996AC0F0E14A
:1009B0004F2E512C369968C068E070E04F9967C09F
:1009C00044E050E0669966C022E030E073B0F80180
:1009D000A190B1908F017294EFE07E227D2670FA93
:1009E000882480F8912C882999298C299D298A2B83
:1009F0009B2B84299529862B972B842B952B822B37
:100A0000932B8A259B258E219F21A826B9266C2F02
:100A10000E947C04F8013297B182A0820E941104E6
:100A2000CF5FC63009F09FCF0E945A0881E0DF9166
:100A3000CF911F910F91FF90EF90DF90CF90BF90DB
:100A4000AF909F908F907F905F904F900895C430AB
:100A500079F0C53009F092CF229A2A9891CF859AE1
:100A60008D988ECF869A8E988BCF879A8F9888CFC5
:100A7000219A299885CFD12CC12C93CFB0E0A0E04A
:100A800094CF512C412C96CF70E060E097CF50E08E
:100A900040E098CF30E020E099CFE82FF0E0EE0F73
:100AA000FF1FE456FE4F808191810895089585309F
:100AB00008F08F5F2091A80130E0A90102C0559590
:100AC00047958A95E2F7CA01817008951F93CF93E5
:100AD000DF93182FD62FC091A901CC2391F080E489
:100AE0000E94C903C82F81110AC0812F0E94F603FA
:100AF000C82F811104C08D2F0E94F603C82F0E94B9
:100B0000EE038C2FDF91CF911F9108956FEF81E05D
:100B10000C9466058F5F61E070E001C0660F8A95F6
:100B2000EAF7609581E00C9466056FEF82E00E9421
:100B300066056FEF8CE00E9466056FEF81E00C9414
:100B4000660580E40E94C90381110DC00E94EE0376
:100B50008091A90181110EC081E08093A9010E94BA
:100B600095050C942C168091A901813019F41092EE
:100B7000A901F7CF08950E94C3030C94A1050F9318
:100B80001F93CF93DF93D82F8B01C091A901CC2362
:100B9000C1F080E40E94C903C82F811110C08D2FBD
:100BA0000E94F603C82F81110AC081E40E94EC0361
:100BB000C82F811104C00E940704F80180830E949D
:100BC000EE038C2FDF91CF911F910F91089568EA6A
:100BD00071E082E10C94BF058F929F92AF92BF9219
:100BE000FF920F931F93CF93DF930E94E705CDE011
:100BF000D0E010E000E08DE0F82E812C912C540123
:100C000083948F2D8C1B0E945705882361F0D5019A
:100C1000C4010C2E04C0880F991FAA1FBB1F0A9481
:100C2000D2F7082B192B219760F7C801DF91CF91DC
:100C30001F910F91FF90BF90AF909F908F9008955C
:100C400025982D980895259A2D9A089526982E98DE
:100C50000895269A2E9A089523982B980895239AFA
:100C60002B9A08952098289A08950E9420060E94A1
:100C700026060E942C060C94320684B1886684B93C
:100C800085B1877985B9209A289A559A5D9A0895F1
:100C90000E9435060E9423062FEF80E792E0215044
:100CA00080409040E1F700C000000E9429062FEF2D
:100CB00080E792E0215080409040E1F700C00000C2
:100CC0000E942F062FEF80E792E021508040904055
:100CD000E1F700C000000E9420062FEF80E792E0BD
:100CE000215080409040E1F700C000000E9426069D
:100CF0002FEF80E792E0215080409040E1F700C064
:100D000000000E942C060C9435060E943D060E94AD
:100D100048060C94AB068091AC01813041F08823E9
:100D200011F0823039F486E292E00C948B0786E36E
:100D300092E0FBCF08958091AC01813041F088238F
:100D400011F0823039F487E292E00C948B0787E34C
:100D500092E0FBCF08950895CF930E946B0F6091AE
:100D60003A0270913B0280913C0290913D020E94B8
:100D70008A1CC82F0E9432060E9420060E94260666
:100D80000E942C06C23061F0C33069F0C13011F40A
:100D90000E9423060E94BC1081FD14C0CF910895CB
:100DA0000E942906F7CF8091AA019091AB0101968C
:100DB0009093AB018093AA0191FFF0CF0E9423068C
:100DC0000E942906CF910C942F06FC01808181306E
:100DD00031F48185811108C0828590E008958230C8
:100DE00031F083E090E0089590E080E0089582E0A3
:100DF00090E008950E94E5068093AC01813029F0CF
:100E0000882359F0823029F0089586E392E00C940B
:100E1000760786E292E00E94A00786E292E0F7CF92
:100E20000E94E5068093AC01813029F0882359F0B7
:100E3000823029F0089587E392E00C94760787E2E8
:100E400092E00E94A00787E292E0F7CF0F931F93F2
:100E5000CF93DF938C01EB019A9581159F4138F573
:100E600010FF03C080EEFB01099511FF03C081EE66
:100E7000FE01099512FF03C082EEFE01099513FFE2
:100E800003C083EEFE0109950115104180F084EE48
:100E9000FE01099585EEFE01099586EEFE01099594
:100EA00087EEFE01DF91CF911F910F910994DF91A1
:100EB000CF911F910F910895877091E001C0990F14
:100EC0008A95EAF7892F0E94EE1B0C94271C0C943C
:100ED0005C07877091E001C0990F8A95EAF7892F26
:100EE0000E94F41B0C94271C0C946907CF93DF938A
:100EF000EC01805E9109089720F06CE577E020977F
:100F000011F467E677E0CE010E9426078C2FDF916F
:100F1000CF910C942812CF93DF93EC010E943113F0
:100F2000CE01805E9109089720F069E677E020976E
:100F300011F464E777E0CE01DF91CF910C9426079E
:100F4000CF93DF93EC010E947607CE01DF91CF9122
:100F50000C948B0781E0089581E008950C94AC0710
:100F60001F93CF93DF9300D000D00F92CDB7DEB7A1
:100F700049835A836B832091CA0189819A81211107
:100F80001BC06623A9F00E94401B182F682F89817F
:100F90009A810E94EC1A69817A81812F0F900F90BB
:100FA0000F900F900F90DF91CF911F910C94350A05
:100FB0000E94181B182FEFCF0E94401B69817A8175
:100FC000EDCFFC01408151816281738184810C9459
:100FD000B0071F93CF93DF9390E0FC01EC50FC4FE0
:100FE0001491FC01EC50FB4FD4918C589B4FFC01A9
:100FF000C491DD2319F081EE0E942812CC2319F050
:1010000086EE0E942812812F0E948713CC2319F0AC
:1010100086EE0E943113DD2331F081EEDF91CF9116
:101020001F910C943113DF91CF911F910895FF927E
:101030000F931F93CF93DF93EC01F62E88818823C3
:1010400031F18E010F5F1F4F813041F4C9818C2F28
:101050000E9428128C2F0E94311305C0823079F42F
:1010600089810E942812E80121968F2D815030F34A
:10107000EFE9FFE03197F1F700C00000F7CF8330D0
:1010800011F48981E8CF0E94E9078E01ECCFDF914E
:10109000CF911F910F91FF90089560E00C94170875
:1010A0000E94D71C811102C00E947E1D0E94F70C75
:1010B0000C9485060E94A30E0C942D04282F2F70EB
:1010C00041F0822F90E02A3010F44D960895069753
:1010D000089587E290E0089508950C946C080C94AC
:1010E0006D0808950E942C160E9471082FEF84E36A
:1010F0009CE0215080409040E1F700C000000C943B
:10110000EA1E0F931F93CF93DF938C010E94E10798
:10111000EC01B8010E94030EB801CE010E94AE0797
:10112000882309F488C0B801CE010E94490E8823A3
:1011300009F481C0B801CE010E946E0D882309F424
:101140007AC0B801CE010E94A50F882309F473C0AC
:10115000B801CE010E947610882309F46CC0C63114
:101160008CE5D80709F45DC188F4C130FCE5DF07E0
:1011700009F467C028F5C115DC4509F457C0C8015A
:10118000DF91CF911F910F910C94AA07CE3DFCE502
:10119000DF0709F463C078F4CC3DECE5DE0709F421
:1011A00064C0CD3DDC4559F7F8018281882309F4FC
:1011B00042C082E05FC0CE01875F9C450797F8F68A
:1011C000F80182818823D9F20E94D71C811102C0C4
:1011D0000E947E1D0E94F41C9093A3028093A202A1
:1011E000CF30FCE5DF0709F401C108F07DC0C8304D
:1011F000ECE5DE0709F4E6C008F052C0C4308CE527
:10120000D80709F4D1C0C8F5C230FCE5DF0709F4FE
:10121000C3C0C330DC4509F4C3C08091A2029091E1
:10122000A3020E94021D0E942C1605C0F8018281B3
:1012300081110E94720880E0DF91CF911F910F9180
:101240000895F80182818823B1F390916702892F74
:101250008E7F90FF816080936702EDCFF8018281DD
:10126000882349F30E947E1DE6CFF80182818823FE
:1012700011F380E00E94D224DECF8091A20280612F
:10128000C630ECE5DE0709F447C08091A202886011
:10129000C730DC4508F440C08091A20280623CC0A7
:1012A000CB308CE5D80709F499C068F4C930FCE567
:1012B000DF0709F48BC0CA30DC4509F0AECF80915E
:1012C000A2028C6029C08091A2028B7FCD30ECE518
:1012D000DE0711F18091A2028D7FCE30DC45E0F077
:1012E0008091A202877F18C0C73F8CE5D80709F418
:1012F0005FC060F5C231FCE5DF0709F47FC078F418
:10130000C031ECE5DE0709F475C08091A2028F7B45
:10131000C131DC4509F081CF8093A2027ECFC43178
:101320008CE5D80709F476C008F46CC0C531DC45FB
:1013300009F073CF8091A20282FB992790F921E0F6
:10134000922790FB82F990FB83F9E6CFCA3F8CE5A8
:10135000D80709F447C060F4C83FFCE5DF0771F126
:10136000C93FDC4509F059CF8091A3028E7F23C08D
:10137000CC3FECE5DE0709F449C060F1CD3FDC4528
:1013800009F04BCF8091A302982F909591708E7F9A
:10139000892B90FB81F90FC08091A2028160BCCFA4
:1013A0008091A2028260B8CF8091A2028460B4CF03
:1013B0008091A30281608093A3022FCF8091A3022A
:1013C0008260F9CF8091A2028064A6CF8091A202B0
:1013D0008068A2CF8091A3028360EDCF8091A202AA
:1013E0008E7F9ACF8091A3028D7FE5CF8091A2025C
:1013F0008F7E92CF8091A2028F7D8ECF8091A202AC
:101400008F778ACF8091A202837F86CF8091A302BB
:101410008C7FD1CF9091A202892F97FB87F98058BA
:101420007BCF0E94D51BF8019281992381F08A7AA3
:1014300091E009F490E09093AD01811106C089E23A
:101440000E94B01B0E94271CF6CE85E3F9CF809145
:10145000AD01811104C089E20E94B71BF3CF85E37F
:10146000FBCF90E080E008950895972F70E02EE084
:10147000929F600D711D1124FB0194E5899FE00D81
:10148000F11D1124EE0FFF1FE455FF4F859194913C
:101490000895FC01EE0FFF1FEC58FA4F85919491CF
:1014A0000895CF93DF930E94350A0E94080CEC0147
:1014B000811520E5920708F042C0811530E49307BA
:1014C00008F014C1883E910528F5803E910508F08A
:1014D000A0C0883A910588F4853A910508F08FC03C
:1014E0008130910509F495C0009709F492C00497E2
:1014F00008F08FC0D0E0C0E08CC08F3B910508F4AD
:101500008CC0805C9109C03CD105A0F30E94490ABF
:10151000EC017FC08115904250F4C11581E0D807DD
:1015200008F077C0C03FD10528F3D06572C0C1155F
:1015300090E3D90708F0D0C0CE019F70E7CF8115A6
:1015400025E5920758F5811534E5930708F0FDC0AD
:10155000811542E5940750F4C11581E5D80708F4D8
:10156000C8C0DC2FCC27C16FD06A53C0982F969586
:1015700096959E0123703327C115D34508F0D6C038
:10158000C1E0D0E002C0CC0FDD1F2A95E2F720E2D7
:10159000929FC0011124C82BD92BC6C0C11589E563
:1015A000D807A8F4C11598E5D90708F0D3C0C1152C
:1015B00026E5D20708F09ECF8C2F0E949F0CC82FE3
:1015C000D0E0DC2FCC27CC27DF71D06222C0C11540
:1015D0003AE5D30708F4C3C0CE0190568115904276
:1015E00008F088CF8D2F8F710E949F0C90E0982F6C
:1015F000882788279F719C012C2BE901E6CF853A2B
:10160000910509F4BAC0863A910509F0B9C0C2E85B
:10161000D0E4CE01DF91CF910895883A910509F485
:10162000B2C0893A910509F4B1C08A3A910509F42A
:10163000B0C08B3A910509F4AFC08C3A910509F41A
:10164000AEC08B3B910509F4ADC08C3B910509F40C
:10165000ACC08D3A910509F4ABC0803B910509F40B
:10166000AAC08E3A910509F4A9C08F3A910509F4F0
:10167000A8C0813B910509F4A7C0823B910509F4FC
:10168000A6C0833B910509F4A5C0843B910509F4EC
:10169000A4C0853B910509F4A3C0863B910509F4DC
:1016A000A2C0873B910509F4A1C0883B910509F4CC
:1016B000A0C0893B910509F49FC08D3B910509F4B9
:1016C0009EC08E3B910509F49DC08A3B910509F4AB
:1016D0009CC0C0E0D4E49DCFCE019927D3FF03C0C6
:1016E000EC01D86C96CFEC01D06C93CFDF70D06A50
:1016F00090CFCE01E4E096958795EA95E1F7837067
:101700002C2F26952695237090E2299F9001112475
:10171000382B8C2F8370C1E0D0E002C0CC0FDD1FCE
:101720008A95E2F7C22BD32BDC6873CFC1E0D0E0FF
:1017300002C0CC0FDD1F2A95E2F730E2939FC00173
:101740001124C82BD92BDA6864CFD82FCC27C46FCB
:10175000D06A5FCFDC2FCC27C06FD06A5ACF8C2FD6
:101760008F700E949F0C34E0D695C7953A95E1F7AB
:10177000CF709C2FEC01D0694CCFC1E8D0E449CFA9
:10178000C3E8D0E446CFC2EED4E443CFC9EED4E4FC
:1017900040CFCAEED4E43DCFC5EBD4E43ACFC6EB9C
:1017A000D4E437CFC3EBD4E434CFC4EBD4E431CFAB
:1017B000C7EBD4E42ECFCCECD4E42BCFCDECD4E4E7
:1017C00028CFC3E8D5E425CFCAE8D5E422CFC2E9C3
:1017D000D5E41FCFC4E9D5E41CCFC1E2D6E419CFCC
:1017E000C3E2D6E416CFC4E2D6E413CFC5E2D6E412
:1017F00010CFC6E2D6E40DCFC7E2D6E40ACFCFE6DB
:10180000D4E407CFC0E7D4E404CFCAE2D6E401CFE2
:1018100082389105B1F1B0F48133910509F475C0B6
:1018200048F48932910509F469C08A32910509F4B6
:1018300073C008958533910509F459C08933910522
:1018400001F10895833E9105A9F138F4803E910598
:10185000F9F0823E910549F10895863E9105A9F17E
:10186000873E9105C9F1843E910519F52091A302A7
:1018700021FF1FC08091A20284FD14C087EE90E07A
:1018800008952091A2022370A1F080EE90E00895C7
:101890002091A20220FD47C03091A30230FF09C071
:1018A00024FF44C090E080E004C02091A20222FD09
:1018B000F7CF08952091A20222FD3BC03091A302F0
:1018C00030FDE3CF24FFF5CFEDCF2091A20223FF1F
:1018D000F0CF24FDE7CFD2CF2091A20223FD2CC070
:1018E0003091A30231FFEECF84EE90E00895209175
:1018F000A20225FFDECF89E290E008952091A202A6
:1019000025FFD7CF85E390E008952091A20226FF1E
:10191000D0CF8AE290E008952091A20226FFC9CF9D
:1019200081E390E0089589E390E0089583EE90E0EC
:10193000089582EE90E0089586EE90E008959091EB
:10194000A20292FF06C0282F28712830F9F4877F61
:10195000846093FF06C0282F28712831F1F4877E18
:1019600084612091A30220FF06C0382F38713830DF
:10197000D9F4877F816021FF06C0282F2871283184
:10198000D1F4877E816194FD877E0895282F24718C
:101990002430F9F68B7F8860DCCF282F2471243126
:1019A00001F78B7E8861DDCF382F3171313019F727
:1019B0008E7F8860E0CF282F2171213121F78E7E24
:1019C0008861E1CFCF93DF93EC0197FF0CC0FB015F
:1019D0008281882341F00E940D0DCE019F770E94E5
:1019E000510D0E94390D81E0DF91CF9108958CE077
:1019F00090E00E945D2C90E0B0E0A0E08093970220
:101A000090939802A0939902B0939A0208956091DE
:101A100097028CE090E00C946B2C0E94D51B809375
:101A20009B020E94E81B80919702813089F08823F5
:101A300059F0823091F08430B9F08FE39CE901973E
:101A4000F1F700C00000089582EE0E942812F5CF41
:101A500088E193E00E94A007F0CF82EE0E94281256
:101A600087E50E948713E9CF86EE0E94871388E1FD
:101A7000F8CF80919702813071F0882341F0823055
:101A800031F0843061F080919B020C94E51B82EE72
:101A90000E943113F8CF8CE20E948713F4CF88E2C2
:101AA000FBCF0F931F93CF93DF938C01CCE0D0E05B
:101AB000C8010C2E02C0969587950A94E2F78F70A4
:101AC0000E945E080E9487132497CC3F8FEFD807AF
:101AD00079F7DF91CF911F910F9108950F931F9385
:101AE000CF93DF93EC018B01FB018281882371F09E
:101AF000C33EFCE5DF0719F188F4C13EECE5DE07E3
:101B0000C9F081E0C23EFCE5DF0789F0B801CE01F3
:101B1000DF91CF911F910F910C94E20CC43E8CE5A4
:101B2000D80779F084E0C53EECE5DE0779F78093CD
:101B3000970202C0109297020E94070DE7CF82E041
:101B4000F6CF83E0F4CFCF93DF93EC0181E0898B74
:101B50008F810E94D81B88850E94EE1B0E94271C43
:101B6000EA81FB81309739F06C897D89CE01069638
:101B7000DF91CF910994DF91CF910895EF92FF9279
:101B80000F931F93CF93DF93EC018A85811134C0AB
:101B9000EB80FC8087E5F81A26E12E9DC0012F9D81
:101BA000900D1124DC01A050BF4F1496ED91FC91D3
:101BB0001597309731F054966D917C918A5F9E4FC6
:101BC000099586E18E9D80018F9D100D1124005096
:101BD0001F4FF80187810E94DE1BF80180850E945B
:101BE000F41B0E94271C188219861B861E821D82E8
:101BF0001092AF011092AE01DF91CF911F910F9122
:101C0000FF90EF900895DF92EF92FF920F931F9352
:101C1000CF93DF937C01FB018281882391F0809137
:101C20002C018F3F71F0C0E0D1E010E000E0DD2436
:101C3000D39480912C01082E000C990B80179107EA
:101C400044F4DF91CF911F910F91FF90EF90DF90BF
:101C500008958E818823C9F089859A858E159F0500
:101C600039F48091AE019091AF018E159F0569F016
:101C7000DF86FC86EB868989811103C0CE010E9434
:101C8000A30DCE0106960E94BE0D0F5F1F4F6696F4
:101C9000D0CFEF92FF920F931F93CF93DF937C01EE
:101CA00097558F3F910509F0D8F520912C01022E10
:101CB000000C330B2817390714F480932C01FB0117
:101CC000228136E1389F8001399F100D1124E801EF
:101CD000C050DF4F288B92818E81992349F1FA867B
:101CE000E9868F5F8E830E94901E9E878D870E945B
:101CF0000E1C8F830E94D51B88870E94EB1B988542
:101D0000892B8887E881F981309731F06C897D894A
:101D1000C8018A5F9E4F0995F092AF01E092AE0133
:101D200081E0DF91CF911F910F91FF90EF90089587
:101D30008823B1F38989882399F3C8018A5F9E4F6C
:101D40000E94BE0DEDCFEF92FF920F931F93CF93A2
:101D5000DF9380912C0110E006E18F3FC1F5DF9108
:101D6000CF911F910F91FF90EF900895029FF00186
:101D7000039FF00D1124E050FF4FE288F388E11437
:101D8000F10419F488ECE82EF12C029FE001039F86
:101D9000D00D1124C050DF4F8E818823B9F08D857E
:101DA0009E850E949C1EE816F90680F4109F700123
:101DB00011248989811105C0C70180509F4F0E945D
:101DC000A30DC7018A5F9E4F0E94BE0D1F5F212F8A
:101DD00030E080912C01082E000C990B821793079C
:101DE0002CF6BDCF0F931F93CF93DF93CDB7DEB704
:101DF00028970FB6F894DEBF0FBECDBF80912F019C
:101E00008F9380912E018F9382E491E09F938F9323
:101E10001F9288E08F938E010F5F1F4F1F930F93C8
:101E20000E94BE29C8010E944D080FB6F894DEBF7B
:101E30000FBECDBF28960FB6F894DEBF0FBECDBF44
:101E4000DF91CF911F910F910895CF93DF93EC0114
:101E50000E94901E9093B3018093B201D093B10180
:101E6000C093B001DF91CF910895CF93DF9380911C
:101E7000B0019091B101892B59F18091B2019091FB
:101E8000B3010E949C1EEC0180912E0190912F01C4
:101E90008C179D0718F481EE0E9428128091B001E2
:101EA0000E9428128091B0010E94311380912E016E
:101EB00090912F018C179D0718F481EE0E94311329
:101EC0001092B3011092B2011092B1011092B001C0
:101ED000DF91CF9108958091B0019091B101892B4C
:101EE00019F18091B2019091B3010E949C1E209142
:101EF0002E0130912F0128173907B0F481EE0E948E
:101F000028128091B0010E9428128091B0010E9495
:101F1000311381EE0E9431131092B3011092B2017D
:101F20001092B1011092B001089510922D010C94FD
:101F3000350F80912D01882321F010922D010C94F2
:101F4000350F81E080932D0108951F93CF93DF9388
:101F5000EC01FB011281112309F457C0843691056D
:101F600041F0D8F48B32910521F088F404978497DE
:101F700088F40E94350F80912D01882331F10E9451
:101F8000D51B811122C0CE010E94250F1DC08D9747
:101F90000C9778F30E94350F18C089319C4559F190
:101FA000CA318CE5D807B0F4C731ECE5DE07E9F0BB
:101FB00080912E0190912F010597C831DC4551F792
:101FC00090932F0180932E0110E0812FDF91CF910C
:101FD0001F910895CB318CE5D80799F078F0CC317A
:101FE000DC45C1F60E94950FEFCF80912E019091B4
:101FF0002F010596E5CF0E94F20EE6CF0E94990FC1
:10200000E3CF81E080932D01DFCF0E94350F11E0F7
:10201000DCCF0F931F93CF93DF93C62FD42F022FC4
:10202000FC0182818823C9F06093B6010E94901E52
:102030009093B5018093B40180E28C0F883008F052
:1020400050C0C77081E001C0880FCA95EAF7DF91E0
:10205000CF911F910F910C949A131091B601161302
:1020600035C08091B4019091B5010E949C1E883CBE
:10207000910560F5C0E2CD0F1D17B9F080E2810F28
:10208000883040F4177081E001C0880F1A95EAF794
:102090000E94A113C83048F481E09D2F977001C0C1
:1020A000880F9A95EAF70E949A13802F0E9487134F
:1020B000C830B8F4D77081E001C0880FDA95EAF72C
:1020C000DF91CF911F910F910C94A11380E28C0F9F
:1020D000883038F4C77081E001C0880FCA95EAF7EC
:1020E000EFCFDF91CF911F910F9108959C01CB010C
:1020F000203F4CE5340731F190F4283DFCE53F07E3
:10210000E9F0293D4CE5340769F1273D3C4579F478
:1021100026E241EE61EE0E94091080E00895223F20
:10212000FCE53F07B9F090F0233F3C45B9F0FC01D6
:1021300082818823D1F01092B601089527E245EEFE
:1021400065EEE9CF26E241EE60EEE5CF27E245EE0F
:1021500064EEE1CF26E241EE62EEDDCF27E245EE0E
:1021600066EED9CF28E241E0EBCF81E0089590936D
:10217000BC018093BB010895E091BB01F091BC01CB
:10218000309721F00190F081E02D099480E00895CE
:10219000E091BB01F091BC01309799F02091410191
:1021A000222359F02091A20227FF07C0DC012C91C5
:1021B00011962C93119725E02C930280F381E02D4A
:1021C00009940895E091BB01F091BC01309739F07A
:1021D00022E0DC012C930480F581E02D0994089520
:1021E0002091B9013091BA012817390771F0909305
:1021F000BA018093B901E091BB01F091BC01309725
:1022000021F00680F781E02D099408952091B7010F
:102210003091B8012817390771F09093B801809375
:10222000B701E091BB01F091BC01309721F000842F
:10223000F185E02D0994089585B7806885BF85B73D
:10224000806885BF0895089508950C94231108951A
:102250000C9427110E941C110E9424110C9425112A
:1022600081E008950E94871E0E942F040E94591F3A
:10227000E2EAF2E08081806880830C9428117F92EA
:102280008F929F92AF92BF92CF92DF92EF92FF9286
:102290000F931F93CF93DF93CDB7DEB72A970FB677
:1022A000F894DEBF0FBECDBF0E949E040E94301185
:1022B000882309F479C09EEBA92E91E0B92E10E095
:1022C00000E088248394912C702E802F0E944D056D
:1022D0007C01F501C190D1905F01C816D90609F4BF
:1022E0005DC08091670281FD0E94560596012E25F2
:1022F0003F2590E080E06401082E02C0CC0CDD1C7C
:102300000A94E2F7A60142235323452B09F441C066
:102310008E837F82EC20FD2081E0EF2809F480E0AD
:1023200088870E94901E8160782F9A8789874E81C6
:102330005F8168858A850E94F911000F111FF801DD
:10234000E254FE4F80819181C826D926D182C08275
:102350000E94D8210E94BC109091BD018917A9F15B
:102360000E94BC108093BD012A960FB6F894DEBF80
:102370000FBECDBFDF91CF911F910F91FF90EF90D6
:10238000DF90CF90BF90AF909F908F907F900C94F4
:102390006F0801968E30910509F0ADCF0F5F1F4F8A
:1023A0000630110509F090CF8FEF89838A831B8255
:1023B0000E94901E8160782F9D838C8349815A8171
:1023C0006B818D810E94F911C3CF2A960FB6F894C4
:1023D000DEBF0FBECDBFDF91CF911F910F91FF9058
:1023E000EF90DF90CF90BF90AF909F908F907F90B5
:1023F0000895CF93DF93CDB7DEB72B970FB6F89440
:10240000DEBF0FBECDBF4F83588769877A878B8722
:102410001E821D8285E0FE013796DE011196019035
:102420000D928A95E1F749815A816B817C818D817A
:102430009E812B960FB6F894DEBF0FBECDBFDF9105
:10244000CF910C94CC18FC01808191810C94821B5B
:10245000882309F405C18238B9F40E94BC1081FDBB
:10246000FFC089E30E94B01B0E94271C2FEF81EE62
:1024700094E0215080409040E1F700C0000089E3E3
:102480000E94B71B0C94271C8338A1F40E94BC1037
:1024900080FDE6C083E50E94B01B0E94271C2FEF41
:1024A00081EE94E0215080409040E1F700C00000B0
:1024B00083E5E6CF8438A1F40E94BC1082FDD0C031
:1024C00087E40E94B01B0E94271C2FEF81EE94E04E
:1024D000215080409040E1F700C0000087E4D0CF59
:1024E0009CEF980F913A18F40E94B01BCBCF90E26A
:1024F000980F983050F4877091E001C0990F8A9539
:10250000EAF7892F0E94D81BBDCF9BE5980F933027
:1025100070F4853A31F0863A39F083E890E00C9413
:10252000F01081E890E0FBCF82E890E0F8CF98E5EA
:10253000980F973108F08EC0883A09F446C0893A5E
:1025400009F446C08A3A09F446C08B3A09F446C0F9
:102550008C3A09F446C08B3B09F446C08C3B09F425
:1025600046C08D3A09F446C0803B09F446C08E3A15
:1025700009F446C08F3A09F446C0813B09F446C0CD
:10258000823B09F446C0833B09F446C0843B09F40E
:1025900046C0853B09F446C0863B09F446C0873BEC
:1025A00009F446C0883B09F446C0893B09F446C09B
:1025B0008D3B09F446C08E3B09F446C08A3B09F4C2
:1025C00046C090E080E00C94061182EE90E0FBCFD4
:1025D00089EE90E0F8CF8AEE90E0F5CF85EB90E0C1
:1025E000F2CF86EB90E0EFCF83EB90E0ECCF84EB83
:1025F00090E0E9CF87EB90E0E6CF8CEC90E0E3CF82
:102600008DEC90E0E0CF83E891E0DDCF8AE891E0C7
:10261000DACF82E991E0D7CF84E991E0D4CF81E2AB
:1026200092E0D1CF83E292E0CECF84E292E0CBCFB2
:1026300085E292E0C8CF86E292E0C5CF87E292E0E1
:10264000C2CF8FE690E0BFCF80E790E0BCCF8AE2B8
:1026500092E0B9CF803F20F00E94E6200C94CD217B
:102660000895882309F452C0823871F40E94BC1086
:1026700081FF4CC089E30E94B01B0E94271C89E3A4
:102680000E94B71B0C94271C833859F40E94BC107D
:1026900080FF3CC083E50E94B01B0E94271C83E59D
:1026A000EFCF843859F40E94BC1082FF2FC087E41A
:1026B0000E94B01B0E94271C87E4E2CF9CEF980F7A
:1026C000913AF0F290E2980F983050F4877091E0D0
:1026D00001C0990F8A95EAF7892F0E94DE1BD2CF9D
:1026E0009BE5980F933020F490E080E00C94F0107C
:1026F00098E5980F973120F490E080E00C94061153
:10270000803F20F00E944E210C94CD210895CF935C
:10271000C82F0E942812C93349F42FEF87EE93E0A7
:10272000215080409040E1F700C000008C2FCF91F5
:102730000C943113882321F00E94D81B0C94271C81
:102740000895882321F00E94DE1B0C94271C089515
:10275000BF92CF92DF92EF92FF920F931F93CF938E
:10276000DF937C01D62FC72FFC01058102950F70E6
:10277000128111110E94FB1B0E94CE1BD82E8823B0
:1027800071F01123B1F080E28D0F883090F082E07B
:102790000E94721C0E94CE1B91E0D82ED926CC2E0E
:1027A000C2949FE0C922EC2DF0E0E852F34D0C9466
:1027B000A429D12CF4CF0C2F0F70C07F11F00295FB
:1027C000007F1123A9F0002359F080E28D0F88309B
:1027D00010F0D11109C0802F0E94D81B0E94271C25
:1027E0008D2F0E94281214C0802F0E94EE1BF6CF5E
:1027F0008D2F0E943113002359F080E28D0F883015
:1028000010F0D1112CC0802F0E94DE1B0E94271CCB
:102810002C2D2850330B2430310520F40E94BC109D
:102820000E946F08DD2009F4CDC10E94CA1B80FD03
:10283000C9C1F70112820E94C41B0E94501AC7012D
:102840000E94EC150E94C41BDF91CF911F910F9144
:10285000FF90EF90DF90CF90BF900C94711A802F73
:102860000E94F41BD3CFFC2FFF70BF2EC07FC0325D
:1028700019F0B29480EFB822DD2339F0D13019F18C
:10288000112359F1002321F1ABCF112381F0011164
:1028900006C00E940E1C8B290E949A13B9CF0130EA
:1028A000C1F70E940E1C8B290E94141CB1CF01118C
:1028B00006C00E941D1C8B2D0E94A113A9CF0130C0
:1028C00009F4A6CFF6CF112329F0023008F0A0CFEB
:1028D0008B2DE2CF01119CCFEECF002361F3D933D2
:1028E00049F42FEF37EE83E0215030408040E1F78C
:1028F00000C000008D2F0E9431138ACF8C2F869547
:102900008695837069F0813009F082CF8D2F9C2FDE
:102910009370111102C090E080E00E94061178CF00
:102920008D2F9C2F9370111102C090E080E00E94C7
:10293000F0106ECF112309F1D53F99F0D63FB9F0D1
:10294000D43F49F480919C0290919D0281609093C4
:102950009D0280939C028D2F0E94E6200E94CD2133
:1029600057CF80919C0290919D028260F0CF809120
:102970009C0290919D028460EACFD53F89F0D63FBA
:10298000A9F0D43F49F480919C0290919D028E7FE2
:1029900090939D0280939C028D2F0E944E21DECF4A
:1029A00080919C0290919D028D7FF2CF80919C023C
:1029B00090919D028B7FECCF8C2F837009F041C0EA
:1029C000111126CF4D2F429546954770440F440F65
:1029D0000D2F0F7010E030E020E0042E04C0000F37
:1029E000111F221F331F0A94D2F760E070E0CB0161
:1029F000D4FF0FC06FE070E080E090E004C0660F8D
:102A0000771F881F991F4A95D2F76095709580951A
:102A10009095C695C695C370602B712B822B932B16
:102A2000C23049F058F4C13019F00E94021AF0CEB9
:102A30000E94F019EDCE0E94141AEACE0E94EE19FF
:102A4000E7CE8695112311F08C2F8170882309F42D
:102A5000DFCE4D2F429546954770440F440F0D2F02
:102A60000F7010E030E020E0042E04C0000F111FB2
:102A7000221F331F0A94D2F760E070E0CB01D4FF2D
:102A80000FC06FE070E080E090E004C0660F771F39
:102A9000881F991F4A95D2F76095709580959095FB
:102AA000C695C695C370602B712B822B932BC230B9
:102AB00049F058F4C13019F00E94C71AA9CE0E94FB
:102AC000B51AA6CE0E94D91AA3CE0E942A1AA0CE69
:102AD000CF70112329F08C2F0E94501A8D2FDCCE3D
:102AE0008D2F0E94A1138C2F0E94711A91CED23F7C
:102AF00081F160F4D03FC9F0D13F21F1112309F4F5
:102B000041C001116DCE8C2F8F7120C0D33F31F1A8
:102B1000D43FA1F7112361F1CF718C2F0E94501A7D
:102B200063E08C2F0E945D1C73CE112339F00111DC
:102B30006FCE8C2F8F710E94941A6ACE023008F0EB
:102B400067CEF7CF8C2F8F71112371F20E94501A2C
:102B50005FCE8C2F8F711123C9F3C6CF112329F0BB
:102B60008C2F8F710E943B1A53CE0E94361A50CE82
:102B700081E00E94721C023008F44ACE82E00E947A
:102B8000721C46CE002359F0D93309F0B3CE9FEF23
:102B9000E7EEF3E09150E040F040E1F7A9CE8C2F52
:102BA0008F71A2CF4C2F4F706D2FC7010E94310A39
:102BB0000E9466192DCE4C2F4F706D2FC7010E94B9
:102BC000340A26CEDF91CF911F910F91FF90EF90A5
:102BD000DF90CF90BF9008950F931F93CF93DF9313
:102BE000EC018B819C81892B29F088819981892333
:102BF0008F3F29F4DF91CF911F910F910895CE015E
:102C00000E9481088823B1F3688179818A810E94BA
:102C10008C1B8C010E94EB1A0E94ED19B801CE01A9
:102C2000DF91CF911F910F910C94A8130E94FB1B71
:102C30000E940B1C0E94271C0E946F220E94CD2123
:102C400090E080E00E94F01090E080E00C9406118B
:102C50000E94BE1B0C9416160E94E81B0C942816AA
:102C6000E92FE295EF70E250EE3070F4F0E0E851B9
:102C7000F34D0C94A429803F19F020F4883E20F4F1
:102C800081E00895843FE1F380E00895883EC0F339
:102C9000813FD1F7F5CF93FB882780F908950E94F3
:102CA000821B0C943016CF93DF9300D000D00F928C
:102CB000CDB7DEB70F900F900F900F900F90DF9170
:102CC000CF910895CF93DF9300D000D000D0CDB73F
:102CD000DEB726960FB6F894DEBF0FBECDBFDF91EC
:102CE000CF9108951F93CF93DF93C091CB0116E04E
:102CF0008091CC018C1304C0DF91CF911F91089576
:102D0000D0E01C9FF0011D9FF00D1124E353FE4FF6
:102D10004081518162817381848195810E94621614
:102D20002196C770E5CF4091FD015091FE01609161
:102D3000FF017091000280910102909102020C94B7
:102D400062161F93CF93DF9380910202807FC1F4BC
:102D50008091FF018823A1F08091CB01C091CC012B
:102D60006091FD017091FE014091000250910102BD
:102D7000D62FD723DA01A095B09516E0C81304C06A
:102D8000DF91CF911F91089590E04115510511F009
:102D9000DF3F31F401968770F1CF2A0F3B1F17C038
:102DA000189FF001199FF00D1124E353FE4F21816C
:102DB0002713F0CF20812613EDCF22812111EACFF6
:102DC000238134812417350740F3241B350B283C1D
:102DD000310500F7209102022F702061209302023A
:102DE00026E0289FF001299FF00D1124EE52FE4F9E
:102DF00080818F70806180838DEF91E00E94EC155F
:102E0000DF91CF911F910C947216BF92CF92DF92F7
:102E1000EF92FF920F931F93CF93DF93CDB7DEB75F
:102E200061970FB6F894DEBF0FBECDBF8C0185E071
:102E3000F801DE011D9601900D928A95E1F7D80107
:102E40004C9111965C9111971296EC90129780918B
:102E5000000290910102009709F47FC12091FD01C9
:102E60003091FE01622F63236F3F09F476C1139600
:102E7000CD90DC90B090FF01BB2009F411C1C816C1
:102E8000D906D0F1F601E81BF90BCF01FF24F3942A
:102E9000883C910508F0F12C80910202982F907FD8
:102EA000FF2009F4B8C091117FC0FE2C351329C052
:102EB000241327C0E11025C08F7080618093020227
:102EC0000E9493168DEF91E00E94EC158091020212
:102ED000D80115968C938F2D61960FB6F894DEBFAE
:102EE0000FBECDBFDF91CF911F910F91FF90EF905B
:102EF000DF90CF90BF900895809590958C0D9D1D8B
:102F0000C5CFCD2829F0852F84238F3F09F041C1FB
:102F100080E0B82FB170DB2E80FF3CC08091CB01E8
:102F20002091CC0136E0821315C04D875E878D85D8
:102F30009E850E94821B292F22952F702230F0F04F
:102F4000243018F59F70F1F0F8019581907FD1F44D
:102F5000D12C1EC090E0389FF001399FF00D112454
:102F6000E353FE4F6181651306C06081641303C0A3
:102F70006281E6120FC001968770D5CF9F7011F065
:102F8000882331F3805E883018F3C8010E94EC1565
:102F9000FD2CA1CFEE2009F49ECF8091020281602A
:102FA00080930202F12C97CF351306C0241304C07E
:102FB000D801EE2009F49AC04D875E878D859E85E5
:102FC0000E944F16882319F1EE2009F18091020228
:102FD000803270F02091FD013091FE0138872F83FF
:102FE0001986DB86CA868C87CE0107960E94EC156F
:102FF00086E0F801ADEFB1E001900D928A95E1F71E
:103000000E94A1160E949316FF24F39464CFC80176
:103010000E94EC15F9CF911113C07C2DD98AC88A72
:103020006E2D89890E9453168DEF91E00E94EC1558
:1030300086E0EDEFF1E0DF011D928A95E9F763C0CC
:10304000351312C0241310C0E1100EC0F80185839F
:10305000C8010E94EC15EDEFF1E086E0DF011D9262
:103060008A95E9F7FB2C37CF4D875E878D859E8546
:103070000E944F16882359F2EE2049F280910202F5
:10308000803208F4B5CF2091FD013091FE013A83E2
:1030900029831B82DD82CC828E83CE010196A6CF4E
:1030A000C816D90698F1F601E81BF90BCF01F12CEF
:1030B000883C910508F049C0FE2CEE2009F4A7CF0A
:1030C000351332C0241330C08091020280FD23C02A
:1030D000982F907F01F1D80115968C931597903F0A
:1030E00039F0982F907F905F8F70892B15968C9375
:1030F000C8010E94EC1586E0F801ADEFB1E0019047
:103100000D928A95E1F70E949316E5CE80959095F1
:103110008C0D9D1DCCCF86E0F801ADEFB1E00190A4
:103120000D928A95E1F7D7CE4D875E878D859E8576
:103130000E944F1681115CCF8091020281608093C2
:103140000202C8010E94EC15C6CE7C2DD98AC88A1D
:103150006E2D89890E9453166BCFEE2009F457CF4C
:103160004D875E878D859E850E944F16F82E882399
:1031700009F44DCF86E0F801ADEFB1E001900D927A
:103180008A95E1F78DEF91E00E9423120E94A1162B
:10319000BACF81E08E25BDCE1F93CF93DF93CDB7FD
:1031A000DEB72C970FB6F894DEBF0FBECDBF4F83AE
:1031B000588769877A878B879C87CE0107960E94FC
:1031C0000517882369F08A859B85892B39F04F8103
:1031D0005885842F85238F3F09F071C016E05FC0AA
:1031E00086E0FE013796DE01119601900D928A95D8
:1031F000E1F78A859B85892B89F38F8198858923BF
:103200008F3F61F32091CC0130E0C90101968770B6
:1032100099274091CB014817190671F40E942C168A
:103220001092CC011092CB0186E0EDEFF1E0DF01CE
:103230001D928A95E9F7D2CF96E0929FD001939F95
:10324000B00D1124A353BE4FFE01319601900D9293
:103250009A95E1F78093CC010E947216BFCF819FAF
:10326000C001112483539E4F0E9405178823E9F063
:10327000E091CB011E9FF0011124E353FE4F4081EA
:10328000518162817381848195810E94621680914F
:10329000CB0190E00196877099278093CB018091B4
:1032A000CB019091CC018913DACF2C960FB6F8940C
:1032B000DEBF0FBECDBFDF91CF911F91089569850D
:1032C0007A858B859C850E94621688CFEF92FF924B
:1032D0000F931F93CF93DF938C01892B81F0F12CF7
:1032E000EE24E394E8012196F8018491843770F488
:1032F000843008F05FC08130B1F08230A1F1DF91FD
:10330000CF911F910F91FF90EF900895853709F4A9
:103310004CC008F43DC09CE7980F903780F78F773A
:103320000E94311349C00E5F1F4FFE01849190E24D
:10333000980F983060F48770FE2D01C0FF0F8A95BA
:10334000EAF78F2F0E94FE1B0E94271C02C00E94DA
:1033500028128F2D815030F2EFE9FFE03197F1F71D
:1033600000C00000F7CF0E5F1F4FFE01849190E276
:10337000980F983050F48770FE2D01C0FF0F8A958A
:10338000EAF78F2F0E94041CDFCF0E943113E1CF98
:103390000E5F1F4FFE01C491C150D8F28FE99FE02C
:1033A0000197F1F700C00000F7CF0E5F1F4FFE013D
:1033B000F490CFCF0E9428128E01CBCF08950C94A9
:1033C000DE190E94DF1960933E0270933F028093E2
:1033D0004002909341020C94161608950C94E11942
:1033E0000F931F9300913E0210913F0220914002E3
:1033F00030914102602B712B822B932B1F910F91E7
:103400000C94E1190F931F9300913E0210913F021B
:103410002091400230914102602371238223932343
:103420001F910F910C94E1190F931F9300913E028D
:1034300010913F0220914002309141026027712794
:10344000822793271F910F910C94E1190C94DE1998
:103450000C94261A0E94281A60933A0270933B0239
:1034600080933C0290933D020C94161660E070E04D
:10347000CB010C942A1A0F931F9341E050E060E0B7
:1034800070E08A019B0104C0000F111F221F331F2F
:103490008A95D2F7C901B8011F910F910C942A1A8D
:1034A0000F931F9341E050E060E070E004C0440FD0
:1034B000551F661F771F8A95D2F780913A02909127
:1034C0003B02A0913C02B0913D028A019B01082B76
:1034D000192B2A2B3B2BC901B8011F910F910C947A
:1034E0002A1A0F931F9341E050E060E070E004C09F
:1034F000440F551F661F771F8A95D2F7CB01BA017B
:10350000609570958095909500913A0210913B02DC
:1035100020913C0230913D0260237123822393234A
:103520001F910F910C942A1A0F931F9341E050E0C2
:1035300060E070E004C0440F551F661F771F8A9536
:10354000D2F780913A0290913B02A0913C02B09157
:103550003D028A019B01082719272A273B27C90119
:10356000B8011F910F910C942A1A0F931F93009189
:103570003A0210913B0220913C0230913D02602BB7
:10358000712B822B932B1F910F910C942A1A0F935E
:103590001F9300913A0210913B0220913C0230911E
:1035A0003D0260237123822393231F910F910C947A
:1035B0002A1A0F931F9300913A0210913B02209117
:1035C0003C0230913D0260277127822793271F918B
:1035D0000F910C942A1A08952EE0929F800D1124C9
:1035E000982F977041E001C0440F9A95EAF78695AD
:1035F0008695869595E0899FF0011124ED5FFD4F3A
:1036000090E080E070E05191DF0111979B01082E5E
:1036100002C0369527950A94E2F721702195252757
:10362000242325272C9301968530910561F7089571
:103630002EE0929F800D1124982F97708695869585
:10364000869525E0829FF0011124ED5FFD4F50E04B
:1036500040E080E0219130E0092E02C036952795A8
:103660000A94E2F721703327042E01C0220F0A9436
:10367000EAF7822B4F5F5F4F4530510559F70895A8
:10368000BF92CF92DF92EF92FF920F931F93CF934F
:10369000DF938C01C0903A02D0903B02E0903C0254
:1036A000F0903D0280913E0290913F02A091400235
:1036B000B0914102C82AD92AEA2AFB2ACFE1D0E0F8
:1036C000BC2ED701C6010C2E04C0B695A7959795C0
:1036D00087950A94D2F780FD0EC0219788F7B12C08
:1036E0008B2DDF91CF911F910F91FF90EF90DF9085
:1036F000CF90BF900895B8018C2F0E94510A019776
:1037000061F3EECFCF93DF93EC010E94401BBE012B
:10371000DF91CF910C94510A1F93CF93DF93EB016C
:103720009091CA01992331F0CB01DF91CF911F9184
:103730000C94821B882379F0CB010E94401B182F28
:10374000682FCE010E94EC1ABE01812FDF91CF912C
:103750001F910C94510ACB010E94181B182FF4CF13
:10376000682F80913001909131010C94E41D682FF5
:1037700080913001909131010C94EF1D80913001C6
:10378000909131010C94FA1D8091420285958595A6
:103790008595089580914202877008959091420224
:1037A000977081E009F480E00895809166020895A1
:1037B00090916602892B809366020895809590917E
:1037C0006602982390936602089580936602089596
:1037D00010926602089580916502089590916502A5
:1037E000892B8093650208958095909165029823B6
:1037F0009093650208951092650208959091640275
:10380000892B809364020895809590916402982397
:103810009093640208951092640208958091430287
:10382000089508950C94111C90914302981721F06B
:10383000809343020C94121C0895809143028823C4
:1038400029F01092430280E00C94121C0895E0913C
:103850003001F0913101809166028083E091300166
:10386000F0913101808190916502892B8083E091F4
:103870003001F0913101808190916402892B808325
:1038800090914302992381F0E0913001F091310150
:103890008081892B808380913001909131010E9439
:1038A000801D81110E941D1C809130019091310179
:1038B0000C94C81008950C945A1C98E0899F9001AC
:1038C0001124622B609342020E94501A809142029E
:1038D0008595859585950C945B1C1092420280E03D
:1038E0000C945B1C90914202809589238093420244
:1038F000282F277071F4282F082E000C330B9217F5
:10390000130639F08595859585950E94711A0C945A
:103910006D1C0895CF92DF92EF92FF926C01EE241E
:10392000FF2420E0C114D104E104F10419F0C7011F
:10393000B60120E1C72ED82EE92EFF24C114D104F0
:10394000E104F10419F0285FC701B6016B017C01A5
:1039500054E0F694E794D794C7945A95D1F7C114DC
:10396000D104E104F10419F02C5FC701B6016B0129
:103970007C0142E0F694E794D794C7944A95D1F736
:10398000C114D104E104F10419F02E5FC701B6019E
:103990009695879577956795672B682B692B09F026
:1039A0002F5F822FFF90EF90DF90CF90089590E0EF
:1039B00080E00E94652C21E08D3E9E4F09F020E0C2
:1039C000822F089582E090E00C945D2C682F82E0B5
:1039D00090E00C946B2C83E090E00C945D2C682FAD
:1039E00083E090E00C946B2CCF9384E090E00E94F5
:1039F0005D2CC82F81E290E00E945D2C982F8C2FC7
:103A0000CF910895CF93C92F682F84E090E00E9452
:103A10006B2C6C2F81E290E0CF910C946B2CAB015E
:103A2000BC018FE090E00C947D2CAB01BC0183E1E4
:103A300090E00C947D2C60E070E0CB010C94151D9F
:103A400060E070E0CB010E940F1D0C941B1D6DEE19
:103A50007EEF90E080E00E94892C60E082E090E0C0
:103A60000E946B2C60E083E090E00E946B2C10922F
:103A70003E0210923F02109240021092410260E01A
:103A800084E090E00E946B2C60E081E290E00E9474
:103A90006B2C60E085E090E00E946B2C60E086E09B
:103AA00090E00E946B2C6FEF87E090E00E946B2CFF
:103AB00040E050E0BA0188E090E00E947D2C60E098
:103AC0008DE090E00E946B2C40E050E0BA0188E16C
:103AD00090E00E947D2C60E087E190E00E946B2CDA
:103AE00040E050E0BA018CE190E00E947D2C60E063
:103AF00080E290E00E946B2C0C94201D0C94271DFA
:103B0000FC01329680914101882321F08091A2022C
:103B10009EE187FF96E080E0915008F4089521919E
:103B20002223D1F38F5FF8CF9C01FC0132969FEFE7
:103B300080E04191461751F09F3F19F4411101C0B7
:103B4000982F8F5F8630A9F79F3F09F40895290FBA
:103B5000311D97FD3A95F90162830895FC01329673
:103B600008962191261303C0DF0111971C92E817D4
:103B7000F907B9F70895E62FE695E695E695EE3153
:103B800068F4E80FF92FF11D677021E030E001C003
:103B9000220F6A95EAF78281822B82830895E62FAD
:103BA000E695E695E695EE3170F4E80FF92FF11DF4
:103BB000677021E030E001C0220F6A95EAF7209596
:103BC000828128232283089520914101222329F014
:103BD0002091A20227FD0C94BB1D0C94941D2091F2
:103BE0004101222329F02091A20227FD0C94CF1D30
:103BF0000C94AE1DFC01329680914101882351F056
:103C00008091A20287FF06C08EE1DF011D928A9596
:103C1000E9F7089586E0F9CF08950C940C1E0E94F0
:103C20000D1E8091A802843049F11092680288E14B
:103C300090E020E40FB6F894A895809360000FBE42
:103C40002093600080E00E946F080E940D1E83B7E1
:103C5000817F846083BF83B7816083BF78948895B8
:103C600083B78E7F83BF0FB6F894A89580916000CC
:103C7000886180936000109260000FBE08950895DF
:103C8000CF930E9445040E949E040E943F1EC0E004
:103C90008C2F0E944D05892B31F4CF5FC630C1F7C0
:103CA00080E0CF91089581E0FCCF08950C94551EDB
:103CB0000E942C160E94BC100E946F080C94561E85
:103CC0001F921FB61F9211248F939F93AF93BF93A0
:103CD00080916802811113C080919E0290919F0291
:103CE000A091A002B091A1024196A11DB11D8093A7
:103CF0009E0290939F02A093A002B093A102BF9155
:103D0000AF919F918F911F901FBE1F90189582E0D9
:103D100084BD93E095BD9AEF97BD80936E000895A2
:103D20002FB7F89480919E0290919F02A091A002DB
:103D3000B091A1022FBF0895CF92DF92EF92FF9230
:103D40000F931F932FB7F89440919E0250919F02BA
:103D50006091A0027091A1022FBF6A017B01EE2445
:103D6000FF248C0130E020E0C016D106E206F30605
:103D700050F0481B590BCA011F910F91FF90EF9013
:103D8000DF90CF90089541505109F3CF78941F925E
:103D90001FB61F9211248F939F93AF93BF9380916F
:103DA0009E0290919F02A091A002B091A102019663
:103DB000A11DB11D80939E0290939F02A093A0022B
:103DC000B093A102BF91AF919F918F911F901FBEA1
:103DD0001F90189581E08093E00080E28093D800E6
:103DE0001092C9008FE19EE40197F1F700C0000036
:103DF00087E090EBDC018093B1029093B202A09334
:103E0000B302B093B40288E19CE00FB6F894A89591
:103E1000809360000FBE90936000FFCFAF92BF927F
:103E2000CF92DF92EF92FF920F931F93CF93C0E058
:103E3000CC24C394D12CE82EF12C8C2F0E944D055C
:103E40005C0110E000E0C601002E02C0880F991F3F
:103E50000A94E2F78A219B21892B99F40F5F1F4F67
:103E60000E30110581F7CF5FC63039F780E0CF9172
:103E70001F910F91FF90EF90DF90CF90BF90AF9088
:103E80000895602F7C2F80E00E94350AE816F9061D
:103E900029F781E0ECCFCF93C82F8CE20E940E1F50
:103EA000882321F08C2FCF910C940E1F80E0CF91AE
:103EB0000895CF930E94D71C811102C00E947E1DDD
:103EC000C5E608C00E949E048FE39CE90197F1F7C4
:103ED00000C00000C150B1F789E20E944B1F811160
:103EE000F0C08AE20E944B1F81110E947E1D85E076
:103EF0000E944B1F81110E94EA1E0E94E21C8093C7
:103F0000670287E00E944B1F882371F08BE10E94BB
:103F10004B1F882309F4B2C090916702892F8D7FCF
:103F200091FF826080936702809167020E94E61C85
:103F30000E94F41C9093A3028093A20280EE0E9440
:103F40004B1F882341F09091A202892F8E7F90FF12
:103F500081608093A20289E30E944B1F882341F075
:103F60009091A202892F8D7F91FF82608093A2029F
:103F700082EE0E944B1F882341F09091A202892F6C
:103F80008B7F92FF84608093A20286EE0E944B1F7B
:103F9000882341F09091A202892F877F93FF886048
:103FA0008093A20283EE0E944B1F882341F09091E0
:103FB000A202892F8F7E94FF80618093A20285E305
:103FC0000E944B1F882341F09091A202892F8F7D80
:103FD00095FF80628093A20281E30E944B1F882399
:103FE00041F09091A202892F8F7B96FF806480938D
:103FF000A20281E10E944B1F882341F09091A2020E
:10400000892F97FB87F980588093A2028091A202A2
:104010009091A3020E94021D87E20E944B1FC82FAD
:104020008EE10E944B1F8111C2608FE10E944B1FE5
:104030008111C46080E20E944B1F8111C86081E23F
:104040000E944B1F8111C06182E20E944B1F8111AF
:10405000C06283E20E944B1F8111C06484E20E940F
:104060004B1F882341F1C0688C2F0E94EF1C6C2FDE
:1040700070E090E080E0CF910C94EE198EE00E9409
:104080004B1F882339F090916702892F8B7F92FF15
:10409000846048CF80E10E944B1F90916702882383
:1040A00029F0892F877F93FF88603CCF892F8E7FEF
:1040B00090FF816037CFC111D7CF0E94EB1C682FD2
:1040C000D7CFCF91089580916D0280FF12C060918B
:1040D000350185E0689FB001112475956795759548
:1040E000679560387105A8F561157105A1F1862FF6
:1040F000089581FF09C06091350185E0689FB00196
:10410000112475956795EDCF6091350182FD0AC048
:1041100080916C028823D1F0909134016091350137
:10412000891728F085E0689FB0011124DACF869FB7
:10413000B001112485E0869F9001879F300D1124E6
:10414000692F70E0C9010E949029CBCF65E070E033
:10415000CECF8FE7089581E0089580916D0280FFB2
:104160000CC06091330170E0759567957595679502
:104170006115710549F1862F089581FF06C0609190
:10418000330170E075956795F3CF6091330182FD3F
:104190000BC090916C029923A1F060913201809143
:1041A0003301961738F0682F70E06038710500F31E
:1041B0008FE70895899FC001112470E00E94902923
:1041C000F4CF61E070E0D7CF81E00895803F31F413
:1041D0000E9463208195809371020895813F19F4B4
:1041E0000E946320F8CF823F31F40E9463208195C2
:1041F000809370020895833F19F40E946320F8CFE2
:10420000893F29F40E94AD208093720208958A3F6D
:1042100021F40E94AD208195F7CF8B3F31F40E94AD
:10422000AD2081958093730208958C3F19F40E940C
:10423000AD20F8CF843F31F480916F02816080938C
:104240006F020895853F21F480916F028260F7CF5D
:10425000863F21F480916F028460F1CF873F21F483
:1042600080916F028860EBCF883F21F480916F02CC
:104270008061E5CF8D3F31F480916D028160809344
:104280006D0208958E3F21F480916D028260F7CF18
:104290008F3FB9F780916D028460F1CF90917002E9
:1042A000803F41F48091710287FD10927102992341
:1042B00071F00895813F29F4809171021816ACF3D2
:1042C000F6CF823F81F497FFF2CF10927002809177
:1042D000710290917202892B90917302892B49F798
:1042E00010926C020895833F19F4191674F3DFCF0E
:1042F000893F39F4809172021816CCF6109272023E
:10430000D6CF8A3F29F48091720287FFD0CFF6CFB3
:104310008B3F39F48091730287FFC9CF10927302EB
:10432000C6CF8C3F29F4809173021816BCF3BFCF1F
:10433000843F31F480916F028E7F80936F02B7CFFC
:10434000853F21F480916F028D7FF7CF863F21F466
:1043500080916F028B7FF1CF873F21F480916F02B4
:10436000877FEBCF883F21F480916F028F7EE5CF6E
:104370008D3F31F480916D028E7F80936D0297CFD7
:104380008E3F21F480916D028D7FF7CF8F3F09F032
:104390008ECF80916D028B7FF0CF8EE692E00E94EF
:1043A000E2100E94901E90936B0280936A0208951F
:1043B0001F93CF93DF9380916A0290916B020E94CA
:1043C0009C1EAC0190916C022091360130E091115D
:1043D00006C0209169028AE0289F900111244217AB
:1043E000530778F020917002C0917102D09172024F
:1043F00010917302211109C08C2F8D2B812B09F094
:104400006AC0DF91CF911F9108959F3F19F09F5F80
:1044100090936C02121624F40E9463208093700221
:104420008091700287FF05C00E9463208195809370
:1044300070021C1624F40E94632080937102809104
:10444000710287FF05C00E946320819580937102ED
:10445000309170023323A1F020917102222381F068
:1044600045EB3403C0011124992369F19093700244
:1044700045EB240390011124332349F13093710259
:104480001D1624F40E94AD20809372028091720266
:1044900087FF05C00E94AD2081958093720211169E
:1044A00024F40E94AD20809373028091730287FFF1
:1044B00005C00E94AD20819580937302DF91CF915A
:1044C0001F910C94CD2181E080937002D1CF81E0C7
:1044D00080937102D5CF9F3F09F099CFAACF86E094
:1044E000EEE6F2E0DF011D928A95E9F710926C0288
:1044F00010926D0208958091940208950F931F9376
:10450000CF93DF9300D00F92CDB7DEB78C010E941E
:10451000E224823011F0843021F584E089831B830A
:104520000A8382E08093E9008FEF9091E800815048
:1045300095FD06C095ED9A95F1F700008111F5CF34
:104540008091E80085FF0DC050E040E063E070E03E
:10455000CE0101960E94FF248091E8008E7780931F
:10456000E8000F900F900F90DF91CF911F910F9166
:104570000895CF93DF9300D00F92CDB7DEB720918F
:10458000A802243031F523E02983805891099B83C8
:104590008A8382E08093E9008FEF9091E800815058
:1045A00095FD06C095ED9A95F1F700008111F5CFC4
:1045B0008091E80085FF0DC050E040E063E070E0CE
:1045C000CE0101960E94FF248091E8008E778093AF
:1045D000E8000F900F900F90DF91CF910895CF9347
:1045E000DF93EC010E94E224823011F08430F9F470
:1045F00082E08093E9008FEF9091E800815095FD73
:1046000006C095ED9A95F1F700008111F5CF8091E4
:10461000E80085FF0CC050E040E066E070E0CE01AD
:104620000E94FF248091E8008E778093E800DF915C
:10463000CF910895CF93DF93EC010E94E224823062
:1046400011F08430B9F5809141018823B1F1809156
:10465000A20287FF32C060E282E08093E9008FEF20
:104660009091E800815095FD06C095ED9A95F1F77F
:1046700000008111F5CF8091E80085FF1BC080917B
:10468000410170E050E040E0811104C050E040E0A2
:1046900068E070E0CE010E94FF248091E8008E77F0
:1046A0008093E80080E2FE01A4E7B2E001900D9261
:1046B0008A95E1F7DF91CF91089568E081E0CDCF51
:1046C0008091A702811109C00E948F260E94EC26CA
:1046D0008091E20084608093E20008951092A70226
:1046E0000895089508950C94581E42E061EC81E00D
:1046F0000E940B2642E261EC82E00C940B26809132
:10470000AA02833009F45FC030F48130C1F18230F5
:1047100009F49BC008958A3009F487C08B3009F4EE
:104720006DC0893009F04EC08091A902813209F034
:1047300049C08091AD029091AE02029708F042C04C
:104740008091E800877F8093E8008091E80082FFF5
:1047500035C09091F3008091F200029729F4809186
:10476000F1008B7F813021F48091F10080939402DD
:104770008091E8008B778093E8000C943F2680912D
:10478000A902813AF9F48091E800877F8093E800DC
:104790008091AD029091AE02892B61F460E284E7D2
:1047A00092E070E00E944E258091E8008B77809324
:1047B000E800089560E090E080E0F3CF8091A802E7
:1047C0008111C3CF08958091A902813AD9F78091D0
:1047D000AD029091AE02892BA9F78091E800877F06
:1047E0008093E8008091E80080FFFCCF8091410138
:1047F0008093F1008091E8008E77BDCF8091A9026F
:10480000813201F78091AD029091AE02892BD1F6F1
:104810008091E800877F8093E8000E943F26809186
:10482000AB02809341010C942C168091A902813235
:1048300049F68091E800877F8093E8000E943F2638
:104840008091AC028093950208958091A902813AEB
:1048500009F0B8CF8091E800877F8093E8008091CD
:10486000E80080FFFCCF80919502C2CF84B7877F9C
:1048700084BF0FB6F894A8958091600088618093FA
:104880006000109260000FBE80E88093610010927B
:1048900061000E942A110E948F260E94EC268091BE
:1048A000E20084608093E20078940E9475290E945F
:1048B000321187E391E00E94B7108091A802853001
:1048C00019F00E943F11F9CF0E940F1E8091A6029D
:1048D000882399F30E94401E882379F30E94E924DB
:1048E000ECCF0C947324292F33272330310519F191
:1048F00068F42130310509F44AC02230310509F449
:104900004BC090E080E030E020E028C0213231054B
:1049100079F122323105A9F780E490E023EB36E00B
:1049200061157105D9F080EC90E023EF35E061303E
:104930007105A1F0E6CF99278130910599F0009794
:1049400041F08230910589F00397D9F6E4E7F5E06C
:1049500002C0E2EAF5E0849190E09F01FA01318320
:1049600020830895EEE8F5E0F6CFEAE7F5E0F3CF2F
:1049700089E090E028EB35E06115710579F389E075
:1049800090E021ED35E06130710541F3BACF82E16D
:1049900090E021EE35E0E2CF8BE390E026EA35E0CF
:1049A000DDCF0895CF93C82F0E94D124C0939602E3
:1049B000CF9108958091A802843011F482E0089587
:1049C00081E0089580919602811102C00C94DA244E
:1049D000089580E189BD82E189BD09B400FEFDCF63
:1049E0008091D8008F7D8093D8008091E000826014
:1049F0008093E0008091E00081FDFCCF0895AF92AC
:104A0000BF92CF92DF92FF920F931F93CF93DF93CA
:104A10006C01EB018A010E945E26F82E811123C0F1
:104A20000115110539F0F80180819181C81BD90B5E
:104A3000C80ED91EB12CA12C2097A9F08091E800B6
:104A400085FD22C08091E8008E778093E8000115F3
:104A50001105A1F0F80180819181A80EB91EB182E3
:104A6000A08285E0F82E8F2DDF91CF911F910F91BD
:104A7000FF90DF90CF90BF90AF9008950E945E2688
:104A80008823D1F2F82EEFCFF60181916F01809348
:104A9000F1002197FFEFAF1ABF0ACECFFC01809142
:104AA000AF029091B00286179707A0F061157105CB
:104AB00029F49091E8009E779093E80090E06115CA
:104AC000710551F4911108C08091E80082FF34C053
:104AD00080E00895BC01F2CF8091A8028823C1F143
:104AE0008530C1F18091E80083FD30C08091E800FD
:104AF00082FDEACF8091E80080FFE1CF8091F30052
:104B00002091F200382F6115710519F02830310518
:104B100058F091E02830310509F090E02091E8004C
:104B20002E772093E800CBCF81918093F1006150E4
:104B300071092F5F3F4FE7CF8091A802882341F092
:104B4000853041F08091E80083FFBECF81E0089579
:104B500082E0089583E00895FC018091AF02909176
:104B6000B00286179707A0F06115710529F48091AE
:104B7000E8008E778093E80090E06115710551F4AC
:104B8000911108C08091E80082FF35C080E008954F
:104B9000BC01F2CF8091A8028823C9F18530C9F108
:104BA0008091E80083FD31C08091E80082FDEACF6A
:104BB0008091E80080FFE1CF8091F3002091F20026
:104BC000382F6115710519F02830310558F091E042
:104BD0002830310509F090E08091E8008E778093CD
:104BE000E800CBCF84918093F10031966150710938
:104BF0002F5F3F4FE6CF8091A802882341F0853098
:104C000041F08091E80083FFBDCF81E0089582E00C
:104C1000089583E00895982F973028F08F7080933F
:104C2000E90081E008959093E900242F762F50E069
:104C3000981731F07091EC002091ED005091F00048
:104C400021FD02C09F5FE8CF3091EB003E7F3093A3
:104C5000EB003091ED003D7F3093ED003091EB00A3
:104C600031603093EB007093EC002093ED00509393
:104C7000F0002091EE0027FDE5CF80E008958091BF
:104C8000A90287FF13C08091E80082FF06C08091CF
:104C9000E8008B778093E80004C08091A80281111E
:104CA000F2CF08958091A8028823D9F38091E8007B
:104CB00080FFF8CF8091E8008E77ECCF2091E40060
:104CC0003091E50095E6A9012091EC00822F8170DA
:104CD00020FF06C08091E80080FF06C080E00895B4
:104CE0002091E80022FD1AC08091A802882389F053
:104CF000853089F08091EB0085FD0FC02091E400A4
:104D00003091E50042175307F9F29150E1F684E043
:104D1000089582E0089583E0089581E008950E9457
:104D2000FD260E940527E0EEF0E08081816080830F
:104D3000E8EDF0E080818F77808319BCA7EDB0E0CB
:104D40008C918E7F8C9380818F7E80831092A702BE
:104D500008950F931F93CF93DF930E94FD260E9427
:104D60000527C8EDD0E088818F77888388818068A7
:104D7000888388818F7D888319BC1092A802109245
:104D8000A4021092A6021092A50200EE10E0F80113
:104D900080818B7F808388818160888342E060E0AE
:104DA00080E00E940B26E1EEF0E080818E7F808320
:104DB000E2EEF0E080818160808380818860808382
:104DC000F80180818E7F8083888180618883DF9174
:104DD000CF911F910F910895E8EDF0E080818F7ED3
:104DE0008083E7EDF0E080818160808384E082BF92
:104DF00081E08093A7020C94A926E8EDF0E0808181
:104E00008E7F80831092E20008951092DA00109253
:104E1000E10008951F920F920FB60F9211242F9365
:104E20003F934F935F936F937F938F939F93AF9332
:104E3000BF93EF93FF938091E10082FF0BC08091BD
:104E4000E20082FF07C08091E1008B7F8093E10048
:104E50000E9474298091DA0080FF19C08091D800E7
:104E600080FF15C08091DA008E7F8093DA008091F8
:104E7000D90080FF96C080E189BD82E189BD09B477
:104E800000FEFDCF81E08093A8020E946023809104
:104E9000E10080FF19C08091E20080FF15C0809181
:104EA000E2008E7F8093E2008091E2008061809337
:104EB000E2008091D80080628093D80019BC85E020
:104EC0008093A8020E9472238091E10084FF2BC08E
:104ED0008091E20084FF27C080E189BD82E189BD25
:104EE00089B5982F917080FFFBCF8091D8008F7D7E
:104EF0008093D8008091E1008F7E8093E1008091C3
:104F0000E2008F7E8093E2008091E20081608093D6
:104F1000E2008091A402882309F449C084E08093D0
:104F2000A8020E9473238091E10083FF29C0809131
:104F3000E20083FF25C08091E100877F8093E1003C
:104F400082E08093A8021092A4028091E1008E7FFB
:104F50008093E1008091E2008E7F8093E200809157
:104F6000E20080618093E20042E060E080E00E9425
:104F70000B268091F00088608093F0000E947123DE
:104F8000FF91EF91BF91AF919F918F917F916F9121
:104F90005F914F913F912F910F900FBE0F901F90F7
:104FA000189519BC1092A8020E946E2370CF8091B0
:104FB000E30087FD93E09093A802B3CF1F920F9276
:104FC0000FB60F9211242F933F934F935F936F93DC
:104FD0007F938F939F93AF93BF93CF93DF93EF9381
:104FE000FF93D091E900DF708091EC00C82FC17071
:104FF00080FDC0E81092E9008091F000877F8093E7
:10500000F00078940E9422281092E9008091F0002C
:1050100088608093F000CD2BCF70C093E900FF91A2
:10502000EF91DF91CF91BF91AF919F918F917F9140
:105030006F915F914F913F912F910F900FBE0F9005
:105040001F9018951F93CF93DF93CDB7DEB7AA9724
:105050000FB6F894DEBF0FBECDBF89EA92E0209173
:10506000F100FC012193CF01F2E0813B9F07B9F7EA
:105070000E947F238091E80083FF1EC18091A902D6
:105080009091AA029A3008F017C1E92FF0E0EA5097
:10509000F34D0C94A429803899F0823809F00CC1A2
:1050A0008091AD028F70873008F006C18093E900CF
:1050B0008091EB0085FB882780F91092E90006C0FB
:1050C0008091A5029091A602911182609091E800D2
:1050D000977F9093E8008093F1001092F100809107
:1050E000E8008E77E5C0882309F4D3C0823009F048
:1050F000E3C08091AB028111D6C08091AD028F7068
:105100002FEF280F263008F0D7C08093E9002091B8
:10511000EB0020FFC8C0933031F48091EB00806237
:105120008093EB00C0C09091EB0090619093EB00F6
:1051300021E030E001C0220F8A95EAF72093EA00CF
:105140001092EA008091EB008860EACF8111B4C030
:105150001091AB021F778091E3008078812B8093C0
:10516000E3008091E800877F8093E8000E943F265B
:105170008091E80080FFFCCF8091E30080688093FD
:10518000E30082E0111183E08093A80295C080586B
:10519000823008F091C08091AB029091AC028C3DBE
:1051A00023E09207A1F583E08A838AE289834FB7DF
:1051B000F894DE01139620E03EE051E2E32FF0E0A8
:1051C00050935700E49120FF03C0E295EF703F5FDA
:1051D000EF708E2F90E0EA30C0F0C7968D939D93CC
:1051E0002F5F243159F74FBF8091E800877F80936C
:1051F000E8006AE270E0CE0101960E944E2580919F
:10520000E8008B778093E80057C0C096E7CF6091A5
:10521000AD027091AE02AE014F5F5F4F0E947124EC
:10522000BC01892B09F448C09091E800977F9093C6
:10523000E80089819A810E94AC25E1CF8038E1F5B0
:105240008091E800877F8093E8008091A40280939A
:10525000F10045CF811130C09091AB02923060F5E2
:105260008091E800877F8093E8009093A4020E94D9
:105270003F268091A402882311F084E005C080912C
:10528000E30087FDFACF81E08093A8020E94752396
:1052900013C08091AB02813079F481E0933009F042
:1052A00080E08093A6021092E9008091E800877F59
:1052B0008093E8000E943F268091E80083FF0AC0A7
:1052C0008091E800877F8093E8008091EB00806206
:1052D0008093EB00AA960FB6F894DEBF0FBECDBF49
:1052E000DF91CF911F9108950895CF938091A802E7
:1052F0008823A1F0C091E900CF709091EC00892F34
:10530000817090FD80E8C82B1092E9008091E80040
:1053100083FD0E942228CF70C093E900CF910895A9
:1053200097FB072E16F4009407D077FD09D00E9452
:10533000AA2907FC05D03EF4909581959F4F0895CA
:10534000709561957F4F0895EE0FFF1F0590F491C2
:10535000E02D0994AA1BBB1B51E107C0AA1FBB1F6C
:10536000A617B70710F0A61BB70B881F991F5A95F1
:10537000A9F780959095BC01CD010895AEE0B0E00D
:10538000E4ECF9E20C94AD2C0D891E898F89988D7F
:1053900026E02C831A83098397FF02C080E090E8FF
:1053A00001979E838D83AE01455E5F4F698D7A8D37
:1053B000CE0101960E94EE294D815E8157FD0AC003
:1053C0002F813885421753070CF49A01020F131FDF
:1053D000F80110822E96E4E00C94C92CABE0B0E00A
:1053E000E4EFF9E20C949F2C7C013B018A01FC0163
:1053F00017821682838181FFB9C19AE0292ECE01DE
:1054000001965C01F7019381F30193FD859193FF70
:1054100081913F01882309F446C1853239F493FD17
:10542000859193FF81913F01853229F4B70190E086
:105430000E94CF2BE7CF912C412C512CFFE1F51589
:1054400038F08B3209F188F4803201F1833221F196
:1054500057FC3AC020ED280F2A3040F556FE1FC0F9
:10546000929C200D1124922E06C08D3291F0803333
:1054700079F7689450F8F30193FD859193FF81913A
:105480003F018111DBCF20C0689451F8689452F835
:10549000F2CF689453F8EFCF689454F8ECCF429C65
:1054A000200D1124422E689455F8E5CF8E3229F450
:1054B00056FCF9C0689456F8DECF8C3619F468941F
:1054C00057F8D9CF8836B9F2982F9F7D95549330ED
:1054D000C0F08336A1F18337C1F1833509F05BC099
:1054E000F801C190D1908F01692D70E056FC02C087
:1054F0006FEF7FEFC6010E94B92B4C01689457F8FB
:105500000AC00C5F1F4F2FE3298388248394912CBA
:105510006501E89457F853FC04C04814190409F0D5
:1055200018F5342C8114910431F5332009F46ACF35
:10553000B70180E290E00E94CF2B3A94F6CFF801B9
:10554000808189830E5F1F4FE0CFF801C190D19019
:105550008F01692D70E056FC02C06FEF7FEFC6012E
:105560000E94C42B4C01D5CFB70180E290E00E948D
:10557000CF2B4A94D2CFF60157FC859157FE8191EB
:105580006F01B70190E00E94CF2B31103A94F1E007
:105590008F1A9108C7CF843619F0893609F074C084
:1055A000F80157FE6AC061917191819191918F01CB
:1055B000252D2F76D22E97FF09C090958095709556
:1055C00061957F4F8F4F9F4F6894D7F82AE030E066
:1055D000A5010E94FF2BC82ECA188C2C5D2CD6FE6C
:1055E0000CC0E89450F8C91440F4D4FE05C0D2FCB5
:1055F00003C0FD2DFE7E5F2E892C54FE8FC0FE0160
:10560000EC0DF11D8081803309F081C0252D297EAC
:10561000522E852D8870382E53FC8FC050FE89C0C5
:105620009C2C841418F44C0C942C981854FE8BC0A9
:10563000B70180E390E00E94CF2B52FE09C088E7BB
:1056400090E051FE02C088E590E0B7010E94CF2BA8
:10565000C91408F484C0CA94D12C9FEFC91AD90A7E
:10566000CA0CDB1CF60182916F01B70190E00E9429
:10567000CF2BAC14BD04B1F758CF61917191072EB7
:10568000000C880B990B93CFD52CE894D4F82AE022
:1056900030E0853739F1952D997FD92E8F3601F17C
:1056A00048F48835A9F0F701868197812B96E2E1CD
:1056B0000C94BB2C803749F08837A9F7D4FE02C080
:1056C0006894D2F820E130E00DC06894D4F8F6CFA9
:1056D00054FE03C0E92FE660DE2E20E132E002C076
:1056E00028E030E0F801D7FE0DC061917191819101
:1056F00091918F01A5010E94FF2BC82ECA18E89432
:10570000D7F86BCF6191719190E080E0F2CF52FCBD
:1057100002C083947ECF839483947BCF852D86783B
:1057200009F477CFF6CFB70180E290E00E94CF2B4B
:1057300083948414C0F3312C79CF342C381884141A
:1057400008F474CFF8CF852D867809F481CF8BE2E9
:1057500051FE80E257FC8DE2B70190E077CFB701B0
:1057600080E390E00E94CF2B9A9472CF8FEF9FEF4F
:105770009DCFFC010590615070400110D8F78095D5
:1057800090958E0F9F1F0895FC016150704001900D
:105790000110D8F7809590958E0F9F1F08950F9355
:1057A0001F93CF93DF93182F092FEB018B8181FD7E
:1057B00009C01FEF0FEF812F902FDF91CF911F9125
:1057C0000F91089582FF14C02E813F818C819D81AD
:1057D000281739073CF4E881F981CF0101969983B4
:1057E000888310838E819F8101969F838E83E3CF70
:1057F000E885F985812F0995892BA1F3DACFFA0184
:10580000AA27283051F1203181F1E8946F936E7FFF
:105810006E5F7F4F8F4F9F4FAF4FB1E03ED0B4E0F0
:105820003CD0670F781F891F9A1FA11D680F791F31
:105830008A1F911DA11D6A0F711D811D911DA11D42
:1058400020D009F468943F912AE0269F1124301952
:10585000305D3193DEF6CF010895462F4770405DED
:105860004193B3E00FD0C9F7F6CF462F4F70405D9C
:105870004A3318F0495D31FD4052419302D0A9F7F7
:10588000EACFB4E0A6959795879577956795BA95F1
:10589000C9F700976105710508959B01AC010A2EB7
:1058A00006945795479537952795BA95C9F7620F8E
:1058B000731F841F951FA01D0895F999FECF92BDF7
:1058C00081BDF89A992780B50895A8E1B0E042E03B
:1058D00050E00C94912C262FF999FECF92BD81BDFA
:1058E000F89A019700B4021639F01FBA20BD0FB61E
:1058F000F894FA9AF99A0FBE08950396272F0E94FA
:105900006C2C0E946B2C252F0E946C2C242F0C9445
:105910006C2C0196272F0E946C2C0C946B2CDC01B4
:10592000CB01FC01F999FECF06C0F2BDE1BDF89AAA
:10593000319600B40D9241505040B8F708952F921F
:105940003F924F925F926F927F928F929F92AF920F
:10595000BF92CF92DF92EF92FF920F931F93CF935C
:10596000DF93CDB7DEB7CA1BDB0B0FB6F894DEBFF3
:105970000FBECDBF09942A88398848885F846E8419
:105980007D848C849B84AA84B984C884DF80EE8063
:10599000FD800C811B81AA81B981CE0FD11D0FB66C
:1059A000F894DEBF0FBECDBFED010895F894FFCF90
:1059B000DB13DB13331433147E149A140814081405
:1059C000DC14681577157715D21508140814DB1543
:1059D0003B163B1644164416461644164416441607
:1059E0003B163B164B16441644164B164B28732891
:1059F0005C2973285C29A628C7285C291E292A2926
:105A00000000FA068B060000000000000000000005
:105A1000000000000000000010079B0600000000CE
:105A2000000000000000000000000000FF01AF00C7
:105A3000440228083C07147B221A23EF22B9227E55
:085A400022010A25640A00009E
:00000001FF
