:100000000BC3000026C3000024C3000022C300006D
:1000100020C300001EC300001CC300001AC3000060
:1000200018C3000016C300000C94FB260C94C827CC
:100030000C94C9200EC300000CC300000AC30000CA
:1000400008C3000006C3000004C3000002C3000090
:1000500000C300000C944021FCC20000FAC2000062
:10006000F8C20000F6C20000F4C20000F2C20000B4
:10007000F0C20000EEC20000ECC20000EAC20000C4
:10008000E8C20000E6C20000E4C20000E2C20000D4
:10009000E0C20000DEC20000DCC20000DAC20000E4
:1000A000D8C20000D6C20000D4C2000002571E0011
:1000B0001F002000210022003500650023002400DD
:1000C0002500260027000F18390014001A00080028
:1000D000150017002F0030001C0018000C00120043
:1000E000130031002B0004001600070009000A006D
:1000F000000000000B000D000E000F003300340064
:10010000E1001D001B000600190005000057015703
:1001100011001000360037003800E500E000E30071
:10012000E2002D002E000000000000000000500042
:10013000510052004F00E400000028422A382C31C0
:100140004C00490046004A004D00C25228412A0096
:100150002942000001003A003B003C003D003E0007
:10016000440045003F0040004100420043000100C0
:100170000100D900D100CD00D200D900010001005A
:100180004B004A0052004D004B0001000100DA0014
:10019000CF00CE00D000DA00000000004E0050007A
:1001A00051004F004E00010001006352D100D30006
:1001B000D20000000100010000000000000000006B
:1001C0000000010001000100010001000100000029
:1001D000000000000000010001000100010001001A
:1001E0000000010001000100010001000100B50054
:1001F000B90001000100010001000000007C3A008C
:100200003B003C003D003E00440045000000530020
:1002100054005500560001000100D900D100CD0066
:10022000D200D900010001004B0024002500260067
:10023000570001000100DA00CF00CE00D000DA0044
:10024000000000004E0021002200230057000100A2
:1002500001006352D100D300D20000000100010070
:1002600000001E001F0020005800010001000100D6
:10027000010001000100000000000000000000007B
:1002800027003700580001000000010001000100B4
:100290000100B300B20001000100010001000100F3
:1002A000010000000000000000000000000000004D
:1002B000000000000000000000000000000000003E
:1002C000000000000000000000000000000000002E
:1002D000000000000000000000000000000000001E
:1002E000000000000000000000000000000000000E
:1002F00000000000000000000000000000000000FE
:1003000000000000000000000000000000000000ED
:1003100000000000000000000000000000000000DD
:1003200000000000000000000000000000000000CD
:1003300000002452245200000000000000000000D1
:1003400000000000000000000000000000000000AD
:10035000000000000000000000000000000000009D
:10036000000000000000000000000000000000008D
:10037000000000000000000000000000000000007D
:10038000000000000000000000000000000000006D
:10039000000000000000000000000000000000005D
:1003A0000000635200000000000000000000000098
:1003B000000000000000000000000000000000003D
:1003C000000000000000000000000000000000002D
:1003D000000000000000000000000000000000001D
:1003E000000000000000000000000000000000000D
:1003F0000000000000000000000000002A2B280080
:1004000000000000000000000000000000000029C3
:10041000000000002C1E3420212224342627252E03
:10042000362D3738271E1F2021222324252633333B
:10043000362E37381F0405060708090A0B0C0D0E67
:100440000F101112131415161718191A1B1C1D2F33
:100450003130232D350405060708090A0B0C0D0E53
:100460000F101112131415161718191A1B1C1D2F13
:100470003130354C0000000000000000000000009A
:10048000000000000000000000000000000000006C
:1004900000000000000000007E0F00D4FFFFFFC737
:1004A0000000007812034500720067006F006400CE
:1004B0006F006E006500000012034B002E00540018
:1004C0002E0045002E0043002E0000000403090406
:1004D00009023B00020100A0FA0904000001030127
:1004E00001000921110100012244000705810308D0
:1004F00000010904010001030000000921110100AD
:100500000122B6000705820320000112010002004B
:100510000000080912282301000102000105010959
:1005200002A10185020901A1000509190129081587
:100530000025019508750181020501093009311571
:1005400081257F95027508810609381581257F95DB
:100550000175088106050C0A38021581257F950171
:1005600075088106C0C005010980A1018503190134
:100570002AB700150126B700950175108100C00546
:100580000C0901A101850419012AA002150126A068
:1005900002950175108100C005010906A1018506BB
:1005A000050719E029E71500250195087501810265
:1005B0000507190029EF1500250195F07501810245
:1005C0000508190129059505750191029501750325
:1005D0009101C005010906A101050719E029E715E8
:1005E00000250195087501810295017508810105B5
:1005F00007190029FF150026FF00950675088100E0
:1006000005081901290515002501950575019102B7
:10061000950175039101C00011241FBECFEFDAE0F0
:10062000DEBFCDBF11E0A0E0B1E0E4EFF4E502C031
:1006300005900D92A23CB107D9F723E0A2ECB1E0FE
:1006400001C01D92A534B207E1F70E9469150C9410
:10065000392AD6CC8091C40181110EC00E94CE21CE
:100660002FEF83ED90E3215080409040E1F700C0F0
:10067000000081E08093C4010895A1E0B0E0E3E4CC
:10068000F3E00C94BD294983F82EFF0C81E09DE036
:10069000E92E611103C080E02CE0E22E04E610E0B8
:1006A00021E030E0AE014F5F5F4F682F8F2D0E9439
:1006B0004222892B61F421E030E0AE014F5F5F4FB1
:1006C0006E2D8F2D0E94422221E0892B09F020E01F
:1006D000822F2196E6E00C94D9290F931F93880F5F
:1006E00061110FC062E104E610E021E030E00E94F9
:1006F000842221E0892B09F020E0822F1F910F91A5
:10070000089563E1F0CF8091C70181110BC04FEFD5
:1007100061E080E2B2DF91E089279091C701980FF4
:100720009093C7010895CF934FEF60E080E2A5DF7B
:10073000C1E08C279091C701980F9093C7014FEFAC
:1007400061E080E29ADF8C27C091C701C80FC09397
:10075000C701CF91089580E27DDF219829982298E2
:100760002A9884988C9885988D9886988E988798E2
:100770008F9829982A988C988D988E988F98C3DF97
:100780006E98769A52985A9A53985B9A54985C9AB3
:1007900057985F9A3E98469A24982C9AC4CFA1E025
:1007A000B0E0E5EDF3E00C94B1298C018091C70134
:1007B000882371F08091C5019091C6010196811541
:1007C00020E2920708F0A4C09093C6018093C5016F
:1007D0004801512C412C00E0142DF401219031905E
:1007E0004F01129212925F01133009F4A8C008F071
:1007F00098C0113009F49DC0123009F49DC0849A4C
:100800008C988091C70192012F5F3F4F2901882367
:1008100009F49BC08FE891E00197F1F700C0000058
:100820008091C701712C612C81111DC09FEF9983AC
:10083000AE014F5F5F4F60E080E24FDF91E08927BC
:100840009091C701980F9093C70189818095A6D494
:10085000982F96959C778370892B782E7594682EA7
:100860006794662467944B9982C080E4C82ED12C8B
:100870004A9980C0A0E2B0E04C997FC0E0E1F0E08E
:1008800036997EC068E070E04F997DC044E050E04A
:1008900066997CC022E030E083B182958F7091E050
:1008A000892780FBEE24E0F8F12CC70186299729DF
:1008B0008C299D298A2B9B2B8E2B9F2B682B792B88
:1008C000462B572B242B352BF501318320831330F6
:1008D00009F470C008F05DC0113009F463C0123033
:1008E00009F464C084988C988C9881E0F50120818B
:1008F00031812215330509F480E0082BF6E04F160C
:10090000510409F069CF802F2196E2E10C94CD29A2
:100910001092C6011092C5011092C701F4DE03DFE8
:1009200057CF143079F0153009F069CF229A2A9800
:1009300068CF859A8D9865CF869A8E9862CF879A70
:100940008F985FCF219A29985CCF41E050E001C099
:10095000440F2A95EAF7409561E080E28EDE91E04F
:1009600089279091C701980F9093C70159CFD12C37
:10097000C12C7ECFB0E0A0E07FCFF0E0E0E080CF00
:1009800070E060E081CF50E040E082CF30E020E0D6
:1009900083CF143099F0153009F0A4CF22982A980B
:1009A0002A98A3CF85988D988D989FCF86988E98FA
:1009B0008E989BCF87988F988F9897CF219829985A
:1009C000299893CF259A2D980895269A2E980895C0
:1009D000239A2B980895559A5D9A0895F3DFF5DFD1
:1009E000F7DFF9DF559A5D982FEF80E792E021500D
:1009F00080409040E1F700C00000259A2D9A2FEF2B
:100A000080E792E0215080409040E1F700C0000074
:100A1000269A2E9A2FEF80E792E021508040904056
:100A2000E1F700C00000239A2B9A2FEF80E792E0B5
:100A3000215080409040E1F700C00000C3DF2FEF5D
:100A400080E792E0215080409040E1F700C0000034
:100A5000BCDF2FEF80E792E0215080409040E1F72B
:100A600000C00000B5DF2FEF80E792E0215080400A
:100A70009040E1F700C00000AEDFA4DFA6DFA8DFF2
:100A8000AADF0C94D411259A2D9A0895269A2E9AAD
:100A90000895239A2B9A08958091CA01813041F0DC
:100AA000882311F0823019F486E292E05DC1089546
:100AB00086E392E0FBCF8091CA01813041F0882328
:100AC00011F0823019F487E292E04EC1089587E375
:100AD00092E0FBCF8091CA01813041F0882319F068
:100AE000823071F0089589E290E03EC10E949C1B23
:100AF000833019F484E191E0F8CF8DE394E0F5CFF1
:100B00008AE191E0F2CF08956091040270910502AC
:100B100090E080E0F6D2559A5D9A259A2D98269A13
:100B20002E98239A2B98823051F0833051F08130E7
:100B300009F4A9DF0E94911E81FD10C00895A6DF6F
:100B4000F9CF8091C8019091C90101969093C90194
:100B50008093C80191FFF2CF96DF98DF9ADFEECF46
:100B6000FC019281913031F4858182FD08C0817051
:100B700090E0089583E09230D9F782E0F9CF80E0E9
:100B8000F7CFCF93DF93EC01EBDF8093CA01813085
:100B900039F0882379F0823051F0DF91CF910895B8
:100BA00086E392E0CDD0CE010E94711EF6CF86E2A0
:100BB00092E006D186E292E0C3D0EFCFCF93DF93ED
:100BC000EC01CEDF8093CA01813039F0882379F0BF
:100BD000823051F0DF91CF91089587E392E0B0D059
:100BE000CE010E94711EF6CF87E292E0E9D087E243
:100BF00092E0A6D0EFCFCF93DF93EC01B1DF8093EB
:100C0000CA01813059F0882329F08230A9F0DF91A0
:100C1000CF91089589E290E093D0F9CF0E949C1B78
:100C2000833039F484E191E08BD0CE010E94711EB3
:100C3000EECF8DE394E0F8CF8AE191E0EDCF823002
:100C400031F0833081F0813019F420DF01C01BDFE7
:100C50002FEF85EA9EE0215080409040E1F700C0F0
:100C6000000081E0089515DFF3CF8530B8F46630D9
:100C7000A8F44E3098F450E09EE0699F400D511D5D
:100C80001124FA0194E5899FE00DF11D1124EE0F66
:100C9000FF1FE455FF4F85919491089581E090E006
:100CA0000895E3CF089583E090E00895833091059F
:100CB00040F424E0880F991F2A95E1F780509F4F58
:100CC000089590E080E00895F1CF08959C013A9551
:100CD00021153F4150F5FC01EE27F170BC0166275C
:100CE0007270AC01442754709C012227387094FF25
:100CF0000EC080E1EF2B09F480E0672B09F08062E1
:100D0000452B09F08064232B89F08068089581E0E9
:100D1000EF2B09F480E0672B09F08260452B09F086
:100D20008460232B19F08860089580E00895CF93A4
:100D3000DF93EB01CBDFFE010995DF91CF910895A1
:100D4000CF93DF93EC01805E9109089720F06BEF61
:100D50007BE0209711F468EF79E0CE01E8DF8C2F7B
:100D6000B8D2DF91CF910895CF93DF93EC01F6D203
:100D7000CE01805E9109089720F060E07CE020972A
:100D800011F46DEF79E0CE01D2DFDF91CF910895BC
:100D90000F931F93CF93DF938C01EB01D1DF20974B
:100DA00039F4C801E1DFDF91CF911F910F910895D0
:100DB0008FE99FE00197F1F700C000002197EFCF86
:100DC00070E060E08933910511F460E570E0E0CFF8
:100DD00081E00895FDCF0895FBCF089581E0089547
:100DE000F7CF0895F5CF0895FDCF0895089508959C
:100DF000FDCF089508950895A6E0B0E0E2E0F7E0A1
:100E00000C94C02949835A839E833091D7018981EC
:100E10009A81311117C03E81332389F0222379F062
:100E200035D6182F682F89819A810FD669817A81EA
:100E3000812F0E948F132696E3E00C94DC2916D6AE
:100E4000182FF4CF23D669817A81F3CFFC01262FA6
:100E5000408151816281738184819581CDCFCF930F
:100E6000DF93EC0161E0F2DFBE01B4DF882349F0DB
:100E700061E0CE01EBDFBE01AFDF8170DF91CF918A
:100E8000089580E0FACF0F931F93CF93DF93EC0187
:100E900060E0DCDF8C01BE01AADFBE01C801A8DF73
:100EA000DF91CF911F910F91089521E030E0A901CA
:100EB00002C0440F551F8A95E2F7CA01FFC4CF93C1
:100EC000C82F81E090E00C2E02C0880F991F0A9471
:100ED000E2F70E948E118C2FE8DFCF91089581E018
:100EE0000895FDCF0895FBCF0895CF93C82F9ED4CA
:100EF0008C2FF7DF8C2FF7DF2FEF84E39CE021505E
:100F000080409040E1F700C00000CF91089581E05B
:100F1000ECDF0C94642180E0E8DF0C9475210F93E2
:100F20001F93CF93DF938C0161E090DFEC01B80158
:100F30000E94CE1D882321F061E0C80187DFEC010B
:100F4000B801CE014DDF811106C080E0DF91CF9165
:100F50001F910F910895B801CE0146DF8823A9F3B0
:100F6000B801CE010E94F21D882379F3B801CE01A9
:100F70000E94BC16882349F3B801CE010E944B1D84
:100F8000882319F3B801CE010E94C8178823E9F21B
:100F9000B801CE010E94A0178823B9F2B801CE0192
:100FA0000E948F14882389F2F8018581882361F0DB
:100FB000C330FCE7DF07D9F050F4C115ECE7DE07DA
:100FC000A1F0C130DC47A9F0C80108DFBFCFCB35A5
:100FD0008CE7D80799F0CC35ECE7DE0761F0CA352D
:100FE000DC4791F70E945711EFCF91DFAECF0E94FF
:100FF000861191DFAACF0E944F11E6CF0E945911AE
:10100000E3CFF8DE0E94A02009C10AD1F4DE0C94DF
:10101000A4202F923F924F925F926F927F928F9275
:101020009F92AF92BF92CF92DF92EF92FF920F9377
:10103000CF93DF931C0129013A016B0181E0C81AAB
:10104000D108E101CC0DDD1D1882F12CE12C8AE0E4
:10105000882E912CA12CB12CEC14FD0498F0C10128
:10106000DF91CF910F91FF90EF90DF90CF90BF90E5
:10107000AF909F908F907F906F905F904F903F9038
:101080002F900895C301B201A50194010E948929FE
:10109000605D603319F4E114F10431F0411451043E
:1010A0006104710409F4602F6A93C301B201A501C0
:1010B00094010E94892929013A018FEFE81AF80A60
:1010C000CBCF0F9320913001309131012817390790
:1010D00021F42091D101261789F09093310180935A
:1010E00030016093D1019C0150E040E0062F66E0A2
:1010F00070E08BEC91E08DDF0F9108958BEC91E027
:10110000FBCFCF92DF92EF92FF926C01EE24FF248F
:1011100020E0C114D104E104F10419F0C701B601C3
:1011200020E1C72ED82EE92EFF24C114D104E104FA
:10113000F10419F0285FC701B6016B017C0154E08E
:10114000F694E794D794C7945A95D1F7C114D10473
:10115000E104F10419F02C5FC701B6016B017C01B9
:1011600042E0F694E794D794C7944A95D1F7C11416
:10117000D104E104F10419F02E5FC701B601969580
:10118000879577956795672B682B692B09F02F5FFB
:10119000822FFF90EF90DF90CF900895829590E09E
:1011A0009C01220F331F220F331F2C7C95958795AE
:1011B000959587958373282B30E0C901880F991F77
:1011C0008A7A359527952575822B089581E00895B3
:1011D00080FF08C02D9A81FF07C02E9A82FF06C0AB
:1011E0002B9A08952D98F7CF2E98F8CF2B98089525
:1011F000CF93DF93D82FEADFC82F882311F08D2FEC
:10120000E7DF8C2FDF91CF910895259A2D98269AAC
:101210002E98239A2B980895EBCF089580E0FCCF69
:101220000E94821EF9CFCF930E94821EC82F809108
:10123000D2018C1771F0C093D2010E9434216093C7
:10124000D3017093D4018093D5019093D6018C2F54
:10125000E3DFCF910895ADE0B0E0E1E3F9E00C9475
:10126000C129488759876A877B878C879D87911119
:1012700032D71F8286E0FE013896DE01119601907A
:101280000D928A95E1F78D8181110CC029813A81F7
:101290004B815C816D817E818F816AD62D96E2E0E3
:1012A0000C94DD29CE010196DADD8111EFCFF6CF66
:1012B000FC012481213019F48081918118C40895A2
:1012C000662321F00E9422190C94ED190E947419D2
:1012D000FBCFCF93C82F882389F08CEF8C0F813AF6
:1012E00078F48C2F0E94331F882321F08C2F0E94CA
:1012F000D51F8BD78C2F0E94BE1F87D7CF91089503
:1013000080E28C0F883040F4C77081E001C0880F04
:10131000CA95EAF7C0D6F1CFEBE5EC0FE33040F425
:10132000F0E0EA57FE4F808190E00E94C41EE6CFB5
:10133000E8E5EC0FEB3150F4F0E0EE0FFF1FE05B5F
:10134000FE4F808191810E94EB1ED8CF83E38C0FEA
:101350008331A0F661E08C2FB3DFD0CF882351F129
:101360009CEF980F913A18F40E94D51F4EC790E257
:10137000980F983048F4877091E001C0990F8A95D2
:10138000EAF7892F8ED6F2CF9BE5980F933020F4A1
:1013900090E080E00C94C41E98E5980F9B3120F4F7
:1013A00090E080E00C94EB1E93E3980F933110F4DF
:1013B00060E086CF08951F93CF93DF93182FEB0142
:1013C00088DF209731F4812FC9DFDF91CF911F9102
:1013D00008958FE99FE00197F1F700C00000219781
:1013E000F0CF70E060E0893311F460E570E0E3CFA6
:1013F000882311F050D609C70895882311F051D6DB
:1014000004C70895B0E0A0E0E8E0FAE00C94BA293F
:101410006C01D62FC72FFC011581068102950F7034
:1014200030D6E82E8823E9F0E12E1123D1F08C2F5D
:10143000807F803461F080E28D0F8830F8F08C2F4F
:10144000807E803221F4D230C8F00023B9F0809140
:101450001B0382FF13C082E0FCD613D691E0E82E76
:10146000E926BC2EB2949FE0B922FBE0FB1580F187
:10147000EB2DF0E0E55CF54D0C94AB29E12CF1CFC0
:101480000C2F0F70C07F11F00295007F112381F0A7
:10149000002349F080E28D0F883010F0D11105C093
:1014A000802FF9D5B2D68D2F40C0802F07D6FACF26
:1014B0008D2F54DF002361F080E28D0F883010F013
:1014C000D11103C0802FEDD502C0802FFDD59DD650
:1014D000EB2DE850FF0B349708F04CC10E94821EA0
:1014E0009BDECDB7DEB7E9E00C94D6292C2F2F7008
:1014F000F22EC07FC03219F0F29480EFF822DD2383
:1015000041F0D13081F1112309F439C00023C9F031
:10151000CACF80911B0382FD10C0112341F0FF2030
:1015200019F08F2DB8D571D680E0D3DED1CF80E011
:1015300015DFFF2069F28F2DC6CF112359F001115D
:1015400003C08F2D55DFC4CF013009F0C1CF8F2DDF
:10155000D9D5BECF0111BCCF8F2D4FDF8F2DDDD55B
:101560008F2DC2D5B5CF112321F0063008F0B0CFB2
:10157000E8CF053008F0ACCF8F2D3FDFA9CF002397
:10158000D9F3D93349F43FEF87EE93E031508040EF
:101590009040E1F700C000008D2FE0DE99CF8C2F46
:1015A00086958695837069F0813009F091CF8D2FF3
:1015B0009C2F9370111102C080E090E00E94EB1EFE
:1015C00087CF8D2F9C2F9370111102C080E090E087
:1015D0000E94C41E7DCF612F8D2F72DE79CF8C2F9C
:1015E000837081F5111174CF4D2F42954695477048
:1015F000440F440F2D2F2F7030E0042E02C0220F15
:10160000331F0A94E2F790E080E0D4FF09C08FE036
:1016100090E002C0880F991F4A95E2F78095909557
:10162000C695C695C370822B932BC23039F040F417
:10163000C13011F04CD14CCF43D14ACF4FD148CF1C
:101640003DD146CF8695112311F08C2F81708823D0
:1016500009F43ECF4D2F429546954770440F440FF5
:101660002D2F2F7030E0042E02C0220F331F0A945A
:10167000E2F790E080E0D4FF09C08FE090E002C084
:10168000880F991F4A95E2F780959095C695C69563
:10169000C370822B932BC23039F040F4C13011F06B
:1016A00071D116CF68D114CF74D112CF24D110CFFD
:1016B000CF70112321F08C2F32D18D2F43CF8D2F5E
:1016C0009CDE8C2F3AD104CFD23F39F160F4D03F69
:1016D000B9F0D13F81F0112309F43CC00111E3CEF0
:1016E0008C2F8F711EC0D33FF1F0D43FA1F78091B2
:1016F0001B0382FD20C08C2F8F71112319F311C0A1
:10170000112339F0053008F0E3CE8C2F8F7125D1ED
:10171000DFCE063008F0DCCEF8CF8C2F8F711111A0
:10172000D1CFFDD0D5CE112321F08C2F8F71EDD0EC
:10173000CFCEE8D0CDCE112329F063E08C2F8F716E
:1017400071D5C6CE81E085D5023008F4C1CE82E0E5
:1017500080D5BECE002359F0D93309F01DCFEFEF6D
:10176000F7EE23E0E150F0402040E1F713CF8C2F5B
:101770008F71A8CFEE2009F4B4CE7FD480FDB1CE16
:10178000F601158274D4CBD0C60117D070D4D5D051
:10179000A8CE0F931F93CF93DF93EC0168817981DB
:1017A0008D81AED18C01FCD088D0B801CE012ADE6B
:1017B000DF91CF911F910F910895CF93DF93EC01AB
:1017C0008C81882381F0CE01AADB81110FC059D40E
:1017D000882349F08D81882331F080911B0382FF9B
:1017E00002C082E036D5DF91CF910895CE01D1DFDE
:1017F000CE0149DBF8CF882311F060D406C50895E7
:10180000882311F061D401C5089590E080E00E9422
:10181000C41E90E080E00E94EB1E5DD4F6D40E94CE
:10182000061A0C94ED190E94EC1FEFCF41D4FBCFA8
:1018300092959F70963091F058F4925F9F7092301D
:1018400058F4803F19F030F4883E30F481E0089578
:101850009A5FF4CF843FD1F380E00895883EB0F3DF
:10186000813FD1F7F3CFFC012481222321F0808135
:1018700091813DD1DDCF80E00895A6E0B0E0E3E4C2
:10188000FCE00C94C1292696E2E00C94DD29A7E047
:10189000B0E0EDE4FCE00C94C1292796E2E00C9462
:1018A000DD290895FECF0895FDCF0895FADFFCDF0E
:1018B000909307028093060208950895F7CF089544
:1018C0002091060230910702822B932BEFCF2091BB
:1018D00006023091070282239323E8CF209106026B
:1018E0003091070282279327E1CFDBCF0895FDCF08
:1018F0000895D7CF0895FDDFFADF90930502809316
:101900000402089590E080E0F6CF21E030E0A901E4
:1019100002C0440F551F8A95E2F7CA01ECCF21E0BF
:1019200030E002C0220F331F8A95E2F78091040253
:1019300090910502822B932BDECF21E030E002C094
:10194000220F331F8A95E2F720953095809104028B
:101950009091050282239323CECF21E030E002C094
:10196000220F331F8A95E2F78091040290910502BD
:1019700082279327C0CF2091040230910502822B49
:10198000932BB9CF20910402309105028223932337
:10199000B2CF209104023091050282279327ABCF6A
:1019A0000895262F277091E001C0990F2A95EAF734
:1019B00023E0769567952A95E1F7660F771F660F06
:1019C000771FFA01E60FF71F50E040E0682F70E044
:1019D0008191DF0111979B01042E02C03695279556
:1019E0000A94E2F7217021952827292328272C9390
:1019F0004F5F5F4F4430510559F70895A82FA770E6
:101A000023E0969587952A95E1F7880F991F880F0F
:101A1000991FFB01E80FF91F50E040E080E02191A1
:101A200030E00A2E02C0369527950A94E2F721701D
:101A30003327042E01C0220F0A94EAF7822B4F5F4E
:101A40005F4F4430510559F70895262F963068F4BA
:101A50008E3058F4682F70E08EE0989F600D711DF5
:101A6000112448ED51E0822F9CCF0895292F963004
:101A700058F48E3048F490E068ED71E03EE0239F2A
:101A8000800D911D1124BACF80E00895B0E0A0E050
:101A9000ECE4FDE00C94BA297C0100910402109161
:101AA00005028091060290910702082B192BCFE0C6
:101AB000D0E0CC24C394D12CBC2EC6010C2E02C085
:101AC000880F991F0A94E2F780239123892B49F408
:101AD000219790F7B12C8B2DCDB7DEB7E9E00C94B0
:101AE000D629B7018C2F26D6019791F3F4CFCF9347
:101AF000DF93EC01CBDFBE011DD6DF91CF910895BE
:101B00001F93CF93DF93EB019091D701992331F08D
:101B1000CB01EDDFDF91CF911F910895882351F024
:101B2000CB01B4DF182F682FCE018FDFBE01812FCC
:101B300001D6F0CFCB019ADF182FF8CF1F93CF93A8
:101B4000DF93C091080217E0809109028C1304C052
:101B5000DF91CF911F910895D0E01C9FF0011D9F50
:101B6000F00D1124E65FFD4F2081318142815381C8
:101B70006481758186818BDE2196C770E5CF2091C7
:101B800042023091430240914402509145026091DB
:101B90004602709147028091480279CECF93DF933D
:101BA00080914802807F09F04BC0809147028823D2
:101BB00009F446C0E091080250910902C091430225
:101BC000D0914202609144027091450247E05E1755
:101BD000B9F18E2F90E0E49FF0011124E65FFD4FF4
:101BE0002481222381F1489FF001499FF00D1124A7
:101BF000DF01A65FBD4F11962C9111972C1323C0C6
:101C00002C912D1320C015962C91159721111BC0D6
:101C100012962D913C91261B370B283C310598F4E8
:101C2000809148028F70806180934802E05FFD4F91
:101C300080818F708061808382E492E0BEDD7EDFF0
:101C4000DF91CF910895FC013196E770C0CF482F06
:101C5000209108029091090257E0291302C080E008
:101C6000089530E0529FF001539FF00D1124E65F7C
:101C7000FD4F8181681306C08081481303C08581B0
:101C80008111EECF2F5F3F4F2770E7CFA4E1B0E087
:101C9000ECE4FEE00C94B7298C0186E0F801DE014B
:101CA0001F9601900D928A95E1F7F8018481E580F5
:101CB00092E4A92E92E0B92E9091460291111AC099
:101CC0008823A9F0EE2089F0C801CDDDF82E882305
:101CD00061F087E0F801D50101900D928A95E1F756
:101CE000C501E6DA5BDF4BDF59C0C80166DDFF24C2
:101CF000F39454C0C080D18082809380F0904702DA
:101D00002091440230914502A401421B530BFF2055
:101D100009F4E9C0483C510508F09CC0882309F447
:101D20003DC09091430280914802282F207F09F006
:101D300056C09D1114C090914202C91210C0E1100A
:101D400048C08F7080618093480219DF82E492E07E
:101D500034DD80914802F8018683F12C1FC0E11028
:101D600038C06D2D8C2D73DF6D2D8C2D70DFE82E1E
:101D70008111F3CFCF86D88A8F859889B8DE292F35
:101D800022952F70243078F49F702230A0F0992390
:101D9000B1F0F8019681907F91F4FE2C8F2D64961E
:101DA000ECE00C94D3292A5F2F70223060F0C80138
:101DB00004DDEF2CF2CF992311F0882371F3805EBC
:101DC000883058F3F4CF803F40F3815F833078F759
:101DD000E4CF80914802816080934802BECF9D117C
:101DE00012C090914202C9120EC0E1100CC086834D
:101DF000C801E3DC87E0F801A2E4B2E001900D92B3
:101E00008A95E1F770CFC8012EDD882309F46DCFE4
:101E1000EE2009F46ACF80914802803280F0209150
:101E2000420230914302398728879B868A869091A7
:101E300046029C871D868E87CE010896BEDC87E011
:101E4000F801A2E4B2E001900D928A95E1F7A6DED6
:101E500096DE4DCF90914802292F207F89F4682D7E
:101E60009A8A898AA6017A899E2D07DD82E492E00A
:101E7000A4DC87E0F50111928A95E9F780DE6DCF49
:101E8000882309F48BCF809143028D110FC080917C
:101E90004202C8120BC0E11009C09683C8018DDC54
:101EA00087E0F50111928A95E9F778CFC801DBDC6C
:101EB000882309F41ACFEE2009F417CF8091480245
:101EC000803208F4BCCF20914202309143023A8321
:101ED00029839C828B82909146029D831E828F83F0
:101EE000CE010196ABCF483C5105A8F5882309F4F3
:101EF000FECEFE2CEE2009F4F8CE809143028D1127
:101F00001EC080914202C8121AC08091480280FD12
:101F10000DC0982F907F51F08683903F09F468CFD1
:101F2000982F907F905F8F70892B61CF87E0F801A9
:101F3000A2E4B2E001900D928A95E1F72FCFC8019B
:101F400092DC81117CCF80914802816080934802AD
:101F5000C80133DC23CF682D9A8A898AA6017A8941
:101F60009E2D8BDC87E0F50111928A95E9F7BBCEB7
:101F7000AEE0B0E0EEEBFFE00C94C0292887398793
:101F80004A875B876C877D878E87CE0108967EDEC9
:101F90008823A9F06C85662339F0288539854A8520
:101FA0005B857D858E8573DC17E0809108029091BA
:101FB000090289133BC02E96E3E00C94DC2987E0EC
:101FC000FE013896DE01119601900D928A95E1F797
:101FD0008C85882349F32091090230E0C9010196DC
:101FE00087709927409108024817190691F097E0E9
:101FF000929FD001939FB00D1124A65FBD4FFE01AB
:10200000319601900D929A95E1F78093090296DD41
:10201000CBCF0CDC109209021092080287E0E2E4B8
:10202000F2E0DF011D928A95E9F7BECF819FC001E2
:102030001124865F9D4F2ADE882309F4BCCFE091EE
:1020400008021E9FF0011124E65FFD4F20813181BF
:102050004281538164817581868119DC80910802F7
:1020600090E0019687709927809308029ECF809117
:102070007102869586958695089580917102877084
:10208000089590917102977081E009F480E00895BD
:1020900080919D02089590919D02892B80939D02CD
:1020A0000895809590919D02982390939D020895A4
:1020B00010929D02089580919C02089590919C0237
:1020C000892B80939C020895809590919C0298237F
:1020D00090939C02089510929C020895809173023F
:1020E00008950895FECF089590917202292F282314
:1020F00029F08095892380937202F4CF0895089582
:10210000FECF089590917302292F2823281721F0DC
:10211000982B90937302F4CF089590917302292F16
:10212000282329F08095892380937302E9CF0895AD
:1021300090911B0392FF07C090917302981719F0BA
:1021400080937302DDCF089580917302882321F07C
:102150001092730280E0D4CF0895CF93C0919D0276
:1021600080919C02C82B80917302882329F0C82B90
:102170000E94121F8111E8DF8C2FCF910895CF9319
:10218000DF93C0913401D0913501E7DF8883C0919E
:102190003401D091350148E050E069E672E0CE01AB
:1021A0000E94E829892B59F088E0FE01A9E6B2E0F7
:1021B00001900D928A95E1F7CE010E94931EDF9166
:1021C000CF910895CF93DF93C0913201D091330125
:1021D000C4DF8983C0913201D091330140E250E0E5
:1021E00069E472E0CE010E94E829892B59F080E26F
:1021F000FE01A9E4B2E001900D928A95E1F7CE01CB
:102200000E94A01EDF91CF9108950E947B1E88231B
:1022100029F080911A0387FF01C0D4CFB0CF089571
:10222000FECF089590911B0392FF0EC098E0899F06
:1022300090011124622B6093710271DB8091710215
:10224000869586958695ECCF6ACB1092710280E0D8
:10225000E7CF909171028095892380937102282F96
:10226000277059F4891749F090911B0392FF05C01C
:1022700086958695869561DBE8CF089590911B033E
:1022800092FB222720F9281749F080FB92F99093BE
:102290001B038AE193E046D082E0DBCF0895809172
:1022A0001B0382FB882780F991E08927E7CF81E033
:1022B000E5CF80E0E3CF60E070E0CB018FC360E06A
:1022C00070E0CB0185D3F7CFA3E0B0E0EAE6F1E11F
:1022D0000C94C12936D341D31B82CE01039654D32B
:1022E00081E090E0909307028093060259D31A820E
:1022F00019828A8184618A83CE01019662D3DFDFED
:102300002396E2E00C94DD29DFCF08952CC30895D5
:1023100019C308952EC308953DC3089541C3089578
:1023200044C308954EC308955FC30895A6E0B0E086
:10233000ECE9F1E10C94BF290E9428218C018091E5
:102340009E0290919F028017910781F019821A8254
:102350000E942821682F49815A81792F80E090E0DE
:102360000E942B0910939F0200939E022696E4E0A0
:102370000C94DB290E9434216093B0027093B10267
:102380008093B2029093B3026093AC027093AD025B
:102390008093AE029093AF02089508950895FDCF03
:1023A00008950895FEDFFBCF08950895FEDF0C9495
:1023B000EE048DE894E19ED3F1DFF4CF81E008953F
:1023C000FDCF0895FBCF0895089508950895FCDF8B
:1023D000FCDFFCCF9DDF811101C096DF84EB92E032
:1023E00099DF8AE193E09CDFA9D596DF67DA8091D7
:1023F0000402909105027BCA0E941F210AD3EADFE2
:102400000E940509D3CF0E94571E7CC4A6E0B0E00D
:10241000ECE0F2E10C94B529D3DF81110CC086DF2A
:10242000F2DF0E94281A0E9413090E94101B2696B0
:10243000EEE00C94D129FED220EA822E22E0922EE8
:10244000640110E0F601E190F1906F01812FD7D285
:102450001F5F163009F447C0E816F90699F380911A
:10246000B40281FDD5D2AEDF782E10E066246394ED
:10247000812FC5D27C01F401A190B1904F018A1542
:102480009B0561F1A826BF2400E0CC24C394D12C85
:10249000C5018C219D21892BC1F07720B1F00983E2
:1024A0001A830E9428219C838B836D8221E0C701BF
:1024B0008C219D21892B09F420E049815A816B816F
:1024C0007C818D81922F0E942B090F5FCC0CDD1C2B
:1024D0000E30F1F6F4013297F182E0821F5F163080
:1024E00039F648DF9DCFE816F90609F0B8CF97CF47
:1024F0001F93CF93DF9320D1EC01C11580E5D8075E
:10250000F0F5C11580E4D80708F09AC0C03ED105A7
:1025100020F5CD3CD10508F082C0C83AD10578F449
:10252000C53AD10508F073C0C130D10519F1209723
:1025300009F1C430D105F0F4D0E0C0E01BC0C33CC9
:10254000D105D0F7C85AD0E0CC0FDD1FC757DE4FFA
:102550000990D881C02DD4640DC0C11580E2D80780
:1025600008F0CDC0C11581E0D80708F05AC0C83EB8
:10257000D10510F7CE01DF91CF911F910895C0369C
:1025800082E5D80718F5C03482E5D80708F068C09E
:10259000C03282E5D80708F05CC0C11582E5D807D3
:1025A00008F493C02C2F2695269580E2289F900151
:1025B00011248C2F8370C1E0D0E002C0CC0FDD1F4E
:1025C0008A95E2F7C22BD32BDD68D4CFC03A82E5DF
:1025D000D80760F4C03882E5D80708F456C0CF7138
:1025E000D0E0DC2FCC27C46FD06AC4CFC03C82E5DA
:1025F000D80708F45FC0C03E82E5D80708F09CCF3A
:10260000DC2FCC27CC27DF71C06FD06AB3CFC55A7F
:10261000D0E0C154DE4FC881D0E0D064ABCFD065EC
:10262000A9CF8D2F2BD1182FCE01992785D0C12F5F
:10263000D0E0DC2FCC27CC27DF71C82BD92B9ACF49
:10264000CE01992779D0CC27DF70C82BD92BD06A3F
:1026500091CFCF71D0E0DC2FCC27C16FD06A8ACF69
:102660002C2F26952695277080E2289F9001112413
:102670008C2F8370C1E0D0E002C0CC0FDD1F8A95A3
:10268000E2F7C22BD32BDC6875CF2C2F269526952D
:10269000277080E2289F900111248C2F8370C1E065
:1026A000D0E002C0CC0FDD1F8A95E2F7C22BD32BFE
:1026B000DA6860CF8C2F8F71E1D0C82FD0E0DC2F8B
:1026C000CC27CC27DF71D06255CF8C2F8F71D6D01D
:1026D00055E0D695C7955A95E1F7CF70D0E0DC2F3D
:1026E000CC27282F30E084FF06C044E0220F331FA0
:1026F0004A95E1F73327C22BD32BD0693BCF8D2FDF
:102700008F71BCD0182FCE01992716D0C12FD0E0E1
:10271000DC2FCC27CC27DF71C82BD92BD4CF462F69
:10272000763028F46E3018F4672F0C94510690E040
:1027300080E00895F4DFDCCE82389105B9F1B0F481
:102740008133910509F47DC048F48932910509F47B
:102750006DC08A32910509F47BC0089585339105D7
:1027600009F45FC08933910509F10895833E91050D
:10277000D9F138F4803E910529F1823E910579F135
:102780000895863E9105D9F1873E910509F43EC032
:10279000843E910541F520911B0321FF24C08091C7
:1027A0001A0384FD19C087EE90E0089520911A0362
:1027B000237009F05AC020911B0323FF14C089E243
:1027C00090E0089520911A0320FD38C030911B033A
:1027D00030FF09C024FF43C090E080E008952091BD
:1027E0001A0322FDF7CF089520911A0322FD3AC063
:1027F00030911B0330FD39C024FFF5CFEDCF209180
:102800001A0323FFF0CF24FDE7CFCDCF20911A0389
:1028100023FD2EC030911B0331FFEECF84EE90E0FC
:10282000089520911A0325FFDECFC9CF20911A0306
:1028300025FD21C020911B0323FFD5CF89E390E024
:10284000D2CF20911A0326FFCECF8AE290E00895DE
:1028500020911A0326FFC7CF81E390E0089583EE0D
:1028600090E0089582EE90E0089580EE90E0089563
:1028700086EE90E0089585E390E0089590911A0324
:1028800092FF10C041E0282F2471243009F040E06D
:1028900031E0282F2871283009F030E0431711F07B
:1028A0002CE0822793FF10C041E0282F24712431AF
:1028B00009F040E031E0282F2871283109F030E09C
:1028C000431711F02CE0822730911B0330FF10C01A
:1028D00051E0282F2171213009F050E041E0282FEC
:1028E0002871283009F040E0541711F029E08227C0
:1028F00031FF10C041E0282F2171213109F040E063
:1029000031E0282F2871283109F030E0431711F009
:1029100029E0822794FD877E089580E00895CF9373
:102920009C01205E3245C1E02032310538F4FB01C4
:10293000C581C11103C08F710E945F078C2FCF9199
:102940000895089590E080E00E94062A21E0833EE9
:102950009E4F09F020E0822F089563EE7EEF90E015
:1029600080E00C94252A6FEF7FEF90E080E00C94DC
:10297000252ACF93DF93EC0182E090E00E94FE29AC
:102980008883DF91CF910895FC01608182E090E01F
:102990000C940B2A83E090E00E94FE2990E00895B9
:1029A000682F83E090E00C940B2ACF93DF93EC0127
:1029B00084E090E00E94062A99838883DF91CF917A
:1029C0000895FC016081718184E090E00C94252AD7
:1029D000AB01BC018FE090E00C941D2AAB01BC015F
:1029E00083E190E00C941D2A682F8EE090E00C9417
:1029F0000B2A0C94830508950C9484050895E82F00
:102A0000F0E0EE0FFF1FE85DFC4F8081918108959B
:102A100008950E94AB03ECE1F3E0A8E2B3E0119269
:102A200011921D921D9283E0E832F807C1F786E00B
:102A300012D0DFCFCF938CE193E00E94CF03282FF9
:102A400046E068E273E08CE193E006D0C82FD4DF63
:102A50008C2FCF9108950895B0E0A0E0E2E3F5E176
:102A60000C94BB296C017B01042FC22F222379F027
:102A700081E08093B7020E9428219093B602809350
:102A8000B50280E0CDB7DEB7E8E00C94D729D0914D
:102A9000B702DD23B1F38091B5029091B6020E9496
:102AA000B920059770F310E0000F111FA801B601BF
:102AB000C7010E94E829892B31F0A801B601C7019E
:102AC0000E94F529CD2F1092B7028C2FDBCF9ECC20
:102AD00008950E94C2200E942D246BDC0E94452490
:102AE0008BDC0E944E240E945124F1DF0E94672457
:102AF0006EDCF9CF9093C3018093C2010895809159
:102B00003601877F8093360182E0DEDA80913601DC
:102B100084FF05C08F7E8093360182E0BCDA80910D
:102B2000360185FF05C08F7D8093360180E2B3DAE0
:102B30006CCB80E008958B32910539F040F49C0114
:102B4000245031092432310558F481E008958D3242
:102B5000910530F089339105C0F384369105A9F3CE
:102B6000E8CFCF93DF93EC01662311F082E0A6DA81
:102B7000CE0190528115904308F4DD27CE010E94CA
:102B8000A006DF91CF9108959C013052211530436A
:102B900008F499270C94B406FC0123E0F695E79518
:102BA0002A95E1F7EE71FF27E854FD4F208131812E
:102BB000AC014F70552781E090E002C0880F991F4B
:102BC0004A95E2F7662329F0822B932B9183808329
:102BD00008958095909582239323F8CFFC0123E0FC
:102BE000F695E7952A95E1F7EE71FF27E854FD4F3A
:102BF0008F70992721E030E002C0220F331F8A95A1
:102C0000E2F7808191812823392381E0232B09F485
:102C100080E00895EF92FF920F931F93CF93DF937D
:102C2000EC017B018A018091360182FF55C0209121
:102C3000DF023091E0022C173D0719F0209709F0D0
:102C40004BC0909136019B7F9093360161E091FDDE
:102C500010C08091E1029091E202A701481B590B3C
:102C600061E080913701909138014817590708F4C5
:102C700060E061708091360160FB81F980933601DC
:102C8000C9018ADF05DA81FF07C0809136018061C2
:102C90008093360182E005DAFBD985FF07C0809179
:102CA000360180628093360180E2FBD96091360163
:102CB00066956170A8018091DF029091E00251DF7A
:102CC0006091360166956170A8018091DF02909154
:102CD000E0025ADF14DF0DC0CE0180DFA801682FAB
:102CE000CE0152DF8091DF029091E002C817D90730
:102CF00089F3F092E202E092E102CDB7DEB7E6E0BE
:102D00000C94D9298091360182FF18C00E94282195
:102D10002091E1023091E202AC01421B530B209161
:102D20003701309138014217530740F048ED52E027
:102D3000BC018091DF029091E0026CCF08959091E8
:102D40003601892F8E7F90FF816080933601D7CE28
:102D5000809136018E7F80933601D1CE60E28091E2
:102D60003701909138010E946108FC010196208191
:102D70002032D9F3CF012BC6CF92DF92EF92FF9290
:102D80001F93CF93DF93EC017B010E9428216C01FC
:102D9000F7018581882309F44FC08091360182FFB5
:102DA00006C048ED52E0B60190E080E033DFC2316A
:102DB000FCE7DF0709F43EC000F5C0318CE7D80717
:102DC00079F180913701909138010596C131ECE796
:102DD000DE0759F1CE01905281159043D8F510923B
:102DE000E0021092DF0211E0812FDF91CF911F915D
:102DF000FF90EF90DF90CF900895C431FCE7DF079C
:102E000069F030F0C5318CE7D80721F798DFE2CFC1
:102E100080913601816080933601DCCF99DFDACF73
:102E200080913701909138010597909338018093F4
:102E30003701D0CF93DFCECF809136018F7EC13E58
:102E4000D10531F0C53ED10561F5809136018F7D08
:102E5000809336018091360180FFC5CFB701CE0146
:102E60006ADEF7011581882309F44DC0112309F4A6
:102E700045C00ED9182F32D9812B8D7FC1F0109209
:102E8000E0021092DF0260E0CE0186DEA70160E082
:102E9000CE0167DE23D98D7F4BD982E0DAD910E0ED
:102EA000A3CFCE01905281159043A0F69CCF87E02E
:102EB000F701A8EDB2E001900D928A95E1F710922A
:102EC000DB021092DA02E4D8182F08D9812B9091F6
:102ED000360181FB91F99093360100D98D7F28D975
:102EE000D093E002C093DF02D092E202C092E102EE
:102EF00080913601846080933601CFCFA701B6015F
:102F0000CE0188DE71CF11116ACF6DCFFFC9089550
:102F100080E075DD817008958DDD2FEF86E791E00B
:102F2000215080409040E1F700C0000083DDF0DFD9
:102F3000882319F0EBDF0C9464210895EDCF0895F8
:102F4000CF93DF93EB0186319C4701F5A1D89D819A
:102F5000992391F08A7A91E009F490E09093E3024A
:102F6000811108C089E20E94BE1F4FD980E0DF9125
:102F7000CF91089585E3F7CF8091E302811104C0DA
:102F800089E20E94D51FF1CF85E3FBCF81E0EFCF2F
:102F9000CF93DF93EC01FB018581882309F4CBC03B
:102FA0009E0130572332310508F0ABC08AE193E02F
:102FB000B7D9FE01E150F047E232F10520F4E95BB8
:102FC000F54D0C94AB2980911A03816080931A030C
:102FD00092C080911B03886080931B038CC08091FA
:102FE0001A038260F3CF80911A038460EFCF80913F
:102FF0001A038860EBCF80911B038160EDCF809135
:103000001B038260E9CF80911A038061DFCF80913A
:103010001A038062DBCF80911A038064D7CF0E94AD
:10302000160C80911A038068D1CF80911A038C60AE
:10303000CDCF80911B038360CFCF80911A038E7F09
:10304000C5CF80911B03877FC7CF80911A038D7FE7
:10305000BDCF80911A038B7FB9CF80911A03877FF0
:10306000B5CF80911B038E7FB7CF80911B038D7FDF
:10307000B3CF80911A038F7EA9CF80911A038F7DE1
:10308000A5CF80911A038F7BA1CF0E94160C80914F
:103090001A038F779BCF80911A03837F97CF8091FC
:1030A0001B038C7F99CF80911A0382FB992790F99B
:1030B00021E0922790FB82F990FB83F987CF8091E2
:1030C0001B03982F909591708E7F892B90FB81F92F
:1030D00083CF90911A03892F8F7B96FF806476CFE0
:1030E0000E94160C90911A03892F97FB87F980583C
:1030F0006DCF81E019D98AE193E014D90E94160CB2
:1031000080E0DF91CF91089580E0F4CF90911A0391
:10311000892F8F7E94FF806159CF90911A03892F58
:103120008E7F90FF816052CF90911B03892F877F04
:1031300093FF886051CF81E0E4CF282F35EB230344
:10314000C001112497FF04C080589109892F089568
:1031500080589F4FFBCF8091EA0280FF0DC06091A5
:103160003E0170E0660F771F6038710570F56115DC
:10317000710569F1862F089581FF07C060913E01B6
:1031800084E0689FB0011124EFCF60913E0182FD81
:103190000AC08091E9028823A9F020913D01609145
:1031A0003E01821710F088E0ECCF869FC001112409
:1031B00033E0880F991F3A95E1F7622F70E00E9483
:1031C0007629D2CF68E070E0D5CF8FE7089581E00F
:1031D00008958091EA0280FF0CC060913A0170E08E
:1031E00075956795759567956115710549F1862FF8
:1031F000089581FF06C060913A0170E0759567956A
:10320000F3CF60913A0182FD0BC09091E8029923BF
:10321000A1F06091390180913A01961738F0682F3A
:1032200070E06038710500F38FE70895899FC00151
:10323000112470E00E947629F4CF61E070E0D7CFCE
:1032400081E008958D3C29F486DF81958093EE021C
:1032500008958E3C11F47FDFF9CF8F3C29F47BDF9A
:1032600081958093ED020895803D11F474DFF9CFCC
:10327000893D21F4AEDF8093EF0208958A3D19F471
:10328000A8DF8195F8CF8B3D29F4A3DF819580934A
:10329000F00208958C3D11F49CDFF9CF9FE2980F66
:1032A000983070F4815D990B21E030E001C0220F6D
:1032B0008A95EAF78091EC02822B8093EC020895C4
:1032C0008D3D31F48091EA0281608093EA02089595
:1032D0008E3D21F48091EA028260F7CF8F3DB9F7ED
:1032E0008091EA028460F1CF4091ED028D3C59F467
:1032F0008091EE0287FF0DC01092EE0241110BC0CB
:103300001092E90208C08E3C81F48091EE021816FA
:103310009CF3442381F08091EF029091F002892B7D
:1033200009F05AC01092E80208958F3C49F447FF13
:10333000F0CF1092ED028091EE028111ECCFE0CF40
:10334000803D19F41416ACF3E4CF9091EF02893D5F
:1033500029F41916F4F61092EF02DBCF8A3D19F426
:1033600097FFD7CFF8CF9091F0028B3D29F497FFCC
:10337000D0CF1092F002CDCF8C3D19F41916CCF3BA
:10338000C8CF9FE2980F983090F4815D990B21E0AF
:1033900030E0B90102C0660F771F8A95E2F7CB01D2
:1033A00080959091EC0289238093EC02B2CF8D3D01
:1033B00031F48091EA028E7F8093EA02AACF8E3D9B
:1033C00021F48091EA028D7FF7CF8F3D09F0A1CFE4
:1033D0008091EA028B7FF0CF08953AD79C019091BB
:1033E000ED028091EE02982B21F03093E7022093BA
:1033F000E6029091EF028091F002982B21F0309339
:10340000E5022093E4028BEE92E0ACC486E0EBEEA2
:10341000F2E0DF011D928A95E9F71092E90210921D
:10342000E8021092EA020895FC01828181110EC027
:10343000838181110BC08481811108C091E0858155
:10344000811101C090E0892F8170089581E0FCCF47
:10345000A6E0B0E0EEE2FAE10C94C02986E0EBEEE3
:10346000F2E0DE01119601900D928A95E1F710923B
:10347000ED021092EE021092EF021092F0028B8198
:103480009C81892B81F08091E6029091E70271D6B0
:10349000AC019091E9029923A9F180913F01841731
:1034A000150608F43CC08D819E81892B89F080919E
:1034B000E4029091E5025DD6AC019091E802992377
:1034C00009F463C080913B018417150608F46BC0B2
:1034D000BE016F5F7F4F8BEE92E097D5811104C0E4
:1034E0008BEE92E0A1DF811178DF86E0FE0131965C
:1034F000ABEEB2E001900D928A95E1F72696E3E0FB
:103500000C94DC29209140018AE0289F900111242D
:103510002417350740F69F5F9093E90202C09F3F52
:10352000D1F71B81112351F016DE9FEF11160CF419
:1035300091E0899F802D11248093ED021C8111233D
:1035400051F009DE9FEF11160CF491E0899F802D58
:1035500011248093EE028091ED02882309F4A3CF19
:103560001091EE02112309F49ECFE7DD882349F084
:103570008093ED02812FE1DD882329F08093EE0214
:1035800092CF81E0F5CF81E0F9CF20913C018AE034
:10359000289F900111242417350708F099CF9F5FC9
:1035A0009093E80202C09F3FD1F71D81112351F093
:1035B00010DE9FEF11160CF491E0899F802D1124ED
:1035C0008093EF021E81112351F003DE9FEF11164D
:1035D0000CF491E0899F802D11248093F00280915A
:1035E000EF02882309F474CF1091F002112309F43B
:1035F0006FCFA3DD882349F08093EF02812F9DDDFB
:10360000882329F08093F00263CF81E0F5CF81E039
:10361000F9CF81E00895FDCF08950C941F06089519
:103620008091FB02823041F58091F302882321F1E1
:103630008091F1029091F2029CD58A3F9105E0F0D1
:103640001092F3021092F2021092F1029091FD0298
:103650008091FC02981304C080914101882361F09D
:10366000109241018091FD028093FC028091FD0245
:10367000D2DF8091FD02D1CF0895AC019091FE027E
:103680009F5F9093FE0250930303409302034230E6
:10369000510521F58091FF028F5F8093FF029330E7
:1036A00008F43FC030910103323030F080910003C4
:1036B000811140C0931781F02091FF02953000F1F5
:1036C0004F3F510531F5332331F193E02230F0F4CF
:1036D00080910003282B29F591E018C04430510552
:1036E00031F4809100038F5F80930003D8CF4F3F68
:1036F0005105A9F6809101038F5F80930103CFCF1D
:10370000943039F43111E4CF223029F49093FD0242
:1037100008C03111DDCF233021F4909100039130A6
:10372000A9F396D59093F2028093F10281E0809301
:10373000F302089592E0EACF8091FD02089530915E
:10374000F7022091FB02321720F42091FB02209314
:10375000F7026093F8027093F9028093FA02909353
:10376000FB0276D59093F2028093F10281E0809380
:10377000F3020895DC01ED91FC9111978191ED9395
:10378000FC930895B0E0A0E0E8ECFBE10C94BA29CA
:10379000E82FF0E0EC50FC4FB490282F26952695AA
:1037A000269530E0F901EC56FB4F0491877010E04C
:1037B000082E02C0159507950A94E2F701701127AB
:1037C000F901EC57FB4FE490F12C082E02C0F59460
:1037D000E7940A94E2F791E0E922FF24F901EC581A
:1037E000FB4FC491D0E002C0D595C7958A95E2F70A
:1037F000C170DD27C62ED12C0115110549F5E11444
:10380000F10431F086EE0E946909C601009771F556
:10381000B6018B2D0E94DB09C601009779F5E114F2
:10382000F104A1F50115110531F081EE0E94AE09F8
:10383000C6010097C9F5CD2B31F08CE20E94F10949
:10384000C114D104C9F5CDB7DEB7E9E00C94D6298F
:1038500081EE0E946909C601009789F2EFE9FFE055
:103860003197F1F700C000000197F6CFEFE9FFE0D4
:103870003197F1F700C000000197C8CFEFE9FFE0F2
:103880003197F1F700C000000197C7CF86EE0E9484
:10389000AE09C601009731F2EFE9FFE03197F1F789
:1038A00000C000000197F6CFEFE9FFE03197F1F794
:1038B00000C000000197BDCF8FE99FE00197F1F7AD
:1038C00000C0000091E0C91AD108BACFB0E0A0E072
:1038D000ECE6FCE10C94BA298C017B01D42F8AE040
:1038E000B82EC701F80109958823A9F0813009F0A5
:1038F00058C0C701F8010995C82F813089F4C70164
:10390000F80109950E94F1098D2F90E0009709F0C8
:1039100040C0C111E6CFCDB7DEB7E9E00C94D6299F
:10392000823031F4C701F80109950E946909ECCF92
:10393000833031F4C701F80109950E94AE09E4CF44
:10394000843011F7C701F8010995C82FD12CC12C7B
:103950002C2F2053330BC9012A30310568F0C114D4
:10396000D10491F28FE99FE00197F1F700C00000C8
:1039700091E0C91AD108F3CFBC9C9001BD9C300DD9
:1039800011246C01C20ED31EC701F8010995C82F7E
:10399000DFCFEFE9FFE03197F1F700C000000197BA
:1039A000B5CF6D2FEFDE9DCFA2E0B0E0EAEDFCE1F8
:1039B0000C94C129462F9A838983BE016F5F7F4F84
:1039C0008AEB9BE183DF2296E2E00C94DD2960E044
:1039D000EBCF0F931F93CF93DF93C42FD22FFC0114
:1039E00085818823C1F04093060332D49093050368
:1039F0008093040380E28C0F883040F4C77081E02C
:103A000001C0880FCA95EAF70E94F809DF91CF91AB
:103A10001F910F91089510910603141331C08091E6
:103A2000040390910503A5D3883C910548F5C0E2B5
:103A3000CD0F1D17B9F080E2810F883040F4177068
:103A400081E001C0880F1A95EAF70E94FD09C8308D
:103A500048F481E09D2F977001C0880F9A95EAF78E
:103A60000E94F809802F0E94F109C83078F6D770BB
:103A700081E001C0880FDA95EAF70E94FD09C6CF00
:103A800080E28C0F883010F6C77081E001C0880F8B
:103A9000CA95EAF7F2CF0F93DB0188519C47873034
:103AA000910598F5FC01E759F54D0C94AB2906E218
:103AB00021EE41EE6AE17CE7CD018BDF80E00F91E2
:103AC000089507E225EE45EE6BE17CE7F5CF06E2CF
:103AD00021EE40EE68E17CE7EFCF07E225EE44EE11
:103AE00069E17CE7E9CF06E221EE42EE6CE17CE79A
:103AF000E3CF07E225EE46EE6DE17CE7DDCF08E29D
:103B000021E045EE6EE17CE7D7CF15968C918823B6
:103B100019F010920603D3CF81E0D1CF41155105A2
:103B200011F0FA0109950895CF93DF93EC014A85CE
:103B30005B856E857F85F2DF8B810E9464108C81AE
:103B40000E9451100E94051186E0FE0111928A9593
:103B5000E9F7DF91CF910895CF93DF93EC018D8149
:103B600081FD10C082608D838B810E945E108C81EC
:103B70000E944B100E940511488559856E857F85EE
:103B8000CE01CCDF10920A03109209038D8180FDD3
:103B900002C0CE01C9DFDF91CF9108950F931F932B
:103BA000CF938C01FB01C581CC23A9F0809109033F
:103BB00090910A030097A1F08017910789F0992747
:103BC0000E946406FC012581246025831183008303
:103BD000C3DF0E946B108C2FCF911F910F9108951E
:103BE000C0E0F9CFEF92FF920F931F93CF93DF9333
:103BF0007C018B0197558F3F910519F010F011E072
:103C000036C00E945306970133272817390708F05A
:103C10004CC0C9010E946406EC01F80115818D8138
:103C200010FB80F98D83112341F112D39093080387
:103C3000809307038A818F5F8A830E9448108B8359
:103C40000E945B109B81892B8B830E946E108C835A
:103C50004E815F816E857F85CE0160DF8D8181FF22
:103C600002C0F12CE12CF0920A03E0920903812FAB
:103C7000CDB7DEB7E6E00C94D9294C855D856E851D
:103C80007F85CE014BDF8D8181FFB9CFCE014CDF27
:103C90008091090390910A038E159F0509F0AFCF1B
:103CA00010920A0310920903AACF10E0E0CF80918E
:103CB000090390910A03892B99F080910703909151
:103CC000080357D2893C910558F0809109039091DF
:103CD0000A0399270E946406FC01258122FF3CCF3C
:103CE000089510920A03109209031ECF90931003B7
:103CF00080930F03089503D291E0813009F090E0A2
:103D0000892F0895E0910F03F0911003309739F057
:103D10000190F081E02D309711F00995089580E031
:103D20000895F0CF0895E0910F03F09110033097BC
:103D300031F00280F381E02D309709F00995089564
:103D4000E0910F03F0911003309759F024813581F1
:103D5000232B39F026E0DC012C930480F581E02D43
:103D600009950895E0910F03F0911003309759F0F1
:103D700026813781232B39F022E0DC012C93068049
:103D8000F781E02D09950895A3E0B0E0EAECFEE1AB
:103D90000C94C12920910D0330910E032817390787
:103DA000B1F090930E0380930D03E0910F03F09117
:103DB0001003309761F00084F185E02D309739F0E1
:103DC00023E029839B838A83CE010196099523965C
:103DD000E2E00C94DD29A3E0B0E0E1EFFEE10C9419
:103DE000C12920910B0330910C0328173907B1F03A
:103DF00090930C0380930B03E0910F03F091100359
:103E0000309761F00084F185E02D309739F024E09F
:103E100029839B838A83CE01019609952396E2E04C
:103E20000C94DD29CF93DF93C0913401D0913501FB
:103E3000229661DF882381F080911A0387FF0CC0EE
:103E4000C0913201D091330122969EE180E09150E1
:103E500028F4DF91CF91089596E0F8CF299122239D
:103E6000B1F38F5FF4CFCF93C82F811102C080E0F0
:103E700023C041DF882311F180911A0387FF1EC000
:103E8000EC2FE695E695E695EE3188F780913201C4
:103E900090913301E80FF92FF11D228130E0C770B6
:103EA00081E090E002C0880F991FCA95E2F72823AD
:103EB000392381E0232BD9F2CF91089580913401E9
:103EC00090913501FC013296089621912C1721F032
:103ED000E817F907D1F7CBCF81E0EECF9C01FC01C9
:103EE00032969FEF80E04191461751F09F3F19F4C1
:103EF000411101C0982F8F5F8630A9F79F3F09F4C9
:103F00000895290F311D97FD3A95F90162830895AF
:103F1000FC01329608962191261303C0DF01119708
:103F20001C92E817F907B9F70895E62FE695E6958C
:103F3000E695EE3168F4E80FF92FF11D677021E086
:103F400030E001C0220F6A95EAF78281822B8283DA
:103F50000895E62FE695E695E695EE3170F4E80FC4
:103F6000F92FF11D677021E030E001C0220F6A9542
:103F7000EAF720958281282322830895CF93C82FC2
:103F8000BADE6C2F882359F080911A0387FF07C08F
:103F90008091320190913301C8DFCF9108958091D3
:103FA0003401909135019ADFF8CFCF93C82FA3DE6B
:103FB0006C2F882359F080911A0387FF07C08091E6
:103FC000320190913301C5DFCF9108958091340182
:103FD000909135019DDFF8CF8EDE882379F08091B6
:103FE0001A0387FF0BC0E0913201F0913301329642
:103FF0008EE1DF011D928A95E9F70895E091340181
:10400000F0913501329686E0F4CFDC01FB01119688
:104010009C9111978181981322C012968C911297CE
:10402000882319F0928189131AC013968C911397E3
:10403000882319F09381891312C015968C911597D6
:10404000882319F0958189130AC014969C919923AD
:1040500021F081E02481291303C080E001C081E0C8
:10406000817008950895FECF0895CF92DF92EF9268
:10407000FF926B017C01F7DFC701B60160DBFF90A7
:10408000EF90DF90CF90089581110CC081E0809374
:1040900045016091420170914301809144019091EA
:1040A0004501E3CF82E0F3CF83E080934501609147
:1040B0004201709143018091440190914501D5CF17
:1040C000E3CF089581E080934501609142017091B2
:1040D00043018091440190914501C7CFF3CF0895EA
:1040E00091E0811101C090E0909344016091420100
:1040F000709143018091440190914501B6CF809128
:1041000044010895809343016091420170914301FD
:104110008091440190914501A8CF80914301089579
:10412000809342016091420170914301809144016A
:10413000909145019ACF8091420108950895089584
:10414000FECF089508950895F9CF0895CF93FADF2B
:104150000E941A15F8DFC0E08C2F0E94FF14892BF3
:1041600031F4CF5FC630C1F780E0CF91089581E090
:10417000FCCFCF93DF93EC016BD08C1B9D0BDF91B9
:10418000CF91089585B7806885BF85B7806885BF62
:1041900008951F921FB61F9211248F939F93AF9380
:1041A000BF9380911103811113C0809134039091CA
:1041B0003503A0913603B09137034196A11DB11D7F
:1041C0008093340390933503A0933603B093370361
:1041D000BF91AF919F918F911F901FBE1F90189517
:1041E00080913C03843031F10E9401081092110348
:1041F00088E190E020E40FB6F894A89580936000E1
:104200000FBE2093600083B7817F846083BF83B734
:10421000816083BF7894889583B78E7F83BF0FB604
:10422000F894A89580916000886180936000109256
:1042300060000FBE08950E94160C0C94050882E0E1
:1042400084BD93E095BD9AEF97BD80936E0008956D
:104250002FB7F8948091340390913503A0913603E1
:10426000B09137032FBF08952FB7F89460913403AE
:104270007091350380913603909137032FBF0895D5
:1042800078941F921FB61F9211248F939F93AF9320
:10429000BF938091340390913503A0913603B09180
:1042A00037030196A11DB11D80933403909335030C
:1042B000A0933603B0933703BF91AF919F918F9135
:1042C0001F901FBE1F90189587E797E790930108EE
:1042D0008093000888E19AE00FB6F894A89580933F
:1042E00060000FBE90936000FFCF88E19AE00FB6A8
:1042F000F894A895809360000FBE90936000FFCF64
:10430000EF92FF920F931F93CF93DF93182FEB0140
:104310001092BC0084EA8093BC009ADF7C018091FB
:10432000BC0087FF26C08091B900887F883029F0C3
:104330008091B900887F803171F51093BB0084E8CB
:104340008093BC0085DF8C018091BC0087FF1DC07D
:104350002091B900287F90E080E0283189F081E049
:1043600090E0203411F490E080E0919581959109DE
:1043700007C0C701FEDEC817D90788F68EEF9FEF8A
:10438000CDB7DEB7E6E00C94D929C801F2DEC81734
:10439000D907D0F6F3CF8FEF9FEFF2CF1092B9008D
:1043A0008CE08093B80008950F931F93CF93DF9311
:1043B000EB018093BB0084E88093BC0049DF8C0153
:1043C0008091BC0087FF11C02091B900287F81E057
:1043D00090E0283211F490E080E091958195910968
:1043E000DF91CF911F910F910895CF3FDC0741F3EB
:1043F000C801BFDEC817D90718F78EEF9FEFF0CFBF
:104400000F931F93CF93DF93EC0184EC8093BC0058
:104410001FDF8C018091BC0087FF08C08091BB002A
:1044200090E0DF91CF911F910F910895CF3FDC076E
:1044300089F3C8019EDEC817D90760F78EEF9FEF9A
:10444000F0CF0F931F93CF93DF93EC0184E8809319
:10445000BC00FEDE8C018091BC0087FF08C080910B
:10446000BB0090E0DF91CF911F910F910895CF3F56
:10447000DC0789F3C8017DDEC817D90760F78EEF26
:104480009FEFF0CFB0E0A0E0E7E4F2E26EC7682E65
:10449000762E5A016901DCDE4C01C1E0D0E0043126
:1044A000110550F0C5E0D0E00F3F100729F0C8011A
:1044B00064E170E007D7EB01BE01862D21DF7C01AE
:1044C00097FF1AC00F3F1007B9F3C40152DE081757
:1044D000190790F784E98093BC00C701CDB7DEB718
:1044E000EEE05FC7B80189915FDF7C01CC16DD0685
:1044F00089F3F7FEF7CFEECFB801872D55DF7C01AA
:10450000E501CA0CDB1CF2CFB0E0A0E0E9E8F2E282
:104510002CC7782E662E6A01E9019ADE5C01EE2432
:10452000E394F12C0431110558F025E0E22EF12C32
:104530000F3F100729F0C80164E170E0C3D67B018A
:10454000B701872DDDDE4C0197FF20C00F3F10071C
:10455000B9F3C5010EDE0817190790F784E98093B7
:10456000BC00C4011816190614F490E080E0CDB721
:10457000DEB7EEE016C797FCF1CFC80162DF4C0151
:1045800097FDECCFCC0DDD1D8883E8CFB801862DDB
:104590000BDF4C0197FDE2CF689470F859DE5C01A7
:1045A000EE24E394F12C0431110558F085E0E82E57
:1045B000F12C0F3F100729F0C80164E170E082D6AA
:1045C0007B01B701872D9CDE4C0197FF08C00F3F90
:1045D0001007B9F3C501CDDD0817190790F7F12CC5
:1045E000E12C2197EC16FD0608F0C5CF97FCB6CF5D
:1045F000C80106DF4C0197FD04C0F601EE0DFF1D5A
:1046000080838FEFE81AF80AEDCF9B01BA019091F1
:104610003C039430E1F48F708093E9009FEF809128
:10462000E800915085FD06C085ED8A95F1F7000000
:104630009111F5CF8091E80085FF09C050E040E07E
:10464000C901D6D18091E8008E778093E800089563
:1046500043E050E0BC0182E0D8CF46E050E0BC012E
:1046600082E0D3CF40E250E0BC0182E0CECFCF93D6
:10467000DF93EC0144DD48E050E0BE0181E0C5DF9E
:1046800088E0FE01A2E1B3E001900D928A95E1F786
:10469000DF91CF91089580913B03811107C036D3FC
:1046A0008DD38091E20084608093E200089510929F
:1046B0003B03089507DD81E013CD6091380381E06D
:1046C000611101C080E0F0CC90913C0381E0943016
:1046D00009F080E060913803F3CC42E061EC81E0C6
:1046E00091D242E261EC82E08DD290913C0381E074
:1046F000943009F080E060913803C6CC80913E038D
:10470000833009F45EC030F48130C1F1823009F4A5
:1047100094C008958A3009F483C08B3009F46BC0CB
:10472000893009F04DC080913D03813209F048C0C5
:104730008091410390914203029708F041C080911B
:10474000E800877F8093E8008091E80082FF34C012
:104750009091F3008091F200029731F48091F10082
:10476000813011F0863019F48091F100CBDC80911A
:10477000E8008B778093E80079D222C080913D03D6
:10478000813AF1F48091E800877F8093E80080917E
:10479000410390914203892B59F468E082E193E050
:1047A00070E073D18091E8008B778093E8000895E2
:1047B00060E090E080E0F4CF80913C038111C4CFB1
:1047C000089580913D03813AD9F7809141039091FA
:1047D0004203892BA9F78091E800877F8093E80046
:1047E0008091E80080FFFCCF8ADC8093F10080910B
:1047F000E8008E77BFCF80913D03813209F7809129
:10480000410390914203892BD9F68091E800877F7C
:104810008093E8002BD280913F0362DC0C94160C4D
:1048200080913D03813261F68091E800877F80931B
:10483000E8001CD28091400373CC80913D03813A03
:1048400009F0BECF8091E800877F8093E8008091D7
:10485000E80080FFFCCF6FDCC8CF84B7877F84BFC0
:104860000FB6F894A89580916000886180936000ED
:10487000109260000FBE80E890E00FB6F89480932D
:104880006100909361000FBE29CC40D297D2E2EE36
:10489000F0E08081846080837894FAC486E491E0BB
:1048A00025CA80913C03853029F480913C038530F2
:1048B00011F0C1CC089594DC49DC8823B1F38091D8
:1048C0003A03882391F37ED00E94160CEECF089510
:1048D0009A01409143035091440300C0EF92FF922C
:1048E0000F931F93CF93DF937901292F3327233021
:1048F000310551F198F4C2E1D0E00BE015E0213030
:10490000310589F1CBE3D0E000ED14E02230310530
:1049100051F1D0E0C0E010E000E025C021323105C7
:1049200009F441C022323105A1F7C4E4D0E003ED1F
:1049300015E061157105B9F0C6EBD0E00DE115E0A9
:104940006130710581F0E5CF992781309105D9F06B
:10495000009789F00297F9F0D0E0C0E010E000E0A5
:10496000CA010E943D1BF70111830083CE01CDB720
:10497000DEB7E6E01EC5ECECF4E0E491CE2FD0E02B
:104980000CEC14E0EDCFE8EBF4E0E491CE2FD0E0B6
:1049900008EB14E0E5CFE4EAF4E0E491CE2FD0E0B8
:1049A00004EA14E0DDCFC9E0D0E002EE14E06115C6
:1049B0007105C9F2C9E0D0E00BEF14E06130710578
:1049C00091F2A7CF80E189BD82E189BD09B400FEE3
:1049D000FDCF8091D8008F7D8093D8008091E0003A
:1049E00082608093E0008091E00081FDFCCF08951B
:1049F000AF92BF92CF92DF92FF920F931F93CF930C
:104A0000DF936C01EB018A0150D1F82E811123C094
:104A10000115110539F0F80180819181C81BD90B6E
:104A2000C80ED91EB12CA12C2097A9F08091E800C6
:104A300085FD21C08091E8008E778093E800011504
:104A40001105A1F0F80180819181A80EB91EB182F3
:104A5000A08285E0F82E8F2DDF91CF911F910F91CD
:104A6000FF90DF90CF90BF90AF9008951ED1882324
:104A7000D9F2F82EF0CFF60181916F018093F10009
:104A80002197FFEFAF1ABF0ACFCFFC0180914303FC
:104A90009091440386179707A0F06115710529F4DA
:104AA0009091E8009E779093E80090E06115710581
:104AB00051F4911108C08091E80082FF34C080E079
:104AC0000895BC01F2CF80913C038823C1F1853069
:104AD000C1F18091E80083FD30C08091E80082FD43
:104AE000EACF8091E80080FFE1CF8091F300209130
:104AF000F200382F6115710519F02830310558F092
:104B000091E02830310509F090E02091E8002E77FF
:104B10002093E800CBCF81918093F100615071091F
:104B20002F5F3F4FE7CF80913C03882341F08530D2
:104B300041F08091E80083FFBECF81E0089582E0DC
:104B4000089583E00895FC0180914303909144030C
:104B500086179707A0F06115710529F48091E80088
:104B60008E778093E80090E06115710551F4911102
:104B700008C08091E80082FF35C080E00895BC0144
:104B8000F2CF80913C038823C9F18530C9F180912F
:104B9000E80083FD31C08091E80082FDEACF80917A
:104BA000E80080FFE1CF8091F3002091F200382FE0
:104BB0006115710519F02830310558F091E0283061
:104BC000310509F090E08091E8008E778093E8004D
:104BD000CBCF84918093F1003196615071092F5FA2
:104BE0003F4FE6CF80913C03882341F0853041F070
:104BF0008091E80083FFBDCF81E0089582E00895B1
:104C000083E00895982F973028F08F708093E90003
:104C100081E008959093E900242F762F50E09817B3
:104C200031F07091EC002091ED005091F00021FDE9
:104C300002C09F5FE8CF3091EB003E7F3093EB00E6
:104C40003091ED003D7F3093ED003091EB0031600D
:104C50003093EB007093EC002093ED005093F00044
:104C60002091EE0027FDE5CF80E0089580913D037F
:104C700087FF13C08091E80082FF06C08091E800A2
:104C80008B778093E80004C080913C038111F2CFC0
:104C9000089580913C038823D9F38091E80080FF38
:104CA000F8CF8091E8008E77ECCF2091E40030912E
:104CB000E50095E6A9012091EC00822F817020FF8C
:104CC00006C08091E80080FF06C080E00895209132
:104CD000E80022FD1AC080913C03882389F08530CA
:104CE00089F08091EB0085FD0FC02091E4003091A8
:104CF000E50042175307F9F29150E1F684E0089578
:104D000082E0089583E0089581E0089567D06ED031
:104D1000E0EEF0E0808181608083E8EDF0E080816A
:104D20008F77808319BCA7EDB0E08C918E7F8C9338
:104D300080818F7E808310923B0308950F931F9391
:104D4000CF93DF934BD052D0C8EDD0E088818F77DE
:104D5000888388818068888388818F7D888319BC57
:104D600010923C031092380310923A0310923903C8
:104D700000EE10E0F80180818B7F80838881816064
:104D8000888342E060E080E03DDFE1EEF0E080819A
:104D90008E7F8083E2EEF0E080818160808380817D
:104DA00088608083F80180818E7F80838881806124
:104DB0008883DF91CF911F910F910895E8EDF0E086
:104DC00080818F7E8083E7EDF0E080818160808349
:104DD00084E082BF81E080933B03B0CFE8EDF0E058
:104DE00080818E7F80831092E20008951092DA0015
:104DF0001092E10008951F920F920FB60F921124A6
:104E00002F933F934F935F936F937F938F939F93D2
:104E1000AF93BF93EF93FF938091E10082FF0AC0AD
:104E20008091E20082FF06C08091E1008B7F809339
:104E3000E1002DD28091DA0080FF18C08091D80067
:104E400080FF14C08091DA008E7F8093DA00809119
:104E5000D90080FF91C080E189BD82E189BD09B49C
:104E600000FEFDCF81E080933C0315DC8091E100E2
:104E700080FF18C08091E20080FF14C08091E200A2
:104E80008E7F8093E2008091E20080618093E20057
:104E90008091D80080628093D80019BC85E080930F
:104EA0003C030BDC8091E10084FF2AC08091E2008A
:104EB00084FF26C080E189BD82E189BD89B5982F34
:104EC000917080FFFBCF8091D8008F7D8093D800B8
:104ED0008091E1008F7E8093E1008091E2008F7EDF
:104EE0008093E2008091E20081608093E2008091F3
:104EF0003803882309F445C084E080933C03E4DB55
:104F00008091E10083FF27C08091E20083FF23C0EE
:104F10008091E100877F8093E10082E080933C03F1
:104F2000109238038091E1008E7F8093E1008091A0
:104F3000E2008E7F8093E2008091E20080618093A6
:104F4000E20042E060E080E05DDE8091F000886099
:104F50008093F000AFDBFF91EF91BF91AF919F91F4
:104F60008F917F916F915F914F913F912F910F9012
:104F70000FBE0F901F90189519BC10923C0397DB41
:104F800075CF8091E30087FD93E090933C03B7CF0A
:104F90001F920F920FB60F9211242F933F934F93AE
:104FA0005F936F937F938F939F93AF93BF93CF93B1
:104FB000DF93EF93FF93D091E900DF708091EC00D5
:104FC000C82FC17080FDC0E81092E9008091F00008
:104FD000877F8093F00078941ED01092E900809132
:104FE000F00088608093F000CD2BCF70C093E90073
:104FF000FF91EF91DF91CF91BF91AF919F918F91F1
:105000007F916F915F914F913F912F910F900FBEC4
:105010000F901F901895AAE2B0E0E0E1F8E2B0C16D
:105020008DE393E02091F100FC012193CF01F3E0A7
:1050300085349F07B9F762DB8091E80083FF16C1D2
:1050400080913D0390913E039A3008F00FC1E92F03
:10505000F0E0E059F54D7FC1803899F0823809F0D1
:1050600005C1809141038F70873008F0FFC08093A5
:10507000E9008091EB0085FB882780F91092E90018
:1050800006C08091390390913A039111826090910A
:10509000E800977F9093E8008093F1001092F10070
:1050A0008091E8008E77DFC0882309F4CDC082307C
:1050B00009F0DCC080913F038111D0C08091410391
:1050C0008F702FEF280F263008F0D0C08093E900B2
:1050D0002091EB0020FFC2C0933031F48091EB00AF
:1050E00080628093EB00BAC09091EB009061909346
:1050F000EB0021E030E001C0220F8A95EAF720930F
:10510000EA001092EA008091EB008860EACF8111FA
:10511000ADC010913F031F778091E3008078812B11
:105120008093E3008091E800877F8093E8009EDD14
:105130008091E80080FFFCCF8091E300806880933D
:10514000E30082E0111183E080933C038FC080581C
:10515000823008F08BC080913F03909140038C3DDA
:1051600023E0920799F583E08A838AE289834FB727
:10517000F894DE01139620E03EE051E2E32FF0E0E8
:1051800050935700E49120FF03C0E295EF703F5F1A
:10519000EF708E2F90E0EA30B8F0C7968D939D9314
:1051A0002F5F243159F74FBF8091E800877F8093AC
:1051B000E8006AE270E0CE01019667DC8091E800C9
:1051C0008B778093E80052C0C096E8CF609141038E
:1051D00070914203AE014F5F5F4F7ADBBC01892BB8
:1051E00009F444C09091E800977F9093E80089818A
:1051F0009A81A9DCE3CF8038C9F58091E800877FE8
:105200008093E800809138038093F10049CF8111A9
:105210002DC090913F03923048F58091E800877F40
:105220008093E8009093380321DD80913803882330
:1052300011F084E005C08091E30087FDFACF81E0A2
:1052400080933C034ADA12C080913F03813071F4AD
:1052500081E0933009F080E080933A031092E900F6
:105260008091E800877F8093E80000DD8091E8006E
:1052700083FF0AC08091E800877F8093E8008091D7
:10528000EB0080628093EB00AA96E3E095C008955E
:10529000CF9380913C03882399F0C091E900CF70AF
:1052A0009091EC00892F817090FD80E8C82B1092BE
:1052B000E9008091E80083FDAEDECF70C093E90085
:1052C000CF910895AA1BBB1B51E107C0AA1FBB1FAA
:1052D000A617B70710F0A61BB70B881F991F5A9582
:1052E000A9F780959095BC01CD01089597FB072EF5
:1052F00016F4009406D077FD08D0E4DF07FC05D053
:105300003EF4909581959F4F0895709561957F4FDC
:105310000895A1E21A2EAA1BBB1BFD010DC0AA1FF6
:10532000BB1FEE1FFF1FA217B307E407F50720F00E
:10533000A21BB30BE40BF50B661F771F881F991F89
:105340001A9469F760957095809590959B01AC01D2
:10535000BD01CF010895EE0FFF1F0590F491E02DE0
:1053600009942F923F924F925F926F927F928F9209
:105370009F92AF92BF92CF92DF92EF92FF920F93E4
:105380001F93CF93DF93CDB7DEB7CA1BDB0B0FB6EE
:10539000F894DEBF0FBECDBF09942A8839884888AB
:1053A0005F846E847D848C849B84AA84B984C88441
:1053B000DF80EE80FD800C811B81AA81B981CE0F38
:1053C000D11D0FB6F894DEBF0FBECDBFED0108951D
:1053D000FB01DC0104C08D910190801921F4415042
:1053E0005040C8F7881B990B0895FB01DC0102C0EF
:1053F00001900D9241505040D8F70895F999FECF91
:1054000092BD81BDF89A992780B50895A8E1B0E0D2
:1054100042E050E020C0262FF999FECF92BD81BD19
:10542000F89A019700B4021639F01FBA20BD0FB6E2
:10543000F894FA9AF99A0FBE08950396272FECDF95
:10544000EADF252FE9DF242FE7CF0196272FE4DFBE
:10545000E2CFDC01CB01FC01F999FECF06C0F2BD21
:10546000E1BDF89A319600B40D9241505040B8F722
:105470000895F894FFCF400A400A760A760ACF0AC8
:10548000EB0A680A680AEF0A580B640B640B1D18D4
:105490008D182518EF17F3172918F7172D18391835
:1054A0000318861807183D180B18411869180F18AB
:1054B0004518701815184B185318FB173118FF179B
:1054C000351819184F185F1879188418E91721181A
:1054D0009418671D6D1D571D611D731D791D7F1D5E
:1054E0002C2854283629542836298728A7283629D5
:0454F000FB28072965
:1054F4000000000000000000C1054C050000000091
:105504000000000000000000DE055B050000000054
:105514000000000000000000FB056A050000000018
:10552400FF007402940201AF00280850011E0A14FF
:105534000101000001008D20372332232D2328236D
:10554400E200E900EA00B500B600B700CD0083012F
:10555400CC008A0192019401210223022402250233
:10556400260227022A02B300B4006F0070009F01D4
:10557400CB019F02A002818283E200E900EA00B528
:1055840000B600B700CD008301CC008A01920194DB
:10559400012102230224022502260227022A02B341
:1055A40000B4006F0070009F01CB019F02A0028134
:0255B4008283F0
:00000001FF
