:100000000BC3000026C3000024C3000022C300006D
:1000100020C300001EC300001CC300001AC3000060
:1000200018C3000016C300000C940E280C94DB28A3
:100030000C94DC210EC300000CC300000AC30000B6
:1000400008C3000006C3000004C3000002C3000090
:1000500000C300000C945322FCC20000FAC200004E
:10006000F8C20000F6C20000F4C20000F2C20000B4
:10007000F0C20000EEC20000ECC20000EAC20000C4
:10008000E8C20000E6C20000E4C20000E2C20000D4
:10009000E0C20000DEC20000DCC20000DAC20000E4
:1000A000D8C20000D6C20000D4C2000002571E0011
:1000B0001F002000210022003500650023002400DD
:1000C0002500260027000357045714001A000800D3
:1000D000150017002F0030001C0018000C00120043
:1000E000130031002B0004001600070009000A006D
:1000F000000000000B000D000E000F003300340064
:10010000E1001D001B000600190005000057015703
:1001100011001000360037003800E500E000E30071
:10012000E2002D002E000000000000000000500042
:10013000510052004F00E400000028422A382C31C0
:100140004C00490046004A004D00C25228412A0096
:100150002942000001003A003B003C003D003E0007
:10016000440045003F0040004100420043000100C0
:100170000100D900D100CD00D200D900010001005A
:100180004B004A0052004D004B0001000100DA0014
:10019000CF00CE00D000DA00000000004E0050007A
:1001A00051004F004E00010001006352D100D30006
:1001B000D20000000100010000000000000000006B
:1001C0000000010001000100010001000100000029
:1001D000000000000000010001000100010001001A
:1001E0000000010001000100010001000100B50054
:1001F000B90001000100010001000000007C3A008C
:100200003B003C003D003E00440045000000530020
:1002100054005500560001000100D900D100CD0066
:10022000D200D900010001004B0024002500260067
:10023000570001000100DA00CF00CE00D000DA0044
:10024000000000004E0021002200230057000100A2
:1002500001006352D100D300D20000000100010070
:1002600000001E001F0020005800010001000100D6
:10027000010001000100000000000000000000007B
:1002800027003700580001000000010001000100B4
:100290000100B300B20001000100010001000100F3
:1002A000010000000000000000000000000000004D
:1002B000000000000000000000000000000000003E
:1002C000000000000000000000000000000000002E
:1002D000000000000000000000000000000000001E
:1002E000000000000000000000000000000000000E
:1002F00000000000000000000000000000000000FE
:1003000000000000000000000000000000000000ED
:1003100000000000000000000000000000000000DD
:1003200000000000000000000000000000000000CD
:1003300000002452245200000000000000000000D1
:1003400000000000000000000000000000000000AD
:10035000000000000000000000000000000000009D
:10036000000000000000000000000000000000008D
:10037000000000000000000000000000000000007D
:10038000000000000000000000000000000000006D
:10039000000000000000000000000000000000005D
:1003A0000000635200000000000000000000000098
:1003B000000000000000000000000000000000003D
:1003C000000000000000000000000000000000002D
:1003D000000000000000000000000000000000001D
:1003E000000000000000000000000000000000000D
:1003F0000000000000000000000000002A2B280080
:1004000000000000000000000000000000000029C3
:10041000000000002C1E3420212224342627252E03
:10042000362D3738271E1F2021222324252633333B
:10043000362E37381F0405060708090A0B0C0D0E67
:100440000F101112131415161718191A1B1C1D2F33
:100450003130232D350405060708090A0B0C0D0E53
:100460000F101112131415161718191A1B1C1D2F13
:100470003130354C0000000000000000000000009A
:10048000000000000000000000000000000000006C
:1004900000000000000000007E0F00D4FFFFFFC737
:1004A0000000007812034500720067006F006400CE
:1004B0006F006E006500000012034B002E00540018
:1004C0002E0045002E0043002E0000000403090406
:1004D00009023B00020100A0FA0904000001030127
:1004E00001000921110100012244000705810308D0
:1004F00000010904010001030000000921110100AD
:100500000122B6000705820320000112010002004B
:100510000000080912282301000102000105010959
:1005200002A10185020901A1000509190129081587
:100530000025019508750181020501093009311571
:1005400081257F95027508810609381581257F95DB
:100550000175088106050C0A38021581257F950171
:1005600075088106C0C005010980A1018503190134
:100570002AB700150126B700950175108100C00546
:100580000C0901A101850419012AA002150126A068
:1005900002950175108100C005010906A1018506BB
:1005A000050719E029E71500250195087501810265
:1005B0000507190029EF1500250195F07501810245
:1005C0000508190129059505750191029501750325
:1005D0009101C005010906A101050719E029E715E8
:1005E00000250195087501810295017508810105B5
:1005F00007190029FF150026FF00950675088100E0
:1006000005081901290515002501950575019102B7
:10061000950175039101C00011241FBECFEFDAE0F0
:10062000DEBFCDBF11E0A0E0B1E0EAE1F7E502C036
:1006300005900D92A23EB107D9F723E0A2EEB1E0FA
:1006400001C01D92A836B207E1F70E94AA150C94CA
:100650004C2BD6CC8091E40181110EC00E94E12286
:100660002FEF83ED90E3215080409040E1F700C0F0
:10067000000081E08093E4010895A1E0B0E0E3E4AC
:10068000F3E00C94D02A4983F82EFF0C81E09DE022
:10069000E92E611103C080E02CE0E22E04E610E0B8
:1006A00021E030E0AE014F5F5F4F682F8F2D0E9439
:1006B0005523892B61F421E030E0AE014F5F5F4F9D
:1006C0006E2D8F2D0E94552321E0892B09F020E00B
:1006D000822F2196E6E00C94EC2A0F931F93880F4B
:1006E00061110FC062E104E610E021E030E00E94F9
:1006F000972321E0892B09F020E0822F1F910F9191
:10070000089563E1F0CF8091E70181110BC04FEFB5
:1007100061E080E2B2DF91E089279091E701980FD4
:100720009093E7010895CF934FEF60E080E2A5DF5B
:10073000C1E08C279091E701980F9093E7014FEF6C
:1007400061E080E29ADF8C27C091E701C80FC09377
:10075000E701CF91089580E27DDF219829982298C2
:100760002A9884988C9885988D9886988E988798E2
:100770008F9829982A988C988D988E988F98C3DF97
:100780006E98769A52985A9A53985B9A54985C9AB3
:1007900057985F9A3E98469A24982C9AC4CFA1E025
:1007A000B0E0E5EDF3E00C94C42A8C018091E70100
:1007B000882371F08091E5019091E6010196811501
:1007C00020E2920708F0A4C09093E6018093E5012F
:1007D0004801512C412C00E0142DF401219031905E
:1007E0004F01129212925F01133009F4A8C008F071
:1007F00098C0113009F49DC0123009F49DC0849A4C
:100800008C988091E70192012F5F3F4F2901882347
:1008100009F49BC08FE891E00197F1F700C0000058
:100820008091E701712C612C81111DC09FEF99838C
:10083000AE014F5F5F4F60E080E24FDF91E08927BC
:100840009091E701980F9093E70189818095DDD41D
:10085000982F96959C778370892B782E7594682EA7
:100860006794662467944B9982C080E4C82ED12C8B
:100870004A9980C0A0E2B0E04C997FC0E0E1F0E08E
:1008800036997EC068E070E04F997DC044E050E04A
:1008900066997CC022E030E083B182958F7091E050
:1008A000892780FBEE24E0F8F12CC70186299729DF
:1008B0008C299D298A2B9B2B8E2B9F2B682B792B88
:1008C000462B572B242B352BF501318320831330F6
:1008D00009F470C008F05DC0113009F463C0123033
:1008E00009F464C084988C988C9881E0F50120818B
:1008F00031812215330509F480E0082BF6E04F160C
:10090000510409F069CF802F2196E2E10C94E02A8E
:100910001092E6011092E5011092E701F4DE03DF88
:1009200057CF143079F0153009F069CF229A2A9800
:1009300068CF859A8D9865CF869A8E9862CF879A70
:100940008F985FCF219A29985CCF41E050E001C099
:10095000440F2A95EAF7409561E080E28EDE91E04F
:1009600089279091E701980F9093E70159CFD12CF7
:10097000C12C7ECFB0E0A0E07FCFF0E0E0E080CF00
:1009800070E060E081CF50E040E082CF30E020E0D6
:1009900083CF143099F0153009F0A4CF22982A980B
:1009A0002A98A3CF85988D988D989FCF86988E98FA
:1009B0008E989BCF87988F988F9897CF219829985A
:1009C000299893CF259A2D980895269A2E980895C0
:1009D000239A2B980895559A5D9A0895F3DFF5DFD1
:1009E000F7DFF9DF559A5D982FEF80E792E021500D
:1009F00080409040E1F700C00000259A2D9A2FEF2B
:100A000080E792E0215080409040E1F700C0000074
:100A1000269A2E9A2FEF80E792E021508040904056
:100A2000E1F700C00000239A2B9A2FEF80E792E0B5
:100A3000215080409040E1F700C00000C3DF2FEF5D
:100A400080E792E0215080409040E1F700C0000034
:100A5000BCDF2FEF80E792E0215080409040E1F72B
:100A600000C00000B5DF2FEF80E792E0215080400A
:100A70009040E1F700C00000AEDFA4DFA6DFA8DFF2
:100A8000AADF0C941412259A2D9A0895269A2E9A6C
:100A90000895239A2B9A0895FC01858182FD05C053
:100AA00081FD03C086E292E0BCC10895FC0185810E
:100AB00082FF04C086E292E0B4C1089580FFFDCFBA
:100AC00086E392E0F9CFFC01858182FD05C081FDBE
:100AD00003C087E292E0A5C10895FC01858182FFF1
:100AE00004C087E292E09DC1089580FFFDCF87E3B7
:100AF00092E0F9CF8091EA01813019F486EA90E022
:100B000064C108950895609124027091250290E0D7
:100B100080E02ED32091E8013091E9012F5F3F4F13
:100B20003093E9012093E801559A5D9A259A2D9812
:100B3000269A2E98239A2B98823091F0833091F048
:100B4000813009F4A0DF0E94A41F81FDA2DF0E9472
:100B50007F18882321F08091E80187FD0BC008955C
:100B600095DFF1CF8091E8019091E90191FFF7CFF6
:100B70008ADF8CDF8EDFF3CFFC019281913041F46C
:100B80008581282F217082FF08C030E020E006C058
:100B900022E030E0923011F0292F30E0C9010895B1
:100BA000CF93DF93EC01E8DF8093EA01813059F0C5
:100BB000882329F08230A9F0DF91CF91089589E24E
:100BC00090E02FD1F9CF0E94AF1C833039F484E13B
:100BD00091E027D1CE010E94841FEECF8DE394E0F7
:100BE000F8CF8AE191E0EDCFC7DF8093EA01813051
:100BF00081F0882321F0823079F483E0D0D60E94FE
:100C0000AF1C833019F484E199E10BC18FE098E1C6
:100C1000FCCF86EA90E0C5C00895AEDF8093EA017C
:100C2000882319F0823091F008950E94A41F81FF5B
:100C300005C089E390E0F5D00C948F1880E890E02F
:100C40009093E9018093E8010C94AC180E947F18FE
:100C500081110E948F1889E390E0E3C08A329105E8
:100C600049F050F48430910568F08E319105A0F080
:100C7000889740F481E008958C349105D9F320F4ED
:100C80008D9751F080E008958D3222E0920791F324
:100C900084309745B9F7EECF82E00E949E10EACFEC
:100CA000823031F0833081F0813019F4EFDE01C001
:100CB000EADE2FEF85EA9EE0215080409040E1F788
:100CC00000C0000081E00895E4DEF3CF8530B8F481
:100CD0006630A8F44E3098F450E09EE0699F400DD5
:100CE000511D1124FA0194E5899FE00DF11D112495
:100CF000EE0FFF1FE455FF4F85919491089581E019
:100D000090E00895E3CF089585E090E00895853060
:100D1000910540F424E0880F991F2A95E1F780504F
:100D20009F4F089590E080E00895F1CF08959C01D1
:100D30003A9521153F4150F5FC01EE27F170BC01B9
:100D400066277270AC01442754709C0122273870CA
:100D500094FF0EC080E1EF2B09F480E0672B09F0CF
:100D60008062452B09F08064232B89F08068089508
:100D700081E0EF2B09F480E0672B09F08260452BBE
:100D800009F08460232B19F08860089580E00895AD
:100D9000CF93DF93EB01CBDFFE010995DF91CF917C
:100DA0000895CF93DF93EC01805E9109089720F0BE
:100DB0006BE37CE0209711F46FE27AE0CE01E8DF8C
:100DC0008C2FBED2DF91CF910895CF93DF93EC01AA
:100DD000FCD2CE01805E9109089720F060E47CE0AF
:100DE000209711F464E37AE0CE01D2DFDF91CF9156
:100DF00008950F931F93CF93DF938C01EB01D1DF05
:100E0000209739F4C801E1DFDF91CF911F910F9155
:100E100008958FE99FE00197F1F700C00000219746
:100E2000EFCF6AE070E08933910511F460E570E07E
:100E3000E0CF81E00895FDCF0895FBCF089581E0D4
:100E40000895F7CF0895F5CF0895FDCF089508953B
:100E50000895FDCF089508950895A6E0B0E0E3E376
:100E6000F7E00C94D32A49835A839E833091F7018B
:100E700089819A81311117C03E81332389F0222361
:100E800079F044D6182F682F89819A811ED66981FE
:100E90007A81812F0E94D0132696E3E00C94EF2AEA
:100EA00025D6182FF4CF32D669817A81F3CFFC0191
:100EB000262F408151816281738184819581CDCFBC
:100EC000CF93DF93EC0161E0F2DFBE01B4DF882352
:100ED00049F061E0CE01EBDFBE01AFDF8170DF9151
:100EE000CF91089580E0FACF0F931F93CF93DF93B4
:100EF000EC0160E0DCDF8C01BE01AADFBE01C801AD
:100F0000A8DFDF91CF911F910F91089521E030E08C
:100F1000A90102C0440F551F8A95E2F7CA010EC508
:100F2000CF93C82F81E090E00C2E02C0880F991F4C
:100F30000A94E2F70E94CE118C2FE8DFCF9108953A
:100F400081E00895FDCF0895FBCF0895CF93C82F7A
:100F5000ADD48C2FF7DF8C2FF7DF2FEF84E39CE0ED
:100F6000215080409040E1F700C00000CF910895EB
:100F700081E0ECDF0C94772280E0E8DF0C9488229B
:100F80000F931F93CF93DF938C0161E090DFEC010F
:100F9000B8010E94E11E882321F061E0C80187DFCB
:100FA000EC01B801CE014DDF811106C080E0DF9178
:100FB000CF911F910F910895B801CE0146DF88238C
:100FC000A9F3B801CE010E94EE17882379F3B80186
:100FD000CE010E94051F882349F3B801CE010E946B
:100FE0000A17882319F3B801CE010E945E1E8823D8
:100FF000E9F2B801CE010E94DB188823B9F2B801EA
:10100000CE010E94B218882389F2B801CE010E9455
:10101000D014882359F2F8018581882361F0C33008
:10102000FCE7DF07D9F050F4C115ECE7DE07A1F0CB
:10103000C130DC47A9F0C80102DFB9CFCB358CE75E
:10104000D80799F0CC35ECE7DE0761F0CA35DC470C
:1010500091F70E949711EFCF8BDFA8CF0E94C611A6
:101060008BDFA4CF0E948F11E6CF0E949911E3CFAE
:10107000F2DE0E94B32109C10AD1EEDE0C94B72141
:101080002F923F924F925F926F927F928F929F9298
:10109000AF92BF92CF92DF92EF92FF920F93CF93D6
:1010A000DF931C0129013A016B0181E0C81AD108C4
:1010B000E101CC0DDD1D1882F12CE12C8AE0882E97
:1010C000912CA12CB12CEC14FD0498F0C101DF91FE
:1010D000CF910F91FF90EF90DF90CF90BF90AF90A6
:1010E0009F908F907F906F905F904F903F902F9048
:1010F0000895C301B201A50194010E949C2A605D7C
:10110000603319F4E114F10431F041145104610425
:10111000710409F4602F6A93C301B201A50194011F
:101120000E949C2A29013A018FEFE81AF80ACBCFD6
:101130000F9320915001309151012817390721F464
:101140002091F101261789F090935101809350016D
:101150006093F1019C0150E040E0062F66E070E0F2
:101160008BEE91E08DDF0F9108958BEE91E0FBCF38
:10117000CF92DF92EF92FF926C01EE24FF2420E0E9
:10118000C114D104E104F10419F0C701B60120E152
:10119000C72ED82EE92EFF24C114D104E104F10496
:1011A00019F0285FC701B6016B017C0154E0F69489
:1011B000E794D794C7945A95D1F7C114D104E104A8
:1011C000F10419F02C5FC701B6016B017C0142E00C
:1011D000F694E794D794C7944A95D1F7C114D104F3
:1011E000E104F10419F02E5FC701B60196958795C9
:1011F00077956795672B682B692B09F02F5F822FF6
:10120000FF90EF90DF90CF900895829590E09C0141
:10121000220F331F220F331F2C7C959587959595B0
:1012200087958373282B30E0C901880F991F8A7A2C
:10123000359527952575822B089581E0089580FFC7
:1012400008C02D9A81FF07C02E9A82FF06C02B9AF4
:1012500008952D98F7CF2E98F8CF2B980895CF9317
:10126000DF93D82FEADFC82F882311F08D2FE7DF17
:101270008C2FDF91CF910895259A2D98269A2E983C
:10128000239A2B980895EBCF089580E0FCCF0E941D
:10129000951FF9CFCF930E94951FC82F8091F2011F
:1012A0008C1771F0C093F2010E9447226093F30102
:1012B0007093F4018093F5019093F6018C2FE3DF96
:1012C000CF910895ADE0B0E0E8E6F9E00C94D42ABF
:1012D000488759876A877B878C879D8791113BD781
:1012E0001F8286E0FE013896DE01119601900D9274
:1012F0008A95E1F78D8181110CC029813A814B815A
:101300005C816D817E818F8173D62D96E2E00C9495
:10131000F02ACE010196D4DD8111EFCFF6CFFC018A
:101320002481213019F48081918121C4089566239C
:1013300021F00E94351A0C94001B0E94871AFBCFE3
:10134000CF93C82F882389F08CEF8C0F813A78F4E3
:101350008C2F0E944620882321F08C2F0E94E820A9
:1013600094D78C2F0E94D12090D7CF91089580E2FE
:101370008C0F883040F4C77081E001C0880FCA9597
:10138000EAF7C9D6F1CFEBE5EC0FE33040F4F0E03B
:10139000EA55FE4F808190E00E94D71FE6CFE8E536
:1013A000EC0FEB3150F4F0E0EE0FFF1FE059FE4F71
:1013B000808191810E94FE1FD8CF83E38C0F8331FF
:1013C000A0F661E08C2FB3DFD0CF882351F19CEFE2
:1013D000980F913A18F40E94E82057C790E2980FAE
:1013E000983048F4877091E001C0990F8A95EAF728
:1013F000892F97D6F2CF9BE5980F933020F490E099
:1014000080E00C94D71F98E5980F9B3120F490E072
:1014100080E00C94FE1F93E3980F933110F460E08A
:1014200086CF08951F93CF93DF93182FEB0188DFAA
:10143000209731F4812FC9DFDF91CF911F9108955B
:101440008FE99FE00197F1F700C000002197F0CFEE
:101450006AE070E0893311F460E570E0E3CF88233F
:1014600011F059D612C70895882311F05AD60DC726
:101470000895B0E0A0E0EFE3FAE00C94CD2A6C010F
:10148000D62FC72FFC011581068102950F7039D622
:10149000E82E8823E9F0E12E1123D1F08C2F807FF4
:1014A000803461F080E28D0F8830F8F08C2F807EE0
:1014B000803221F4D230C8F00023B9F080913E038D
:1014C00082FF13C082E005D71CD691E0E82EE92602
:1014D000BC2EB2949FE0B922FBE0FB1580F1EB2D0E
:1014E000F0E0E25BF44D0C94BE2AE12CF1CF0C2F1E
:1014F0000F70C07F11F00295007F112381F000234F
:1015000049F080E28D0F883010F0D11105C0802F96
:1015100002D6BBD68D2F40C0802F10D6FACF8D2F8C
:1015200054DF002361F080E28D0F883010F0D1117C
:1015300003C0802FF6D502C0802F06D6A6D6EB2D8D
:10154000E850FF0B349708F055C10E94951F9BDEB1
:10155000CDB7DEB7E9E00C94E92A2C2F2F70F22EDC
:10156000C07FC03219F0F29480EFF822DD2341F001
:10157000D13081F1112309F439C00023C9F0CACF59
:1015800080913E0382FD10C0112341F0FF2019F02D
:101590008F2DC1D57AD680E0D3DED1CF80E015DFA4
:1015A000FF2069F28F2DC6CF112359F0011103C01E
:1015B0008F2D55DFC4CF013009F0C1CF8F2DE2D57B
:1015C000BECF0111BCCF8F2D4FDF8F2DE6D58F2DD4
:1015D000CBD5B5CF112321F0063008F0B0CFE8CF3E
:1015E000053008F0ACCF8F2D3FDFA9CF0023D9F312
:1015F000D93361F43FEF87EE93E031508040904063
:10160000E1F700C000008D2FE0DE99CFEFE3FCE9A9
:101610003197F1F7F6CF8C2F86958695837069F018
:10162000813009F08CCF8D2F9C2F9370111102C047
:1016300080E090E00E94FE1F82CF8D2F9C2F937040
:10164000111102C080E090E00E94D71F78CF612F77
:101650008D2F6DDE74CF8C2F837081F511116FCFBC
:101660004D2F429546954770440F440F2D2F2F70F4
:1016700030E0042E02C0220F331F0A94E2F790E0FC
:1016800080E0D4FF09C08FE090E002C0880F991F6E
:101690004A95E2F780959095C695C695C370822BC2
:1016A000932BC23039F040F4C13011F050D147CF04
:1016B00047D145CF53D143CF41D141CF8695112357
:1016C00011F08C2F8170882309F439CF4D2F42956A
:1016D00046954770440F440F2D2F2F7030E0042E95
:1016E00002C0220F331F0A94E2F790E080E0D4FF9B
:1016F00009C08FE090E002C0880F991F4A95E2F779
:1017000080959095C695C695C370822B932BC23059
:1017100039F040F4C13011F075D111CF6CD10FCF39
:1017200078D10DCF28D10BCFCF70112321F08C2F82
:1017300036D18D2F3ECF8D2F97DE8C2F3ED1FFCE11
:10174000D23F39F160F4D03FB9F0D13F81F011239D
:1017500009F43CC00111DECE8C2F8F711EC0D33F27
:10176000F1F0D43FA1F780913E0382FD20C08C2F81
:101770008F71112319F311C0112339F0053008F0CE
:10178000DECE8C2F8F7129D1DACE063008F0D7CE7D
:10179000F8CF8C2F8F711111D1CF01D1D0CE112361
:1017A00021F08C2F8F71F1D0CACEECD0C8CE11238E
:1017B00029F063E08C2F8F7175D5C1CE81E089D57A
:1017C000023008F4BCCE82E084D5B9CE002379F093
:1017D000D93341F4FFEF27EE33E0F15020403040A1
:1017E000E1F70FCF8FE39CE90197F1F70ACF8C2F38
:1017F0008F71A4CFEE2009F4ABCE7FD480FDA8CEAC
:10180000F601158274D4CBD0C60117D070D4D5D0D0
:101810009FCE0F931F93CF93DF93EC016881798163
:101820008D81AED18C01FCD088D0B801CE0121DEF3
:10183000DF91CF911F910F910895CF93DF93EC012A
:101840008C81882381F0CE019BDB81110FC059D49C
:10185000882349F08D81882331F080913E0382FFF7
:1018600002C082E036D5DF91CF910895CE01D1DF5D
:10187000CE013ADBF8CF882311F060D406C5089575
:10188000882311F061D401C5089590E080E00E94A2
:10189000D71F90E080E00E94FE1F5DD4F6D40E9426
:1018A000191B0C94001B0E94FF20EFCF41D4FBCFEB
:1018B00092959F70963091F058F4925F9F7092309D
:1018C00058F4803F19F030F4883E30F481E00895F8
:1018D0009A5FF4CF843FD1F380E00895883EB0F35F
:1018E000813FD1F7F3CFFC012481222321F08081B5
:1018F00091813DD1DDCF80E00895A6E0B0E0E3E83E
:10190000FCE00C94D42A2696E2E00C94F02AA7E09E
:10191000B0E0EDE8FCE00C94D42A2796E2E00C94C9
:10192000F02A0895FECF0895FDCF0895FADFFCDF79
:10193000909327028093260208950895F7CF089583
:101940002091260230912702822B932BEFCF2091FA
:1019500026023091270282239323E8CF209126028A
:101960003091270282279327E1CFDBCF0895FDCF67
:101970000895D7CF0895FDDFFADF90932502809375
:101980002402089590E080E0F6CF21E030E0A90144
:1019900002C0440F551F8A95E2F7CA01ECCF21E03F
:1019A00030E002C0220F331F8A95E2F780912402B3
:1019B00090912502822B932BDECF21E030E002C0F4
:1019C000220F331F8A95E2F72095309580912402EB
:1019D0009091250282239323CECF21E030E002C0F4
:1019E000220F331F8A95E2F78091240290912502FD
:1019F00082279327C0CF2091240230912502822B89
:101A0000932BB9CF20912402309125028223932376
:101A1000B2CF209124023091250282279327ABCFA9
:101A20000895262F277091E001C0990F2A95EAF7B3
:101A300023E0769567952A95E1F7660F771F660F85
:101A4000771FFA01E60FF71F50E040E0682F70E0C3
:101A50008191DF0111979B01042E02C036952795D5
:101A60000A94E2F7217021952827292328272C930F
:101A70004F5F5F4F4430510559F70895A82FA77065
:101A800023E0969587952A95E1F7880F991F880F8F
:101A9000991FFB01E80FF91F50E040E080E0219121
:101AA00030E00A2E02C0369527950A94E2F721709D
:101AB0003327042E01C0220F0A94EAF7822B4F5FCE
:101AC0005F4F4430510559F70895262F963068F43A
:101AD0008E3058F4682F70E08EE0989F600D711D75
:101AE000112448EF51E0822F9CCF0895292F963082
:101AF00058F48E3048F490E068EF71E03EE0239FA8
:101B0000800D911D1124BACF80E00895B0E0A0E0CF
:101B1000ECE8FDE00C94CD2A7C01009124021091A8
:101B200025028091260290912702082B192BCFE0E5
:101B3000D0E0CC24C394D12CBC2EC6010C2E02C004
:101B4000880F991F0A94E2F780239123892B49F487
:101B5000219790F7B12C8B2DCDB7DEB7E9E00C942F
:101B6000E92AB7018C2F27D6019791F3F4CFCF93B1
:101B7000DF93EC01CBDFBE011ED6DF91CF9108953C
:101B80001F93CF93DF93EB019091F701992331F0ED
:101B9000CB01EDDFDF91CF911F910895882351F0A4
:101BA000CB01B4DF182F682FCE018FDFBE01812F4C
:101BB00002D6F0CFCB019ADF182FF8CF1F93CF9327
:101BC000DF93C091280217E0809129028C1304C092
:101BD000DF91CF911F910895D0E01C9FF0011D9FD0
:101BE000F00D1124E65DFD4F20813181428153814A
:101BF0006481758186818BDE2196C770E5CF209147
:101C000062023091630240916402509165026091DA
:101C10006602709167028091680279CECF93DF935C
:101C200080916802807F09F04BC080916702882311
:101C300009F446C0E091280250912902C091630244
:101C4000D0916202609164027091650247E05E1774
:101C5000B9F18E2F90E0E49FF0011124E65DFD4F75
:101C60002481222381F1489FF001499FF00D112426
:101C7000DF01A65DBD4F11962C9111972C1323C047
:101C80002C912D1320C015962C91159721111BC056
:101C900012962D913C91261B370B283C310598F468
:101CA000809168028F70806180936802E05DFD4FD3
:101CB00080818F708061808382E692E0BEDD7EDF6E
:101CC000DF91CF910895FC013196E770C0CF482F86
:101CD000209128029091290257E0291302C080E048
:101CE000089530E0529FF001539FF00D1124E65DFE
:101CF000FD4F8181681306C08081481303C0858130
:101D00008111EECF2F5F3F4F2770E7CFA4E1B0E006
:101D1000ECE8FEE00C94CA2A8C0186E0F801DE01B2
:101D20001F9601900D928A95E1F7F8018481E58074
:101D300092E6A92E92E0B92E9091660291111AC0F6
:101D40008823A9F0EE2089F0C801CDDDF82E882384
:101D500061F087E0F801D50101900D928A95E1F7D5
:101D6000C501DDDA5BDF4BDF59C0C80166DDFF244A
:101D7000F39454C0C080D18082809380F090670239
:101D80002091640230916502A401421B530BFF2095
:101D900009F4E9C0483C510508F09CC0882309F4C7
:101DA0003DC09091630280916802282F207F09F046
:101DB00056C09D1114C090916202C91210C0E1106A
:101DC00048C08F7080618093680219DF82E692E0DC
:101DD00034DD80916802F8018683F12C1FC0E11088
:101DE00038C06D2D8C2D73DF6D2D8C2D70DFE82E9E
:101DF0008111F3CFCF86D88A8F859889B8DE292FB5
:101E000022952F70243078F49F702230A0F099230F
:101E1000B1F0F8019681907F91F4FE2C8F2D64969D
:101E2000ECE00C94E62A2A5F2F70223060F0C801A3
:101E300004DDEF2CF2CF992311F0882371F3805E3B
:101E4000883058F3F4CF803F40F3815F833078F7D8
:101E5000E4CF80916802816080936802BECF9D11BB
:101E600012C090916202C9120EC0E1100CC08683AC
:101E7000C801E3DC87E0F801A2E6B2E001900D9230
:101E80008A95E1F770CFC8012EDD882309F46DCF64
:101E9000EE2009F46ACF80916802803280F02091B0
:101EA000620230916302398728879B868A869091E7
:101EB00066029C871D868E87CE010896BEDC87E071
:101EC000F801A2E6B2E001900D928A95E1F7A6DE54
:101ED00096DE4DCF90916802292F207F89F4682DDE
:101EE0009A8A898AA6017A899E2D07DD82E692E088
:101EF000A4DC87E0F50111928A95E9F780DE6DCFC9
:101F0000882309F48BCF809163028D110FC08091DB
:101F10006202C8120BC0E11009C09683C8018DDCB3
:101F200087E0F50111928A95E9F778CFC801DBDCEB
:101F3000882309F41ACFEE2009F417CF80916802A4
:101F4000803208F4BCCF20916202309163023A8360
:101F500029839C828B82909166029D831E828F834F
:101F6000CE010196ABCF483C5105A8F5882309F472
:101F7000FECEFE2CEE2009F4F8CE809163028D1186
:101F80001EC080916202C8121AC08091680280FD52
:101F90000DC0982F907F51F08683903F09F468CF51
:101FA000982F907F905F8F70892B61CF87E0F80129
:101FB000A2E6B2E001900D928A95E1F72FCFC80119
:101FC00092DC81117CCF80916802816080936802ED
:101FD000C80133DC23CF682D9A8A898AA6017A89C1
:101FE0009E2D8BDC87E0F50111928A95E9F7BBCE37
:101FF000AEE0B0E0EEEFFFE00C94D32A28873987FB
:102000004A875B876C877D878E87CE0108967EDE48
:102010008823A9F06C85662339F0288539854A859F
:102020005B857D858E8573DC17E080912802909119
:10203000290289133BC02E96E3E00C94EF2A87E037
:10204000FE013896DE01119601900D928A95E1F716
:102050008C85882349F32091290230E0C90101963B
:1020600087709927409128024817190691F097E048
:10207000929FD001939FB00D1124A65DBD4FFE012C
:10208000319601900D929A95E1F78093290296DDA1
:10209000CBCF0CDC109229021092280287E0E2E6F6
:1020A000F2E0DF011D928A95E9F7BECF819FC00162
:1020B0001124865D9D4F2ADE882309F4BCCFE09170
:1020C00028021E9FF0011124E65DFD4F2081318121
:1020D0004281538164817581868119DC8091280257
:1020E00090E0019687709927809328029ECF809177
:1020F00091028695869586950895809191028770C4
:10210000089590919102977081E009F480E008951C
:102110008091BD0208959091BD02892B8093BD02EC
:10212000089580959091BD0298239093BD020895E3
:102130001092BD0208958091BC0208959091BC0256
:10214000892B8093BC02089580959091BC029823BE
:102150009093BC0208951092BC020895809193025E
:1021600008950895FECF089590919202292F282373
:1021700029F08095892380939202F4CF08950895E1
:10218000FECF089590919302292F2823281721F03C
:10219000982B90939302F4CF089590919302292F56
:1021A000282329F08095892380939302E9CF08950D
:1021B00090913E0392FF07C090919302981719F0F7
:1021C00080939302DDCF089580919302882321F0BC
:1021D0001092930280E0D4CF0895CF93C091BD02B6
:1021E0008091BC02C82B80919302882329F0C82BD0
:1021F0000E9425208111E8DF8C2FCF910895CF9385
:10220000DF93C0915401D0915501E7DF8883C091DD
:102210005401D091550148E050E069E872E0CE01E8
:102220000E94FB2A892B59F088E0FE01A9E8B2E060
:1022300001900D928A95E1F7CE010E94A61FDF91D1
:10224000CF910895CF93DF93C0915201D091530164
:10225000C4DF8983C0915201D091530140E250E024
:1022600069E672E0CE010E94FB2A892B59F080E2D8
:10227000FE01A9E6B2E001900D928A95E1F7CE0148
:102280000E94B31FDF91CF9108950E948E1F882373
:1022900029F080913D0387FF01C0D4CFB0CF0895CE
:1022A000FECF089590913E0392FF0EC098E0899F63
:1022B00090011124622B6093910271DB8091910255
:1022C000869586958695ECCF6ACB1092910280E038
:1022D000E7CF909191028095892380939102282FD6
:1022E000277059F4891749F090913E0392FF05C079
:1022F00086958695869561DBE8CF089590913E039B
:1023000092FB222720F9281749F080FB92F990933D
:102310003E038DE393E046D082E0DBCF08958091C9
:102320003E0382FB882780F991E08927E7CF81E08F
:10233000E5CF80E0E3CF60E070E0CB0190C360E0E8
:1023400070E0CB0186D3F7CFA3E0B0E0EAEAF1E199
:102350000C94D42A37D342D31B82CE01039655D393
:1023600081E090E090932702809326025AD31A824C
:1023700019828A8184618A83CE01019663D3DFDF6B
:102380002396E2E00C94F02ADFCF08952DC3089540
:102390001AC308952FC308953EC3089542C30895F4
:1023A00045C308954FC3089560C30895A6E0B0E003
:1023B000ECEDF1E10C94D22A0E943B228C01809139
:1023C000BE029091BF028017910781F019821A8294
:1023D0000E943B22682F49815A81792F80E090E04A
:1023E0000E9462091093BF020093BE022696E4E0A9
:1023F0000C94EE2A0E9447226093D0027093D1027F
:102400008093D2029093D3026093CC027093CD025A
:102410008093CE029093CF02089508950895FDCF42
:1024200008950895FEDFFBCF08950895FEDF0C9414
:10243000EE048EEC94E19FD3F1DFF4CF81E00895B8
:10244000FDCF0895FBCF0895089508950895FCDF0A
:10245000FCDFFCCF9DDF811101C096DF84ED92E0AF
:1024600099DF8DE393E09CDFB7D596DF67DA809143
:102470002402909125027BCA0E9432220BD3EADF0C
:102480000E943C09D3CF0E946A1F86D454C6A6E09E
:10249000B0E0EDE4F2E10C94C82AD2DF81110CC067
:1024A00085DFF1DF0E943B1B0E944A090E94231C2A
:1024B0002696EEE00C94E42AFED220EC822E22E056
:1024C000922E640110E0F601E190F1906F01812FEE
:1024D000D7D21F5F163009F447C0E816F90699F302
:1024E0008091D40281FDD5D2ADDF782E10E0662434
:1024F0006394812FC5D27C01F401A190B1904F016A
:102500008A159B0561F1A826BF2400E0CC24C39462
:10251000D12CC5018C219D21892BC1F07720B1F0F0
:1025200009831A830E943B229C838B836D8221E066
:10253000C7018C219D21892B09F420E049815A8112
:102540006B817C818D81922F0E9462090F5FCC0C80
:10255000DD1C0E30F1F6F4013297F182E0821F5F4C
:10256000163039F647DF9DCFE816F90609F0B8CFE7
:1025700097CF1F93CF93DF9320D1EC01C11580E556
:10258000D807F0F5C11580E4D80708F09AC0C03E1E
:10259000D10520F5CD3CD10508F082C0C83AD1055F
:1025A00078F4C53AD10508F073C0C130D10519F1EE
:1025B000209709F1C430D105F0F4D0E0C0E01BC091
:1025C000C33CD105D0F7C85AD0E0CC0FDD1FC755AA
:1025D000DE4F0990D881C02DD4640DC0C11580E2B2
:1025E000D80708F0CDC0C11581E0D80708F05AC05F
:1025F000C83ED10510F7CE01DF91CF911F9108950C
:10260000C03682E5D80718F5C03482E5D80708F04F
:1026100068C0C03282E5D80708F05CC0C11582E509
:10262000D80708F493C02C2F2695269580E2289F82
:10263000900111248C2F8370C1E0D0E002C0CC0F38
:10264000DD1F8A95E2F7C22BD32BDD68D4CFC03AC9
:1026500082E5D80760F4C03882E5D80708F456C090
:10266000CF71D0E0DC2FCC27C46FD06AC4CFC03C80
:1026700082E5D80708F45FC0C03E82E5D80708F0BD
:102680009CCFDC2FCC27CC27DF71C06FD06AB3CFB3
:10269000C55AD0E0C152DE4FC881D0E0D064ABCF84
:1026A000D065A9CF8D2F2BD1182FCE01992785D09A
:1026B000C12FD0E0DC2FCC27CC27DF71C82BD92B42
:1026C0009ACFCE01992779D0CC27DF70C82BD92B90
:1026D000D06A91CFCF71D0E0DC2FCC27C16FD06A08
:1026E0008ACF2C2F26952695277080E2289F90016F
:1026F00011248C2F8370C1E0D0E002C0CC0FDD1F0D
:102700008A95E2F7C22BD32BDC6875CF2C2F269548
:102710002695277080E2289F900111248C2F8370CA
:10272000C1E0D0E002C0CC0FDD1F8A95E2F7C22BDA
:10273000D32BDA6860CF8C2F8F71E1D0C82FD0E017
:10274000DC2FCC27CC27DF71D06255CF8C2F8F7137
:10275000D6D055E0D695C7955A95E1F7CF70D0E021
:10276000DC2FCC27282F30E084FF06C044E0220F66
:10277000331F4A95E1F73327C22BD32BD0693BCFC8
:102780008D2F8F71BCD0182FCE01992716D0C12F55
:10279000D0E0DC2FCC27CC27DF71C82BD92BD4CFAE
:1027A000462F763028F46E3018F4672F0C9482068A
:1027B00090E080E00895F4DFDCCE82389105B9F135
:1027C000B0F48133910509F47DC048F48932910554
:1027D00009F46DC08A32910509F47BC008958533F0
:1027E000910509F45FC08933910509F10895833E8D
:1027F0009105D9F138F4803E910529F1823E910589
:1028000079F10895863E9105D9F1873E910509F445
:102810003EC0843E910541F520913E0321FF24C036
:1028200080913D0384FD19C087EE90E008952091CA
:102830003D03237009F05AC020913E0323FF14C0CA
:1028400089E290E0089520913D0320FD38C0309149
:102850003E0330FF09C024FF43C090E080E00895AC
:1028600020913D0322FDF7CF089520913D0322FDE5
:102870003AC030913E0330FD39C024FFF5CFEDCF93
:1028800020913D0323FFF0CF24FDE7CFCDCF209152
:102890003D0323FD2EC030913E0331FFEECF84EE89
:1028A00090E0089520913D0325FFDECFC9CF209110
:1028B0003D0325FD21C020913E0323FFD5CF89E3B1
:1028C00090E0D2CF20913D0326FFCECF8AE290E068
:1028D000089520913D0326FFC7CF81E390E008953E
:1028E00083EE90E0089582EE90E0089580EE90E00F
:1028F000089586EE90E0089585E390E00895909124
:102900003D0392FF10C041E0282F2471243009F0CC
:1029100040E031E0282F2871283009F030E04317DB
:1029200011F02CE0822793FF10C041E0282F247182
:10293000243109F040E031E0282F2871283109F0D6
:1029400030E0431711F02CE0822730913E0330FF36
:1029500010C051E0282F2171213009F050E041E0F2
:10296000282F2871283009F040E0541711F029E091
:10297000822731FF10C041E0282F2171213109F059
:1029800040E031E0282F2871283109F030E043176A
:1029900011F029E0822794FD877E089580E0089554
:1029A000CF939C01205E3245C1E02032310538F4DE
:1029B000FB01C581C11103C08F710E9490078C2F4C
:1029C000CF910895089590E080E00E94192B21E0B6
:1029D000833E9E4F09F020E0822F089563EE7EEF44
:1029E00090E080E00C94382B6FEF7FEF90E080E078
:1029F0000C94382BCF93DF93EC0182E090E00E949F
:102A0000112B8883DF91CF910895FC01608182E0D2
:102A100090E00C941E2B83E090E00E94112B90E03C
:102A20000895682F83E090E00C941E2BCF93DF93E2
:102A3000EC0184E090E00E94192B99838883DF9158
:102A4000CF910895FC016081718184E090E00C9445
:102A5000382BAB01BC018FE090E00C94302BAB0124
:102A6000BC0183E190E00C94302B682F8EE090E065
:102A70000C941E2B0C94820508950C9483050895E4
:102A8000E82FF0E0EE0FFF1FE55BFC4F80819181A6
:102A9000089508950E94AB03EFE3F3E0ABE4B3E0E5
:102AA000119211921D921D9283E0EB34F807C1F749
:102AB00086E012D0DFCFCF938FE393E00E94CF0365
:102AC000282F46E06BE473E08FE393E006D0C82F35
:102AD000D4DF8C2FCF9108950895B0E0A0E0E3E714
:102AE000F5E10C94CE2A6C017B01042FC22F222326
:102AF00079F081E08093D7020E943B229093D60226
:102B00008093D50280E0CDB7DEB7E8E00C94EA2AE6
:102B1000D091D702DD23B1F38091D5029091D602F6
:102B20000E94CC21059770F310E0000F111FA8013F
:102B3000B601C7010E94FB2A892B31F0A801B6011A
:102B4000C7010E94082BCD2F1092D7028C2FDBCF0C
:102B50009ECC08950E94D5210E9440256ADC0E94E7
:102B600058258ADC0E9461250E946425F1DF0E94BD
:102B70007A256DDCF9CF9093E3018093E20108950B
:102B800080915601877F80935601B9D2811102C08E
:102B900082E0DADA8091560184FF05C08F7E80934F
:102BA000560182E0B8DA8091560185FF05C08F7D1D
:102BB0008093560180E2AFDA68CB80E008958B32D3
:102BC000910539F040F49C0124503109243231053B
:102BD00058F481E008958D32910530F089339105E4
:102BE000C0F384369105A9F3E8CFCF93DF93EC01CE
:102BF000662311F082E0A2DACE0190528115904353
:102C000008F4DD27CE010E94D106DF91CF9108950F
:102C10009C0130522115304308F499270C94E506A5
:102C2000FC0123E0F695E7952A95E1F7EE71FF2781
:102C3000E852FD4F20813181AC014F70552781E072
:102C400090E002C0880F991F4A95E2F7662329F0A9
:102C5000822B932B91838083089580959095822376
:102C60009323F8CFFC0123E0F695E7952A95E1F749
:102C7000EE71FF27E852FD4F8F70992721E030E079
:102C800002C0220F331F8A95E2F7808191812823A9
:102C9000392381E0232B09F480E00895EF92FF921D
:102CA0000F931F93CF93DF93EC017B018A018091F7
:102CB000560182FF5BC02091FF02309100032C1768
:102CC0003D0719F0209709F051C0909156019B7F64
:102CD0009093560161E091FD10C0809101039091A5
:102CE0000203A701481B590B61E0809157019091A5
:102CF00058014817590708F460E061708091560147
:102D000060FB81F980935601C9018ADF01DA81FFF6
:102D100007C08091560180618093560182E001DAFC
:102D2000F7D985FF07C080915601806280935601D4
:102D300080E2F7D96091560166956170A801809193
:102D4000FF029091000351DF8FE39CE90197F1F7B7
:102D500000C000006091560166956170A8018091E5
:102D6000FF029091000354DF0BDF0DC0CE017ADF2C
:102D7000A801682FCE014CDF8091FF0290910003E3
:102D8000C817D90789F3F0920203E0920103CDB787
:102D9000DEB7E6E00C94EC2A8091560182FF18C061
:102DA0000E943B222091010330910203AC01421B9F
:102DB000530B20915701309158014217530740F0AF
:102DC00048EF52E0BC018091FF029091000366CF72
:102DD000089590915601892F8E7F90FF8160809396
:102DE0005601CECE809156018E7F80935601C8CE7B
:102DF00060E280915701909158010E949808FC016F
:102E0000019620812032D9F3CF01F4C6809156017A
:102E100081700895CF92DF92EF92FF921F93CF932C
:102E2000DF93EC017B010E943B226C01F70185815D
:102E3000882309F44FC08091560182FF06C048EFF5
:102E400052E0B60190E080E029DFC231FCE7DF0705
:102E500009F43EC000F5C0318CE7D80779F18091C4
:102E60005701909158010596C131ECE7DE0759F101
:102E7000CE01905281159043D8F510920003109224
:102E8000FF0211E0812FDF91CF911F91FF90EF9012
:102E9000DF90CF900895C431FCE7DF0769F030F090
:102EA000C5318CE7D80721F794DFE2CF8091560136
:102EB000816080935601DCCF95DFDACF8091570196
:102EC0009091580105979093580180935701D0CF66
:102ED0008FDFCECF809156018F7EC13ED10531F07C
:102EE000C53ED10561F5809156018F7D80935601D5
:102EF0008091560180FFC5CFB701CE0160DEF7019A
:102F00001581882309F44DC0112309F445C000D967
:102F1000182F24D9812B8D7FC1F0109200031092BD
:102F2000FF0260E0CE017CDEA70160E0CE015DDE45
:102F300015D98D7F3DD982E0CCD910E0A3CFCE0149
:102F4000905281159043A0F69CCF87E0F701A8EF3F
:102F5000B2E001900D928A95E1F71092FB02109277
:102F6000FA02D6D8182FFAD8812B9091560181FBFE
:102F700091F990935601F2D88D7F1AD9D09300031E
:102F8000C093FF02D0920203C092010380915601C8
:102F9000846080935601CFCFA701B601CE017EDEBB
:102FA00071CF11116ACF6DCFF1C9089580E068DD4E
:102FB0008170089580DD2FEF86E791E021508040F9
:102FC0009040E1F700C0000076DDF0DF882319F0C3
:102FD000EBDF0C9477220895EDCF0895B0E0A0E0E8
:102FE000E4EFF7E10C94CF2AEC017B01C3378CE7C7
:102FF000D80761F4FB011581112311F0ADD010E069
:10300000812FCDB7DEB7E7E00C94EB2A81D8082FEB
:10301000A5D8D82E74D0811102C011E0F1CF66D0AE
:10302000F70115811123C9F30D290D7909F04EC05F
:10303000C034F2E5DF0738F5C11582E5D80700F79F
:10304000C115E0E4DE07A8F4C115F0E2DF0780F562
:10305000C63ED105A9F2DADE811146C08FEF74D8E1
:10306000CE010E942E06C82F882381F10ED91C2F75
:10307000C7CFC11580E5D80770F7F7018681807F3B
:1030800061F2DD27E8CFC43BE2E5DE0709F4B8CF03
:10309000CE01C53BF2E5DF0730F48056924580341F
:1030A0009105C8F6ADCF805C92458097A0F6A8CF79
:1030B000F7018681807F29F78D2F8F71823189F00A
:1030C00038F4C1EED0E0823009F4C5CF28D098CFD3
:1030D000843109F495CFC6EED2E1863109F4BBCF35
:1030E000F5CFC5EED0E0B7CF8DEFB9CF0E943B2230
:1030F00088579C4E90930403809303030895809116
:1031000005030895089580910503811107C010D823
:103110005BD8ECDF81E080930503F4CF08958091C4
:103120000503882339F082E20E94400C10920503C7
:1031300080E0E8CF089580910503882361F00E9424
:103140003B222091030330910403821B930B8F3F9A
:103150009F4708F4E4CF089580910503882309F080
:10316000DECFD1CFCF93DF93EB0186319C4709F5BA
:103170000E9488109D81992391F08A7A91E009F448
:1031800090E090930603811108C089E20E94D1204B
:103190007CD880E0DF91CF91089585E3F7CF8091CF
:1031A0000603811104C089E20E94E820F1CF85E383
:1031B000FBCF81E0EFCFCF93DF93EC01FB01858163
:1031C000882309F4CBC09E0130572332310508F023
:1031D000ABC08DE393E0E4D8FE01E150F047E2326A
:1031E000F10520F4E65AF44D0C94BE2A80913D037B
:1031F000816080933D0392C080913E0388608093FC
:103200003E038CC080913D038260F3CF80913D03EB
:103210008460EFCF80913D038860EBCF80913E03C7
:103220008160EDCF80913E038260E9CF80913D03C4
:103230008061DFCF80913D038062DBCF80913D03D1
:103240008064D7CF0E94560C80913D038068D1CF17
:1032500080913D038C60CDCF80913E038360CFCFC2
:1032600080913D038E7FC5CF80913E03877FC7CF7E
:1032700080913D038D7FBDCF80913D038B7FB9CF82
:1032800080913D03877FB5CF80913E038E7FB7CF7E
:1032900080913E038D7FB3CF80913D038F7EA9CF78
:1032A00080913D038F7DA5CF80913D038F7BA1CF82
:1032B0000E94560C80913D038F779BCF80913D03F8
:1032C000837F97CF80913E038C7F99CF80913D0380
:1032D00082FB992790F921E0922790FB82F990FBDD
:1032E00083F987CF80913E03982F909591708E7FC0
:1032F000892B90FB81F983CF90913D03892F8F7BA0
:1033000096FF806476CF0E94560C90913D03892FE2
:1033100097FB87F980586DCF81E046D88DE393E025
:1033200041D80E94560C80E0DF91CF91089580E053
:10333000F4CF90913D03892F8F7E94FF806159CF08
:1033400090913D03892F8E7F90FF816052CF9091A5
:103350003E03892F877F93FF886051CF81E0E4CFC0
:10336000282F35EB2303C001112497FF04C0805898
:103370009109892F089580589F4FFBCF80910D03AD
:1033800080FF0DC060915E0170E0660F771F6038AE
:10339000710570F56115710569F1862F089581FF3A
:1033A00007C060915E0184E0689FB0011124EFCFF7
:1033B00060915E0182FD0AC080910C038823A9F010
:1033C00020915D0160915E01821710F088E0ECCFE2
:1033D000869FC001112433E0880F991F3A95E1F7C9
:1033E000622F70E00E94892AD2CF68E070E0D5CFCA
:1033F0008FE7089581E0089580910D0380FF0CC050
:1034000060915A0170E0759567957595679561159E
:10341000710549F1862F089581FF06C060915A0118
:1034200070E075956795F3CF60915A0182FD0BC0EE
:1034300090910B039923A1F06091590180915A0159
:10344000961738F0682F70E06038710500F38FE749
:103450000895899FC001112470E00E94892AF4CF49
:1034600061E070E0D7CF81E008958D3C29F486DFDC
:1034700081958093110308958E3C11F47FDFF9CF7D
:103480008F3C29F47BDF8195809310030895803D64
:1034900011F474DFF9CF893D21F4AEDF809312037C
:1034A00008958A3D19F4A8DF8195F8CF8B3D29F462
:1034B000A3DF81958093130308958C3D11F49CDF65
:1034C000F9CF9FE2980F983070F4815D990B21E05D
:1034D00030E001C0220F8A95EAF780910F03822B1A
:1034E00080930F0308958D3D31F480910D03816029
:1034F00080930D0308958E3D21F480910D03826029
:10350000F7CF8F3DB9F780910D038460F1CF4091E3
:1035100010038D3C59F48091110387FF0DC0109268
:10352000110341110BC010920C0308C08E3C81F4B2
:103530008091110318169CF3442381F080911203AB
:1035400090911303892B09F05AC010920B03089530
:103550008F3C49F447FFF0CF109210038091110384
:103560008111ECCFE0CF803D19F41416ACF3E4CF19
:1035700090911203893D29F41916F4F61092120362
:10358000DBCF8A3D19F497FFD7CFF8CF9091130383
:103590008B3D29F497FFD0CF10921303CDCF8C3DF4
:1035A00019F41916CCF3C8CF9FE2980F983090F415
:1035B000815D990B21E030E0B90102C0660F771FF1
:1035C0008A95E2F7CB01809590910F038923809330
:1035D0000F03B2CF8D3D31F480910D038E7F809328
:1035E0000D03AACF8E3D21F480910D038D7FF7CF7F
:1035F0008F3D09F0A1CF80910D038B7FF0CF08950F
:103600003AD79C019091100380911103982B21F0DF
:1036100030930A03209309039091120380911303BE
:10362000982B21F030930803209307038EE093E05A
:10363000ACC486E0EEE0F3E0DF011D928A95E9F785
:1036400010920C0310920B0310920D030895FC01CD
:10365000828181110EC0838181110BC0848181110F
:1036600008C091E08581811101C090E0892F8170AF
:10367000089581E0FCCFA6E0B0E0E1E4FBE10C942A
:10368000D32A86E0EEE0F3E0DE01119601900D9280
:103690008A95E1F710921003109211031092120311
:1036A000109213038B819C81892B81F080910903F7
:1036B00090910A0371D6AC0190910C039923A9F162
:1036C00080915F018417150608F43CC08D819E81AE
:1036D000892B89F080910703909108035DD6AC0196
:1036E00090910B03992309F463C080915B018417C7
:1036F000150608F46BC0BE016F5F7F4F8EE093E04C
:1037000097D5811104C08EE093E0A1DF811178DFAD
:1037100086E0FE013196AEE0B3E001900D928A950D
:10372000E1F72696E3E00C94EF2A209160018AE00D
:10373000289F900111242417350740F69F5F90932E
:103740000C0302C09F3FD1F71B81112351F016DEFD
:103750009FEF11160CF491E0899F802D1124809326
:1037600010031C81112351F009DE9FEF11160CF498
:1037700091E0899F802D1124809311038091100383
:10378000882309F4A3CF10911103112309F49ECFCC
:10379000E7DD882349F080931003812FE1DD882342
:1037A00029F08093110392CF81E0F5CF81E0F9CF2A
:1037B00020915C018AE0289F90011124241735078D
:1037C00008F099CF9F5F90930B0302C09F3FD1F702
:1037D0001D81112351F010DE9FEF11160CF491E0C2
:1037E000899F802D1124809312031E81112351F093
:1037F00003DE9FEF11160CF491E0899F802D1124B8
:103800008093130380911203882309F474CF1091DD
:103810001303112309F46FCFA3DD882349F08093AC
:103820001203812F9DDD882329F08093130363CF3A
:1038300081E0F5CF81E0F9CF81E00895FDCF0895D3
:103840000C945006089580911E03823041F58091BA
:103850001603882321F180911403909115039CD5C0
:103860008A3F9105E0F01092160310921503109212
:1038700014039091200380911F03981304C080913A
:103880006101882361F0109261018091200380938F
:103890001F0380912003D2DF80912003D1CF0895B0
:1038A000AC01909121039F5F9093210350932603D5
:1038B000409325034230510521F5809122038F5F0B
:1038C00080932203933008F43FC0309124033230B8
:1038D00030F080912303811140C0931781F0209133
:1038E0002203953000F14F3F510531F5332331F17B
:1038F00093E02230F0F480912303282B29F591E006
:1039000018C04430510531F4809123038F5F8093B8
:103910002303D8CF4F3F5105A9F6809124038F5F31
:1039200080932403CFCF943039F43111E4CF223087
:1039300029F49093200308C03111DDCF233021F406
:10394000909123039130A9F396D59093150380931A
:10395000140381E080931603089592E0EACF8091EA
:103960002003089530911A0320911E03321720F48A
:1039700020911E0320931A0360931B0370931C0372
:1039800080931D0390931E0376D590931503809327
:10399000140381E0809316030895DC01ED91FC91FE
:1039A00011978191ED93FC930895B0E0A0E0EBEDC9
:1039B000FCE10C94CD2AE82FF0E0EC50FC4FB490E1
:1039C000282F26952695269530E0F901EC56FB4FD9
:1039D0000491877010E0082E02C0159507950A948F
:1039E000E2F701701127F901EC57FB4FE490F12C3D
:1039F000082E02C0F594E7940A94E2F791E0E922D8
:103A0000FF24F901EC58FB4FC491D0E002C0D595DA
:103A1000C7958A95E2F7C170DD27C62ED12C011516
:103A2000110549F5E114F10431F086EE0E94A00978
:103A3000C601009771F5B6018B2D0E94120AC601CE
:103A4000009779F5E114F104A1F50115110531F0A4
:103A500081EE0E94E509C6010097C9F5CD2B31F032
:103A60008CE20E94280AC114D104C9F5CDB7DEB793
:103A7000E9E00C94E92A81EE0E94A009C6010097B2
:103A800089F2EFE9FFE03197F1F700C000000197FC
:103A9000F6CFEFE9FFE03197F1F700C000000197A2
:103AA000C8CFEFE9FFE03197F1F700C000000197C0
:103AB000C7CF86EE0E94E509C601009731F2EFE913
:103AC000FFE03197F1F700C000000197F6CFEFE972
:103AD000FFE03197F1F700C000000197BDCF8FE9FB
:103AE0009FE00197F1F700C0000091E0C91AD108EA
:103AF000BACFB0E0A0E0EFE7FDE10C94CD2A8C0155
:103B00007B01D42F8AE0B82EC701F80109958823DC
:103B1000A9F0813009F058C0C701F8010995C82FF4
:103B2000813089F4C701F80109950E94280A8D2F78
:103B300090E0009709F040C0C111E6CFCDB7DEB7E5
:103B4000E9E00C94E92A823031F4C701F8010995C3
:103B50000E94A009ECCF833031F4C701F801099528
:103B60000E94E509E4CF843011F7C701F8010995F7
:103B7000C82FD12CC12C2C2F2053330BC9012A3034
:103B8000310568F0C114D10491F28FE99FE00197EB
:103B9000F1F700C0000091E0C91AD108F3CFBC9C36
:103BA0009001BD9C300D11246C01C20ED31EC701C3
:103BB000F8010995C82FDFCFEFE9FFE03197F1F762
:103BC00000C000000197B5CF6D2FEFDE9DCFA2E0C2
:103BD000B0E0EDEEFDE10C94D42A462F9A83898360
:103BE000BE016F5F7F4F8DEC9CE183DF2296E2E0A8
:103BF0000C94F02A6AE0EBCF0F931F93CF93DF93DF
:103C0000C42FD22FFC0185818823C1F04093290362
:103C100032D4909328038093270380E28C0F88305E
:103C200040F4C77081E001C0880FCA95EAF70E948E
:103C30002F0ADF91CF911F910F91089510912903C1
:103C4000141331C08091270390912803A5D3883C99
:103C5000910548F5C0E2CD0F1D17B9F080E2810F44
:103C6000883040F4177081E001C0880F1A95EAF798
:103C70000E94340AC83048F481E09D2F977001C03B
:103C8000880F9A95EAF70E942F0A802F0E94280A2F
:103C9000C83078F6D77081E001C0880FDA95EAF76E
:103CA0000E94340AC6CF80E28C0F883010F6C770AD
:103CB00081E001C0880FCA95EAF7F2CF0F93DB01CC
:103CC00088519C478730910598F5FC01E458F44DE4
:103CD0000C94BE2A06E221EE41EE6AE17CE7CD01BA
:103CE0008BDF80E00F91089507E225EE45EE6BE152
:103CF0007CE7F5CF06E221EE40EE68E17CE7EFCF0E
:103D000007E225EE44EE69E17CE7E9CF06E221EE29
:103D100042EE6CE17CE7E3CF07E225EE46EE6DE193
:103D20007CE7DDCF08E221E045EE6EE17CE7D7CF0E
:103D300015968C91882319F010922903D3CF81E036
:103D4000D1CF4115510511F0FA0109950895CF938E
:103D5000DF93EC014A855B856E857F85F2DF8B8181
:103D60000E94A4108C810E9491100E94451186E04F
:103D7000FE0111928A95E9F7DF91CF910895CF93D3
:103D8000DF93EC018D8181FD10C082608D838B817A
:103D90000E949E108C810E948B100E9445114885C4
:103DA00059856E857F85CE01CCDF10922D03109250
:103DB0002C038D8180FD02C0CE01C9DFDF91CF9140
:103DC00008950F931F93CF938C01FB01C581CC23E2
:103DD000A9F080912C0390912D030097A1F08017FA
:103DE000910789F099270E949506FC01258124609E
:103DF000258311830083C3DF0E94AB108C2FCF91EA
:103E00001F910F910895C0E0F9CFEF92FF920F93A9
:103E10001F93CF93DF937C018B0197558F3F9105C3
:103E200019F010F011E036C00E9484069701332784
:103E30002817390708F04CC0C9010E949506EC010B
:103E4000F80115818D8110FB80F98D83112341F1DB
:103E500012D390932B0380932A038A818F5F8A83E6
:103E60000E9488108B830E949B109B81892B8B83DF
:103E70000E94AE108C834E815F816E857F85CE015E
:103E800060DF8D8181FF02C0F12CE12CF0922D03C7
:103E9000E0922C03812FCDB7DEB7E6E00C94EC2A3C
:103EA0004C855D856E857F85CE014BDF8D8181FFE1
:103EB000B9CFCE014CDF80912C0390912D038E154C
:103EC0009F0509F0AFCF10922D0310922C03AACFBB
:103ED00010E0E0CF80912C0390912D03892B99F075
:103EE00080912A0390912B0357D2893C910558F079
:103EF00080912C0390912D0399270E949506FC0137
:103F0000258122FF3CCF089510922D0310922C039F
:103F10001ECF9093330380933203089503D291E030
:103F2000813009F090E0892F0895E0913203F091FB
:103F30003303309739F00190F081E02D309711F084
:103F40000995089580E00895F0CF0895E091320337
:103F5000F0913303309731F00280F381E02D3097F8
:103F600009F009950895E0913203F09133033097F9
:103F700059F024813581232B39F026E0DC012C9384
:103F80000480F581E02D09950895E0913203F091C8
:103F90003303309759F026813781232B39F022E003
:103FA000DC012C930680F781E02D09950895A3E0AC
:103FB000B0E0EDEDFFE10C94D42A20913003309174
:103FC000310328173907B1F0909331038093300300
:103FD000E0913203F0913303309761F00084F18572
:103FE000E02D309739F023E029839B838A83CE012B
:103FF000019609952396E2E00C94F02AA3E0B0E044
:10400000E4E0F0E20C94D42A20912E0330912F03A7
:1040100028173907B1F090932F0380932E03E09176
:104020003203F0913303309761F00084F185E02D85
:10403000309739F024E029839B838A83CE0101964F
:1040400009952396E2E00C94F02ACF93DF93C09178
:104050005401D0915501229661DF882381F080912F
:104060003D0387FF0CC0C0915201D09153012296AD
:104070009EE180E0915028F4DF91CF91089596E081
:10408000F8CF29912223B1F38F5FF4CFCF93C82FBC
:10409000811102C080E023C041DF882311F18091AB
:1040A0003D0387FF1EC0EC2FE695E695E695EE31C1
:1040B00088F78091520190915301E80FF92FF11D7B
:1040C000228130E0C77081E090E002C0880F991F24
:1040D000CA95E2F72823392381E0232BD9F2CF9127
:1040E00008958091540190915501FC0132960896F3
:1040F00021912C1721F0E817F907D1F7CBCF81E0F8
:10410000EECF9C01FC0132969FEF80E04191461773
:1041100051F09F3F19F4411101C0982F8F5F8630F5
:10412000A9F79F3F09F40895290F311D97FD3A958E
:10413000F90162830895FC013296089621912613B5
:1041400003C0DF0111971C92E817F907B9F708952A
:10415000E62FE695E695E695EE3168F4E80FF92F3F
:10416000F11D677021E030E001C0220F6A95EAF787
:104170008281822B82830895E62FE695E695E69567
:10418000EE3170F4E80FF92FF11D677021E030E097
:1041900001C0220F6A95EAF72095828128232283A5
:1041A0000895CF93C82FBADE6C2F882359F08091E1
:1041B0003D0387FF07C08091520190915301C8DFF2
:1041C000CF91089580915401909155019ADFF8CFD5
:1041D000CF93C82FA3DE6C2F882359F080913D0325
:1041E00087FF07C08091520190915301C5DFCF91A5
:1041F000089580915401909155019DDFF8CF8EDE96
:10420000882379F080913D0387FF0BC0E091520134
:10421000F091530132968EE1DF011D928A95E9F704
:104220000895E0915401F0915501329686E0F4CF63
:10423000DC01FB0111969C9111978181981322C09A
:1042400012968C911297882319F0928189131AC0C3
:1042500013968C911397882319F09381891312C0B8
:1042600015968C911597882319F0958189130AC0AA
:1042700014969C91992321F081E02481291303C095
:1042800080E001C081E0817008950895FECF089517
:10429000CF92DF92EF92FF926B017C01F7DFC701B3
:1042A000B60160DBFF90EF90DF90CF900895811111
:1042B0000CC081E08093650160916201709163019F
:1042C0008091640190916501E3CF82E0F3CF83E0B8
:1042D0008093650160916201709163018091640136
:1042E00090916501D5CFE3CF089581E0809365017A
:1042F0006091620170916301809164019091650108
:10430000C7CFF3CF089591E0811101C090E0909361
:1043100064016091620170916301809164019091E8
:104320006501B6CF80916401089580936301609127
:104330006201709163018091640190916501A8CF41
:104340008091630108958093620160916201709190
:10435000630180916401909165019ACF809162011F
:10436000089508950895FECF089508950895F9CF0A
:104370000895CF93FADF0E945B15F8DFC0E08C2F21
:104380000E944015892B31F4CF5FC630C1F780E021
:10439000CF91089581E0FCCFCF93DF93EC016BD0F8
:1043A0008C1B9D0BDF91CF91089585B7806885BFE9
:1043B00085B7806885BF08951F921FB61F9211248C
:1043C0008F939F93AF93BF9380913403811113C058
:1043D0008091570390915803A0915903B0915A03CB
:1043E0004196A11DB11D8093570390935803A0934C
:1043F0005903B0935A03BF91AF919F918F911F9032
:104400001FBE1F90189580915F03843031F10E9488
:1044100038081092340388E190E020E40FB6F89455
:10442000A895809360000FBE2093600083B7817FC2
:10443000846083BF83B7816083BF7894889583B796
:104440008E7F83BF0FB6F894A89580916000886135
:1044500080936000109260000FBE08950E94560C79
:104460000C943C0882E084BD93E095BD9AEF97BD23
:1044700080936E0008952FB7F89480915703909120
:104480005803A0915903B0915A032FBF08952FB735
:10449000F89460915703709158038091590390915B
:1044A0005A032FBF089578941F921FB61F921124AC
:1044B0008F939F93AF93BF9380915703909158032D
:1044C000A0915903B0915A030196A11DB11D80938B
:1044D000570390935803A0935903B0935A03BF9185
:1044E000AF919F918F911F901FBE1F90189587E7E6
:1044F00097E7909301088093000888E19AE00FB64F
:10450000F894A895809360000FBE90936000FFCF51
:1045100088E19AE00FB6F894A895809360000FBEEA
:1045200090936000FFCFEF92FF920F931F93CF9372
:10453000DF93182FEB011092BC0084EA8093BC003B
:104540009ADF7C018091BC0087FF26C08091B90072
:10455000887F883029F08091B900887F803171F59B
:104560001093BB0084E88093BC0085DF8C018091B0
:10457000BC0087FF1DC02091B900287F90E080E03B
:10458000283189F081E090E0203411F490E080E05F
:1045900091958195910907C0C701FEDEC817D9071B
:1045A00088F68EEF9FEFCDB7DEB7E6E00C94EC2AED
:1045B000C801F2DEC817D907D0F6F3CF8FEF9FEF0F
:1045C000F2CF1092B9008CE08093B80008950F9359
:1045D0001F93CF93DF93EB018093BB0084E880931C
:1045E000BC0049DF8C018091BC0087FF11C0209185
:1045F000B900287F81E090E0283211F490E080E05B
:10460000919581959109DF91CF911F910F91089517
:10461000CF3FDC0741F3C801BFDEC817D90718F741
:104620008EEF9FEFF0CF0F931F93CF93DF93EC01AB
:1046300084EC8093BC001FDF8C018091BC0087FF5D
:1046400008C08091BB0090E0DF91CF911F910F9146
:104650000895CF3FDC0789F3C8019EDEC817D9074C
:1046600060F78EEF9FEFF0CF0F931F93CF93DF9301
:10467000EC0184E88093BC00FEDE8C018091BC00DC
:1046800087FF08C08091BB0090E0DF91CF911F9120
:104690000F910895CF3FDC0789F3C8017DDEC8176D
:1046A000D90760F78EEF9FEFF0CFB0E0A0E0EAE52A
:1046B000F3E26EC7682E762E5A016901DCDE4C01EA
:1046C000C1E0D0E00431110550F0C5E0D0E00F3F6B
:1046D000100729F0C80164E170E007D7EB01BE01C3
:1046E000862D21DF7C0197FF1AC00F3F1007B9F319
:1046F000C40152DE0817190790F784E98093BC00C3
:10470000C701CDB7DEB7EEE05FC7B80189915FDFC3
:104710007C01CC16DD0689F3F7FEF7CFEECFB801AA
:10472000872D55DF7C01E501CA0CDB1CF2CFB0E020
:10473000A0E0ECE9F3E22CC7782E662E6A01E901CD
:104740009ADE5C01EE24E394F12C0431110558F05B
:1047500025E0E22EF12C0F3F100729F0C80164E19B
:1047600070E0C3D67B01B701872DDDDE4C0197FFDA
:1047700020C00F3F1007B9F3C5010EDE0817190757
:1047800090F784E98093BC00C4011816190614F44C
:1047900090E080E0CDB7DEB7EEE016C797FCF1CF32
:1047A000C80162DF4C0197FDECCFCC0DDD1D888385
:1047B000E8CFB801862D0BDF4C0197FDE2CF68945E
:1047C00070F859DE5C01EE24E394F12C04311105FC
:1047D00058F085E0E82EF12C0F3F100729F0C801B2
:1047E00064E170E082D67B01B701872D9CDE4C012D
:1047F00097FF08C00F3F1007B9F3C501CDDD0817BB
:10480000190790F7F12CE12C2197EC16FD0608F022
:10481000C5CF97FCB6CFC80106DF4C0197FD04C099
:10482000F601EE0DFF1D80838FEFE81AF80AEDCF39
:104830009B01BA0190915F039430E1F48F708093F3
:10484000E9009FEF8091E800915085FD06C085ED5D
:104850008A95F1F700009111F5CF8091E80085FF6E
:1048600009C050E040E0C901D6D18091E8008E77C0
:104870008093E800089543E050E0BC0182E0D8CF87
:1048800046E050E0BC0182E0D3CF40E250E0BC0102
:1048900082E0CECFCF93DF93EC0144DD48E050E0DF
:1048A000BE0181E0C5DF88E0FE01A5E3B3E0019031
:1048B0000D928A95E1F7DF91CF91089580915E0383
:1048C000811107C036D38DD38091E200846080933C
:1048D000E200089510925E03089507DD81E013CD94
:1048E00060915B0381E0611101C080E0F0CC9091A8
:1048F0005F0381E0943009F080E060915B03F3CCCA
:1049000042E061EC81E091D242E261EC82E08DD242
:1049100090915F0381E0943009F080E060915B0347
:10492000C6CC80916103833009F45EC030F48130DD
:10493000C1F1823009F494C008958A3009F483C02B
:104940008B3009F46BC0893009F04DC08091600351
:10495000813209F048C08091640390916503029709
:1049600008F041C08091E800877F8093E800809143
:10497000E80082FF34C09091F3008091F20002972A
:1049800031F48091F100813011F0863019F480917A
:10499000F100CBDC8091E8008B778093E80079D23E
:1049A00022C080916003813AF1F48091E800877F12
:1049B0008093E8008091640390916503892B59F4FA
:1049C00068E085E393E070E073D18091E8008B7735
:1049D0008093E800089560E090E080E0F4CF80915B
:1049E0005F038111C4CF089580916003813AD9F7A4
:1049F0008091640390916503892BA9F78091E80069
:104A0000877F8093E8008091E80080FFFCCF8ADCFC
:104A10008093F1008091E8008E77BFCF8091600392
:104A2000813209F78091640390916503892BD9F64F
:104A30008091E800877F8093E8002BD28091620309
:104A400062DC0C94560C80916003813261F6809197
:104A5000E800877F8093E8001CD28091630373CCC9
:104A600080916003813A09F0BECF8091E800877F92
:104A70008093E8008091E80080FFFCCF6FDCC8CF16
:104A800084B7877F84BF0FB6F894A89580916000A3
:104A9000886180936000109260000FBE80E890E013
:104AA0000FB6F89480936100909361000FBE29CCFB
:104AB00040D297D2E2EEF0E08081846080837894E7
:104AC000FAC486E691E025CA80915F03853029F417
:104AD00080915F03853011F0C1CC089594DC49DCEE
:104AE0008823B1F380915D03882391F37ED00E94E7
:104AF000560CEECF08959A014091660350916703DA
:104B000000C0EF92FF920F931F93CF93DF93790131
:104B1000292F33272330310551F198F4C2E1D0E039
:104B20000BE015E02130310589F1CBE3D0E000ED59
:104B300014E02230310551F1D0E0C0E010E000E097
:104B400025C02132310509F441C022323105A1F7D7
:104B5000C4E4D0E003ED15E061157105B9F0C6EBD2
:104B6000D0E00DE115E06130710581F0E5CF9927C6
:104B700081309105D9F0009789F00297F9F0D0E0E3
:104B8000C0E010E000E0CA010E94501CF701118350
:104B90000083CE01CDB7DEB7E6E01EC5ECECF4E055
:104BA000E491CE2FD0E00CEC14E0EDCFE8EBF4E094
:104BB000E491CE2FD0E008EB14E0E5CFE4EAF4E096
:104BC000E491CE2FD0E004EA14E0DDCFC9E0D0E0DC
:104BD00002EE14E061157105C9F2C9E0D0E00BEFF7
:104BE00014E06130710591F2A7CF80E189BD82E1C7
:104BF00089BD09B400FEFDCF8091D8008F7D8093E0
:104C0000D8008091E00082608093E0008091E00015
:104C100081FDFCCF0895AF92BF92CF92DF92FF92B9
:104C20000F931F93CF93DF936C01EB018A0150D157
:104C3000F82E811123C00115110539F0F80180818A
:104C40009181C81BD90BC80ED91EB12CA12C20975D
:104C5000A9F08091E80085FD21C08091E8008E7761
:104C60008093E80001151105A1F0F8018081918180
:104C7000A80EB91EB182A08285E0F82E8F2DDF919B
:104C8000CF911F910F91FF90DF90CF90BF90AF9089
:104C900008951ED18823D9F2F82EF0CFF601819124
:104CA0006F018093F1002197FFEFAF1ABF0ACFCFBA
:104CB000FC01809166039091670386179707A0F027
:104CC0006115710529F49091E8009E779093E800B2
:104CD00090E06115710551F4911108C08091E800D0
:104CE00082FF34C080E00895BC01F2CF80915F0361
:104CF0008823C1F18530C1F18091E80083FD30C087
:104D00008091E80082FDEACF8091E80080FFE1CF4A
:104D10008091F3002091F200382F6115710519F090
:104D20002830310558F091E02830310509F090E045
:104D30002091E8002E772093E800CBCF81918093DB
:104D4000F100615071092F5F3F4FE7CF80915F0302
:104D5000882341F0853041F08091E80083FFBECF89
:104D600081E0089582E0089583E00895FC01809138
:104D700066039091670386179707A0F06115710588
:104D800029F48091E8008E778093E80090E0611527
:104D9000710551F4911108C08091E80082FF35C07F
:104DA00080E00895BC01F2CF80915F038823C9F1B0
:104DB0008530C9F18091E80083FD31C08091E80021
:104DC00082FDEACF8091E80080FFE1CF8091F3007F
:104DD0002091F200382F6115710519F02830310546
:104DE00058F091E02830310509F090E08091E8001A
:104DF0008E778093E800CBCF84918093F100319639
:104E0000615071092F5F3F4FE6CF80915F03882388
:104E100041F0853041F08091E80083FFBDCF81E013
:104E2000089582E0089583E00895982F973028F040
:104E30008F708093E90081E008959093E900242F1A
:104E4000762F50E0981731F07091EC002091ED0032
:104E50005091F00021FD02C09F5FE8CF3091EB0040
:104E60003E7F3093EB003091ED003D7F3093ED00BD
:104E70003091EB0031603093EB007093EC002093A5
:104E8000ED005093F0002091EE0027FDE5CF80E08B
:104E900008958091600387FF13C08091E80082FF2E
:104EA00006C08091E8008B778093E80004C0809171
:104EB0005F038111F2CF089580915F038823D9F3B6
:104EC0008091E80080FFF8CF8091E8008E77ECCFEA
:104ED0002091E4003091E50095E6A9012091EC00D5
:104EE000822F817020FF06C08091E80080FF06C0FD
:104EF00080E008952091E80022FD1AC080915F03B0
:104F0000882389F0853089F08091EB0085FD0FC002
:104F10002091E4003091E50042175307F9F29150D7
:104F2000E1F684E0089582E0089583E0089581E049
:104F3000089567D06ED0E0EEF0E0808181608083DC
:104F4000E8EDF0E080818F77808319BCA7EDB0E0B9
:104F50008C918E7F8C9380818F7E808310925E03F4
:104F600008950F931F93CF93DF934BD052D0C8ED8A
:104F7000D0E088818F778883888180688883888162
:104F80008F7D888319BC10925F0310925B0310928F
:104F90005D0310925C0300EE10E0F80180818B7FCE
:104FA000808388818160888342E060E080E03DDF2B
:104FB000E1EEF0E080818E7F8083E2EEF0E08081A0
:104FC00081608083808188608083F80180818E7F0A
:104FD0008083888180618883DF91CF911F910F91B9
:104FE0000895E8EDF0E080818F7E8083E7EDF0E0CA
:104FF00080818160808384E082BF81E080935E0352
:10500000B0CFE8EDF0E080818E7F80831092E200E7
:1050100008951092DA001092E10008951F920F9205
:105020000FB60F9211242F933F934F935F936F937B
:105030007F938F939F93AF93BF93EF93FF93809151
:10504000E10082FF0AC08091E20082FF06C08091E9
:10505000E1008B7F8093E1002DD28091DA0080FF08
:1050600018C08091D80080FF14C08091DA008E7F34
:105070008093DA008091D90080FF91C080E189BDE2
:1050800082E189BD09B400FEFDCF81E080935F031A
:1050900015DC8091E10080FF18C08091E20080FF64
:1050A00014C08091E2008E7F8093E2008091E20044
:1050B00080618093E2008091D80080628093D80064
:1050C00019BC85E080935F030BDC8091E10084FFD5
:1050D0002AC08091E20084FF26C080E189BD82E180
:1050E00089BD89B5982F917080FFFBCF8091D80042
:1050F0008F7D8093D8008091E1008F7E8093E100C6
:105100008091E2008F7E8093E2008091E2008160D6
:105110008093E20080915B03882309F445C084E01A
:1051200080935F03E4DB8091E10083FF27C08091DF
:10513000E20083FF23C08091E100877F8093E1003C
:1051400082E080935F0310925B038091E1008E7F89
:105150008093E1008091E2008E7F8093E200809155
:10516000E20080618093E20042E060E080E05DDE8A
:105170008091F00088608093F000AFDBFF91EF91A9
:10518000BF91AF919F918F917F916F915F914F915F
:105190003F912F910F900FBE0F901F90189519BC43
:1051A00010925F0397DB75CF8091E30087FD93E05A
:1051B00090935F03B7CF1F920F920FB60F921124F7
:1051C0002F933F934F935F936F937F938F939F930F
:1051D000AF93BF93CF93DF93EF93FF93D091E90009
:1051E000DF708091EC00C82FC17080FDC0E8109284
:1051F000E9008091F000877F8093F00078941ED0C2
:105200001092E9008091F00088608093F000CD2B2F
:10521000CF70C093E900FF91EF91DF91CF91BF91E3
:10522000AF919F918F917F916F915F914F913F913E
:105230002F910F900FBE0F901F901895AAE2B0E02B
:10524000E3E2F9E2B0C180E693E02091F100FC01D5
:105250002193CF01F3E088369F07B9F762DB809195
:10526000E80083FF16C180916003909161039A303A
:1052700008F00FC1E92FF0E0ED57F44D7FC1803801
:1052800099F0823809F005C1809164038F708730EE
:1052900008F0FFC08093E9008091EB0085FB882730
:1052A00080F91092E90006C080915C0390915D0343
:1052B000911182609091E800977F9093E80080932D
:1052C000F1001092F1008091E8008E77DFC0882312
:1052D00009F4CDC0823009F0DCC0809162038111F5
:1052E000D0C0809164038F702FEF280F263008F014
:1052F000D0C08093E9002091EB0020FFC2C0933022
:1053000031F48091EB0080628093EB00BAC0909101
:10531000EB0090619093EB0021E030E001C0220FA0
:105320008A95EAF72093EA001092EA008091EB0058
:105330008860EACF8111ADC0109162031F77809120
:10534000E3008078812B8093E3008091E800877FE1
:105350008093E8009EDD8091E80080FFFCCF809183
:10536000E30080688093E30082E0111183E0809382
:105370005F038FC08058823008F08BC08091620339
:10538000909163038C3D23E0920799F583E08A8333
:105390008AE289834FB7F894DE01139620E03EE05D
:1053A00051E2E32FF0E050935700E49120FF03C057
:1053B000E295EF703F5FEF708E2F90E0EA30B8F02B
:1053C000C7968D939D932F5F243159F74FBF8091DE
:1053D000E800877F8093E8006AE270E0CE010196E2
:1053E00067DC8091E8008B778093E80052C0C0961C
:1053F000E8CF6091640370916503AE014F5F5F4F2A
:105400007ADBBC01892B09F444C09091E800977FB6
:105410009093E80089819A81A9DCE3CF8038C9F5AF
:105420008091E800877F8093E80080915B03809300
:10543000F10049CF81112DC090916203923048F55F
:105440008091E800877F8093E80090935B0321DDE3
:1054500080915B03882311F084E005C08091E30014
:1054600087FDFACF81E080935F034ADA12C0809112
:105470006203813071F481E0933009F080E0809321
:105480005D031092E9008091E800877F8093E80037
:1054900000DD8091E80083FF0AC08091E800877FEB
:1054A0008093E8008091EB0080628093EB00AA96E5
:1054B000E3E095C00895CF9380915F03882399F02E
:1054C000C091E900CF709091EC00892F817090FD20
:1054D00080E8C82B1092E9008091E80083FDAEDEE1
:1054E000CF70C093E900CF910895AA1BBB1B51E177
:1054F00007C0AA1FBB1FA617B70710F0A61BB70B44
:10550000881F991F5A95A9F780959095BC01CD01E8
:10551000089597FB072E16F4009406D077FD08D067
:10552000E4DF07FC05D03EF4909581959F4F0895E8
:10553000709561957F4F0895A1E21A2EAA1BBB1B9F
:10554000FD010DC0AA1FBB1FEE1FFF1FA217B3074F
:10555000E407F50720F0A21BB30BE40BF50B661F65
:10556000771F881F991F1A9469F760957095809529
:1055700090959B01AC01BD01CF010895EE0FFF1F77
:105580000590F491E02D09942F923F924F925F92F3
:105590006F927F928F929F92AF92BF92CF92DF9243
:1055A000EF92FF920F931F93CF93DF93CDB7DEB7A8
:1055B000CA1BDB0B0FB6F894DEBF0FBECDBF09943C
:1055C0002A88398848885F846E847D848C849B8493
:1055D000AA84B984C884DF80EE80FD800C811B81A1
:1055E000AA81B981CE0FD11D0FB6F894DEBF0FBED0
:1055F000CDBFED010895FB01DC0104C08D91019048
:10560000801921F441505040C8F7881B990B089528
:10561000FB01DC0102C001900D9241505040D8F7CF
:105620000895F999FECF92BD81BDF89A992780B56A
:105630000895A8E1B0E042E050E020C0262FF9999B
:10564000FECF92BD81BDF89A019700B4021639F0E1
:105650001FBA20BD0FB6F894FA9AF99A0FBE0895B2
:105660000396272FECDFEADF252FE9DF242FE7CF92
:105670000196272FE4DFE2CFDC01CB01FC01F99991
:10568000FECF06C0F2BDE1BDF89A319600B40D928E
:1056900041505040B8F70895F894FFCF770A770A41
:1056A000AD0AAD0A0B0B270B9F0A9F0A2B0B940B1D
:1056B000A00BA00B3019A0193819021906193C19B2
:1056C0000A1940194C19161999191A1950191E1945
:1056D00054197C1922195819831928195E19661949
:1056E0000E194419121948192C19621972198C19BA
:1056F0009719FC183419A7197A1E801E6A1E741E89
:10570000861E8C1E921E3F296729492A6729492A2D
:0A5710009A29BA29492A0E2A1A2AFA
:10571A000000000000000000560500004C050000D3
:10572A0000000000000000006D0500006305000095
:10573A000000000000000000D0050000000000008A
:10574A000000000000000000F4057A0500000000D7
:10575A0000000000000000000D060000000000002C
:10576A00FF009402B40201AF00280850011E0A1477
:10577A00010100000100A0214A24452440243B24C1
:10578A00E200E900EA00B500B600B700CD008301E7
:10579A00CC008A01920194012102230224022502EB
:1057AA00260227022A02B300B4006F0070009F018C
:1057BA00CB019F02A002818283E200E900EA00B5E0
:1057CA0000B600B700CD008301CC008A0192019493
:1057DA00012102230224022502260227022A02B3F9
:1057EA0000B4006F0070009F01CB019F02A00281EC
:0257FA008283A8
:00000001FF
